{
	"contracts/AllocationStaking.sol": {
		"AllocationStaking": {
			"abi": [
				{
					"inputs": [
						{
							"internalType": "address",
							"name": "target",
							"type": "address"
						}
					],
					"name": "AddressEmptyCode",
					"type": "error"
				},
				{
					"inputs": [
						{
							"internalType": "address",
							"name": "account",
							"type": "address"
						}
					],
					"name": "AddressInsufficientBalance",
					"type": "error"
				},
				{
					"inputs": [],
					"name": "FailedInnerCall",
					"type": "error"
				},
				{
					"inputs": [],
					"name": "InvalidInitialization",
					"type": "error"
				},
				{
					"inputs": [],
					"name": "NotInitializing",
					"type": "error"
				},
				{
					"inputs": [
						{
							"internalType": "address",
							"name": "owner",
							"type": "address"
						}
					],
					"name": "OwnableInvalidOwner",
					"type": "error"
				},
				{
					"inputs": [
						{
							"internalType": "address",
							"name": "account",
							"type": "address"
						}
					],
					"name": "OwnableUnauthorizedAccount",
					"type": "error"
				},
				{
					"inputs": [
						{
							"internalType": "address",
							"name": "token",
							"type": "address"
						}
					],
					"name": "SafeERC20FailedOperation",
					"type": "error"
				},
				{
					"anonymous": false,
					"inputs": [
						{
							"indexed": true,
							"internalType": "address",
							"name": "user",
							"type": "address"
						},
						{
							"indexed": true,
							"internalType": "uint256",
							"name": "pid",
							"type": "uint256"
						},
						{
							"indexed": false,
							"internalType": "uint256",
							"name": "amountAdded",
							"type": "uint256"
						},
						{
							"indexed": false,
							"internalType": "uint256",
							"name": "totalDeposited",
							"type": "uint256"
						}
					],
					"name": "CompoundedEarnings",
					"type": "event"
				},
				{
					"anonymous": false,
					"inputs": [
						{
							"indexed": true,
							"internalType": "address",
							"name": "user",
							"type": "address"
						},
						{
							"indexed": true,
							"internalType": "uint256",
							"name": "pid",
							"type": "uint256"
						},
						{
							"indexed": false,
							"internalType": "uint256",
							"name": "amount",
							"type": "uint256"
						}
					],
					"name": "Deposit",
					"type": "event"
				},
				{
					"anonymous": false,
					"inputs": [
						{
							"indexed": true,
							"internalType": "address",
							"name": "user",
							"type": "address"
						},
						{
							"indexed": true,
							"internalType": "uint256",
							"name": "pid",
							"type": "uint256"
						},
						{
							"indexed": false,
							"internalType": "uint256",
							"name": "amount",
							"type": "uint256"
						}
					],
					"name": "EmergencyWithdraw",
					"type": "event"
				},
				{
					"anonymous": false,
					"inputs": [
						{
							"indexed": false,
							"internalType": "uint64",
							"name": "version",
							"type": "uint64"
						}
					],
					"name": "Initialized",
					"type": "event"
				},
				{
					"anonymous": false,
					"inputs": [
						{
							"indexed": true,
							"internalType": "address",
							"name": "previousOwner",
							"type": "address"
						},
						{
							"indexed": true,
							"internalType": "address",
							"name": "newOwner",
							"type": "address"
						}
					],
					"name": "OwnershipTransferred",
					"type": "event"
				},
				{
					"anonymous": false,
					"inputs": [
						{
							"indexed": true,
							"internalType": "address",
							"name": "user",
							"type": "address"
						},
						{
							"indexed": true,
							"internalType": "uint256",
							"name": "pid",
							"type": "uint256"
						},
						{
							"indexed": false,
							"internalType": "uint256",
							"name": "amount",
							"type": "uint256"
						}
					],
					"name": "Withdraw",
					"type": "event"
				},
				{
					"inputs": [
						{
							"internalType": "uint256",
							"name": "_allocPoint",
							"type": "uint256"
						},
						{
							"internalType": "contract IERC20",
							"name": "_lpToken",
							"type": "address"
						},
						{
							"internalType": "bool",
							"name": "_withUpdate",
							"type": "bool"
						}
					],
					"name": "add",
					"outputs": [],
					"stateMutability": "nonpayable",
					"type": "function"
				},
				{
					"inputs": [
						{
							"internalType": "uint256",
							"name": "_pid",
							"type": "uint256"
						}
					],
					"name": "compound",
					"outputs": [],
					"stateMutability": "nonpayable",
					"type": "function"
				},
				{
					"inputs": [
						{
							"internalType": "uint256",
							"name": "_pid",
							"type": "uint256"
						},
						{
							"internalType": "uint256",
							"name": "_amount",
							"type": "uint256"
						}
					],
					"name": "deposit",
					"outputs": [],
					"stateMutability": "nonpayable",
					"type": "function"
				},
				{
					"inputs": [
						{
							"internalType": "uint256",
							"name": "_pid",
							"type": "uint256"
						},
						{
							"internalType": "address",
							"name": "_user",
							"type": "address"
						}
					],
					"name": "deposited",
					"outputs": [
						{
							"internalType": "uint256",
							"name": "",
							"type": "uint256"
						}
					],
					"stateMutability": "view",
					"type": "function"
				},
				{
					"inputs": [
						{
							"internalType": "uint256",
							"name": "_pid",
							"type": "uint256"
						}
					],
					"name": "emergencyWithdraw",
					"outputs": [],
					"stateMutability": "nonpayable",
					"type": "function"
				},
				{
					"inputs": [],
					"name": "endTimestamp",
					"outputs": [
						{
							"internalType": "uint256",
							"name": "",
							"type": "uint256"
						}
					],
					"stateMutability": "view",
					"type": "function"
				},
				{
					"inputs": [],
					"name": "erc20",
					"outputs": [
						{
							"internalType": "contract IERC20",
							"name": "",
							"type": "address"
						}
					],
					"stateMutability": "view",
					"type": "function"
				},
				{
					"inputs": [
						{
							"internalType": "uint256",
							"name": "_amount",
							"type": "uint256"
						}
					],
					"name": "fund",
					"outputs": [],
					"stateMutability": "nonpayable",
					"type": "function"
				},
				{
					"inputs": [
						{
							"internalType": "address[]",
							"name": "users",
							"type": "address[]"
						},
						{
							"internalType": "uint256",
							"name": "pid",
							"type": "uint256"
						}
					],
					"name": "getPendingAndDepositedForUsers",
					"outputs": [
						{
							"internalType": "uint256[]",
							"name": "",
							"type": "uint256[]"
						},
						{
							"internalType": "uint256[]",
							"name": "",
							"type": "uint256[]"
						}
					],
					"stateMutability": "view",
					"type": "function"
				},
				{
					"inputs": [
						{
							"internalType": "address",
							"name": "_ownable",
							"type": "address"
						},
						{
							"internalType": "contract IERC20",
							"name": "_erc20",
							"type": "address"
						},
						{
							"internalType": "uint256",
							"name": "_rewardPerSecond",
							"type": "uint256"
						},
						{
							"internalType": "uint256",
							"name": "_startTimestamp",
							"type": "uint256"
						},
						{
							"internalType": "address",
							"name": "_salesFactory",
							"type": "address"
						}
					],
					"name": "initialize",
					"outputs": [],
					"stateMutability": "nonpayable",
					"type": "function"
				},
				{
					"inputs": [],
					"name": "massUpdatePools",
					"outputs": [],
					"stateMutability": "nonpayable",
					"type": "function"
				},
				{
					"inputs": [],
					"name": "owner",
					"outputs": [
						{
							"internalType": "address",
							"name": "",
							"type": "address"
						}
					],
					"stateMutability": "view",
					"type": "function"
				},
				{
					"inputs": [],
					"name": "paidOut",
					"outputs": [
						{
							"internalType": "uint256",
							"name": "",
							"type": "uint256"
						}
					],
					"stateMutability": "view",
					"type": "function"
				},
				{
					"inputs": [
						{
							"internalType": "uint256",
							"name": "_pid",
							"type": "uint256"
						},
						{
							"internalType": "address",
							"name": "_user",
							"type": "address"
						}
					],
					"name": "pending",
					"outputs": [
						{
							"internalType": "uint256",
							"name": "",
							"type": "uint256"
						}
					],
					"stateMutability": "view",
					"type": "function"
				},
				{
					"inputs": [
						{
							"internalType": "uint256",
							"name": "",
							"type": "uint256"
						}
					],
					"name": "poolInfo",
					"outputs": [
						{
							"internalType": "contract IERC20",
							"name": "lpToken",
							"type": "address"
						},
						{
							"internalType": "uint256",
							"name": "allocPoint",
							"type": "uint256"
						},
						{
							"internalType": "uint256",
							"name": "lastRewardTimestamp",
							"type": "uint256"
						},
						{
							"internalType": "uint256",
							"name": "accERC20PerShare",
							"type": "uint256"
						},
						{
							"internalType": "uint256",
							"name": "totalDeposits",
							"type": "uint256"
						}
					],
					"stateMutability": "view",
					"type": "function"
				},
				{
					"inputs": [],
					"name": "poolLength",
					"outputs": [
						{
							"internalType": "uint256",
							"name": "",
							"type": "uint256"
						}
					],
					"stateMutability": "view",
					"type": "function"
				},
				{
					"inputs": [],
					"name": "renounceOwnership",
					"outputs": [],
					"stateMutability": "nonpayable",
					"type": "function"
				},
				{
					"inputs": [],
					"name": "rewardPerSecond",
					"outputs": [
						{
							"internalType": "uint256",
							"name": "",
							"type": "uint256"
						}
					],
					"stateMutability": "view",
					"type": "function"
				},
				{
					"inputs": [],
					"name": "salesFactory",
					"outputs": [
						{
							"internalType": "contract ISalesFactory",
							"name": "",
							"type": "address"
						}
					],
					"stateMutability": "view",
					"type": "function"
				},
				{
					"inputs": [
						{
							"internalType": "uint256",
							"name": "_pid",
							"type": "uint256"
						},
						{
							"internalType": "uint256",
							"name": "_allocPoint",
							"type": "uint256"
						},
						{
							"internalType": "bool",
							"name": "_withUpdate",
							"type": "bool"
						}
					],
					"name": "set",
					"outputs": [],
					"stateMutability": "nonpayable",
					"type": "function"
				},
				{
					"inputs": [
						{
							"internalType": "address",
							"name": "_salesFactory",
							"type": "address"
						}
					],
					"name": "setSalesFactory",
					"outputs": [],
					"stateMutability": "nonpayable",
					"type": "function"
				},
				{
					"inputs": [
						{
							"internalType": "uint256",
							"name": "_pid",
							"type": "uint256"
						},
						{
							"internalType": "address",
							"name": "_user",
							"type": "address"
						},
						{
							"internalType": "uint256",
							"name": "_tokensUnlockTime",
							"type": "uint256"
						}
					],
					"name": "setTokensUnlockTime",
					"outputs": [],
					"stateMutability": "nonpayable",
					"type": "function"
				},
				{
					"inputs": [],
					"name": "startTimestamp",
					"outputs": [
						{
							"internalType": "uint256",
							"name": "",
							"type": "uint256"
						}
					],
					"stateMutability": "view",
					"type": "function"
				},
				{
					"inputs": [],
					"name": "totalAllocPoint",
					"outputs": [
						{
							"internalType": "uint256",
							"name": "",
							"type": "uint256"
						}
					],
					"stateMutability": "view",
					"type": "function"
				},
				{
					"inputs": [],
					"name": "totalPending",
					"outputs": [
						{
							"internalType": "uint256",
							"name": "",
							"type": "uint256"
						}
					],
					"stateMutability": "view",
					"type": "function"
				},
				{
					"inputs": [],
					"name": "totalRewards",
					"outputs": [
						{
							"internalType": "uint256",
							"name": "",
							"type": "uint256"
						}
					],
					"stateMutability": "view",
					"type": "function"
				},
				{
					"inputs": [
						{
							"internalType": "address",
							"name": "newOwner",
							"type": "address"
						}
					],
					"name": "transferOwnership",
					"outputs": [],
					"stateMutability": "nonpayable",
					"type": "function"
				},
				{
					"inputs": [
						{
							"internalType": "uint256",
							"name": "_pid",
							"type": "uint256"
						}
					],
					"name": "updatePool",
					"outputs": [],
					"stateMutability": "nonpayable",
					"type": "function"
				},
				{
					"inputs": [
						{
							"internalType": "uint256",
							"name": "",
							"type": "uint256"
						},
						{
							"internalType": "address",
							"name": "",
							"type": "address"
						}
					],
					"name": "userInfo",
					"outputs": [
						{
							"internalType": "uint256",
							"name": "amount",
							"type": "uint256"
						},
						{
							"internalType": "uint256",
							"name": "rewardDebt",
							"type": "uint256"
						},
						{
							"internalType": "uint256",
							"name": "tokensUnlockTime",
							"type": "uint256"
						}
					],
					"stateMutability": "view",
					"type": "function"
				},
				{
					"inputs": [
						{
							"internalType": "uint256",
							"name": "_pid",
							"type": "uint256"
						},
						{
							"internalType": "uint256",
							"name": "_amount",
							"type": "uint256"
						}
					],
					"name": "withdraw",
					"outputs": [],
					"stateMutability": "nonpayable",
					"type": "function"
				}
			],
			"devdoc": {
				"errors": {
					"AddressEmptyCode(address)": [
						{
							"details": "There's no code at `target` (it is not a contract)."
						}
					],
					"AddressInsufficientBalance(address)": [
						{
							"details": "The ETH balance of the account is not enough to perform the operation."
						}
					],
					"FailedInnerCall()": [
						{
							"details": "A call to an address target failed. The target may have reverted."
						}
					],
					"InvalidInitialization()": [
						{
							"details": "The contract is already initialized."
						}
					],
					"NotInitializing()": [
						{
							"details": "The contract is not initializing."
						}
					],
					"OwnableInvalidOwner(address)": [
						{
							"details": "The owner is not a valid owner account. (eg. `address(0)`)"
						}
					],
					"OwnableUnauthorizedAccount(address)": [
						{
							"details": "The caller account is not authorized to perform an operation."
						}
					],
					"SafeERC20FailedOperation(address)": [
						{
							"details": "An operation with an ERC20 token failed."
						}
					]
				},
				"events": {
					"Initialized(uint64)": {
						"details": "Triggered when the contract has been initialized or reinitialized."
					}
				},
				"kind": "dev",
				"methods": {
					"owner()": {
						"details": "Returns the address of the current owner."
					},
					"renounceOwnership()": {
						"details": "Leaves the contract without owner. It will not be possible to call `onlyOwner` functions. Can only be called by the current owner. NOTE: Renouncing ownership will leave the contract without an owner, thereby disabling any functionality that is only available to the owner."
					},
					"transferOwnership(address)": {
						"details": "Transfers ownership of the contract to a new account (`newOwner`). Can only be called by the current owner."
					}
				},
				"version": 1
			},
			"evm": {
				"assembly": "    /* \"contracts/AllocationStaking.sol\":336:16372  contract AllocationStaking is OwnableUpgradeable {... */\n  mstore(0x40, 0x80)\n  callvalue\n  dup1\n  iszero\n  tag_1\n  jumpi\n  0x00\n  dup1\n  revert\ntag_1:\n  pop\n  dataSize(sub_0)\n  dup1\n  dataOffset(sub_0)\n  0x00\n  codecopy\n  0x00\n  return\nstop\n\nsub_0: assembly {\n        /* \"contracts/AllocationStaking.sol\":336:16372  contract AllocationStaking is OwnableUpgradeable {... */\n      mstore(0x40, 0x80)\n      callvalue\n      dup1\n      iszero\n      tag_1\n      jumpi\n      0x00\n      dup1\n      revert\n    tag_1:\n      pop\n      jumpi(tag_2, lt(calldatasize, 0x04))\n      shr(0xe0, calldataload(0x00))\n      dup1\n      0x785e9e86\n      gt\n      tag_33\n      jumpi\n      dup1\n      0xca1d209d\n      gt\n      tag_34\n      jumpi\n      dup1\n      0xe6fd48bc\n      gt\n      tag_35\n      jumpi\n      dup1\n      0xe6fd48bc\n      eq\n      tag_29\n      jumpi\n      dup1\n      0xed95f07f\n      eq\n      tag_30\n      jumpi\n      dup1\n      0xf2fde38b\n      eq\n      tag_31\n      jumpi\n      dup1\n      0xfcfc1b14\n      eq\n      tag_32\n      jumpi\n      0x00\n      dup1\n      revert\n    tag_35:\n      dup1\n      0xca1d209d\n      eq\n      tag_25\n      jumpi\n      dup1\n      0xe2bbb158\n      eq\n      tag_26\n      jumpi\n      dup1\n      0xe4c75c27\n      eq\n      tag_27\n      jumpi\n      dup1\n      0xe6f04acc\n      eq\n      tag_28\n      jumpi\n      0x00\n      dup1\n      revert\n    tag_34:\n      dup1\n      0x93f1a40b\n      gt\n      tag_36\n      jumpi\n      dup1\n      0x93f1a40b\n      eq\n      tag_21\n      jumpi\n      dup1\n      0xa2383106\n      eq\n      tag_22\n      jumpi\n      dup1\n      0xa85adeab\n      eq\n      tag_23\n      jumpi\n      dup1\n      0xaa5f7e26\n      eq\n      tag_24\n      jumpi\n      0x00\n      dup1\n      revert\n    tag_36:\n      dup1\n      0x785e9e86\n      eq\n      tag_18\n      jumpi\n      dup1\n      0x8da5cb5b\n      eq\n      tag_19\n      jumpi\n      dup1\n      0x8f10369a\n      eq\n      tag_20\n      jumpi\n      0x00\n      dup1\n      revert\n    tag_33:\n      dup1\n      0x441a3e70\n      gt\n      tag_37\n      jumpi\n      dup1\n      0x5c76ca2d\n      gt\n      tag_38\n      jumpi\n      dup1\n      0x5c76ca2d\n      eq\n      tag_14\n      jumpi\n      dup1\n      0x630b5ba1\n      eq\n      tag_15\n      jumpi\n      dup1\n      0x64482f79\n      eq\n      tag_16\n      jumpi\n      dup1\n      0x715018a6\n      eq\n      tag_17\n      jumpi\n      0x00\n      dup1\n      revert\n    tag_38:\n      dup1\n      0x441a3e70\n      eq\n      tag_10\n      jumpi\n      dup1\n      0x51eb05a6\n      eq\n      tag_11\n      jumpi\n      dup1\n      0x5312ea8e\n      eq\n      tag_12\n      jumpi\n      dup1\n      0x57fb25cc\n      eq\n      tag_13\n      jumpi\n      0x00\n      dup1\n      revert\n    tag_37:\n      dup1\n      0x17caf6f1\n      gt\n      tag_39\n      jumpi\n      dup1\n      0x17caf6f1\n      eq\n      tag_6\n      jumpi\n      dup1\n      0x1eaaa045\n      eq\n      tag_7\n      jumpi\n      dup1\n      0x3dfcb861\n      eq\n      tag_8\n      jumpi\n      dup1\n      0x3f90916a\n      eq\n      tag_9\n      jumpi\n      0x00\n      dup1\n      revert\n    tag_39:\n      dup1\n      0x081e3eda\n      eq\n      tag_3\n      jumpi\n      dup1\n      0x0e15561a\n      eq\n      tag_4\n      jumpi\n      dup1\n      0x1526fe27\n      eq\n      tag_5\n      jumpi\n    tag_2:\n      0x00\n      dup1\n      revert\n        /* \"contracts/AllocationStaking.sol\":5527:5620  function poolLength() external view returns (uint256) {... */\n    tag_3:\n        /* \"contracts/AllocationStaking.sol\":5598:5606  poolInfo */\n      0x05\n        /* \"contracts/AllocationStaking.sol\":5598:5613  poolInfo.length */\n      sload\n        /* \"contracts/AllocationStaking.sol\":5527:5620  function poolLength() external view returns (uint256) {... */\n    tag_40:\n      mload(0x40)\n        /* \"#utility.yul\":160:185   */\n      swap1\n      dup2\n      mstore\n        /* \"#utility.yul\":148:150   */\n      0x20\n        /* \"#utility.yul\":133:151   */\n      add\n        /* \"contracts/AllocationStaking.sol\":5527:5620  function poolLength() external view returns (uint256) {... */\n    tag_42:\n      mload(0x40)\n      dup1\n      swap2\n      sub\n      swap1\n      return\n        /* \"contracts/AllocationStaking.sol\":3200:3227  uint256 public totalRewards */\n    tag_4:\n      tag_40\n      sload(0x03)\n      dup2\n      jump\n        /* \"contracts/AllocationStaking.sol\":3390:3416  PoolInfo[] public poolInfo */\n    tag_5:\n      tag_47\n      tag_48\n      calldatasize\n      0x04\n      tag_49\n      jump\t// in\n    tag_48:\n      tag_50\n      jump\t// in\n    tag_47:\n      0x40\n      dup1\n      mload\n      sub(shl(0xa0, 0x01), 0x01)\n        /* \"#utility.yul\":672:704   */\n      swap1\n      swap7\n      and\n        /* \"#utility.yul\":654:705   */\n      dup7\n      mstore\n        /* \"#utility.yul\":736:738   */\n      0x20\n        /* \"#utility.yul\":721:739   */\n      dup7\n      add\n        /* \"#utility.yul\":714:748   */\n      swap5\n      swap1\n      swap5\n      mstore\n        /* \"#utility.yul\":764:782   */\n      swap3\n      dup5\n      add\n        /* \"#utility.yul\":757:791   */\n      swap2\n      swap1\n      swap2\n      mstore\n        /* \"#utility.yul\":822:824   */\n      0x60\n        /* \"#utility.yul\":807:825   */\n      dup4\n      add\n        /* \"#utility.yul\":800:834   */\n      mstore\n        /* \"#utility.yul\":865:868   */\n      0x80\n        /* \"#utility.yul\":850:869   */\n      dup3\n      add\n        /* \"#utility.yul\":843:878   */\n      mstore\n        /* \"#utility.yul\":641:644   */\n      0xa0\n        /* \"#utility.yul\":626:645   */\n      add\n        /* \"contracts/AllocationStaking.sol\":3390:3416  PoolInfo[] public poolInfo */\n      tag_42\n        /* \"#utility.yul\":381:884   */\n      jump\n        /* \"contracts/AllocationStaking.sol\":3733:3763  uint256 public totalAllocPoint */\n    tag_6:\n      tag_40\n      sload(0x07)\n      dup2\n      jump\n        /* \"contracts/AllocationStaking.sol\":6325:6919  function add(uint256 _allocPoint, IERC20 _lpToken, bool _withUpdate) public onlyOwner {... */\n    tag_7:\n      tag_56\n      tag_57\n      calldatasize\n      0x04\n      tag_58\n      jump\t// in\n    tag_57:\n      tag_59\n      jump\t// in\n    tag_56:\n      stop\n        /* \"contracts/AllocationStaking.sol\":5322:5495  function setSalesFactory(address _salesFactory) external onlyOwner {... */\n    tag_8:\n      tag_56\n      tag_61\n      calldatasize\n      0x04\n      tag_62\n      jump\t// in\n    tag_61:\n      tag_63\n      jump\t// in\n        /* \"contracts/AllocationStaking.sol\":9102:9425  function totalPending() external view returns (uint256) {... */\n    tag_9:\n      tag_40\n      tag_65\n      jump\t// in\n        /* \"contracts/AllocationStaking.sol\":12610:13823  function withdraw(uint256 _pid, uint256 _amount) public {... */\n    tag_10:\n      tag_56\n      tag_68\n      calldatasize\n      0x04\n      tag_69\n      jump\t// in\n    tag_68:\n      tag_70\n      jump\t// in\n        /* \"contracts/AllocationStaking.sol\":10425:11316  function updatePool(uint256 _pid) public {... */\n    tag_11:\n      tag_56\n      tag_72\n      calldatasize\n      0x04\n      tag_49\n      jump\t// in\n    tag_72:\n      tag_73\n      jump\t// in\n        /* \"contracts/AllocationStaking.sol\":14779:15482  function emergencyWithdraw(uint256 _pid) public {... */\n    tag_12:\n      tag_56\n      tag_75\n      calldatasize\n      0x04\n      tag_49\n      jump\t// in\n    tag_75:\n      tag_76\n      jump\t// in\n        /* \"contracts/AllocationStaking.sol\":4652:5142  function initialize(... */\n    tag_13:\n      tag_56\n      tag_78\n      calldatasize\n      0x04\n      tag_79\n      jump\t// in\n    tag_78:\n      tag_80\n      jump\t// in\n        /* \"contracts/AllocationStaking.sol\":2999:3021  uint256 public paidOut */\n    tag_14:\n      tag_40\n      sload(0x01)\n      dup2\n      jump\n        /* \"contracts/AllocationStaking.sol\":9565:9740  function massUpdatePools() public {... */\n    tag_15:\n      tag_56\n      tag_85\n      jump\t// in\n        /* \"contracts/AllocationStaking.sol\":7084:7382  function set(uint256 _pid, uint256 _allocPoint, bool _withUpdate) public onlyOwner {... */\n    tag_16:\n      tag_56\n      tag_87\n      calldatasize\n      0x04\n      tag_88\n      jump\t// in\n    tag_87:\n      tag_89\n      jump\t// in\n        /* \"@openzeppelin/contracts-upgradeable/access/OwnableUpgradeable.sol\":3155:3256  function renounceOwnership() public virtual onlyOwner {... */\n    tag_17:\n      tag_56\n      tag_91\n      jump\t// in\n        /* \"contracts/AllocationStaking.sol\":2877:2896  IERC20 public erc20 */\n    tag_18:\n      sload(0x00)\n      tag_92\n      swap1\n      sub(shl(0xa0, 0x01), 0x01)\n      and\n      dup2\n      jump\n    tag_92:\n      mload(0x40)\n      sub(shl(0xa0, 0x01), 0x01)\n        /* \"#utility.yul\":3563:3595   */\n      swap1\n      swap2\n      and\n        /* \"#utility.yul\":3545:3596   */\n      dup2\n      mstore\n        /* \"#utility.yul\":3533:3535   */\n      0x20\n        /* \"#utility.yul\":3518:3536   */\n      add\n        /* \"contracts/AllocationStaking.sol\":2877:2896  IERC20 public erc20 */\n      tag_42\n        /* \"#utility.yul\":3385:3602   */\n      jump\n        /* \"@openzeppelin/contracts-upgradeable/access/OwnableUpgradeable.sol\":2441:2585  function owner() public view virtual returns (address) {... */\n    tag_19:\n        /* \"@openzeppelin/contracts-upgradeable/access/OwnableUpgradeable.sol\":1313:1335  OwnableStorageLocation */\n      0x9016d09d72d40fdae2fd8ceac6b6234c7706214fd39c1cd1e609a0528c199300\n        /* \"@openzeppelin/contracts-upgradeable/access/OwnableUpgradeable.sol\":2570:2578  $._owner */\n      sload\n      sub(shl(0xa0, 0x01), 0x01)\n      and\n        /* \"@openzeppelin/contracts-upgradeable/access/OwnableUpgradeable.sol\":2441:2585  function owner() public view virtual returns (address) {... */\n      jump(tag_92)\n        /* \"contracts/AllocationStaking.sol\":3099:3129  uint256 public rewardPerSecond */\n    tag_20:\n      tag_40\n      sload(0x02)\n      dup2\n      jump\n        /* \"contracts/AllocationStaking.sol\":3513:3577  mapping(uint256 => mapping(address => UserInfo)) public userInfo */\n    tag_21:\n      tag_103\n      tag_104\n      calldatasize\n      0x04\n      tag_105\n      jump\t// in\n    tag_104:\n      0x06\n      0x20\n      swap1\n      dup2\n      mstore\n      0x00\n      swap3\n      dup4\n      mstore\n      0x40\n      dup1\n      dup5\n      keccak256\n      swap1\n      swap2\n      mstore\n      swap1\n      dup3\n      mstore\n      swap1\n      keccak256\n      dup1\n      sload\n      0x01\n      dup3\n      add\n      sload\n      0x02\n      swap1\n      swap3\n      add\n      sload\n      swap1\n      swap2\n      swap1\n      dup4\n      jump\n    tag_103:\n      0x40\n      dup1\n      mload\n        /* \"#utility.yul\":4345:4370   */\n      swap4\n      dup5\n      mstore\n        /* \"#utility.yul\":4401:4403   */\n      0x20\n        /* \"#utility.yul\":4386:4404   */\n      dup5\n      add\n        /* \"#utility.yul\":4379:4413   */\n      swap3\n      swap1\n      swap3\n      mstore\n        /* \"#utility.yul\":4429:4447   */\n      swap1\n      dup3\n      add\n        /* \"#utility.yul\":4422:4456   */\n      mstore\n        /* \"#utility.yul\":4333:4335   */\n      0x60\n        /* \"#utility.yul\":4318:4336   */\n      add\n        /* \"contracts/AllocationStaking.sol\":3513:3577  mapping(uint256 => mapping(address => UserInfo)) public userInfo */\n      tag_42\n        /* \"#utility.yul\":4143:4462   */\n      jump\n        /* \"contracts/AllocationStaking.sol\":7441:7609  function deposited(uint256 _pid, address _user) public view returns (uint256) {... */\n    tag_22:\n      tag_40\n      tag_110\n      calldatasize\n      0x04\n      tag_105\n      jump\t// in\n    tag_110:\n      tag_111\n      jump\t// in\n        /* \"contracts/AllocationStaking.sol\":3941:3968  uint256 public endTimestamp */\n    tag_23:\n      tag_40\n      sload(0x09)\n      dup2\n      jump\n        /* \"contracts/AllocationStaking.sol\":13907:14654  function compound(uint256 _pid) public {... */\n    tag_24:\n      tag_56\n      tag_117\n      calldatasize\n      0x04\n      tag_49\n      jump\t// in\n    tag_117:\n      tag_118\n      jump\t// in\n        /* \"contracts/AllocationStaking.sol\":5706:6019  function fund(uint256 _amount) public {... */\n    tag_25:\n      tag_56\n      tag_120\n      calldatasize\n      0x04\n      tag_49\n      jump\t// in\n    tag_120:\n      tag_121\n      jump\t// in\n        /* \"contracts/AllocationStaking.sol\":11427:12567  function deposit(uint256 _pid, uint256 _amount) public {... */\n    tag_26:\n      tag_56\n      tag_123\n      calldatasize\n      0x04\n      tag_69\n      jump\t// in\n    tag_123:\n      tag_124\n      jump\t// in\n        /* \"contracts/AllocationStaking.sol\":7701:8574  function pending(uint256 _pid, address _user) public view returns (uint256) {... */\n    tag_27:\n      tag_40\n      tag_126\n      calldatasize\n      0x04\n      tag_105\n      jump\t// in\n    tag_126:\n      tag_127\n      jump\t// in\n        /* \"contracts/AllocationStaking.sol\":9746:10282  function setTokensUnlockTime(uint256 _pid, address _user, uint256 _tokensUnlockTime) external onlyVerifiedSales {... */\n    tag_28:\n      tag_56\n      tag_130\n      calldatasize\n      0x04\n      tag_131\n      jump\t// in\n    tag_130:\n      tag_132\n      jump\t// in\n        /* \"contracts/AllocationStaking.sol\":3839:3868  uint256 public startTimestamp */\n    tag_29:\n      tag_40\n      sload(0x08)\n      dup2\n      jump\n        /* \"contracts/AllocationStaking.sol\":3304:3337  ISalesFactory public salesFactory */\n    tag_30:\n      sload(0x04)\n      tag_92\n      swap1\n      sub(shl(0xa0, 0x01), 0x01)\n      and\n      dup2\n      jump\n        /* \"@openzeppelin/contracts-upgradeable/access/OwnableUpgradeable.sol\":3405:3620  function transferOwnership(address newOwner) public virtual onlyOwner {... */\n    tag_31:\n      tag_56\n      tag_141\n      calldatasize\n      0x04\n      tag_62\n      jump\t// in\n    tag_141:\n      tag_142\n      jump\t// in\n        /* \"contracts/AllocationStaking.sol\":15820:16368  function getPendingAndDepositedForUsers(address [] memory users, uint pid)... */\n    tag_32:\n      tag_143\n      tag_144\n      calldatasize\n      0x04\n      tag_145\n      jump\t// in\n    tag_144:\n      tag_146\n      jump\t// in\n    tag_143:\n      mload(0x40)\n      tag_42\n      swap3\n      swap2\n      swap1\n      tag_148\n      jump\t// in\n        /* \"contracts/AllocationStaking.sol\":3390:3416  PoolInfo[] public poolInfo */\n    tag_50:\n      0x05\n      dup2\n      dup2\n      sload\n      dup2\n      lt\n      tag_150\n      jumpi\n      0x00\n      dup1\n      revert\n    tag_150:\n      0x00\n      swap2\n      dup3\n      mstore\n      0x20\n      swap1\n      swap2\n      keccak256\n      0x05\n      swap1\n      swap2\n      mul\n      add\n      dup1\n      sload\n      0x01\n      dup3\n      add\n      sload\n      0x02\n      dup4\n      add\n      sload\n      0x03\n      dup5\n      add\n      sload\n      0x04\n      swap1\n      swap5\n      add\n      sload\n      sub(shl(0xa0, 0x01), 0x01)\n      swap1\n      swap4\n      and\n      swap5\n      pop\n      swap1\n      swap3\n      swap1\n      swap2\n      dup6\n      jump\t// out\n        /* \"contracts/AllocationStaking.sol\":6325:6919  function add(uint256 _allocPoint, IERC20 _lpToken, bool _withUpdate) public onlyOwner {... */\n    tag_59:\n        /* \"@openzeppelin/contracts-upgradeable/access/OwnableUpgradeable.sol\":2334:2347  _checkOwner() */\n      tag_153\n        /* \"@openzeppelin/contracts-upgradeable/access/OwnableUpgradeable.sol\":2334:2345  _checkOwner */\n      tag_154\n        /* \"@openzeppelin/contracts-upgradeable/access/OwnableUpgradeable.sol\":2334:2347  _checkOwner() */\n      jump\t// in\n    tag_153:\n        /* \"contracts/AllocationStaking.sol\":6425:6436  _withUpdate */\n      dup1\n        /* \"contracts/AllocationStaking.sol\":6421:6480  if (_withUpdate) {... */\n      iszero\n      tag_157\n      jumpi\n        /* \"contracts/AllocationStaking.sol\":6452:6469  massUpdatePools() */\n      tag_157\n        /* \"contracts/AllocationStaking.sol\":6452:6467  massUpdatePools */\n      tag_85\n        /* \"contracts/AllocationStaking.sol\":6452:6469  massUpdatePools() */\n      jump\t// in\n    tag_157:\n        /* \"contracts/AllocationStaking.sol\":6489:6516  uint256 lastRewardTimestamp */\n      0x00\n        /* \"contracts/AllocationStaking.sol\":6537:6551  startTimestamp */\n      sload(0x08)\n        /* \"contracts/AllocationStaking.sol\":6519:6534  block.timestamp */\n      timestamp\n        /* \"contracts/AllocationStaking.sol\":6519:6551  block.timestamp > startTimestamp */\n      gt\n        /* \"contracts/AllocationStaking.sol\":6519:6586  block.timestamp > startTimestamp ? block.timestamp : startTimestamp */\n      tag_158\n      jumpi\n        /* \"contracts/AllocationStaking.sol\":6572:6586  startTimestamp */\n      sload(0x08)\n        /* \"contracts/AllocationStaking.sol\":6519:6586  block.timestamp > startTimestamp ? block.timestamp : startTimestamp */\n      jump(tag_159)\n    tag_158:\n        /* \"contracts/AllocationStaking.sol\":6554:6569  block.timestamp */\n      timestamp\n        /* \"contracts/AllocationStaking.sol\":6519:6586  block.timestamp > startTimestamp ? block.timestamp : startTimestamp */\n    tag_159:\n        /* \"contracts/AllocationStaking.sol\":6614:6629  totalAllocPoint */\n      sload(0x07)\n        /* \"contracts/AllocationStaking.sol\":6489:6586  uint256 lastRewardTimestamp = block.timestamp > startTimestamp ? block.timestamp : startTimestamp */\n      swap1\n      swap2\n      pop\n        /* \"contracts/AllocationStaking.sol\":6614:6646  totalAllocPoint.add(_allocPoint) */\n      tag_160\n      swap1\n        /* \"contracts/AllocationStaking.sol\":6634:6645  _allocPoint */\n      dup6\n        /* \"contracts/AllocationStaking.sol\":6614:6633  totalAllocPoint.add */\n      tag_161\n        /* \"contracts/AllocationStaking.sol\":6614:6646  totalAllocPoint.add(_allocPoint) */\n      jump\t// in\n    tag_160:\n        /* \"contracts/AllocationStaking.sol\":6596:6611  totalAllocPoint */\n      0x07\n        /* \"contracts/AllocationStaking.sol\":6596:6646  totalAllocPoint = totalAllocPoint.add(_allocPoint) */\n      sstore\n        /* \"contracts/AllocationStaking.sol\":6712:6902  PoolInfo({... */\n      0x40\n      dup1\n      mload\n      0xa0\n      dup2\n      add\n      dup3\n      mstore\n      sub(shl(0xa0, 0x01), 0x01)\n      swap5\n      dup6\n      and\n      dup2\n      mstore\n      0x20\n      dup2\n      add\n      swap6\n      dup7\n      mstore\n      swap1\n      dup2\n      add\n      swap2\n      dup3\n      mstore\n      0x00\n      0x60\n      dup3\n      add\n      dup2\n      dup2\n      mstore\n      0x80\n      dup4\n      add\n      dup3\n      dup2\n      mstore\n        /* \"contracts/AllocationStaking.sol\":6685:6693  poolInfo */\n      0x05\n        /* \"contracts/AllocationStaking.sol\":6685:6912  poolInfo.push(... */\n      dup1\n      sload\n      0x01\n      dup2\n      add\n      dup3\n      sstore\n      swap4\n      dup2\n      swap1\n      mstore\n      swap4\n      mload\n      0x036b6384b5eca791c62761152d0c79bb0604c104a5fb6f4eb0703f3154bb3db0\n      swap4\n      swap1\n      swap5\n      mul\n      swap3\n      dup4\n      add\n      dup1\n      sload\n      not(sub(shl(0xa0, 0x01), 0x01))\n      and\n      swap5\n      swap1\n      swap8\n      and\n      swap4\n      swap1\n      swap4\n      or\n      swap1\n      swap6\n      sstore\n      swap5\n      mload\n      0x036b6384b5eca791c62761152d0c79bb0604c104a5fb6f4eb0703f3154bb3db1\n      dup7\n      add\n      sstore\n      swap1\n      mload\n      0x036b6384b5eca791c62761152d0c79bb0604c104a5fb6f4eb0703f3154bb3db2\n      dup6\n      add\n      sstore\n      swap2\n      mload\n      0x036b6384b5eca791c62761152d0c79bb0604c104a5fb6f4eb0703f3154bb3db3\n      dup5\n      add\n      sstore\n      pop\n      mload\n      0x036b6384b5eca791c62761152d0c79bb0604c104a5fb6f4eb0703f3154bb3db4\n      swap1\n      swap2\n      add\n      sstore\n        /* \"contracts/AllocationStaking.sol\":6325:6919  function add(uint256 _allocPoint, IERC20 _lpToken, bool _withUpdate) public onlyOwner {... */\n      jump\t// out\n        /* \"contracts/AllocationStaking.sol\":5322:5495  function setSalesFactory(address _salesFactory) external onlyOwner {... */\n    tag_63:\n        /* \"@openzeppelin/contracts-upgradeable/access/OwnableUpgradeable.sol\":2334:2347  _checkOwner() */\n      tag_164\n        /* \"@openzeppelin/contracts-upgradeable/access/OwnableUpgradeable.sol\":2334:2345  _checkOwner */\n      tag_154\n        /* \"@openzeppelin/contracts-upgradeable/access/OwnableUpgradeable.sol\":2334:2347  _checkOwner() */\n      jump\t// in\n    tag_164:\n      sub(shl(0xa0, 0x01), 0x01)\n        /* \"contracts/AllocationStaking.sol\":5407:5434  _salesFactory != address(0) */\n      dup2\n      and\n        /* \"contracts/AllocationStaking.sol\":5399:5435  require(_salesFactory != address(0)) */\n      tag_166\n      jumpi\n      0x00\n      dup1\n      revert\n    tag_166:\n        /* \"contracts/AllocationStaking.sol\":5445:5457  salesFactory */\n      0x04\n        /* \"contracts/AllocationStaking.sol\":5445:5488  salesFactory = ISalesFactory(_salesFactory) */\n      dup1\n      sload\n      not(sub(shl(0xa0, 0x01), 0x01))\n      and\n      sub(shl(0xa0, 0x01), 0x01)\n      swap3\n      swap1\n      swap3\n      and\n      swap2\n      swap1\n      swap2\n      or\n      swap1\n      sstore\n        /* \"contracts/AllocationStaking.sol\":5322:5495  function setSalesFactory(address _salesFactory) external onlyOwner {... */\n      jump\t// out\n        /* \"contracts/AllocationStaking.sol\":9102:9425  function totalPending() external view returns (uint256) {... */\n    tag_65:\n        /* \"contracts/AllocationStaking.sol\":9149:9156  uint256 */\n      0x00\n        /* \"contracts/AllocationStaking.sol\":9191:9205  startTimestamp */\n      sload(0x08)\n        /* \"contracts/AllocationStaking.sol\":9172:9187  block.timestamp */\n      timestamp\n        /* \"contracts/AllocationStaking.sol\":9172:9205  block.timestamp <= startTimestamp */\n      gt\n        /* \"contracts/AllocationStaking.sol\":9168:9240  if (block.timestamp <= startTimestamp) {... */\n      tag_168\n      jumpi\n      pop\n        /* \"contracts/AllocationStaking.sol\":9228:9229  0 */\n      0x00\n      swap1\n        /* \"contracts/AllocationStaking.sol\":9102:9425  function totalPending() external view returns (uint256) {... */\n      jump\t// out\n        /* \"contracts/AllocationStaking.sol\":9168:9240  if (block.timestamp <= startTimestamp) {... */\n    tag_168:\n        /* \"contracts/AllocationStaking.sol\":9250:9271  uint256 lastTimestamp */\n      0x00\n        /* \"contracts/AllocationStaking.sol\":9292:9304  endTimestamp */\n      sload(0x09)\n        /* \"contracts/AllocationStaking.sol\":9274:9289  block.timestamp */\n      timestamp\n        /* \"contracts/AllocationStaking.sol\":9274:9304  block.timestamp < endTimestamp */\n      lt\n        /* \"contracts/AllocationStaking.sol\":9274:9337  block.timestamp < endTimestamp ? block.timestamp : endTimestamp */\n      tag_169\n      jumpi\n        /* \"contracts/AllocationStaking.sol\":9325:9337  endTimestamp */\n      sload(0x09)\n        /* \"contracts/AllocationStaking.sol\":9274:9337  block.timestamp < endTimestamp ? block.timestamp : endTimestamp */\n      jump(tag_170)\n    tag_169:\n        /* \"contracts/AllocationStaking.sol\":9307:9322  block.timestamp */\n      timestamp\n        /* \"contracts/AllocationStaking.sol\":9274:9337  block.timestamp < endTimestamp ? block.timestamp : endTimestamp */\n    tag_170:\n        /* \"contracts/AllocationStaking.sol\":9250:9337  uint256 lastTimestamp = block.timestamp < endTimestamp ? block.timestamp : endTimestamp */\n      swap1\n      pop\n        /* \"contracts/AllocationStaking.sol\":9354:9418  rewardPerSecond.mul(lastTimestamp - startTimestamp).sub(paidOut) */\n      tag_171\n        /* \"contracts/AllocationStaking.sol\":9410:9417  paidOut */\n      sload(0x01)\n        /* \"contracts/AllocationStaking.sol\":9354:9405  rewardPerSecond.mul(lastTimestamp - startTimestamp) */\n      tag_172\n        /* \"contracts/AllocationStaking.sol\":9390:9404  startTimestamp */\n      sload(0x08)\n        /* \"contracts/AllocationStaking.sol\":9374:9387  lastTimestamp */\n      dup5\n        /* \"contracts/AllocationStaking.sol\":9374:9404  lastTimestamp - startTimestamp */\n      tag_173\n      swap2\n      swap1\n      tag_174\n      jump\t// in\n    tag_173:\n        /* \"contracts/AllocationStaking.sol\":9354:9369  rewardPerSecond */\n      sload(0x02)\n      swap1\n        /* \"contracts/AllocationStaking.sol\":9354:9373  rewardPerSecond.mul */\n      tag_175\n        /* \"contracts/AllocationStaking.sol\":9354:9405  rewardPerSecond.mul(lastTimestamp - startTimestamp) */\n      jump\t// in\n    tag_172:\n        /* \"contracts/AllocationStaking.sol\":9354:9409  rewardPerSecond.mul(lastTimestamp - startTimestamp).sub */\n      swap1\n      tag_176\n        /* \"contracts/AllocationStaking.sol\":9354:9418  rewardPerSecond.mul(lastTimestamp - startTimestamp).sub(paidOut) */\n      jump\t// in\n    tag_171:\n        /* \"contracts/AllocationStaking.sol\":9347:9418  return rewardPerSecond.mul(lastTimestamp - startTimestamp).sub(paidOut) */\n      swap2\n      pop\n      pop\n        /* \"contracts/AllocationStaking.sol\":9102:9425  function totalPending() external view returns (uint256) {... */\n      swap1\n      jump\t// out\n        /* \"contracts/AllocationStaking.sol\":12610:13823  function withdraw(uint256 _pid, uint256 _amount) public {... */\n    tag_70:\n        /* \"contracts/AllocationStaking.sol\":12676:12697  PoolInfo storage pool */\n      0x00\n        /* \"contracts/AllocationStaking.sol\":12700:12708  poolInfo */\n      0x05\n        /* \"contracts/AllocationStaking.sol\":12709:12713  _pid */\n      dup4\n        /* \"contracts/AllocationStaking.sol\":12700:12714  poolInfo[_pid] */\n      dup2\n      sload\n      dup2\n      lt\n      tag_179\n      jumpi\n      tag_179\n      tag_180\n      jump\t// in\n    tag_179:\n      0x00\n      swap2\n      dup3\n      mstore\n      0x20\n      dup1\n      dup4\n      keccak256\n        /* \"contracts/AllocationStaking.sol\":12748:12762  userInfo[_pid] */\n      dup7\n      dup5\n      mstore\n        /* \"contracts/AllocationStaking.sol\":12748:12756  userInfo */\n      0x06\n        /* \"contracts/AllocationStaking.sol\":12748:12762  userInfo[_pid] */\n      dup3\n      mstore\n      0x40\n      dup1\n      dup6\n      keccak256\n        /* \"contracts/AllocationStaking.sol\":12763:12773  msg.sender */\n      caller\n        /* \"contracts/AllocationStaking.sol\":12748:12774  userInfo[_pid][msg.sender] */\n      dup7\n      mstore\n      swap1\n      swap3\n      mstore\n      swap3\n      keccak256\n        /* \"contracts/AllocationStaking.sol\":12845:12866  user.tokensUnlockTime */\n      0x02\n      dup2\n      add\n      sload\n        /* \"contracts/AllocationStaking.sol\":12700:12714  poolInfo[_pid] */\n      0x05\n      swap1\n      swap3\n      mul\n      swap1\n      swap3\n      add\n      swap3\n      pop\n        /* \"contracts/AllocationStaking.sol\":12870:12885  block.timestamp */\n      timestamp\n      lt\n        /* \"contracts/AllocationStaking.sol\":12845:12885  user.tokensUnlockTime <= block.timestamp */\n      iszero\n        /* \"contracts/AllocationStaking.sol\":12837:12939  require(user.tokensUnlockTime <= block.timestamp, \"Last sale you registered for is not finished yet.\") */\n      tag_182\n      jumpi\n      mload(0x40)\n      shl(0xe5, 0x461bcd)\n      dup2\n      mstore\n        /* \"#utility.yul\":7934:7936   */\n      0x20\n        /* \"contracts/AllocationStaking.sol\":12837:12939  require(user.tokensUnlockTime <= block.timestamp, \"Last sale you registered for is not finished yet.\") */\n      0x04\n      dup3\n      add\n        /* \"#utility.yul\":7916:7937   */\n      mstore\n        /* \"#utility.yul\":7973:7975   */\n      0x31\n        /* \"#utility.yul\":7953:7971   */\n      0x24\n      dup3\n      add\n        /* \"#utility.yul\":7946:7976   */\n      mstore\n        /* \"#utility.yul\":8012:8046   */\n      0x4c6173742073616c6520796f75207265676973746572656420666f7220697320\n        /* \"#utility.yul\":7992:8010   */\n      0x44\n      dup3\n      add\n        /* \"#utility.yul\":7985:8047   */\n      mstore\n      shl(0x79, 0x3737ba103334b734b9b432b2103cb2ba17)\n        /* \"#utility.yul\":8063:8081   */\n      0x64\n      dup3\n      add\n        /* \"#utility.yul\":8056:8103   */\n      mstore\n        /* \"#utility.yul\":8120:8139   */\n      0x84\n      add\n        /* \"contracts/AllocationStaking.sol\":12837:12939  require(user.tokensUnlockTime <= block.timestamp, \"Last sale you registered for is not finished yet.\") */\n    tag_183:\n      mload(0x40)\n      dup1\n      swap2\n      sub\n      swap1\n      revert\n    tag_182:\n        /* \"contracts/AllocationStaking.sol\":12957:12968  user.amount */\n      dup1\n      sload\n        /* \"contracts/AllocationStaking.sol\":12957:12979  user.amount >= _amount */\n      dup4\n      gt\n      iszero\n        /* \"contracts/AllocationStaking.sol\":12949:13026  require(user.amount >= _amount, \"withdraw: can't withdraw more than deposit\") */\n      tag_185\n      jumpi\n      mload(0x40)\n      shl(0xe5, 0x461bcd)\n      dup2\n      mstore\n        /* \"#utility.yul\":8352:8354   */\n      0x20\n        /* \"contracts/AllocationStaking.sol\":12949:13026  require(user.amount >= _amount, \"withdraw: can't withdraw more than deposit\") */\n      0x04\n      dup3\n      add\n        /* \"#utility.yul\":8334:8355   */\n      mstore\n        /* \"#utility.yul\":8391:8393   */\n      0x2a\n        /* \"#utility.yul\":8371:8389   */\n      0x24\n      dup3\n      add\n        /* \"#utility.yul\":8364:8394   */\n      mstore\n        /* \"#utility.yul\":8430:8464   */\n      0x77697468647261773a2063616e2774207769746864726177206d6f7265207468\n        /* \"#utility.yul\":8410:8428   */\n      0x44\n      dup3\n      add\n        /* \"#utility.yul\":8403:8465   */\n      mstore\n      shl(0xb2, 0x185b8819195c1bdcda5d)\n        /* \"#utility.yul\":8481:8499   */\n      0x64\n      dup3\n      add\n        /* \"#utility.yul\":8474:8514   */\n      mstore\n        /* \"#utility.yul\":8531:8550   */\n      0x84\n      add\n        /* \"contracts/AllocationStaking.sol\":12949:13026  require(user.amount >= _amount, \"withdraw: can't withdraw more than deposit\") */\n      tag_183\n        /* \"#utility.yul\":8150:8556   */\n      jump\n        /* \"contracts/AllocationStaking.sol\":12949:13026  require(user.amount >= _amount, \"withdraw: can't withdraw more than deposit\") */\n    tag_185:\n        /* \"contracts/AllocationStaking.sol\":13060:13076  updatePool(_pid) */\n      tag_188\n        /* \"contracts/AllocationStaking.sol\":13071:13075  _pid */\n      dup5\n        /* \"contracts/AllocationStaking.sol\":13060:13070  updatePool */\n      tag_73\n        /* \"contracts/AllocationStaking.sol\":13060:13076  updatePool(_pid) */\n      jump\t// in\n    tag_188:\n        /* \"contracts/AllocationStaking.sol\":13128:13149  uint256 pendingAmount */\n      0x00\n        /* \"contracts/AllocationStaking.sol\":13152:13221  user.amount.mul(pool.accERC20PerShare).div(1e36).sub(user.rewardDebt) */\n      tag_189\n        /* \"contracts/AllocationStaking.sol\":13205:13209  user */\n      dup3\n        /* \"contracts/AllocationStaking.sol\":13205:13220  user.rewardDebt */\n      0x01\n      add\n      sload\n        /* \"contracts/AllocationStaking.sol\":13152:13200  user.amount.mul(pool.accERC20PerShare).div(1e36) */\n      tag_172\n      shl(0x24, 0x0c097ce7bc90715b34b9f1)\n        /* \"contracts/AllocationStaking.sol\":13152:13190  user.amount.mul(pool.accERC20PerShare) */\n      tag_191\n        /* \"contracts/AllocationStaking.sol\":13168:13172  pool */\n      dup8\n        /* \"contracts/AllocationStaking.sol\":13168:13189  pool.accERC20PerShare */\n      0x03\n      add\n      sload\n        /* \"contracts/AllocationStaking.sol\":13152:13156  user */\n      dup8\n        /* \"contracts/AllocationStaking.sol\":13152:13163  user.amount */\n      0x00\n      add\n      sload\n        /* \"contracts/AllocationStaking.sol\":13152:13167  user.amount.mul */\n      tag_175\n      swap1\n        /* \"contracts/AllocationStaking.sol\":13152:13190  user.amount.mul(pool.accERC20PerShare) */\n      swap2\n      swap1\n      0xffffffff\n      and\n      jump\t// in\n    tag_191:\n        /* \"contracts/AllocationStaking.sol\":13152:13194  user.amount.mul(pool.accERC20PerShare).div */\n      swap1\n      tag_192\n        /* \"contracts/AllocationStaking.sol\":13152:13200  user.amount.mul(pool.accERC20PerShare).div(1e36) */\n      jump\t// in\n        /* \"contracts/AllocationStaking.sol\":13152:13221  user.amount.mul(pool.accERC20PerShare).div(1e36).sub(user.rewardDebt) */\n    tag_189:\n        /* \"contracts/AllocationStaking.sol\":13128:13221  uint256 pendingAmount = user.amount.mul(pool.accERC20PerShare).div(1e36).sub(user.rewardDebt) */\n      swap1\n      pop\n        /* \"contracts/AllocationStaking.sol\":13275:13315  erc20Transfer(msg.sender, pendingAmount) */\n      tag_193\n        /* \"contracts/AllocationStaking.sol\":13289:13299  msg.sender */\n      caller\n        /* \"contracts/AllocationStaking.sol\":13301:13314  pendingAmount */\n      dup3\n        /* \"contracts/AllocationStaking.sol\":13275:13288  erc20Transfer */\n      tag_194\n        /* \"contracts/AllocationStaking.sol\":13275:13315  erc20Transfer(msg.sender, pendingAmount) */\n      jump\t// in\n    tag_193:\n        /* \"contracts/AllocationStaking.sol\":13339:13350  user.amount */\n      dup2\n      sload\n        /* \"contracts/AllocationStaking.sol\":13339:13363  user.amount.sub(_amount) */\n      tag_195\n      swap1\n        /* \"contracts/AllocationStaking.sol\":13355:13362  _amount */\n      dup6\n        /* \"contracts/AllocationStaking.sol\":13339:13354  user.amount.sub */\n      tag_176\n        /* \"contracts/AllocationStaking.sol\":13339:13363  user.amount.sub(_amount) */\n      jump\t// in\n    tag_195:\n        /* \"contracts/AllocationStaking.sol\":13325:13363  user.amount = user.amount.sub(_amount) */\n      dup1\n      dup4\n      sstore\n        /* \"contracts/AllocationStaking.sol\":13407:13428  pool.accERC20PerShare */\n      0x03\n      dup5\n      add\n      sload\n        /* \"contracts/AllocationStaking.sol\":13391:13439  user.amount.mul(pool.accERC20PerShare).div(1e36) */\n      tag_196\n      swap2\n      shl(0x24, 0x0c097ce7bc90715b34b9f1)\n        /* \"contracts/AllocationStaking.sol\":13434:13438  1e36 */\n      swap2\n        /* \"contracts/AllocationStaking.sol\":13391:13429  user.amount.mul(pool.accERC20PerShare) */\n      tag_191\n      swap2\n        /* \"contracts/AllocationStaking.sol\":13325:13363  user.amount = user.amount.sub(_amount) */\n      swap1\n        /* \"contracts/AllocationStaking.sol\":13391:13406  user.amount.mul */\n      tag_175\n        /* \"contracts/AllocationStaking.sol\":13391:13429  user.amount.mul(pool.accERC20PerShare) */\n      jump\t// in\n        /* \"contracts/AllocationStaking.sol\":13391:13439  user.amount.mul(pool.accERC20PerShare).div(1e36) */\n    tag_196:\n        /* \"contracts/AllocationStaking.sol\":13373:13388  user.rewardDebt */\n      0x01\n      dup4\n      add\n        /* \"contracts/AllocationStaking.sol\":13373:13439  user.rewardDebt = user.amount.mul(pool.accERC20PerShare).div(1e36) */\n      sstore\n        /* \"contracts/AllocationStaking.sol\":13496:13508  pool.lpToken */\n      dup3\n      sload\n        /* \"contracts/AllocationStaking.sol\":13496:13551  pool.lpToken.safeTransfer(address(msg.sender), _amount) */\n      tag_198\n      swap1\n      sub(shl(0xa0, 0x01), 0x01)\n        /* \"contracts/AllocationStaking.sol\":13496:13508  pool.lpToken */\n      and\n        /* \"contracts/AllocationStaking.sol\":13530:13540  msg.sender */\n      caller\n        /* \"contracts/AllocationStaking.sol\":13543:13550  _amount */\n      dup7\n        /* \"contracts/AllocationStaking.sol\":13496:13521  pool.lpToken.safeTransfer */\n      tag_199\n        /* \"contracts/AllocationStaking.sol\":13496:13551  pool.lpToken.safeTransfer(address(msg.sender), _amount) */\n      jump\t// in\n    tag_198:\n        /* \"contracts/AllocationStaking.sol\":13582:13600  pool.totalDeposits */\n      0x04\n      dup4\n      add\n      sload\n        /* \"contracts/AllocationStaking.sol\":13582:13613  pool.totalDeposits.sub(_amount) */\n      tag_200\n      swap1\n        /* \"contracts/AllocationStaking.sol\":13605:13612  _amount */\n      dup6\n        /* \"contracts/AllocationStaking.sol\":13582:13604  pool.totalDeposits.sub */\n      tag_176\n        /* \"contracts/AllocationStaking.sol\":13582:13613  pool.totalDeposits.sub(_amount) */\n      jump\t// in\n    tag_200:\n        /* \"contracts/AllocationStaking.sol\":13561:13579  pool.totalDeposits */\n      0x04\n      dup5\n      add\n        /* \"contracts/AllocationStaking.sol\":13561:13613  pool.totalDeposits = pool.totalDeposits.sub(_amount) */\n      sstore\n        /* \"contracts/AllocationStaking.sol\":13628:13639  _amount > 0 */\n      dup4\n      iszero\n        /* \"contracts/AllocationStaking.sol\":13624:13735  if (_amount > 0) {... */\n      tag_201\n      jumpi\n        /* \"contracts/AllocationStaking.sol\":13723:13724  0 */\n      0x00\n        /* \"contracts/AllocationStaking.sol\":13699:13720  user.tokensUnlockTime */\n      0x02\n      dup4\n      add\n        /* \"contracts/AllocationStaking.sol\":13699:13724  user.tokensUnlockTime = 0 */\n      sstore\n        /* \"contracts/AllocationStaking.sol\":13624:13735  if (_amount > 0) {... */\n    tag_201:\n        /* \"contracts/AllocationStaking.sol\":13781:13816  Withdraw(msg.sender, _pid, _amount) */\n      mload(0x40)\n        /* \"#utility.yul\":160:185   */\n      dup5\n      dup2\n      mstore\n        /* \"contracts/AllocationStaking.sol\":13802:13806  _pid */\n      dup6\n      swap1\n        /* \"contracts/AllocationStaking.sol\":13790:13800  msg.sender */\n      caller\n      swap1\n        /* \"contracts/AllocationStaking.sol\":13781:13816  Withdraw(msg.sender, _pid, _amount) */\n      0xf279e6a1f5e320cca91135676d9cb6e44ca8a08c0b88342bcdb1144f6511b568\n      swap1\n        /* \"#utility.yul\":148:150   */\n      0x20\n        /* \"#utility.yul\":133:151   */\n      add\n        /* \"contracts/AllocationStaking.sol\":13781:13816  Withdraw(msg.sender, _pid, _amount) */\n    tag_202:\n      mload(0x40)\n      dup1\n      swap2\n      sub\n      swap1\n      log3\n        /* \"contracts/AllocationStaking.sol\":12666:13823  {... */\n      pop\n      pop\n      pop\n        /* \"contracts/AllocationStaking.sol\":12610:13823  function withdraw(uint256 _pid, uint256 _amount) public {... */\n      pop\n      pop\n      jump\t// out\n        /* \"contracts/AllocationStaking.sol\":10425:11316  function updatePool(uint256 _pid) public {... */\n    tag_73:\n        /* \"contracts/AllocationStaking.sol\":10476:10497  PoolInfo storage pool */\n      0x00\n        /* \"contracts/AllocationStaking.sol\":10500:10508  poolInfo */\n      0x05\n        /* \"contracts/AllocationStaking.sol\":10509:10513  _pid */\n      dup3\n        /* \"contracts/AllocationStaking.sol\":10500:10514  poolInfo[_pid] */\n      dup2\n      sload\n      dup2\n      lt\n      tag_205\n      jumpi\n      tag_205\n      tag_180\n      jump\t// in\n    tag_205:\n      swap1\n      0x00\n      mstore\n      keccak256(0x00, 0x20)\n      swap1\n      0x05\n      mul\n      add\n        /* \"contracts/AllocationStaking.sol\":10476:10514  PoolInfo storage pool = poolInfo[_pid] */\n      swap1\n      pop\n        /* \"contracts/AllocationStaking.sol\":10525:10546  uint256 lastTimestamp */\n      0x00\n        /* \"contracts/AllocationStaking.sol\":10567:10579  endTimestamp */\n      sload(0x09)\n        /* \"contracts/AllocationStaking.sol\":10549:10564  block.timestamp */\n      timestamp\n        /* \"contracts/AllocationStaking.sol\":10549:10579  block.timestamp < endTimestamp */\n      lt\n        /* \"contracts/AllocationStaking.sol\":10549:10612  block.timestamp < endTimestamp ? block.timestamp : endTimestamp */\n      tag_207\n      jumpi\n        /* \"contracts/AllocationStaking.sol\":10600:10612  endTimestamp */\n      sload(0x09)\n        /* \"contracts/AllocationStaking.sol\":10549:10612  block.timestamp < endTimestamp ? block.timestamp : endTimestamp */\n      jump(tag_208)\n    tag_207:\n        /* \"contracts/AllocationStaking.sol\":10582:10597  block.timestamp */\n      timestamp\n        /* \"contracts/AllocationStaking.sol\":10549:10612  block.timestamp < endTimestamp ? block.timestamp : endTimestamp */\n    tag_208:\n        /* \"contracts/AllocationStaking.sol\":10525:10612  uint256 lastTimestamp = block.timestamp < endTimestamp ? block.timestamp : endTimestamp */\n      swap1\n      pop\n        /* \"contracts/AllocationStaking.sol\":10644:10648  pool */\n      dup2\n        /* \"contracts/AllocationStaking.sol\":10644:10668  pool.lastRewardTimestamp */\n      0x02\n      add\n      sload\n        /* \"contracts/AllocationStaking.sol\":10627:10640  lastTimestamp */\n      dup2\n        /* \"contracts/AllocationStaking.sol\":10627:10668  lastTimestamp <= pool.lastRewardTimestamp */\n      gt\n        /* \"contracts/AllocationStaking.sol\":10623:10735  if (lastTimestamp <= pool.lastRewardTimestamp) {... */\n      tag_209\n      jumpi\n      pop\n        /* \"contracts/AllocationStaking.sol\":10700:10724  pool.lastRewardTimestamp */\n      0x02\n      dup2\n      add\n      sload\n        /* \"contracts/AllocationStaking.sol\":10623:10735  if (lastTimestamp <= pool.lastRewardTimestamp) {... */\n    tag_209:\n        /* \"contracts/AllocationStaking.sol\":10764:10782  pool.totalDeposits */\n      0x04\n      dup3\n      add\n      sload\n        /* \"contracts/AllocationStaking.sol\":10745:10761  uint256 lpSupply */\n      0x00\n        /* \"contracts/AllocationStaking.sol\":10797:10810  lpSupply == 0 */\n      dup2\n      swap1\n      sub\n        /* \"contracts/AllocationStaking.sol\":10793:10897  if (lpSupply == 0) {... */\n      tag_210\n      jumpi\n      pop\n        /* \"contracts/AllocationStaking.sol\":10826:10850  pool.lastRewardTimestamp */\n      0x02\n      swap1\n      swap2\n      add\n        /* \"contracts/AllocationStaking.sol\":10826:10866  pool.lastRewardTimestamp = lastTimestamp */\n      sstore\n      pop\n        /* \"contracts/AllocationStaking.sol\":10425:11316  function updatePool(uint256 _pid) public {... */\n      jump\t// out\n        /* \"contracts/AllocationStaking.sol\":10793:10897  if (lpSupply == 0) {... */\n    tag_210:\n        /* \"contracts/AllocationStaking.sol\":10907:10926  uint256 nrOfSeconds */\n      0x00\n        /* \"contracts/AllocationStaking.sol\":10929:10972  lastTimestamp.sub(pool.lastRewardTimestamp) */\n      tag_211\n        /* \"contracts/AllocationStaking.sol\":10947:10951  pool */\n      dup5\n        /* \"contracts/AllocationStaking.sol\":10947:10971  pool.lastRewardTimestamp */\n      0x02\n      add\n      sload\n        /* \"contracts/AllocationStaking.sol\":10929:10942  lastTimestamp */\n      dup5\n        /* \"contracts/AllocationStaking.sol\":10929:10946  lastTimestamp.sub */\n      tag_176\n      swap1\n        /* \"contracts/AllocationStaking.sol\":10929:10972  lastTimestamp.sub(pool.lastRewardTimestamp) */\n      swap2\n      swap1\n      0xffffffff\n      and\n      jump\t// in\n    tag_211:\n        /* \"contracts/AllocationStaking.sol\":10907:10972  uint256 nrOfSeconds = lastTimestamp.sub(pool.lastRewardTimestamp) */\n      swap1\n      pop\n        /* \"contracts/AllocationStaking.sol\":10982:11001  uint256 erc20Reward */\n      0x00\n        /* \"contracts/AllocationStaking.sol\":11004:11078  nrOfSeconds.mul(rewardPerSecond).mul(pool.allocPoint).div(totalAllocPoint) */\n      tag_212\n        /* \"contracts/AllocationStaking.sol\":11062:11077  totalAllocPoint */\n      sload(0x07)\n        /* \"contracts/AllocationStaking.sol\":11004:11057  nrOfSeconds.mul(rewardPerSecond).mul(pool.allocPoint) */\n      tag_191\n        /* \"contracts/AllocationStaking.sol\":11041:11045  pool */\n      dup8\n        /* \"contracts/AllocationStaking.sol\":11041:11056  pool.allocPoint */\n      0x01\n      add\n      sload\n        /* \"contracts/AllocationStaking.sol\":11004:11036  nrOfSeconds.mul(rewardPerSecond) */\n      tag_214\n        /* \"contracts/AllocationStaking.sol\":11020:11035  rewardPerSecond */\n      sload(0x02)\n        /* \"contracts/AllocationStaking.sol\":11004:11015  nrOfSeconds */\n      dup8\n        /* \"contracts/AllocationStaking.sol\":11004:11019  nrOfSeconds.mul */\n      tag_175\n      swap1\n        /* \"contracts/AllocationStaking.sol\":11004:11036  nrOfSeconds.mul(rewardPerSecond) */\n      swap2\n      swap1\n      0xffffffff\n      and\n      jump\t// in\n    tag_214:\n        /* \"contracts/AllocationStaking.sol\":11004:11040  nrOfSeconds.mul(rewardPerSecond).mul */\n      swap1\n      tag_175\n        /* \"contracts/AllocationStaking.sol\":11004:11057  nrOfSeconds.mul(rewardPerSecond).mul(pool.allocPoint) */\n      jump\t// in\n        /* \"contracts/AllocationStaking.sol\":11004:11078  nrOfSeconds.mul(rewardPerSecond).mul(pool.allocPoint).div(totalAllocPoint) */\n    tag_212:\n        /* \"contracts/AllocationStaking.sol\":10982:11078  uint256 erc20Reward = nrOfSeconds.mul(rewardPerSecond).mul(pool.allocPoint).div(totalAllocPoint) */\n      swap1\n      pop\n        /* \"contracts/AllocationStaking.sol\":11153:11215  pool.accERC20PerShare.add(erc20Reward.mul(1e36).div(lpSupply)) */\n      tag_215\n        /* \"contracts/AllocationStaking.sol\":11179:11214  erc20Reward.mul(1e36).div(lpSupply) */\n      tag_216\n        /* \"contracts/AllocationStaking.sol\":11205:11213  lpSupply */\n      dup5\n        /* \"contracts/AllocationStaking.sol\":11179:11200  erc20Reward.mul(1e36) */\n      tag_191\n        /* \"contracts/AllocationStaking.sol\":10982:11078  uint256 erc20Reward = nrOfSeconds.mul(rewardPerSecond).mul(pool.allocPoint).div(totalAllocPoint) */\n      dup5\n      shl(0x24, 0x0c097ce7bc90715b34b9f1)\n        /* \"contracts/AllocationStaking.sol\":11179:11194  erc20Reward.mul */\n      tag_175\n        /* \"contracts/AllocationStaking.sol\":11179:11200  erc20Reward.mul(1e36) */\n      jump\t// in\n        /* \"contracts/AllocationStaking.sol\":11179:11214  erc20Reward.mul(1e36).div(lpSupply) */\n    tag_216:\n        /* \"contracts/AllocationStaking.sol\":11153:11174  pool.accERC20PerShare */\n      0x03\n      dup8\n      add\n      sload\n      swap1\n        /* \"contracts/AllocationStaking.sol\":11153:11178  pool.accERC20PerShare.add */\n      tag_161\n        /* \"contracts/AllocationStaking.sol\":11153:11215  pool.accERC20PerShare.add(erc20Reward.mul(1e36).div(lpSupply)) */\n      jump\t// in\n    tag_215:\n        /* \"contracts/AllocationStaking.sol\":11129:11150  pool.accERC20PerShare */\n      0x03\n      dup7\n      add\n        /* \"contracts/AllocationStaking.sol\":11129:11215  pool.accERC20PerShare = pool.accERC20PerShare.add(erc20Reward.mul(1e36).div(lpSupply)) */\n      sstore\n      pop\n      pop\n      pop\n        /* \"contracts/AllocationStaking.sol\":11269:11293  pool.lastRewardTimestamp */\n      0x02\n      swap1\n      swap2\n      add\n        /* \"contracts/AllocationStaking.sol\":11269:11309  pool.lastRewardTimestamp = lastTimestamp */\n      sstore\n      pop\n        /* \"contracts/AllocationStaking.sol\":10425:11316  function updatePool(uint256 _pid) public {... */\n      jump\t// out\n        /* \"contracts/AllocationStaking.sol\":14779:15482  function emergencyWithdraw(uint256 _pid) public {... */\n    tag_76:\n        /* \"contracts/AllocationStaking.sol\":14837:14858  PoolInfo storage pool */\n      0x00\n        /* \"contracts/AllocationStaking.sol\":14861:14869  poolInfo */\n      0x05\n        /* \"contracts/AllocationStaking.sol\":14870:14874  _pid */\n      dup3\n        /* \"contracts/AllocationStaking.sol\":14861:14875  poolInfo[_pid] */\n      dup2\n      sload\n      dup2\n      lt\n      tag_220\n      jumpi\n      tag_220\n      tag_180\n      jump\t// in\n    tag_220:\n      0x00\n      swap2\n      dup3\n      mstore\n      0x20\n      dup1\n      dup4\n      keccak256\n        /* \"contracts/AllocationStaking.sol\":14909:14923  userInfo[_pid] */\n      dup6\n      dup5\n      mstore\n        /* \"contracts/AllocationStaking.sol\":14909:14917  userInfo */\n      0x06\n        /* \"contracts/AllocationStaking.sol\":14909:14923  userInfo[_pid] */\n      dup3\n      mstore\n      0x40\n      dup1\n      dup6\n      keccak256\n        /* \"contracts/AllocationStaking.sol\":14924:14934  msg.sender */\n      caller\n        /* \"contracts/AllocationStaking.sol\":14909:14935  userInfo[_pid][msg.sender] */\n      dup7\n      mstore\n      swap1\n      swap3\n      mstore\n      swap3\n      keccak256\n        /* \"contracts/AllocationStaking.sol\":15006:15027  user.tokensUnlockTime */\n      0x02\n      dup2\n      add\n      sload\n        /* \"contracts/AllocationStaking.sol\":14861:14875  poolInfo[_pid] */\n      0x05\n      swap1\n      swap3\n      mul\n      swap1\n      swap3\n      add\n      swap3\n      pop\n        /* \"contracts/AllocationStaking.sol\":15031:15046  block.timestamp */\n      timestamp\n      lt\n        /* \"contracts/AllocationStaking.sol\":15006:15046  user.tokensUnlockTime <= block.timestamp */\n      iszero\n        /* \"contracts/AllocationStaking.sol\":14998:15122  require(user.tokensUnlockTime <= block.timestamp,... */\n      tag_222\n      jumpi\n      mload(0x40)\n      shl(0xe5, 0x461bcd)\n      dup2\n      mstore\n        /* \"#utility.yul\":8763:8765   */\n      0x20\n        /* \"contracts/AllocationStaking.sol\":14998:15122  require(user.tokensUnlockTime <= block.timestamp,... */\n      0x04\n      dup3\n      add\n        /* \"#utility.yul\":8745:8766   */\n      mstore\n        /* \"#utility.yul\":8802:8804   */\n      0x3b\n        /* \"#utility.yul\":8782:8800   */\n      0x24\n      dup3\n      add\n        /* \"#utility.yul\":8775:8805   */\n      mstore\n        /* \"#utility.yul\":8841:8875   */\n      0x456d657267656e637920776974686472617720626c6f636b656420647572696e\n        /* \"#utility.yul\":8821:8839   */\n      0x44\n      dup3\n      add\n        /* \"#utility.yul\":8814:8876   */\n      mstore\n        /* \"#utility.yul\":8912:8941   */\n      0x672073616c6520616e6420636f6f6c646f776e20706572696f642e0000000000\n        /* \"#utility.yul\":8892:8910   */\n      0x64\n      dup3\n      add\n        /* \"#utility.yul\":8885:8942   */\n      mstore\n        /* \"#utility.yul\":8959:8978   */\n      0x84\n      add\n        /* \"contracts/AllocationStaking.sol\":14998:15122  require(user.tokensUnlockTime <= block.timestamp,... */\n      tag_183\n        /* \"#utility.yul\":8561:8984   */\n      jump\n        /* \"contracts/AllocationStaking.sol\":14998:15122  require(user.tokensUnlockTime <= block.timestamp,... */\n    tag_222:\n        /* \"contracts/AllocationStaking.sol\":15212:15223  user.amount */\n      dup1\n      sload\n        /* \"contracts/AllocationStaking.sol\":15165:15177  pool.lpToken */\n      dup3\n      sload\n        /* \"contracts/AllocationStaking.sol\":15165:15224  pool.lpToken.safeTransfer(address(msg.sender), user.amount) */\n      tag_225\n      swap2\n      sub(shl(0xa0, 0x01), 0x01)\n        /* \"contracts/AllocationStaking.sol\":15165:15177  pool.lpToken */\n      swap1\n      swap2\n      and\n      swap1\n        /* \"contracts/AllocationStaking.sol\":15199:15209  msg.sender */\n      caller\n      swap1\n        /* \"contracts/AllocationStaking.sol\":15165:15190  pool.lpToken.safeTransfer */\n      tag_199\n        /* \"contracts/AllocationStaking.sol\":15165:15224  pool.lpToken.safeTransfer(address(msg.sender), user.amount) */\n      jump\t// in\n    tag_225:\n        /* \"contracts/AllocationStaking.sol\":15275:15286  user.amount */\n      dup1\n      sload\n        /* \"contracts/AllocationStaking.sol\":15239:15287  EmergencyWithdraw(msg.sender, _pid, user.amount) */\n      mload(0x40)\n        /* \"#utility.yul\":160:185   */\n      swap1\n      dup2\n      mstore\n        /* \"contracts/AllocationStaking.sol\":15269:15273  _pid */\n      dup4\n      swap1\n        /* \"contracts/AllocationStaking.sol\":15257:15267  msg.sender */\n      caller\n      swap1\n        /* \"contracts/AllocationStaking.sol\":15239:15287  EmergencyWithdraw(msg.sender, _pid, user.amount) */\n      0xbb757047c2b5f3974fe26b7c10f732e7bce710b0952a71082702781e62ae0595\n      swap1\n        /* \"#utility.yul\":148:150   */\n      0x20\n        /* \"#utility.yul\":133:151   */\n      add\n        /* \"contracts/AllocationStaking.sol\":15239:15287  EmergencyWithdraw(msg.sender, _pid, user.amount) */\n      mload(0x40)\n      dup1\n      swap2\n      sub\n      swap1\n      log3\n        /* \"contracts/AllocationStaking.sol\":15374:15385  user.amount */\n      dup1\n      sload\n        /* \"contracts/AllocationStaking.sol\":15351:15369  pool.totalDeposits */\n      0x04\n      dup4\n      add\n      sload\n        /* \"contracts/AllocationStaking.sol\":15351:15386  pool.totalDeposits.sub(user.amount) */\n      tag_227\n      swap2\n        /* \"contracts/AllocationStaking.sol\":15351:15373  pool.totalDeposits.sub */\n      tag_176\n        /* \"contracts/AllocationStaking.sol\":15351:15386  pool.totalDeposits.sub(user.amount) */\n      jump\t// in\n    tag_227:\n        /* \"contracts/AllocationStaking.sol\":15330:15348  pool.totalDeposits */\n      0x04\n      swap1\n      swap3\n      add\n        /* \"contracts/AllocationStaking.sol\":15330:15386  pool.totalDeposits = pool.totalDeposits.sub(user.amount) */\n      swap2\n      swap1\n      swap2\n      sstore\n        /* \"contracts/AllocationStaking.sol\":15410:15411  0 */\n      0x00\n        /* \"contracts/AllocationStaking.sol\":15396:15411  user.amount = 0 */\n      dup1\n      dup3\n      sstore\n        /* \"contracts/AllocationStaking.sol\":15421:15436  user.rewardDebt */\n      0x01\n      dup3\n      add\n        /* \"contracts/AllocationStaking.sol\":15421:15440  user.rewardDebt = 0 */\n      dup2\n      swap1\n      sstore\n        /* \"contracts/AllocationStaking.sol\":15450:15471  user.tokensUnlockTime */\n      0x02\n      swap1\n      swap2\n      add\n        /* \"contracts/AllocationStaking.sol\":15450:15475  user.tokensUnlockTime = 0 */\n      sstore\n      pop\n        /* \"contracts/AllocationStaking.sol\":14779:15482  function emergencyWithdraw(uint256 _pid) public {... */\n      jump\t// out\n        /* \"contracts/AllocationStaking.sol\":4652:5142  function initialize(... */\n    tag_80:\n        /* \"@openzeppelin/contracts-upgradeable/proxy/utils/Initializable.sol\":8870:8891  INITIALIZABLE_STORAGE */\n      0xf0c57e16840df040f15088dc2f81fe391c3923bec73e23a9662efc9c229c6a00\n        /* \"@openzeppelin/contracts-upgradeable/proxy/utils/Initializable.sol\":4302:4317  $._initializing */\n      dup1\n      sload\n      shl(0x40, 0x01)\n      dup2\n      div\n      0xff\n      and\n        /* \"@openzeppelin/contracts-upgradeable/proxy/utils/Initializable.sol\":4301:4317  !$._initializing */\n      iszero\n      swap1\n        /* \"@openzeppelin/contracts-upgradeable/proxy/utils/Initializable.sol\":4348:4362  $._initialized */\n      0xffffffffffffffff\n      and\n        /* \"@openzeppelin/contracts-upgradeable/proxy/utils/Initializable.sol\":4158:4188  InitializableStorage storage $ */\n      0x00\n        /* \"@openzeppelin/contracts-upgradeable/proxy/utils/Initializable.sol\":4726:4742  initialized == 0 */\n      dup2\n      iszero\n        /* \"@openzeppelin/contracts-upgradeable/proxy/utils/Initializable.sol\":4726:4760  initialized == 0 && isTopLevelCall */\n      dup1\n      iszero\n      tag_231\n      jumpi\n      pop\n        /* \"@openzeppelin/contracts-upgradeable/proxy/utils/Initializable.sol\":4746:4760  isTopLevelCall */\n      dup3\n        /* \"@openzeppelin/contracts-upgradeable/proxy/utils/Initializable.sol\":4726:4760  initialized == 0 && isTopLevelCall */\n    tag_231:\n        /* \"@openzeppelin/contracts-upgradeable/proxy/utils/Initializable.sol\":4706:4760  bool initialSetup = initialized == 0 && isTopLevelCall */\n      swap1\n      pop\n        /* \"@openzeppelin/contracts-upgradeable/proxy/utils/Initializable.sol\":4770:4787  bool construction */\n      0x00\n        /* \"@openzeppelin/contracts-upgradeable/proxy/utils/Initializable.sol\":4790:4801  initialized */\n      dup3\n        /* \"@openzeppelin/contracts-upgradeable/proxy/utils/Initializable.sol\":4790:4806  initialized == 1 */\n      0xffffffffffffffff\n      and\n        /* \"@openzeppelin/contracts-upgradeable/proxy/utils/Initializable.sol\":4805:4806  1 */\n      0x01\n        /* \"@openzeppelin/contracts-upgradeable/proxy/utils/Initializable.sol\":4790:4806  initialized == 1 */\n      eq\n        /* \"@openzeppelin/contracts-upgradeable/proxy/utils/Initializable.sol\":4790:4840  initialized == 1 && address(this).code.length == 0 */\n      dup1\n      iszero\n      tag_232\n      jumpi\n      pop\n        /* \"@openzeppelin/contracts-upgradeable/proxy/utils/Initializable.sol\":4818:4822  this */\n      address\n        /* \"@openzeppelin/contracts-upgradeable/proxy/utils/Initializable.sol\":4810:4835  address(this).code.length */\n      extcodesize\n        /* \"@openzeppelin/contracts-upgradeable/proxy/utils/Initializable.sol\":4810:4840  address(this).code.length == 0 */\n      iszero\n        /* \"@openzeppelin/contracts-upgradeable/proxy/utils/Initializable.sol\":4790:4840  initialized == 1 && address(this).code.length == 0 */\n    tag_232:\n        /* \"@openzeppelin/contracts-upgradeable/proxy/utils/Initializable.sol\":4770:4840  bool construction = initialized == 1 && address(this).code.length == 0 */\n      swap1\n      pop\n        /* \"@openzeppelin/contracts-upgradeable/proxy/utils/Initializable.sol\":4856:4868  initialSetup */\n      dup2\n        /* \"@openzeppelin/contracts-upgradeable/proxy/utils/Initializable.sol\":4855:4868  !initialSetup */\n      iszero\n        /* \"@openzeppelin/contracts-upgradeable/proxy/utils/Initializable.sol\":4855:4885  !initialSetup && !construction */\n      dup1\n      iszero\n      tag_233\n      jumpi\n      pop\n        /* \"@openzeppelin/contracts-upgradeable/proxy/utils/Initializable.sol\":4873:4885  construction */\n      dup1\n        /* \"@openzeppelin/contracts-upgradeable/proxy/utils/Initializable.sol\":4872:4885  !construction */\n      iszero\n        /* \"@openzeppelin/contracts-upgradeable/proxy/utils/Initializable.sol\":4855:4885  !initialSetup && !construction */\n    tag_233:\n        /* \"@openzeppelin/contracts-upgradeable/proxy/utils/Initializable.sol\":4851:4942  if (!initialSetup && !construction) {... */\n      iszero\n      tag_234\n      jumpi\n        /* \"@openzeppelin/contracts-upgradeable/proxy/utils/Initializable.sol\":4908:4931  InvalidInitialization() */\n      mload(0x40)\n      shl(0xe0, 0xf92ee8a9)\n      dup2\n      mstore\n      0x04\n      add\n      mload(0x40)\n      dup1\n      swap2\n      sub\n      swap1\n      revert\n        /* \"@openzeppelin/contracts-upgradeable/proxy/utils/Initializable.sol\":4851:4942  if (!initialSetup && !construction) {... */\n    tag_234:\n        /* \"@openzeppelin/contracts-upgradeable/proxy/utils/Initializable.sol\":4951:4969  $._initialized = 1 */\n      dup5\n      sload\n      not(0xffffffffffffffff)\n      and\n        /* \"@openzeppelin/contracts-upgradeable/proxy/utils/Initializable.sol\":4968:4969  1 */\n      0x01\n        /* \"@openzeppelin/contracts-upgradeable/proxy/utils/Initializable.sol\":4951:4969  $._initialized = 1 */\n      or\n      dup6\n      sstore\n        /* \"@openzeppelin/contracts-upgradeable/proxy/utils/Initializable.sol\":4979:5046  if (isTopLevelCall) {... */\n      dup4\n      iszero\n      tag_235\n      jumpi\n        /* \"@openzeppelin/contracts-upgradeable/proxy/utils/Initializable.sol\":5013:5035  $._initializing = true */\n      dup5\n      sload\n      not(shl(0x40, 0xff))\n      and\n      shl(0x40, 0x01)\n      or\n      dup6\n      sstore\n        /* \"@openzeppelin/contracts-upgradeable/proxy/utils/Initializable.sol\":4979:5046  if (isTopLevelCall) {... */\n    tag_235:\n        /* \"contracts/AllocationStaking.sol\":4866:4890  __Ownable_init(_ownable) */\n      tag_237\n        /* \"contracts/AllocationStaking.sol\":4881:4889  _ownable */\n      dup11\n        /* \"contracts/AllocationStaking.sol\":4866:4880  __Ownable_init */\n      tag_238\n        /* \"contracts/AllocationStaking.sol\":4866:4890  __Ownable_init(_ownable) */\n      jump\t// in\n    tag_237:\n        /* \"contracts/AllocationStaking.sol\":4901:4906  erc20 */\n      0x00\n        /* \"contracts/AllocationStaking.sol\":4901:4915  erc20 = _erc20 */\n      dup1\n      sload\n      sub(shl(0xa0, 0x01), 0x01)\n      dup1\n      dup13\n      and\n      not(sub(shl(0xa0, 0x01), 0x01))\n      swap3\n      dup4\n      and\n      or\n      swap1\n      swap3\n      sstore\n        /* \"contracts/AllocationStaking.sol\":4925:4940  rewardPerSecond */\n      0x02\n        /* \"contracts/AllocationStaking.sol\":4925:4959  rewardPerSecond = _rewardPerSecond */\n      dup11\n      swap1\n      sstore\n        /* \"contracts/AllocationStaking.sol\":4969:4983  startTimestamp */\n      0x08\n        /* \"contracts/AllocationStaking.sol\":4969:5001  startTimestamp = _startTimestamp */\n      dup10\n      swap1\n      sstore\n        /* \"contracts/AllocationStaking.sol\":5011:5023  endTimestamp */\n      0x09\n        /* \"contracts/AllocationStaking.sol\":5011:5041  endTimestamp = _startTimestamp */\n      dup10\n      swap1\n      sstore\n        /* \"contracts/AllocationStaking.sol\":5092:5104  salesFactory */\n      0x04\n        /* \"contracts/AllocationStaking.sol\":5092:5135  salesFactory = ISalesFactory(_salesFactory) */\n      dup1\n      sload\n      swap3\n      dup10\n      and\n      swap3\n      swap1\n      swap2\n      and\n      swap2\n      swap1\n      swap2\n      or\n      swap1\n      sstore\n        /* \"@openzeppelin/contracts-upgradeable/proxy/utils/Initializable.sol\":5066:5167  if (isTopLevelCall) {... */\n      dup4\n      iszero\n      tag_239\n      jumpi\n        /* \"@openzeppelin/contracts-upgradeable/proxy/utils/Initializable.sol\":5100:5123  $._initializing = false */\n      dup5\n      sload\n      not(shl(0x40, 0xff))\n      and\n      dup6\n      sstore\n        /* \"@openzeppelin/contracts-upgradeable/proxy/utils/Initializable.sol\":5142:5156  Initialized(1) */\n      mload(0x40)\n      0x01\n        /* \"#utility.yul\":9142:9192   */\n      dup2\n      mstore\n        /* \"@openzeppelin/contracts-upgradeable/proxy/utils/Initializable.sol\":5142:5156  Initialized(1) */\n      0xc7f505b2f371ae2175ee4913f4499e1f2633a7b5936321eed1cdaeb6115181d2\n      swap1\n        /* \"#utility.yul\":9130:9132   */\n      0x20\n        /* \"#utility.yul\":9115:9133   */\n      add\n        /* \"@openzeppelin/contracts-upgradeable/proxy/utils/Initializable.sol\":5142:5156  Initialized(1) */\n      mload(0x40)\n      dup1\n      swap2\n      sub\n      swap1\n      log1\n        /* \"@openzeppelin/contracts-upgradeable/proxy/utils/Initializable.sol\":5066:5167  if (isTopLevelCall) {... */\n    tag_239:\n        /* \"@openzeppelin/contracts-upgradeable/proxy/utils/Initializable.sol\":4092:5173  {... */\n      pop\n      pop\n      pop\n      pop\n      pop\n        /* \"contracts/AllocationStaking.sol\":4652:5142  function initialize(... */\n      pop\n      pop\n      pop\n      pop\n      pop\n      jump\t// out\n        /* \"contracts/AllocationStaking.sol\":9565:9740  function massUpdatePools() public {... */\n    tag_85:\n        /* \"contracts/AllocationStaking.sol\":9626:9634  poolInfo */\n      0x05\n        /* \"contracts/AllocationStaking.sol\":9626:9641  poolInfo.length */\n      sload\n        /* \"contracts/AllocationStaking.sol\":9609:9623  uint256 length */\n      0x00\n        /* \"contracts/AllocationStaking.sol\":9651:9734  for (uint256 pid = 0; pid < length; ++pid) {... */\n    tag_243:\n        /* \"contracts/AllocationStaking.sol\":9679:9685  length */\n      dup2\n        /* \"contracts/AllocationStaking.sol\":9673:9676  pid */\n      dup2\n        /* \"contracts/AllocationStaking.sol\":9673:9685  pid < length */\n      lt\n        /* \"contracts/AllocationStaking.sol\":9651:9734  for (uint256 pid = 0; pid < length; ++pid) {... */\n      iszero\n      tag_244\n      jumpi\n        /* \"contracts/AllocationStaking.sol\":9708:9723  updatePool(pid) */\n      tag_246\n        /* \"contracts/AllocationStaking.sol\":9719:9722  pid */\n      dup2\n        /* \"contracts/AllocationStaking.sol\":9708:9718  updatePool */\n      tag_73\n        /* \"contracts/AllocationStaking.sol\":9708:9723  updatePool(pid) */\n      jump\t// in\n    tag_246:\n        /* \"contracts/AllocationStaking.sol\":9687:9692  ++pid */\n      0x01\n      add\n        /* \"contracts/AllocationStaking.sol\":9651:9734  for (uint256 pid = 0; pid < length; ++pid) {... */\n      jump(tag_243)\n    tag_244:\n      pop\n        /* \"contracts/AllocationStaking.sol\":9599:9740  {... */\n      pop\n        /* \"contracts/AllocationStaking.sol\":9565:9740  function massUpdatePools() public {... */\n      jump\t// out\n        /* \"contracts/AllocationStaking.sol\":7084:7382  function set(uint256 _pid, uint256 _allocPoint, bool _withUpdate) public onlyOwner {... */\n    tag_89:\n        /* \"@openzeppelin/contracts-upgradeable/access/OwnableUpgradeable.sol\":2334:2347  _checkOwner() */\n      tag_248\n        /* \"@openzeppelin/contracts-upgradeable/access/OwnableUpgradeable.sol\":2334:2345  _checkOwner */\n      tag_154\n        /* \"@openzeppelin/contracts-upgradeable/access/OwnableUpgradeable.sol\":2334:2347  _checkOwner() */\n      jump\t// in\n    tag_248:\n        /* \"contracts/AllocationStaking.sol\":7181:7192  _withUpdate */\n      dup1\n        /* \"contracts/AllocationStaking.sol\":7177:7236  if (_withUpdate) {... */\n      iszero\n      tag_251\n      jumpi\n        /* \"contracts/AllocationStaking.sol\":7208:7225  massUpdatePools() */\n      tag_251\n        /* \"contracts/AllocationStaking.sol\":7208:7223  massUpdatePools */\n      tag_85\n        /* \"contracts/AllocationStaking.sol\":7208:7225  massUpdatePools() */\n      jump\t// in\n    tag_251:\n        /* \"contracts/AllocationStaking.sol\":7263:7326  totalAllocPoint.sub(poolInfo[_pid].allocPoint).add(_allocPoint) */\n      tag_252\n        /* \"contracts/AllocationStaking.sol\":7314:7325  _allocPoint */\n      dup3\n        /* \"contracts/AllocationStaking.sol\":7263:7309  totalAllocPoint.sub(poolInfo[_pid].allocPoint) */\n      tag_253\n        /* \"contracts/AllocationStaking.sol\":7283:7291  poolInfo */\n      0x05\n        /* \"contracts/AllocationStaking.sol\":7292:7296  _pid */\n      dup7\n        /* \"contracts/AllocationStaking.sol\":7283:7297  poolInfo[_pid] */\n      dup2\n      sload\n      dup2\n      lt\n      tag_255\n      jumpi\n      tag_255\n      tag_180\n      jump\t// in\n    tag_255:\n      swap1\n      0x00\n      mstore\n      keccak256(0x00, 0x20)\n      swap1\n      0x05\n      mul\n      add\n        /* \"contracts/AllocationStaking.sol\":7283:7308  poolInfo[_pid].allocPoint */\n      0x01\n      add\n      sload\n        /* \"contracts/AllocationStaking.sol\":7263:7278  totalAllocPoint */\n      sload(0x07)\n        /* \"contracts/AllocationStaking.sol\":7263:7282  totalAllocPoint.sub */\n      tag_176\n      swap1\n        /* \"contracts/AllocationStaking.sol\":7263:7309  totalAllocPoint.sub(poolInfo[_pid].allocPoint) */\n      swap2\n      swap1\n      0xffffffff\n      and\n      jump\t// in\n    tag_253:\n        /* \"contracts/AllocationStaking.sol\":7263:7313  totalAllocPoint.sub(poolInfo[_pid].allocPoint).add */\n      swap1\n      tag_161\n        /* \"contracts/AllocationStaking.sol\":7263:7326  totalAllocPoint.sub(poolInfo[_pid].allocPoint).add(_allocPoint) */\n      jump\t// in\n    tag_252:\n        /* \"contracts/AllocationStaking.sol\":7245:7260  totalAllocPoint */\n      0x07\n        /* \"contracts/AllocationStaking.sol\":7245:7326  totalAllocPoint = totalAllocPoint.sub(poolInfo[_pid].allocPoint).add(_allocPoint) */\n      dup2\n      swap1\n      sstore\n      pop\n        /* \"contracts/AllocationStaking.sol\":7364:7375  _allocPoint */\n      dup2\n        /* \"contracts/AllocationStaking.sol\":7336:7344  poolInfo */\n      0x05\n        /* \"contracts/AllocationStaking.sol\":7345:7349  _pid */\n      dup5\n        /* \"contracts/AllocationStaking.sol\":7336:7350  poolInfo[_pid] */\n      dup2\n      sload\n      dup2\n      lt\n      tag_258\n      jumpi\n      tag_258\n      tag_180\n      jump\t// in\n    tag_258:\n      swap1\n      0x00\n      mstore\n      keccak256(0x00, 0x20)\n      swap1\n      0x05\n      mul\n      add\n        /* \"contracts/AllocationStaking.sol\":7336:7361  poolInfo[_pid].allocPoint */\n      0x01\n      add\n        /* \"contracts/AllocationStaking.sol\":7336:7375  poolInfo[_pid].allocPoint = _allocPoint */\n      dup2\n      swap1\n      sstore\n      pop\n        /* \"contracts/AllocationStaking.sol\":7084:7382  function set(uint256 _pid, uint256 _allocPoint, bool _withUpdate) public onlyOwner {... */\n      pop\n      pop\n      pop\n      jump\t// out\n        /* \"@openzeppelin/contracts-upgradeable/access/OwnableUpgradeable.sol\":3155:3256  function renounceOwnership() public virtual onlyOwner {... */\n    tag_91:\n        /* \"@openzeppelin/contracts-upgradeable/access/OwnableUpgradeable.sol\":2334:2347  _checkOwner() */\n      tag_261\n        /* \"@openzeppelin/contracts-upgradeable/access/OwnableUpgradeable.sol\":2334:2345  _checkOwner */\n      tag_154\n        /* \"@openzeppelin/contracts-upgradeable/access/OwnableUpgradeable.sol\":2334:2347  _checkOwner() */\n      jump\t// in\n    tag_261:\n        /* \"@openzeppelin/contracts-upgradeable/access/OwnableUpgradeable.sol\":3219:3249  _transferOwnership(address(0)) */\n      tag_263\n        /* \"@openzeppelin/contracts-upgradeable/access/OwnableUpgradeable.sol\":3246:3247  0 */\n      0x00\n        /* \"@openzeppelin/contracts-upgradeable/access/OwnableUpgradeable.sol\":3219:3237  _transferOwnership */\n      tag_264\n        /* \"@openzeppelin/contracts-upgradeable/access/OwnableUpgradeable.sol\":3219:3249  _transferOwnership(address(0)) */\n      jump\t// in\n    tag_263:\n        /* \"@openzeppelin/contracts-upgradeable/access/OwnableUpgradeable.sol\":3155:3256  function renounceOwnership() public virtual onlyOwner {... */\n      jump\t// out\n        /* \"contracts/AllocationStaking.sol\":7441:7609  function deposited(uint256 _pid, address _user) public view returns (uint256) {... */\n    tag_111:\n        /* \"contracts/AllocationStaking.sol\":7510:7517  uint256 */\n      0x00\n        /* \"contracts/AllocationStaking.sol\":7553:7567  userInfo[_pid] */\n      dup3\n      dup2\n      mstore\n        /* \"contracts/AllocationStaking.sol\":7553:7561  userInfo */\n      0x06\n        /* \"contracts/AllocationStaking.sol\":7553:7567  userInfo[_pid] */\n      0x20\n      swap1\n      dup2\n      mstore\n      0x40\n      dup1\n      dup4\n      keccak256\n      sub(shl(0xa0, 0x01), 0x01)\n        /* \"contracts/AllocationStaking.sol\":7553:7574  userInfo[_pid][_user] */\n      dup6\n      and\n      dup5\n      mstore\n      swap1\n      swap2\n      mstore\n      swap1\n      keccak256\n        /* \"contracts/AllocationStaking.sol\":7591:7602  user.amount */\n      sload\n        /* \"contracts/AllocationStaking.sol\":7441:7609  function deposited(uint256 _pid, address _user) public view returns (uint256) {... */\n    tag_268:\n      swap3\n      swap2\n      pop\n      pop\n      jump\t// out\n        /* \"contracts/AllocationStaking.sol\":13907:14654  function compound(uint256 _pid) public {... */\n    tag_118:\n        /* \"contracts/AllocationStaking.sol\":13956:13977  PoolInfo storage pool */\n      0x00\n        /* \"contracts/AllocationStaking.sol\":13980:13988  poolInfo */\n      0x05\n        /* \"contracts/AllocationStaking.sol\":13989:13993  _pid */\n      dup3\n        /* \"contracts/AllocationStaking.sol\":13980:13994  poolInfo[_pid] */\n      dup2\n      sload\n      dup2\n      lt\n      tag_271\n      jumpi\n      tag_271\n      tag_180\n      jump\t// in\n    tag_271:\n      0x00\n      swap2\n      dup3\n      mstore\n      0x20\n      dup1\n      dup4\n      keccak256\n        /* \"contracts/AllocationStaking.sol\":14028:14042  userInfo[_pid] */\n      dup6\n      dup5\n      mstore\n        /* \"contracts/AllocationStaking.sol\":14028:14036  userInfo */\n      0x06\n        /* \"contracts/AllocationStaking.sol\":14028:14042  userInfo[_pid] */\n      dup3\n      mstore\n      0x40\n      dup1\n      dup6\n      keccak256\n        /* \"contracts/AllocationStaking.sol\":14043:14053  msg.sender */\n      caller\n        /* \"contracts/AllocationStaking.sol\":14028:14054  userInfo[_pid][msg.sender] */\n      dup7\n      mstore\n      swap1\n      swap3\n      mstore\n      swap3\n      keccak256\n        /* \"contracts/AllocationStaking.sol\":13980:13994  poolInfo[_pid] */\n      0x05\n      swap1\n      swap2\n      mul\n      swap1\n      swap2\n      add\n      swap2\n      pop\n        /* \"contracts/AllocationStaking.sol\":14163:14179  updatePool(_pid) */\n      tag_276\n        /* \"contracts/AllocationStaking.sol\":14174:14178  _pid */\n      dup4\n        /* \"contracts/AllocationStaking.sol\":14163:14173  updatePool */\n      tag_73\n        /* \"contracts/AllocationStaking.sol\":14163:14179  updatePool(_pid) */\n      jump\t// in\n    tag_276:\n        /* \"contracts/AllocationStaking.sol\":14190:14211  uint256 pendingAmount */\n      0x00\n        /* \"contracts/AllocationStaking.sol\":14214:14283  user.amount.mul(pool.accERC20PerShare).div(1e36).sub(user.rewardDebt) */\n      tag_277\n        /* \"contracts/AllocationStaking.sol\":14267:14271  user */\n      dup3\n        /* \"contracts/AllocationStaking.sol\":14267:14282  user.rewardDebt */\n      0x01\n      add\n      sload\n        /* \"contracts/AllocationStaking.sol\":14214:14262  user.amount.mul(pool.accERC20PerShare).div(1e36) */\n      tag_172\n      shl(0x24, 0x0c097ce7bc90715b34b9f1)\n        /* \"contracts/AllocationStaking.sol\":14214:14252  user.amount.mul(pool.accERC20PerShare) */\n      tag_191\n        /* \"contracts/AllocationStaking.sol\":14230:14234  pool */\n      dup8\n        /* \"contracts/AllocationStaking.sol\":14230:14251  pool.accERC20PerShare */\n      0x03\n      add\n      sload\n        /* \"contracts/AllocationStaking.sol\":14214:14218  user */\n      dup8\n        /* \"contracts/AllocationStaking.sol\":14214:14225  user.amount */\n      0x00\n      add\n      sload\n        /* \"contracts/AllocationStaking.sol\":14214:14229  user.amount.mul */\n      tag_175\n      swap1\n        /* \"contracts/AllocationStaking.sol\":14214:14252  user.amount.mul(pool.accERC20PerShare) */\n      swap2\n      swap1\n      0xffffffff\n      and\n      jump\t// in\n        /* \"contracts/AllocationStaking.sol\":14214:14283  user.amount.mul(pool.accERC20PerShare).div(1e36).sub(user.rewardDebt) */\n    tag_277:\n        /* \"contracts/AllocationStaking.sol\":14351:14362  user.amount */\n      dup3\n      sload\n        /* \"contracts/AllocationStaking.sol\":14190:14283  uint256 pendingAmount = user.amount.mul(pool.accERC20PerShare).div(1e36).sub(user.rewardDebt) */\n      swap1\n      swap2\n      pop\n        /* \"contracts/AllocationStaking.sol\":14351:14381  user.amount.add(pendingAmount) */\n      tag_280\n      swap1\n        /* \"contracts/AllocationStaking.sol\":14190:14283  uint256 pendingAmount = user.amount.mul(pool.accERC20PerShare).div(1e36).sub(user.rewardDebt) */\n      dup3\n        /* \"contracts/AllocationStaking.sol\":14351:14366  user.amount.add */\n      tag_161\n        /* \"contracts/AllocationStaking.sol\":14351:14381  user.amount.add(pendingAmount) */\n      jump\t// in\n    tag_280:\n        /* \"contracts/AllocationStaking.sol\":14337:14381  user.amount = user.amount.add(pendingAmount) */\n      dup1\n      dup4\n      sstore\n        /* \"contracts/AllocationStaking.sol\":14425:14446  pool.accERC20PerShare */\n      0x03\n      dup5\n      add\n      sload\n        /* \"contracts/AllocationStaking.sol\":14409:14457  user.amount.mul(pool.accERC20PerShare).div(1e36) */\n      tag_281\n      swap2\n      shl(0x24, 0x0c097ce7bc90715b34b9f1)\n        /* \"contracts/AllocationStaking.sol\":14452:14456  1e36 */\n      swap2\n        /* \"contracts/AllocationStaking.sol\":14409:14447  user.amount.mul(pool.accERC20PerShare) */\n      tag_191\n      swap2\n        /* \"contracts/AllocationStaking.sol\":14337:14381  user.amount = user.amount.add(pendingAmount) */\n      swap1\n        /* \"contracts/AllocationStaking.sol\":14409:14424  user.amount.mul */\n      tag_175\n        /* \"contracts/AllocationStaking.sol\":14409:14447  user.amount.mul(pool.accERC20PerShare) */\n      jump\t// in\n        /* \"contracts/AllocationStaking.sol\":14409:14457  user.amount.mul(pool.accERC20PerShare).div(1e36) */\n    tag_281:\n        /* \"contracts/AllocationStaking.sol\":14391:14406  user.rewardDebt */\n      0x01\n      dup4\n      add\n        /* \"contracts/AllocationStaking.sol\":14391:14457  user.rewardDebt = user.amount.mul(pool.accERC20PerShare).div(1e36) */\n      sstore\n        /* \"contracts/AllocationStaking.sol\":14531:14549  pool.totalDeposits */\n      0x04\n      dup4\n      add\n      sload\n        /* \"contracts/AllocationStaking.sol\":14531:14568  pool.totalDeposits.add(pendingAmount) */\n      tag_283\n      swap1\n        /* \"contracts/AllocationStaking.sol\":14554:14567  pendingAmount */\n      dup3\n        /* \"contracts/AllocationStaking.sol\":14531:14553  pool.totalDeposits.add */\n      tag_161\n        /* \"contracts/AllocationStaking.sol\":14531:14568  pool.totalDeposits.add(pendingAmount) */\n      jump\t// in\n    tag_283:\n        /* \"contracts/AllocationStaking.sol\":14510:14528  pool.totalDeposits */\n      0x04\n      dup5\n      add\n        /* \"contracts/AllocationStaking.sol\":14510:14568  pool.totalDeposits = pool.totalDeposits.add(pendingAmount) */\n      sstore\n        /* \"contracts/AllocationStaking.sol\":14635:14646  user.amount */\n      dup2\n      sload\n        /* \"contracts/AllocationStaking.sol\":14583:14647  CompoundedEarnings(msg.sender, _pid, pendingAmount, user.amount) */\n      0x40\n      dup1\n      mload\n        /* \"#utility.yul\":9781:9806   */\n      dup4\n      dup2\n      mstore\n        /* \"#utility.yul\":9837:9839   */\n      0x20\n        /* \"#utility.yul\":9822:9840   */\n      dup2\n      add\n        /* \"#utility.yul\":9815:9849   */\n      swap3\n      swap1\n      swap3\n      mstore\n        /* \"contracts/AllocationStaking.sol\":14614:14618  _pid */\n      dup6\n      swap2\n        /* \"contracts/AllocationStaking.sol\":14602:14612  msg.sender */\n      caller\n      swap2\n        /* \"contracts/AllocationStaking.sol\":14583:14647  CompoundedEarnings(msg.sender, _pid, pendingAmount, user.amount) */\n      0x92f0bdf80f3916a4279540865e94ef327cf48639092106cca4bddc9bb1de4a86\n      swap2\n        /* \"#utility.yul\":9754:9772   */\n      add\n        /* \"contracts/AllocationStaking.sol\":14583:14647  CompoundedEarnings(msg.sender, _pid, pendingAmount, user.amount) */\n      mload(0x40)\n      dup1\n      swap2\n      sub\n      swap1\n      log3\n        /* \"contracts/AllocationStaking.sol\":13946:14654  {... */\n      pop\n      pop\n      pop\n        /* \"contracts/AllocationStaking.sol\":13907:14654  function compound(uint256 _pid) public {... */\n      pop\n      jump\t// out\n        /* \"contracts/AllocationStaking.sol\":5706:6019  function fund(uint256 _amount) public {... */\n    tag_121:\n        /* \"contracts/AllocationStaking.sol\":5780:5792  endTimestamp */\n      sload(0x09)\n        /* \"contracts/AllocationStaking.sol\":5762:5777  block.timestamp */\n      timestamp\n        /* \"contracts/AllocationStaking.sol\":5762:5792  block.timestamp < endTimestamp */\n      lt\n        /* \"contracts/AllocationStaking.sol\":5754:5831  require(block.timestamp < endTimestamp, \"fund: too late, the farm is closed\") */\n      tag_287\n      jumpi\n      mload(0x40)\n      shl(0xe5, 0x461bcd)\n      dup2\n      mstore\n        /* \"#utility.yul\":10062:10064   */\n      0x20\n        /* \"contracts/AllocationStaking.sol\":5754:5831  require(block.timestamp < endTimestamp, \"fund: too late, the farm is closed\") */\n      0x04\n      dup3\n      add\n        /* \"#utility.yul\":10044:10065   */\n      mstore\n        /* \"#utility.yul\":10101:10103   */\n      0x22\n        /* \"#utility.yul\":10081:10099   */\n      0x24\n      dup3\n      add\n        /* \"#utility.yul\":10074:10104   */\n      mstore\n        /* \"#utility.yul\":10140:10174   */\n      0x66756e643a20746f6f206c6174652c20746865206661726d20697320636c6f73\n        /* \"#utility.yul\":10120:10138   */\n      0x44\n      dup3\n      add\n        /* \"#utility.yul\":10113:10175   */\n      mstore\n      shl(0xf2, 0x1959)\n        /* \"#utility.yul\":10191:10209   */\n      0x64\n      dup3\n      add\n        /* \"#utility.yul\":10184:10216   */\n      mstore\n        /* \"#utility.yul\":10233:10252   */\n      0x84\n      add\n        /* \"contracts/AllocationStaking.sol\":5754:5831  require(block.timestamp < endTimestamp, \"fund: too late, the farm is closed\") */\n      tag_183\n        /* \"#utility.yul\":9860:10258   */\n      jump\n        /* \"contracts/AllocationStaking.sol\":5754:5831  require(block.timestamp < endTimestamp, \"fund: too late, the farm is closed\") */\n    tag_287:\n        /* \"contracts/AllocationStaking.sol\":5841:5846  erc20 */\n      sload(0x00)\n        /* \"contracts/AllocationStaking.sol\":5841:5908  erc20.safeTransferFrom(address(msg.sender), address(this), _amount) */\n      tag_290\n      swap1\n      sub(shl(0xa0, 0x01), 0x01)\n        /* \"contracts/AllocationStaking.sol\":5841:5846  erc20 */\n      and\n        /* \"contracts/AllocationStaking.sol\":5872:5882  msg.sender */\n      caller\n        /* \"contracts/AllocationStaking.sol\":5893:5897  this */\n      address\n        /* \"contracts/AllocationStaking.sol\":5900:5907  _amount */\n      dup5\n        /* \"contracts/AllocationStaking.sol\":5841:5863  erc20.safeTransferFrom */\n      tag_291\n        /* \"contracts/AllocationStaking.sol\":5841:5908  erc20.safeTransferFrom(address(msg.sender), address(this), _amount) */\n      jump\t// in\n    tag_290:\n        /* \"contracts/AllocationStaking.sol\":5946:5961  rewardPerSecond */\n      sload(0x02)\n        /* \"contracts/AllocationStaking.sol\":5934:5962  _amount.div(rewardPerSecond) */\n      tag_292\n      swap1\n        /* \"contracts/AllocationStaking.sol\":5934:5941  _amount */\n      dup3\n      swap1\n        /* \"contracts/AllocationStaking.sol\":5934:5945  _amount.div */\n      tag_192\n        /* \"contracts/AllocationStaking.sol\":5934:5962  _amount.div(rewardPerSecond) */\n      jump\t// in\n    tag_292:\n        /* \"contracts/AllocationStaking.sol\":5918:5930  endTimestamp */\n      0x09\n      0x00\n        /* \"contracts/AllocationStaking.sol\":5918:5962  endTimestamp += _amount.div(rewardPerSecond) */\n      dup3\n      dup3\n      sload\n      tag_293\n      swap2\n      swap1\n      tag_294\n      jump\t// in\n    tag_293:\n      swap1\n      swap2\n      sstore\n      pop\n      pop\n        /* \"contracts/AllocationStaking.sol\":5987:5999  totalRewards */\n      sload(0x03)\n        /* \"contracts/AllocationStaking.sol\":5987:6012  totalRewards.add(_amount) */\n      tag_295\n      swap1\n        /* \"contracts/AllocationStaking.sol\":6004:6011  _amount */\n      dup3\n        /* \"contracts/AllocationStaking.sol\":5987:6003  totalRewards.add */\n      tag_161\n        /* \"contracts/AllocationStaking.sol\":5987:6012  totalRewards.add(_amount) */\n      jump\t// in\n    tag_295:\n        /* \"contracts/AllocationStaking.sol\":5972:5984  totalRewards */\n      0x03\n        /* \"contracts/AllocationStaking.sol\":5972:6012  totalRewards = totalRewards.add(_amount) */\n      sstore\n      pop\n        /* \"contracts/AllocationStaking.sol\":5706:6019  function fund(uint256 _amount) public {... */\n      jump\t// out\n        /* \"contracts/AllocationStaking.sol\":11427:12567  function deposit(uint256 _pid, uint256 _amount) public {... */\n    tag_124:\n        /* \"contracts/AllocationStaking.sol\":11492:11513  PoolInfo storage pool */\n      0x00\n        /* \"contracts/AllocationStaking.sol\":11516:11524  poolInfo */\n      0x05\n        /* \"contracts/AllocationStaking.sol\":11525:11529  _pid */\n      dup4\n        /* \"contracts/AllocationStaking.sol\":11516:11530  poolInfo[_pid] */\n      dup2\n      sload\n      dup2\n      lt\n      tag_298\n      jumpi\n      tag_298\n      tag_180\n      jump\t// in\n    tag_298:\n      0x00\n      swap2\n      dup3\n      mstore\n      0x20\n      dup1\n      dup4\n      keccak256\n        /* \"contracts/AllocationStaking.sol\":11564:11578  userInfo[_pid] */\n      dup7\n      dup5\n      mstore\n        /* \"contracts/AllocationStaking.sol\":11564:11572  userInfo */\n      0x06\n        /* \"contracts/AllocationStaking.sol\":11564:11578  userInfo[_pid] */\n      dup3\n      mstore\n      0x40\n      dup1\n      dup6\n      keccak256\n        /* \"contracts/AllocationStaking.sol\":11579:11589  msg.sender */\n      caller\n        /* \"contracts/AllocationStaking.sol\":11564:11590  userInfo[_pid][msg.sender] */\n      dup7\n      mstore\n      swap1\n      swap3\n      mstore\n      swap3\n      keccak256\n        /* \"contracts/AllocationStaking.sol\":11516:11530  poolInfo[_pid] */\n      0x05\n      swap1\n      swap2\n      mul\n      swap1\n      swap2\n      add\n      swap2\n      pop\n        /* \"contracts/AllocationStaking.sol\":11625:11632  _amount */\n      dup3\n        /* \"contracts/AllocationStaking.sol\":11666:11682  updatePool(_pid) */\n      tag_300\n        /* \"contracts/AllocationStaking.sol\":11573:11577  _pid */\n      dup6\n        /* \"contracts/AllocationStaking.sol\":11666:11676  updatePool */\n      tag_73\n        /* \"contracts/AllocationStaking.sol\":11666:11682  updatePool(_pid) */\n      jump\t// in\n    tag_300:\n        /* \"contracts/AllocationStaking.sol\":11816:11827  user.amount */\n      dup2\n      sload\n        /* \"contracts/AllocationStaking.sol\":11816:11831  user.amount > 0 */\n      iszero\n        /* \"contracts/AllocationStaking.sol\":11812:12005  if (user.amount > 0) {... */\n      tag_301\n      jumpi\n        /* \"contracts/AllocationStaking.sol\":11847:11868  uint256 pendingAmount */\n      0x00\n        /* \"contracts/AllocationStaking.sol\":11871:11940  user.amount.mul(pool.accERC20PerShare).div(1e36).sub(user.rewardDebt) */\n      tag_302\n        /* \"contracts/AllocationStaking.sol\":11924:11928  user */\n      dup4\n        /* \"contracts/AllocationStaking.sol\":11924:11939  user.rewardDebt */\n      0x01\n      add\n      sload\n        /* \"contracts/AllocationStaking.sol\":11871:11919  user.amount.mul(pool.accERC20PerShare).div(1e36) */\n      tag_172\n      shl(0x24, 0x0c097ce7bc90715b34b9f1)\n        /* \"contracts/AllocationStaking.sol\":11871:11909  user.amount.mul(pool.accERC20PerShare) */\n      tag_191\n        /* \"contracts/AllocationStaking.sol\":11887:11891  pool */\n      dup9\n        /* \"contracts/AllocationStaking.sol\":11887:11908  pool.accERC20PerShare */\n      0x03\n      add\n      sload\n        /* \"contracts/AllocationStaking.sol\":11871:11875  user */\n      dup9\n        /* \"contracts/AllocationStaking.sol\":11871:11882  user.amount */\n      0x00\n      add\n      sload\n        /* \"contracts/AllocationStaking.sol\":11871:11886  user.amount.mul */\n      tag_175\n      swap1\n        /* \"contracts/AllocationStaking.sol\":11871:11909  user.amount.mul(pool.accERC20PerShare) */\n      swap2\n      swap1\n      0xffffffff\n      and\n      jump\t// in\n        /* \"contracts/AllocationStaking.sol\":11871:11940  user.amount.mul(pool.accERC20PerShare).div(1e36).sub(user.rewardDebt) */\n    tag_302:\n        /* \"contracts/AllocationStaking.sol\":11847:11940  uint256 pendingAmount = user.amount.mul(pool.accERC20PerShare).div(1e36).sub(user.rewardDebt) */\n      swap1\n      pop\n        /* \"contracts/AllocationStaking.sol\":11954:11994  erc20Transfer(msg.sender, pendingAmount) */\n      tag_305\n        /* \"contracts/AllocationStaking.sol\":11968:11978  msg.sender */\n      caller\n        /* \"contracts/AllocationStaking.sol\":11980:11993  pendingAmount */\n      dup3\n        /* \"contracts/AllocationStaking.sol\":11954:11967  erc20Transfer */\n      tag_194\n        /* \"contracts/AllocationStaking.sol\":11954:11994  erc20Transfer(msg.sender, pendingAmount) */\n      jump\t// in\n    tag_305:\n        /* \"contracts/AllocationStaking.sol\":11833:12005  {... */\n      pop\n        /* \"contracts/AllocationStaking.sol\":11812:12005  if (user.amount > 0) {... */\n    tag_301:\n        /* \"contracts/AllocationStaking.sol\":12090:12102  pool.lpToken */\n      dup3\n      sload\n        /* \"contracts/AllocationStaking.sol\":12090:12164  pool.lpToken.safeTransferFrom(address(msg.sender), address(this), _amount) */\n      tag_306\n      swap1\n      sub(shl(0xa0, 0x01), 0x01)\n        /* \"contracts/AllocationStaking.sol\":12090:12102  pool.lpToken */\n      and\n        /* \"contracts/AllocationStaking.sol\":12128:12138  msg.sender */\n      caller\n        /* \"contracts/AllocationStaking.sol\":12149:12153  this */\n      address\n        /* \"contracts/AllocationStaking.sol\":12156:12163  _amount */\n      dup8\n        /* \"contracts/AllocationStaking.sol\":12090:12119  pool.lpToken.safeTransferFrom */\n      tag_291\n        /* \"contracts/AllocationStaking.sol\":12090:12164  pool.lpToken.safeTransferFrom(address(msg.sender), address(this), _amount) */\n      jump\t// in\n    tag_306:\n        /* \"contracts/AllocationStaking.sol\":12236:12254  pool.totalDeposits */\n      0x04\n      dup4\n      add\n      sload\n        /* \"contracts/AllocationStaking.sol\":12236:12273  pool.totalDeposits.add(depositAmount) */\n      tag_307\n      swap1\n        /* \"contracts/AllocationStaking.sol\":12259:12272  depositAmount */\n      dup3\n        /* \"contracts/AllocationStaking.sol\":12236:12258  pool.totalDeposits.add */\n      tag_161\n        /* \"contracts/AllocationStaking.sol\":12236:12273  pool.totalDeposits.add(depositAmount) */\n      jump\t// in\n    tag_307:\n        /* \"contracts/AllocationStaking.sol\":12215:12233  pool.totalDeposits */\n      0x04\n      dup5\n      add\n        /* \"contracts/AllocationStaking.sol\":12215:12273  pool.totalDeposits = pool.totalDeposits.add(depositAmount) */\n      sstore\n        /* \"contracts/AllocationStaking.sol\":12337:12348  user.amount */\n      dup2\n      sload\n        /* \"contracts/AllocationStaking.sol\":12337:12367  user.amount.add(depositAmount) */\n      tag_308\n      swap1\n        /* \"contracts/AllocationStaking.sol\":12353:12366  depositAmount */\n      dup3\n        /* \"contracts/AllocationStaking.sol\":12337:12352  user.amount.add */\n      tag_161\n        /* \"contracts/AllocationStaking.sol\":12337:12367  user.amount.add(depositAmount) */\n      jump\t// in\n    tag_308:\n        /* \"contracts/AllocationStaking.sol\":12323:12367  user.amount = user.amount.add(depositAmount) */\n      dup1\n      dup4\n      sstore\n        /* \"contracts/AllocationStaking.sol\":12442:12463  pool.accERC20PerShare */\n      0x03\n      dup5\n      add\n      sload\n        /* \"contracts/AllocationStaking.sol\":12426:12474  user.amount.mul(pool.accERC20PerShare).div(1e36) */\n      tag_309\n      swap2\n      shl(0x24, 0x0c097ce7bc90715b34b9f1)\n        /* \"contracts/AllocationStaking.sol\":12469:12473  1e36 */\n      swap2\n        /* \"contracts/AllocationStaking.sol\":12426:12464  user.amount.mul(pool.accERC20PerShare) */\n      tag_191\n      swap2\n        /* \"contracts/AllocationStaking.sol\":12323:12367  user.amount = user.amount.add(depositAmount) */\n      swap1\n        /* \"contracts/AllocationStaking.sol\":12426:12441  user.amount.mul */\n      tag_175\n        /* \"contracts/AllocationStaking.sol\":12426:12464  user.amount.mul(pool.accERC20PerShare) */\n      jump\t// in\n        /* \"contracts/AllocationStaking.sol\":12426:12474  user.amount.mul(pool.accERC20PerShare).div(1e36) */\n    tag_309:\n        /* \"contracts/AllocationStaking.sol\":12408:12423  user.rewardDebt */\n      0x01\n      dup4\n      add\n        /* \"contracts/AllocationStaking.sol\":12408:12474  user.rewardDebt = user.amount.mul(pool.accERC20PerShare).div(1e36) */\n      sstore\n        /* \"contracts/AllocationStaking.sol\":12520:12560  Deposit(msg.sender, _pid, depositAmount) */\n      mload(0x40)\n        /* \"#utility.yul\":160:185   */\n      dup2\n      dup2\n      mstore\n        /* \"contracts/AllocationStaking.sol\":12540:12544  _pid */\n      dup6\n      swap1\n        /* \"contracts/AllocationStaking.sol\":12528:12538  msg.sender */\n      caller\n      swap1\n        /* \"contracts/AllocationStaking.sol\":12520:12560  Deposit(msg.sender, _pid, depositAmount) */\n      0x90890809c654f11d6e72a28fa60149770a0d11ec6c92319d6ceb2bb0a4ea1a15\n      swap1\n        /* \"#utility.yul\":148:150   */\n      0x20\n        /* \"#utility.yul\":133:151   */\n      add\n        /* \"contracts/AllocationStaking.sol\":12520:12560  Deposit(msg.sender, _pid, depositAmount) */\n      tag_202\n        /* \"#utility.yul\":14:191   */\n      jump\n        /* \"contracts/AllocationStaking.sol\":7701:8574  function pending(uint256 _pid, address _user) public view returns (uint256) {... */\n    tag_127:\n        /* \"contracts/AllocationStaking.sol\":7768:7775  uint256 */\n      0x00\n        /* \"contracts/AllocationStaking.sol\":7787:7808  PoolInfo storage pool */\n      dup1\n        /* \"contracts/AllocationStaking.sol\":7811:7819  poolInfo */\n      0x05\n        /* \"contracts/AllocationStaking.sol\":7820:7824  _pid */\n      dup5\n        /* \"contracts/AllocationStaking.sol\":7811:7825  poolInfo[_pid] */\n      dup2\n      sload\n      dup2\n      lt\n      tag_314\n      jumpi\n      tag_314\n      tag_180\n      jump\t// in\n    tag_314:\n      0x00\n      swap2\n      dup3\n      mstore\n      0x20\n      dup1\n      dup4\n      keccak256\n        /* \"contracts/AllocationStaking.sol\":7859:7873  userInfo[_pid] */\n      dup8\n      dup5\n      mstore\n        /* \"contracts/AllocationStaking.sol\":7859:7867  userInfo */\n      0x06\n        /* \"contracts/AllocationStaking.sol\":7859:7873  userInfo[_pid] */\n      dup3\n      mstore\n      0x40\n      dup1\n      dup6\n      keccak256\n      sub(shl(0xa0, 0x01), 0x01)\n        /* \"contracts/AllocationStaking.sol\":7859:7880  userInfo[_pid][_user] */\n      dup10\n      and\n      dup7\n      mstore\n      swap1\n      swap3\n      mstore\n      swap3\n      keccak256\n        /* \"contracts/AllocationStaking.sol\":7917:7938  pool.accERC20PerShare */\n      0x03\n        /* \"contracts/AllocationStaking.sol\":7811:7825  poolInfo[_pid] */\n      0x05\n      swap1\n      swap3\n      mul\n      swap1\n      swap3\n      add\n        /* \"contracts/AllocationStaking.sol\":7917:7938  pool.accERC20PerShare */\n      swap1\n      dup2\n      add\n      sload\n        /* \"contracts/AllocationStaking.sol\":7968:7986  pool.totalDeposits */\n      0x04\n      dup3\n      add\n      sload\n        /* \"contracts/AllocationStaking.sol\":8053:8077  pool.lastRewardTimestamp */\n      0x02\n      dup4\n      add\n      sload\n        /* \"contracts/AllocationStaking.sol\":7811:7825  poolInfo[_pid] */\n      swap3\n      swap5\n      pop\n        /* \"contracts/AllocationStaking.sol\":7917:7938  pool.accERC20PerShare */\n      swap1\n      swap2\n        /* \"contracts/AllocationStaking.sol\":8035:8050  block.timestamp */\n      timestamp\n        /* \"contracts/AllocationStaking.sol\":8035:8077  block.timestamp > pool.lastRewardTimestamp */\n      gt\n        /* \"contracts/AllocationStaking.sol\":8035:8094  block.timestamp > pool.lastRewardTimestamp && lpSupply != 0 */\n      dup1\n      iszero\n      tag_316\n      jumpi\n      pop\n        /* \"contracts/AllocationStaking.sol\":8081:8094  lpSupply != 0 */\n      dup1\n      iszero\n      iszero\n        /* \"contracts/AllocationStaking.sol\":8035:8094  block.timestamp > pool.lastRewardTimestamp && lpSupply != 0 */\n    tag_316:\n        /* \"contracts/AllocationStaking.sol\":8031:8487  if (block.timestamp > pool.lastRewardTimestamp && lpSupply != 0) {... */\n      iszero\n      tag_317\n      jumpi\n        /* \"contracts/AllocationStaking.sol\":8110:8131  uint256 lastTimestamp */\n      0x00\n        /* \"contracts/AllocationStaking.sol\":8152:8164  endTimestamp */\n      sload(0x09)\n        /* \"contracts/AllocationStaking.sol\":8134:8149  block.timestamp */\n      timestamp\n        /* \"contracts/AllocationStaking.sol\":8134:8164  block.timestamp < endTimestamp */\n      lt\n        /* \"contracts/AllocationStaking.sol\":8134:8197  block.timestamp < endTimestamp ? block.timestamp : endTimestamp */\n      tag_318\n      jumpi\n        /* \"contracts/AllocationStaking.sol\":8185:8197  endTimestamp */\n      sload(0x09)\n        /* \"contracts/AllocationStaking.sol\":8134:8197  block.timestamp < endTimestamp ? block.timestamp : endTimestamp */\n      jump(tag_319)\n    tag_318:\n        /* \"contracts/AllocationStaking.sol\":8167:8182  block.timestamp */\n      timestamp\n        /* \"contracts/AllocationStaking.sol\":8134:8197  block.timestamp < endTimestamp ? block.timestamp : endTimestamp */\n    tag_319:\n        /* \"contracts/AllocationStaking.sol\":8110:8197  uint256 lastTimestamp = block.timestamp < endTimestamp ? block.timestamp : endTimestamp */\n      swap1\n      pop\n        /* \"contracts/AllocationStaking.sol\":8211:8230  uint256 nrOfSeconds */\n      0x00\n        /* \"contracts/AllocationStaking.sol\":8233:8276  lastTimestamp.sub(pool.lastRewardTimestamp) */\n      tag_320\n        /* \"contracts/AllocationStaking.sol\":8251:8255  pool */\n      dup7\n        /* \"contracts/AllocationStaking.sol\":8251:8275  pool.lastRewardTimestamp */\n      0x02\n      add\n      sload\n        /* \"contracts/AllocationStaking.sol\":8233:8246  lastTimestamp */\n      dup4\n        /* \"contracts/AllocationStaking.sol\":8233:8250  lastTimestamp.sub */\n      tag_176\n      swap1\n        /* \"contracts/AllocationStaking.sol\":8233:8276  lastTimestamp.sub(pool.lastRewardTimestamp) */\n      swap2\n      swap1\n      0xffffffff\n      and\n      jump\t// in\n    tag_320:\n        /* \"contracts/AllocationStaking.sol\":8211:8276  uint256 nrOfSeconds = lastTimestamp.sub(pool.lastRewardTimestamp) */\n      swap1\n      pop\n        /* \"contracts/AllocationStaking.sol\":8290:8309  uint256 erc20Reward */\n      0x00\n        /* \"contracts/AllocationStaking.sol\":8312:8386  nrOfSeconds.mul(rewardPerSecond).mul(pool.allocPoint).div(totalAllocPoint) */\n      tag_321\n        /* \"contracts/AllocationStaking.sol\":8370:8385  totalAllocPoint */\n      sload(0x07)\n        /* \"contracts/AllocationStaking.sol\":8312:8365  nrOfSeconds.mul(rewardPerSecond).mul(pool.allocPoint) */\n      tag_191\n        /* \"contracts/AllocationStaking.sol\":8349:8353  pool */\n      dup10\n        /* \"contracts/AllocationStaking.sol\":8349:8364  pool.allocPoint */\n      0x01\n      add\n      sload\n        /* \"contracts/AllocationStaking.sol\":8312:8344  nrOfSeconds.mul(rewardPerSecond) */\n      tag_214\n        /* \"contracts/AllocationStaking.sol\":8328:8343  rewardPerSecond */\n      sload(0x02)\n        /* \"contracts/AllocationStaking.sol\":8312:8323  nrOfSeconds */\n      dup8\n        /* \"contracts/AllocationStaking.sol\":8312:8327  nrOfSeconds.mul */\n      tag_175\n      swap1\n        /* \"contracts/AllocationStaking.sol\":8312:8344  nrOfSeconds.mul(rewardPerSecond) */\n      swap2\n      swap1\n      0xffffffff\n      and\n      jump\t// in\n        /* \"contracts/AllocationStaking.sol\":8312:8386  nrOfSeconds.mul(rewardPerSecond).mul(pool.allocPoint).div(totalAllocPoint) */\n    tag_321:\n        /* \"contracts/AllocationStaking.sol\":8290:8386  uint256 erc20Reward = nrOfSeconds.mul(rewardPerSecond).mul(pool.allocPoint).div(totalAllocPoint) */\n      swap1\n      pop\n        /* \"contracts/AllocationStaking.sol\":8419:8476  accERC20PerShare.add(erc20Reward.mul(1e36).div(lpSupply)) */\n      tag_324\n        /* \"contracts/AllocationStaking.sol\":8440:8475  erc20Reward.mul(1e36).div(lpSupply) */\n      tag_325\n        /* \"contracts/AllocationStaking.sol\":8466:8474  lpSupply */\n      dup6\n        /* \"contracts/AllocationStaking.sol\":8440:8461  erc20Reward.mul(1e36) */\n      tag_191\n        /* \"contracts/AllocationStaking.sol\":8290:8386  uint256 erc20Reward = nrOfSeconds.mul(rewardPerSecond).mul(pool.allocPoint).div(totalAllocPoint) */\n      dup5\n      shl(0x24, 0x0c097ce7bc90715b34b9f1)\n        /* \"contracts/AllocationStaking.sol\":8440:8455  erc20Reward.mul */\n      tag_175\n        /* \"contracts/AllocationStaking.sol\":8440:8461  erc20Reward.mul(1e36) */\n      jump\t// in\n        /* \"contracts/AllocationStaking.sol\":8440:8475  erc20Reward.mul(1e36).div(lpSupply) */\n    tag_325:\n        /* \"contracts/AllocationStaking.sol\":8419:8435  accERC20PerShare */\n      dup7\n      swap1\n        /* \"contracts/AllocationStaking.sol\":8419:8439  accERC20PerShare.add */\n      tag_161\n        /* \"contracts/AllocationStaking.sol\":8419:8476  accERC20PerShare.add(erc20Reward.mul(1e36).div(lpSupply)) */\n      jump\t// in\n    tag_324:\n        /* \"contracts/AllocationStaking.sol\":8400:8476  accERC20PerShare = accERC20PerShare.add(erc20Reward.mul(1e36).div(lpSupply)) */\n      swap5\n      pop\n        /* \"contracts/AllocationStaking.sol\":8096:8487  {... */\n      pop\n      pop\n      pop\n        /* \"contracts/AllocationStaking.sol\":8031:8487  if (block.timestamp > pool.lastRewardTimestamp && lpSupply != 0) {... */\n    tag_317:\n        /* \"contracts/AllocationStaking.sol\":8503:8567  user.amount.mul(accERC20PerShare).div(1e36).sub(user.rewardDebt) */\n      tag_327\n        /* \"contracts/AllocationStaking.sol\":8551:8555  user */\n      dup4\n        /* \"contracts/AllocationStaking.sol\":8551:8566  user.rewardDebt */\n      0x01\n      add\n      sload\n        /* \"contracts/AllocationStaking.sol\":8503:8546  user.amount.mul(accERC20PerShare).div(1e36) */\n      tag_172\n      shl(0x24, 0x0c097ce7bc90715b34b9f1)\n        /* \"contracts/AllocationStaking.sol\":8503:8536  user.amount.mul(accERC20PerShare) */\n      tag_191\n        /* \"contracts/AllocationStaking.sol\":8519:8535  accERC20PerShare */\n      dup7\n        /* \"contracts/AllocationStaking.sol\":8503:8507  user */\n      dup9\n        /* \"contracts/AllocationStaking.sol\":8503:8514  user.amount */\n      0x00\n      add\n      sload\n        /* \"contracts/AllocationStaking.sol\":8503:8518  user.amount.mul */\n      tag_175\n      swap1\n        /* \"contracts/AllocationStaking.sol\":8503:8536  user.amount.mul(accERC20PerShare) */\n      swap2\n      swap1\n      0xffffffff\n      and\n      jump\t// in\n        /* \"contracts/AllocationStaking.sol\":8503:8567  user.amount.mul(accERC20PerShare).div(1e36).sub(user.rewardDebt) */\n    tag_327:\n        /* \"contracts/AllocationStaking.sol\":8496:8567  return user.amount.mul(accERC20PerShare).div(1e36).sub(user.rewardDebt) */\n      swap8\n        /* \"contracts/AllocationStaking.sol\":7701:8574  function pending(uint256 _pid, address _user) public view returns (uint256) {... */\n      swap7\n      pop\n      pop\n      pop\n      pop\n      pop\n      pop\n      pop\n      jump\t// out\n        /* \"contracts/AllocationStaking.sol\":9746:10282  function setTokensUnlockTime(uint256 _pid, address _user, uint256 _tokensUnlockTime) external onlyVerifiedSales {... */\n    tag_132:\n        /* \"contracts/AllocationStaking.sol\":4538:4550  salesFactory */\n      0x04\n      dup1\n      sload\n        /* \"contracts/AllocationStaking.sol\":4538:4590  salesFactory.isSaleCreatedThroughFactory(msg.sender) */\n      mload(0x40)\n      shl(0xe3, 0x1400493d)\n      dup2\n      mstore\n        /* \"contracts/AllocationStaking.sol\":4579:4589  msg.sender */\n      caller\n        /* \"contracts/AllocationStaking.sol\":4538:4590  salesFactory.isSaleCreatedThroughFactory(msg.sender) */\n      swap3\n      dup2\n      add\n        /* \"#utility.yul\":3545:3596   */\n      swap3\n      swap1\n      swap3\n      mstore\n      sub(shl(0xa0, 0x01), 0x01)\n        /* \"contracts/AllocationStaking.sol\":4538:4550  salesFactory */\n      and\n      swap1\n        /* \"contracts/AllocationStaking.sol\":4538:4578  salesFactory.isSaleCreatedThroughFactory */\n      0xa00249e8\n      swap1\n        /* \"#utility.yul\":3518:3536   */\n      0x24\n      add\n        /* \"contracts/AllocationStaking.sol\":4538:4590  salesFactory.isSaleCreatedThroughFactory(msg.sender) */\n      0x20\n      mload(0x40)\n      dup1\n      dup4\n      sub\n      dup2\n      dup7\n      gas\n      staticcall\n      iszero\n      dup1\n      iszero\n      tag_333\n      jumpi\n      returndatasize\n      0x00\n      dup1\n      returndatacopy\n      revert(0x00, returndatasize)\n    tag_333:\n      pop\n      pop\n      pop\n      pop\n      mload(0x40)\n      returndatasize\n      not(0x1f)\n      0x1f\n      dup3\n      add\n      and\n      dup3\n      add\n      dup1\n      0x40\n      mstore\n      pop\n      dup2\n      add\n      swap1\n      tag_334\n      swap2\n      swap1\n      tag_335\n      jump\t// in\n    tag_334:\n        /* \"contracts/AllocationStaking.sol\":4530:4628  require(salesFactory.isSaleCreatedThroughFactory(msg.sender), \"Sale not created through factory.\") */\n      tag_336\n      jumpi\n      mload(0x40)\n      shl(0xe5, 0x461bcd)\n      dup2\n      mstore\n        /* \"#utility.yul\":10845:10847   */\n      0x20\n        /* \"contracts/AllocationStaking.sol\":4530:4628  require(salesFactory.isSaleCreatedThroughFactory(msg.sender), \"Sale not created through factory.\") */\n      0x04\n      dup3\n      add\n        /* \"#utility.yul\":10827:10848   */\n      mstore\n        /* \"#utility.yul\":10884:10886   */\n      0x21\n        /* \"#utility.yul\":10864:10882   */\n      0x24\n      dup3\n      add\n        /* \"#utility.yul\":10857:10887   */\n      mstore\n        /* \"#utility.yul\":10923:10957   */\n      0x53616c65206e6f742063726561746564207468726f75676820666163746f7279\n        /* \"#utility.yul\":10903:10921   */\n      0x44\n      dup3\n      add\n        /* \"#utility.yul\":10896:10958   */\n      mstore\n      shl(0xf9, 0x17)\n        /* \"#utility.yul\":10974:10992   */\n      0x64\n      dup3\n      add\n        /* \"#utility.yul\":10967:10998   */\n      mstore\n        /* \"#utility.yul\":11015:11034   */\n      0x84\n      add\n        /* \"contracts/AllocationStaking.sol\":4530:4628  require(salesFactory.isSaleCreatedThroughFactory(msg.sender), \"Sale not created through factory.\") */\n      tag_183\n        /* \"#utility.yul\":10643:11040   */\n      jump\n        /* \"contracts/AllocationStaking.sol\":4530:4628  require(salesFactory.isSaleCreatedThroughFactory(msg.sender), \"Sale not created through factory.\") */\n    tag_336:\n        /* \"contracts/AllocationStaking.sol\":9868:9889  UserInfo storage user */\n      0x00\n        /* \"contracts/AllocationStaking.sol\":9892:9906  userInfo[_pid] */\n      dup4\n      dup2\n      mstore\n        /* \"contracts/AllocationStaking.sol\":9892:9900  userInfo */\n      0x06\n        /* \"contracts/AllocationStaking.sol\":9892:9906  userInfo[_pid] */\n      0x20\n      swap1\n      dup2\n      mstore\n      0x40\n      dup1\n      dup4\n      keccak256\n      sub(shl(0xa0, 0x01), 0x01)\n        /* \"contracts/AllocationStaking.sol\":9892:9913  userInfo[_pid][_user] */\n      dup7\n      and\n      dup5\n      mstore\n      swap1\n      swap2\n      mstore\n      swap1\n      keccak256\n        /* \"contracts/AllocationStaking.sol\":10022:10043  user.tokensUnlockTime */\n      0x02\n      dup2\n      add\n      sload\n        /* \"contracts/AllocationStaking.sol\":10047:10062  block.timestamp */\n      timestamp\n      lt\n        /* \"contracts/AllocationStaking.sol\":10022:10062  user.tokensUnlockTime <= block.timestamp */\n      iszero\n        /* \"contracts/AllocationStaking.sol\":10014:10063  require(user.tokensUnlockTime <= block.timestamp) */\n      tag_340\n      jumpi\n      0x00\n      dup1\n      revert\n    tag_340:\n        /* \"contracts/AllocationStaking.sol\":10073:10094  user.tokensUnlockTime */\n      0x02\n      dup2\n      add\n        /* \"contracts/AllocationStaking.sol\":10073:10114  user.tokensUnlockTime = _tokensUnlockTime */\n      swap2\n      swap1\n      swap2\n      sstore\n        /* \"contracts/AllocationStaking.sol\":10238:10258  user.salesRegistered */\n      0x03\n      add\n        /* \"contracts/AllocationStaking.sol\":10238:10275  user.salesRegistered.push(msg.sender) */\n      dup1\n      sload\n      0x01\n      dup2\n      add\n      dup3\n      sstore\n      0x00\n      swap2\n      dup3\n      mstore\n      0x20\n      swap1\n      swap2\n      keccak256\n      add\n      dup1\n      sload\n      not(sub(shl(0xa0, 0x01), 0x01))\n      and\n        /* \"contracts/AllocationStaking.sol\":10264:10274  msg.sender */\n      caller\n        /* \"contracts/AllocationStaking.sol\":10238:10275  user.salesRegistered.push(msg.sender) */\n      or\n      swap1\n      sstore\n      pop\n      pop\n        /* \"contracts/AllocationStaking.sol\":9746:10282  function setTokensUnlockTime(uint256 _pid, address _user, uint256 _tokensUnlockTime) external onlyVerifiedSales {... */\n      jump\t// out\n        /* \"@openzeppelin/contracts-upgradeable/access/OwnableUpgradeable.sol\":3405:3620  function transferOwnership(address newOwner) public virtual onlyOwner {... */\n    tag_142:\n        /* \"@openzeppelin/contracts-upgradeable/access/OwnableUpgradeable.sol\":2334:2347  _checkOwner() */\n      tag_343\n        /* \"@openzeppelin/contracts-upgradeable/access/OwnableUpgradeable.sol\":2334:2345  _checkOwner */\n      tag_154\n        /* \"@openzeppelin/contracts-upgradeable/access/OwnableUpgradeable.sol\":2334:2347  _checkOwner() */\n      jump\t// in\n    tag_343:\n      sub(shl(0xa0, 0x01), 0x01)\n        /* \"@openzeppelin/contracts-upgradeable/access/OwnableUpgradeable.sol\":3489:3511  newOwner == address(0) */\n      dup2\n      and\n        /* \"@openzeppelin/contracts-upgradeable/access/OwnableUpgradeable.sol\":3485:3576  if (newOwner == address(0)) {... */\n      tag_345\n      jumpi\n        /* \"@openzeppelin/contracts-upgradeable/access/OwnableUpgradeable.sol\":3534:3565  OwnableInvalidOwner(address(0)) */\n      mload(0x40)\n      shl(0xe0, 0x1e4fbdf7)\n      dup2\n      mstore\n        /* \"@openzeppelin/contracts-upgradeable/access/OwnableUpgradeable.sol\":3562:3563  0 */\n      0x00\n        /* \"@openzeppelin/contracts-upgradeable/access/OwnableUpgradeable.sol\":3534:3565  OwnableInvalidOwner(address(0)) */\n      0x04\n      dup3\n      add\n        /* \"#utility.yul\":3545:3596   */\n      mstore\n        /* \"#utility.yul\":3518:3536   */\n      0x24\n      add\n        /* \"@openzeppelin/contracts-upgradeable/access/OwnableUpgradeable.sol\":3534:3565  OwnableInvalidOwner(address(0)) */\n      tag_183\n        /* \"#utility.yul\":3385:3602   */\n      jump\n        /* \"@openzeppelin/contracts-upgradeable/access/OwnableUpgradeable.sol\":3485:3576  if (newOwner == address(0)) {... */\n    tag_345:\n        /* \"@openzeppelin/contracts-upgradeable/access/OwnableUpgradeable.sol\":3585:3613  _transferOwnership(newOwner) */\n      tag_347\n        /* \"@openzeppelin/contracts-upgradeable/access/OwnableUpgradeable.sol\":3604:3612  newOwner */\n      dup2\n        /* \"@openzeppelin/contracts-upgradeable/access/OwnableUpgradeable.sol\":3585:3603  _transferOwnership */\n      tag_264\n        /* \"@openzeppelin/contracts-upgradeable/access/OwnableUpgradeable.sol\":3585:3613  _transferOwnership(newOwner) */\n      jump\t// in\n    tag_347:\n        /* \"@openzeppelin/contracts-upgradeable/access/OwnableUpgradeable.sol\":3405:3620  function transferOwnership(address newOwner) public virtual onlyOwner {... */\n      pop\n      jump\t// out\n        /* \"contracts/AllocationStaking.sol\":15820:16368  function getPendingAndDepositedForUsers(address [] memory users, uint pid)... */\n    tag_146:\n        /* \"contracts/AllocationStaking.sol\":15930:15947  uint256 [] memory */\n      0x60\n        /* \"contracts/AllocationStaking.sol\":15949:15966  uint256 [] memory */\n      dup1\n        /* \"contracts/AllocationStaking.sol\":15982:16008  uint256 [] memory deposits */\n      0x00\n        /* \"contracts/AllocationStaking.sol\":16025:16030  users */\n      dup5\n        /* \"contracts/AllocationStaking.sol\":16025:16037  users.length */\n      mload\n        /* \"contracts/AllocationStaking.sol\":16011:16038  new uint256[](users.length) */\n      0xffffffffffffffff\n      dup2\n      gt\n      iszero\n      tag_350\n      jumpi\n      tag_350\n      tag_351\n      jump\t// in\n    tag_350:\n      mload(0x40)\n      swap1\n      dup1\n      dup3\n      mstore\n      dup1\n      0x20\n      mul\n      0x20\n      add\n      dup3\n      add\n      0x40\n      mstore\n      dup1\n      iszero\n      tag_352\n      jumpi\n      dup2\n      0x20\n      add\n      0x20\n      dup3\n      mul\n      dup1\n      calldatasize\n      dup4\n      calldatacopy\n      add\n      swap1\n      pop\n    tag_352:\n      pop\n        /* \"contracts/AllocationStaking.sol\":15982:16038  uint256 [] memory deposits = new uint256[](users.length) */\n      swap1\n      pop\n        /* \"contracts/AllocationStaking.sol\":16048:16074  uint256 [] memory earnings */\n      0x00\n        /* \"contracts/AllocationStaking.sol\":16091:16096  users */\n      dup6\n        /* \"contracts/AllocationStaking.sol\":16091:16103  users.length */\n      mload\n        /* \"contracts/AllocationStaking.sol\":16077:16104  new uint256[](users.length) */\n      0xffffffffffffffff\n      dup2\n      gt\n      iszero\n      tag_354\n      jumpi\n      tag_354\n      tag_351\n      jump\t// in\n    tag_354:\n      mload(0x40)\n      swap1\n      dup1\n      dup3\n      mstore\n      dup1\n      0x20\n      mul\n      0x20\n      add\n      dup3\n      add\n      0x40\n      mstore\n      dup1\n      iszero\n      tag_355\n      jumpi\n      dup2\n      0x20\n      add\n      0x20\n      dup3\n      mul\n      dup1\n      calldatasize\n      dup4\n      calldatacopy\n      add\n      swap1\n      pop\n    tag_355:\n      pop\n        /* \"contracts/AllocationStaking.sol\":16048:16104  uint256 [] memory earnings = new uint256[](users.length) */\n      swap1\n      pop\n        /* \"contracts/AllocationStaking.sol\":16176:16182  uint i */\n      0x00\n        /* \"contracts/AllocationStaking.sol\":16171:16324  for (uint i = 0; i < users.length; i++) {... */\n    tag_356:\n        /* \"contracts/AllocationStaking.sol\":16192:16197  users */\n      dup7\n        /* \"contracts/AllocationStaking.sol\":16192:16204  users.length */\n      mload\n        /* \"contracts/AllocationStaking.sol\":16188:16189  i */\n      dup2\n        /* \"contracts/AllocationStaking.sol\":16188:16204  i < users.length */\n      lt\n        /* \"contracts/AllocationStaking.sol\":16171:16324  for (uint i = 0; i < users.length; i++) {... */\n      iszero\n      tag_357\n      jumpi\n        /* \"contracts/AllocationStaking.sol\":16239:16263  deposited(pid, users[i]) */\n      tag_359\n        /* \"contracts/AllocationStaking.sol\":16249:16252  pid */\n      dup7\n        /* \"contracts/AllocationStaking.sol\":16254:16259  users */\n      dup9\n        /* \"contracts/AllocationStaking.sol\":16260:16261  i */\n      dup4\n        /* \"contracts/AllocationStaking.sol\":16254:16262  users[i] */\n      dup2\n      mload\n      dup2\n      lt\n      tag_361\n      jumpi\n      tag_361\n      tag_180\n      jump\t// in\n    tag_361:\n      0x20\n      mul\n      0x20\n      add\n      add\n      mload\n        /* \"contracts/AllocationStaking.sol\":16239:16248  deposited */\n      tag_111\n        /* \"contracts/AllocationStaking.sol\":16239:16263  deposited(pid, users[i]) */\n      jump\t// in\n    tag_359:\n        /* \"contracts/AllocationStaking.sol\":16225:16233  deposits */\n      dup4\n        /* \"contracts/AllocationStaking.sol\":16234:16235  i */\n      dup3\n        /* \"contracts/AllocationStaking.sol\":16225:16236  deposits[i] */\n      dup2\n      mload\n      dup2\n      lt\n      tag_363\n      jumpi\n      tag_363\n      tag_180\n      jump\t// in\n    tag_363:\n      0x20\n      mul\n      0x20\n      add\n      add\n        /* \"contracts/AllocationStaking.sol\":16225:16263  deposits[i] = deposited(pid, users[i]) */\n      dup2\n      dup2\n      mstore\n      pop\n      pop\n        /* \"contracts/AllocationStaking.sol\":16291:16313  pending(pid, users[i]) */\n      tag_364\n        /* \"contracts/AllocationStaking.sol\":16299:16302  pid */\n      dup7\n        /* \"contracts/AllocationStaking.sol\":16304:16309  users */\n      dup9\n        /* \"contracts/AllocationStaking.sol\":16310:16311  i */\n      dup4\n        /* \"contracts/AllocationStaking.sol\":16304:16312  users[i] */\n      dup2\n      mload\n      dup2\n      lt\n      tag_366\n      jumpi\n      tag_366\n      tag_180\n      jump\t// in\n    tag_366:\n      0x20\n      mul\n      0x20\n      add\n      add\n      mload\n        /* \"contracts/AllocationStaking.sol\":16291:16298  pending */\n      tag_127\n        /* \"contracts/AllocationStaking.sol\":16291:16313  pending(pid, users[i]) */\n      jump\t// in\n    tag_364:\n        /* \"contracts/AllocationStaking.sol\":16277:16285  earnings */\n      dup3\n        /* \"contracts/AllocationStaking.sol\":16286:16287  i */\n      dup3\n        /* \"contracts/AllocationStaking.sol\":16277:16288  earnings[i] */\n      dup2\n      mload\n      dup2\n      lt\n      tag_368\n      jumpi\n      tag_368\n      tag_180\n      jump\t// in\n    tag_368:\n      0x20\n      swap1\n      dup2\n      mul\n      swap2\n      swap1\n      swap2\n      add\n      add\n        /* \"contracts/AllocationStaking.sol\":16277:16313  earnings[i] = pending(pid, users[i]) */\n      mstore\n        /* \"contracts/AllocationStaking.sol\":16206:16209  i++ */\n      0x01\n      add\n        /* \"contracts/AllocationStaking.sol\":16171:16324  for (uint i = 0; i < users.length; i++) {... */\n      jump(tag_356)\n    tag_357:\n      pop\n        /* \"contracts/AllocationStaking.sol\":16342:16350  deposits */\n      swap1\n      swap6\n      swap1\n      swap5\n      pop\n        /* \"contracts/AllocationStaking.sol\":15820:16368  function getPendingAndDepositedForUsers(address [] memory users, uint pid)... */\n      swap3\n      pop\n      pop\n      pop\n      jump\t// out\n        /* \"@openzeppelin/contracts-upgradeable/access/OwnableUpgradeable.sol\":2658:2820  function _checkOwner() internal view virtual {... */\n    tag_154:\n        /* \"@openzeppelin/contracts-upgradeable/utils/ContextUpgradeable.sol\":966:976  msg.sender */\n      caller\n        /* \"@openzeppelin/contracts-upgradeable/access/OwnableUpgradeable.sol\":2717:2724  owner() */\n      tag_372\n        /* \"@openzeppelin/contracts-upgradeable/access/OwnableUpgradeable.sol\":1313:1335  OwnableStorageLocation */\n      0x9016d09d72d40fdae2fd8ceac6b6234c7706214fd39c1cd1e609a0528c199300\n        /* \"@openzeppelin/contracts-upgradeable/access/OwnableUpgradeable.sol\":2570:2578  $._owner */\n      sload\n      sub(shl(0xa0, 0x01), 0x01)\n      and\n      swap1\n        /* \"@openzeppelin/contracts-upgradeable/access/OwnableUpgradeable.sol\":2441:2585  function owner() public view virtual returns (address) {... */\n      jump\n        /* \"@openzeppelin/contracts-upgradeable/access/OwnableUpgradeable.sol\":2717:2724  owner() */\n    tag_372:\n      sub(shl(0xa0, 0x01), 0x01)\n        /* \"@openzeppelin/contracts-upgradeable/access/OwnableUpgradeable.sol\":2717:2740  owner() != _msgSender() */\n      and\n      eq\n        /* \"@openzeppelin/contracts-upgradeable/access/OwnableUpgradeable.sol\":2713:2814  if (owner() != _msgSender()) {... */\n      tag_263\n      jumpi\n        /* \"@openzeppelin/contracts-upgradeable/access/OwnableUpgradeable.sol\":2763:2803  OwnableUnauthorizedAccount(_msgSender()) */\n      mload(0x40)\n      shl(0xe0, 0x118cdaa7)\n      dup2\n      mstore\n        /* \"@openzeppelin/contracts-upgradeable/utils/ContextUpgradeable.sol\":966:976  msg.sender */\n      caller\n        /* \"@openzeppelin/contracts-upgradeable/access/OwnableUpgradeable.sol\":2763:2803  OwnableUnauthorizedAccount(_msgSender()) */\n      0x04\n      dup3\n      add\n        /* \"#utility.yul\":3545:3596   */\n      mstore\n        /* \"#utility.yul\":3518:3536   */\n      0x24\n      add\n        /* \"@openzeppelin/contracts-upgradeable/access/OwnableUpgradeable.sol\":2763:2803  OwnableUnauthorizedAccount(_msgSender()) */\n      tag_183\n        /* \"#utility.yul\":3385:3602   */\n      jump\n        /* \"contracts/math/SafeMath.sol\":2689:2864  function add(uint256 a, uint256 b) internal pure returns (uint256) {... */\n    tag_161:\n        /* \"contracts/math/SafeMath.sol\":2747:2754  uint256 */\n      0x00\n      dup1\n        /* \"contracts/math/SafeMath.sol\":2778:2783  a + b */\n      tag_377\n        /* \"contracts/math/SafeMath.sol\":2782:2783  b */\n      dup4\n        /* \"contracts/math/SafeMath.sol\":2778:2779  a */\n      dup6\n        /* \"contracts/math/SafeMath.sol\":2778:2783  a + b */\n      tag_294\n      jump\t// in\n    tag_377:\n        /* \"contracts/math/SafeMath.sol\":2766:2783  uint256 c = a + b */\n      swap1\n      pop\n        /* \"contracts/math/SafeMath.sol\":2806:2807  a */\n      dup4\n        /* \"contracts/math/SafeMath.sol\":2801:2802  c */\n      dup2\n        /* \"contracts/math/SafeMath.sol\":2801:2807  c >= a */\n      lt\n      iszero\n        /* \"contracts/math/SafeMath.sol\":2793:2839  require(c >= a, \"SafeMath: addition overflow\") */\n      tag_378\n      jumpi\n      mload(0x40)\n      shl(0xe5, 0x461bcd)\n      dup2\n      mstore\n        /* \"#utility.yul\":11247:11249   */\n      0x20\n        /* \"contracts/math/SafeMath.sol\":2793:2839  require(c >= a, \"SafeMath: addition overflow\") */\n      0x04\n      dup3\n      add\n        /* \"#utility.yul\":11229:11250   */\n      mstore\n        /* \"#utility.yul\":11286:11288   */\n      0x1b\n        /* \"#utility.yul\":11266:11284   */\n      0x24\n      dup3\n      add\n        /* \"#utility.yul\":11259:11289   */\n      mstore\n        /* \"#utility.yul\":11325:11354   */\n      0x536166654d6174683a206164646974696f6e206f766572666c6f770000000000\n        /* \"#utility.yul\":11305:11323   */\n      0x44\n      dup3\n      add\n        /* \"#utility.yul\":11298:11355   */\n      mstore\n        /* \"#utility.yul\":11372:11390   */\n      0x64\n      add\n        /* \"contracts/math/SafeMath.sol\":2793:2839  require(c >= a, \"SafeMath: addition overflow\") */\n      tag_183\n        /* \"#utility.yul\":11045:11396   */\n      jump\n        /* \"contracts/math/SafeMath.sol\":2793:2839  require(c >= a, \"SafeMath: addition overflow\") */\n    tag_378:\n        /* \"contracts/math/SafeMath.sol\":2856:2857  c */\n      swap4\n        /* \"contracts/math/SafeMath.sol\":2689:2864  function add(uint256 a, uint256 b) internal pure returns (uint256) {... */\n      swap3\n      pop\n      pop\n      pop\n      jump\t// out\n        /* \"contracts/math/SafeMath.sol\":3537:3752  function mul(uint256 a, uint256 b) internal pure returns (uint256) {... */\n    tag_175:\n        /* \"contracts/math/SafeMath.sol\":3595:3602  uint256 */\n      0x00\n        /* \"contracts/math/SafeMath.sol\":3618:3619  a */\n      dup3\n        /* \"contracts/math/SafeMath.sol\":3623:3624  0 */\n      0x00\n        /* \"contracts/math/SafeMath.sol\":3618:3624  a == 0 */\n      sub\n        /* \"contracts/math/SafeMath.sol\":3614:3634  if (a == 0) return 0 */\n      tag_382\n      jumpi\n      pop\n        /* \"contracts/math/SafeMath.sol\":3633:3634  0 */\n      0x00\n        /* \"contracts/math/SafeMath.sol\":3626:3634  return 0 */\n      jump(tag_268)\n        /* \"contracts/math/SafeMath.sol\":3614:3634  if (a == 0) return 0 */\n    tag_382:\n        /* \"contracts/math/SafeMath.sol\":3644:3653  uint256 c */\n      0x00\n        /* \"contracts/math/SafeMath.sol\":3656:3661  a * b */\n      tag_383\n        /* \"contracts/math/SafeMath.sol\":3660:3661  b */\n      dup4\n        /* \"contracts/math/SafeMath.sol\":3656:3657  a */\n      dup6\n        /* \"contracts/math/SafeMath.sol\":3656:3661  a * b */\n      tag_384\n      jump\t// in\n    tag_383:\n        /* \"contracts/math/SafeMath.sol\":3644:3661  uint256 c = a * b */\n      swap1\n      pop\n        /* \"contracts/math/SafeMath.sol\":3688:3689  b */\n      dup3\n        /* \"contracts/math/SafeMath.sol\":3679:3684  c / a */\n      tag_385\n        /* \"contracts/math/SafeMath.sol\":3683:3684  a */\n      dup6\n        /* \"contracts/math/SafeMath.sol\":3644:3661  uint256 c = a * b */\n      dup4\n        /* \"contracts/math/SafeMath.sol\":3679:3684  c / a */\n      tag_386\n      jump\t// in\n    tag_385:\n        /* \"contracts/math/SafeMath.sol\":3679:3689  c / a == b */\n      eq\n        /* \"contracts/math/SafeMath.sol\":3671:3727  require(c / a == b, \"SafeMath: multiplication overflow\") */\n      tag_378\n      jumpi\n      mload(0x40)\n      shl(0xe5, 0x461bcd)\n      dup2\n      mstore\n        /* \"#utility.yul\":11998:12000   */\n      0x20\n        /* \"contracts/math/SafeMath.sol\":3671:3727  require(c / a == b, \"SafeMath: multiplication overflow\") */\n      0x04\n      dup3\n      add\n        /* \"#utility.yul\":11980:12001   */\n      mstore\n        /* \"#utility.yul\":12037:12039   */\n      0x21\n        /* \"#utility.yul\":12017:12035   */\n      0x24\n      dup3\n      add\n        /* \"#utility.yul\":12010:12040   */\n      mstore\n        /* \"#utility.yul\":12076:12110   */\n      0x536166654d6174683a206d756c7469706c69636174696f6e206f766572666c6f\n        /* \"#utility.yul\":12056:12074   */\n      0x44\n      dup3\n      add\n        /* \"#utility.yul\":12049:12111   */\n      mstore\n      shl(0xf8, 0x77)\n        /* \"#utility.yul\":12127:12145   */\n      0x64\n      dup3\n      add\n        /* \"#utility.yul\":12120:12151   */\n      mstore\n        /* \"#utility.yul\":12168:12187   */\n      0x84\n      add\n        /* \"contracts/math/SafeMath.sol\":3671:3727  require(c / a == b, \"SafeMath: multiplication overflow\") */\n      tag_183\n        /* \"#utility.yul\":11796:12193   */\n      jump\n        /* \"contracts/math/SafeMath.sol\":3135:3290  function sub(uint256 a, uint256 b) internal pure returns (uint256) {... */\n    tag_176:\n        /* \"contracts/math/SafeMath.sol\":3193:3200  uint256 */\n      0x00\n        /* \"contracts/math/SafeMath.sol\":3225:3226  a */\n      dup3\n        /* \"contracts/math/SafeMath.sol\":3220:3221  b */\n      dup3\n        /* \"contracts/math/SafeMath.sol\":3220:3226  b <= a */\n      gt\n      iszero\n        /* \"contracts/math/SafeMath.sol\":3212:3261  require(b <= a, \"SafeMath: subtraction overflow\") */\n      tag_391\n      jumpi\n      mload(0x40)\n      shl(0xe5, 0x461bcd)\n      dup2\n      mstore\n        /* \"#utility.yul\":12400:12402   */\n      0x20\n        /* \"contracts/math/SafeMath.sol\":3212:3261  require(b <= a, \"SafeMath: subtraction overflow\") */\n      0x04\n      dup3\n      add\n        /* \"#utility.yul\":12382:12403   */\n      mstore\n        /* \"#utility.yul\":12439:12441   */\n      0x1e\n        /* \"#utility.yul\":12419:12437   */\n      0x24\n      dup3\n      add\n        /* \"#utility.yul\":12412:12442   */\n      mstore\n        /* \"#utility.yul\":12478:12510   */\n      0x536166654d6174683a207375627472616374696f6e206f766572666c6f770000\n        /* \"#utility.yul\":12458:12476   */\n      0x44\n      dup3\n      add\n        /* \"#utility.yul\":12451:12511   */\n      mstore\n        /* \"#utility.yul\":12528:12546   */\n      0x64\n      add\n        /* \"contracts/math/SafeMath.sol\":3212:3261  require(b <= a, \"SafeMath: subtraction overflow\") */\n      tag_183\n        /* \"#utility.yul\":12198:12552   */\n      jump\n        /* \"contracts/math/SafeMath.sol\":3212:3261  require(b <= a, \"SafeMath: subtraction overflow\") */\n    tag_391:\n        /* \"contracts/math/SafeMath.sol\":3278:3283  a - b */\n      tag_378\n        /* \"contracts/math/SafeMath.sol\":3282:3283  b */\n      dup3\n        /* \"contracts/math/SafeMath.sol\":3278:3279  a */\n      dup5\n        /* \"contracts/math/SafeMath.sol\":3278:3283  a - b */\n      tag_174\n      jump\t// in\n        /* \"contracts/math/SafeMath.sol\":4216:4366  function div(uint256 a, uint256 b) internal pure returns (uint256) {... */\n    tag_192:\n        /* \"contracts/math/SafeMath.sol\":4274:4281  uint256 */\n      0x00\n        /* \"contracts/math/SafeMath.sol\":4305:4306  0 */\n      dup1\n        /* \"contracts/math/SafeMath.sol\":4301:4302  b */\n      dup3\n        /* \"contracts/math/SafeMath.sol\":4301:4306  b > 0 */\n      gt\n        /* \"contracts/math/SafeMath.sol\":4293:4337  require(b > 0, \"SafeMath: division by zero\") */\n      tag_396\n      jumpi\n      mload(0x40)\n      shl(0xe5, 0x461bcd)\n      dup2\n      mstore\n        /* \"#utility.yul\":12759:12761   */\n      0x20\n        /* \"contracts/math/SafeMath.sol\":4293:4337  require(b > 0, \"SafeMath: division by zero\") */\n      0x04\n      dup3\n      add\n        /* \"#utility.yul\":12741:12762   */\n      mstore\n        /* \"#utility.yul\":12798:12800   */\n      0x1a\n        /* \"#utility.yul\":12778:12796   */\n      0x24\n      dup3\n      add\n        /* \"#utility.yul\":12771:12801   */\n      mstore\n        /* \"#utility.yul\":12837:12865   */\n      0x536166654d6174683a206469766973696f6e206279207a65726f000000000000\n        /* \"#utility.yul\":12817:12835   */\n      0x44\n      dup3\n      add\n        /* \"#utility.yul\":12810:12866   */\n      mstore\n        /* \"#utility.yul\":12883:12901   */\n      0x64\n      add\n        /* \"contracts/math/SafeMath.sol\":4293:4337  require(b > 0, \"SafeMath: division by zero\") */\n      tag_183\n        /* \"#utility.yul\":12557:12907   */\n      jump\n        /* \"contracts/math/SafeMath.sol\":4293:4337  require(b > 0, \"SafeMath: division by zero\") */\n    tag_396:\n        /* \"contracts/math/SafeMath.sol\":4354:4359  a / b */\n      tag_378\n        /* \"contracts/math/SafeMath.sol\":4358:4359  b */\n      dup3\n        /* \"contracts/math/SafeMath.sol\":4354:4355  a */\n      dup5\n        /* \"contracts/math/SafeMath.sol\":4354:4359  a / b */\n      tag_386\n      jump\t// in\n        /* \"contracts/AllocationStaking.sol\":15581:15716  function erc20Transfer(address _to, uint256 _amount) internal {... */\n    tag_194:\n        /* \"contracts/AllocationStaking.sol\":15653:15658  erc20 */\n      sload(0x00)\n        /* \"contracts/AllocationStaking.sol\":15653:15681  erc20.transfer(_to, _amount) */\n      mload(0x40)\n      shl(0xe0, 0xa9059cbb)\n      dup2\n      mstore\n      sub(shl(0xa0, 0x01), 0x01)\n        /* \"#utility.yul\":13104:13136   */\n      dup5\n      dup2\n      and\n        /* \"contracts/AllocationStaking.sol\":15653:15681  erc20.transfer(_to, _amount) */\n      0x04\n      dup4\n      add\n        /* \"#utility.yul\":13086:13137   */\n      mstore\n        /* \"#utility.yul\":13153:13171   */\n      0x24\n      dup3\n      add\n        /* \"#utility.yul\":13146:13180   */\n      dup5\n      swap1\n      mstore\n        /* \"contracts/AllocationStaking.sol\":15653:15658  erc20 */\n      swap1\n      swap2\n      and\n      swap1\n        /* \"contracts/AllocationStaking.sol\":15653:15667  erc20.transfer */\n      0xa9059cbb\n      swap1\n        /* \"#utility.yul\":13059:13077   */\n      0x44\n      add\n        /* \"contracts/AllocationStaking.sol\":15653:15681  erc20.transfer(_to, _amount) */\n      0x20\n      mload(0x40)\n      dup1\n      dup4\n      sub\n      dup2\n      0x00\n      dup8\n      gas\n      call\n      iszero\n      dup1\n      iszero\n      tag_404\n      jumpi\n      returndatasize\n      0x00\n      dup1\n      returndatacopy\n      revert(0x00, returndatasize)\n    tag_404:\n      pop\n      pop\n      pop\n      pop\n      mload(0x40)\n      returndatasize\n      not(0x1f)\n      0x1f\n      dup3\n      add\n      and\n      dup3\n      add\n      dup1\n      0x40\n      mstore\n      pop\n      dup2\n      add\n      swap1\n      tag_405\n      swap2\n      swap1\n      tag_335\n      jump\t// in\n    tag_405:\n      pop\n        /* \"contracts/AllocationStaking.sol\":15702:15709  _amount */\n      dup1\n        /* \"contracts/AllocationStaking.sol\":15691:15698  paidOut */\n      0x01\n      0x00\n        /* \"contracts/AllocationStaking.sol\":15691:15709  paidOut += _amount */\n      dup3\n      dup3\n      sload\n      tag_406\n      swap2\n      swap1\n      tag_294\n      jump\t// in\n    tag_406:\n      swap1\n      swap2\n      sstore\n      pop\n      pop\n      pop\n      pop\n        /* \"contracts/AllocationStaking.sol\":15581:15716  function erc20Transfer(address _to, uint256 _amount) internal {... */\n      jump\t// out\n        /* \"@openzeppelin/contracts/token/ERC20/utils/SafeERC20.sol\":1303:1463  function safeTransfer(IERC20 token, address to, uint256 value) internal {... */\n    tag_199:\n        /* \"@openzeppelin/contracts/token/ERC20/utils/SafeERC20.sol\":1412:1455  abi.encodeCall(token.transfer, (to, value)) */\n      mload(0x40)\n      sub(shl(0xa0, 0x01), 0x01)\n        /* \"#utility.yul\":13104:13136   */\n      dup4\n      dup2\n      and\n        /* \"@openzeppelin/contracts/token/ERC20/utils/SafeERC20.sol\":1412:1455  abi.encodeCall(token.transfer, (to, value)) */\n      0x24\n      dup4\n      add\n        /* \"#utility.yul\":13086:13137   */\n      mstore\n        /* \"#utility.yul\":13153:13171   */\n      0x44\n      dup3\n      add\n        /* \"#utility.yul\":13146:13180   */\n      dup4\n      swap1\n      mstore\n        /* \"@openzeppelin/contracts/token/ERC20/utils/SafeERC20.sol\":1385:1456  _callOptionalReturn(token, abi.encodeCall(token.transfer, (to, value))) */\n      tag_408\n      swap2\n        /* \"@openzeppelin/contracts/token/ERC20/utils/SafeERC20.sol\":1405:1410  token */\n      dup6\n      swap2\n        /* \"@openzeppelin/contracts/token/ERC20/utils/SafeERC20.sol\":1427:1441  token.transfer */\n      dup3\n      and\n      swap1\n      0xa9059cbb\n      swap1\n        /* \"#utility.yul\":13059:13077   */\n      0x64\n      add\n        /* \"@openzeppelin/contracts/token/ERC20/utils/SafeERC20.sol\":1412:1455  abi.encodeCall(token.transfer, (to, value)) */\n    tag_409:\n      mload(0x40)\n      0x20\n      dup2\n      dup4\n      sub\n      sub\n      dup2\n      mstore\n      swap1\n      0x40\n      mstore\n      swap2\n      pop\n      0xe0\n      shl\n      0x20\n      dup3\n      add\n      dup1\n      mload\n      sub(shl(0xe0, 0x01), 0x01)\n      dup4\n      dup2\n      dup4\n      and\n      or\n      dup4\n      mstore\n      pop\n      pop\n      pop\n      pop\n        /* \"@openzeppelin/contracts/token/ERC20/utils/SafeERC20.sol\":1385:1404  _callOptionalReturn */\n      tag_410\n        /* \"@openzeppelin/contracts/token/ERC20/utils/SafeERC20.sol\":1385:1456  _callOptionalReturn(token, abi.encodeCall(token.transfer, (to, value))) */\n      jump\t// in\n    tag_408:\n        /* \"@openzeppelin/contracts/token/ERC20/utils/SafeERC20.sol\":1303:1463  function safeTransfer(IERC20 token, address to, uint256 value) internal {... */\n      pop\n      pop\n      pop\n      jump\t// out\n        /* \"@openzeppelin/contracts-upgradeable/access/OwnableUpgradeable.sol\":1847:1974  function __Ownable_init(address initialOwner) internal onlyInitializing {... */\n    tag_238:\n        /* \"@openzeppelin/contracts-upgradeable/proxy/utils/Initializable.sol\":6931:6951  _checkInitializing() */\n      tag_413\n        /* \"@openzeppelin/contracts-upgradeable/proxy/utils/Initializable.sol\":6931:6949  _checkInitializing */\n      tag_414\n        /* \"@openzeppelin/contracts-upgradeable/proxy/utils/Initializable.sol\":6931:6951  _checkInitializing() */\n      jump\t// in\n    tag_413:\n        /* \"@openzeppelin/contracts-upgradeable/access/OwnableUpgradeable.sol\":1929:1967  __Ownable_init_unchained(initialOwner) */\n      tag_347\n        /* \"@openzeppelin/contracts-upgradeable/access/OwnableUpgradeable.sol\":1954:1966  initialOwner */\n      dup2\n        /* \"@openzeppelin/contracts-upgradeable/access/OwnableUpgradeable.sol\":1929:1953  __Ownable_init_unchained */\n      tag_417\n        /* \"@openzeppelin/contracts-upgradeable/access/OwnableUpgradeable.sol\":1929:1967  __Ownable_init_unchained(initialOwner) */\n      jump\t// in\n        /* \"@openzeppelin/contracts-upgradeable/access/OwnableUpgradeable.sol\":3774:4022  function _transferOwnership(address newOwner) internal virtual {... */\n    tag_264:\n        /* \"@openzeppelin/contracts-upgradeable/access/OwnableUpgradeable.sol\":1313:1335  OwnableStorageLocation */\n      0x9016d09d72d40fdae2fd8ceac6b6234c7706214fd39c1cd1e609a0528c199300\n        /* \"@openzeppelin/contracts-upgradeable/access/OwnableUpgradeable.sol\":3923:3931  $._owner */\n      dup1\n      sload\n      not(sub(shl(0xa0, 0x01), 0x01))\n        /* \"@openzeppelin/contracts-upgradeable/access/OwnableUpgradeable.sol\":3941:3960  $._owner = newOwner */\n      dup2\n      and\n      sub(shl(0xa0, 0x01), 0x01)\n      dup5\n      dup2\n      and\n      swap2\n      dup3\n      or\n      dup5\n      sstore\n        /* \"@openzeppelin/contracts-upgradeable/access/OwnableUpgradeable.sol\":3975:4015  OwnershipTransferred(oldOwner, newOwner) */\n      mload(0x40)\n        /* \"@openzeppelin/contracts-upgradeable/access/OwnableUpgradeable.sol\":3923:3931  $._owner */\n      swap3\n      and\n      swap2\n      dup3\n      swap1\n        /* \"@openzeppelin/contracts-upgradeable/access/OwnableUpgradeable.sol\":3975:4015  OwnershipTransferred(oldOwner, newOwner) */\n      0x8be0079c531659141344cd1fd0a4f28419497f9722a3daafe3b4186f6b6457e0\n      swap1\n        /* \"@openzeppelin/contracts-upgradeable/access/OwnableUpgradeable.sol\":3847:3871  OwnableStorage storage $ */\n      0x00\n      swap1\n        /* \"@openzeppelin/contracts-upgradeable/access/OwnableUpgradeable.sol\":3975:4015  OwnershipTransferred(oldOwner, newOwner) */\n      log3\n        /* \"@openzeppelin/contracts-upgradeable/access/OwnableUpgradeable.sol\":3837:4022  {... */\n      pop\n      pop\n        /* \"@openzeppelin/contracts-upgradeable/access/OwnableUpgradeable.sol\":3774:4022  function _transferOwnership(address newOwner) internal virtual {... */\n      pop\n      jump\t// out\n        /* \"@openzeppelin/contracts/token/ERC20/utils/SafeERC20.sol\":1702:1890  function safeTransferFrom(IERC20 token, address from, address to, uint256 value) internal {... */\n    tag_291:\n        /* \"@openzeppelin/contracts/token/ERC20/utils/SafeERC20.sol\":1829:1882  abi.encodeCall(token.transferFrom, (from, to, value)) */\n      mload(0x40)\n      sub(shl(0xa0, 0x01), 0x01)\n        /* \"#utility.yul\":13449:13464   */\n      dup5\n      dup2\n      and\n        /* \"@openzeppelin/contracts/token/ERC20/utils/SafeERC20.sol\":1829:1882  abi.encodeCall(token.transferFrom, (from, to, value)) */\n      0x24\n      dup4\n      add\n        /* \"#utility.yul\":13431:13465   */\n      mstore\n        /* \"#utility.yul\":13501:13516   */\n      dup4\n      dup2\n      and\n        /* \"#utility.yul\":13481:13499   */\n      0x44\n      dup4\n      add\n        /* \"#utility.yul\":13474:13517   */\n      mstore\n        /* \"#utility.yul\":13533:13551   */\n      0x64\n      dup3\n      add\n        /* \"#utility.yul\":13526:13560   */\n      dup4\n      swap1\n      mstore\n        /* \"@openzeppelin/contracts/token/ERC20/utils/SafeERC20.sol\":1802:1883  _callOptionalReturn(token, abi.encodeCall(token.transferFrom, (from, to, value))) */\n      tag_422\n      swap2\n        /* \"@openzeppelin/contracts/token/ERC20/utils/SafeERC20.sol\":1822:1827  token */\n      dup7\n      swap2\n        /* \"@openzeppelin/contracts/token/ERC20/utils/SafeERC20.sol\":1844:1862  token.transferFrom */\n      dup3\n      and\n      swap1\n      0x23b872dd\n      swap1\n        /* \"#utility.yul\":13366:13384   */\n      0x84\n      add\n        /* \"@openzeppelin/contracts/token/ERC20/utils/SafeERC20.sol\":1829:1882  abi.encodeCall(token.transferFrom, (from, to, value)) */\n      tag_409\n        /* \"#utility.yul\":13191:13566   */\n      jump\n        /* \"@openzeppelin/contracts/token/ERC20/utils/SafeERC20.sol\":1802:1883  _callOptionalReturn(token, abi.encodeCall(token.transferFrom, (from, to, value))) */\n    tag_422:\n        /* \"@openzeppelin/contracts/token/ERC20/utils/SafeERC20.sol\":1702:1890  function safeTransferFrom(IERC20 token, address from, address to, uint256 value) internal {... */\n      pop\n      pop\n      pop\n      pop\n      jump\t// out\n        /* \"@openzeppelin/contracts/token/ERC20/utils/SafeERC20.sol\":4059:4688  function _callOptionalReturn(IERC20 token, bytes memory data) private {... */\n    tag_410:\n        /* \"@openzeppelin/contracts/token/ERC20/utils/SafeERC20.sol\":4478:4501  bytes memory returndata */\n      0x00\n        /* \"@openzeppelin/contracts/token/ERC20/utils/SafeERC20.sol\":4504:4537  address(token).functionCall(data) */\n      tag_427\n      sub(shl(0xa0, 0x01), 0x01)\n        /* \"@openzeppelin/contracts/token/ERC20/utils/SafeERC20.sol\":4504:4531  address(token).functionCall */\n      dup5\n      and\n        /* \"@openzeppelin/contracts/token/ERC20/utils/SafeERC20.sol\":4532:4536  data */\n      dup4\n        /* \"@openzeppelin/contracts/token/ERC20/utils/SafeERC20.sol\":4504:4531  address(token).functionCall */\n      tag_428\n        /* \"@openzeppelin/contracts/token/ERC20/utils/SafeERC20.sol\":4504:4537  address(token).functionCall(data) */\n      jump\t// in\n    tag_427:\n        /* \"@openzeppelin/contracts/token/ERC20/utils/SafeERC20.sol\":4478:4537  bytes memory returndata = address(token).functionCall(data) */\n      swap1\n      pop\n        /* \"@openzeppelin/contracts/token/ERC20/utils/SafeERC20.sol\":4551:4561  returndata */\n      dup1\n        /* \"@openzeppelin/contracts/token/ERC20/utils/SafeERC20.sol\":4551:4568  returndata.length */\n      mload\n        /* \"@openzeppelin/contracts/token/ERC20/utils/SafeERC20.sol\":4572:4573  0 */\n      0x00\n        /* \"@openzeppelin/contracts/token/ERC20/utils/SafeERC20.sol\":4551:4573  returndata.length != 0 */\n      eq\n      iszero\n        /* \"@openzeppelin/contracts/token/ERC20/utils/SafeERC20.sol\":4551:4608  returndata.length != 0 && !abi.decode(returndata, (bool)) */\n      dup1\n      iszero\n      tag_429\n      jumpi\n      pop\n        /* \"@openzeppelin/contracts/token/ERC20/utils/SafeERC20.sol\":4589:4599  returndata */\n      dup1\n        /* \"@openzeppelin/contracts/token/ERC20/utils/SafeERC20.sol\":4578:4608  abi.decode(returndata, (bool)) */\n      dup1\n      0x20\n      add\n      swap1\n      mload\n      dup2\n      add\n      swap1\n      tag_430\n      swap2\n      swap1\n      tag_335\n      jump\t// in\n    tag_430:\n        /* \"@openzeppelin/contracts/token/ERC20/utils/SafeERC20.sol\":4577:4608  !abi.decode(returndata, (bool)) */\n      iszero\n        /* \"@openzeppelin/contracts/token/ERC20/utils/SafeERC20.sol\":4551:4608  returndata.length != 0 && !abi.decode(returndata, (bool)) */\n    tag_429:\n        /* \"@openzeppelin/contracts/token/ERC20/utils/SafeERC20.sol\":4547:4682  if (returndata.length != 0 && !abi.decode(returndata, (bool))) {... */\n      iszero\n      tag_408\n      jumpi\n        /* \"@openzeppelin/contracts/token/ERC20/utils/SafeERC20.sol\":4631:4671  SafeERC20FailedOperation(address(token)) */\n      mload(0x40)\n      shl(0xe0, 0x5274afe7)\n      dup2\n      mstore\n      sub(shl(0xa0, 0x01), 0x01)\n        /* \"#utility.yul\":3563:3595   */\n      dup5\n      and\n        /* \"@openzeppelin/contracts/token/ERC20/utils/SafeERC20.sol\":4631:4671  SafeERC20FailedOperation(address(token)) */\n      0x04\n      dup3\n      add\n        /* \"#utility.yul\":3545:3596   */\n      mstore\n        /* \"#utility.yul\":3518:3536   */\n      0x24\n      add\n        /* \"@openzeppelin/contracts/token/ERC20/utils/SafeERC20.sol\":4631:4671  SafeERC20FailedOperation(address(token)) */\n      tag_183\n        /* \"#utility.yul\":3385:3602   */\n      jump\n        /* \"@openzeppelin/contracts-upgradeable/proxy/utils/Initializable.sol\":7084:7225  function _checkInitializing() internal view virtual {... */\n    tag_414:\n        /* \"@openzeppelin/contracts-upgradeable/proxy/utils/Initializable.sol\":8870:8891  INITIALIZABLE_STORAGE */\n      0xf0c57e16840df040f15088dc2f81fe391c3923bec73e23a9662efc9c229c6a00\n        /* \"@openzeppelin/contracts-upgradeable/proxy/utils/Initializable.sol\":8560:8600  _getInitializableStorage()._initializing */\n      sload\n      shl(0x40, 0x01)\n      swap1\n      div\n      0xff\n      and\n        /* \"@openzeppelin/contracts-upgradeable/proxy/utils/Initializable.sol\":7146:7219  if (!_isInitializing()) {... */\n      tag_263\n      jumpi\n        /* \"@openzeppelin/contracts-upgradeable/proxy/utils/Initializable.sol\":7191:7208  NotInitializing() */\n      mload(0x40)\n      shl(0xe3, 0x1afcd79f)\n      dup2\n      mstore\n      0x04\n      add\n      mload(0x40)\n      dup1\n      swap2\n      sub\n      swap1\n      revert\n        /* \"@openzeppelin/contracts-upgradeable/access/OwnableUpgradeable.sol\":1980:2215  function __Ownable_init_unchained(address initialOwner) internal onlyInitializing {... */\n    tag_417:\n        /* \"@openzeppelin/contracts-upgradeable/proxy/utils/Initializable.sol\":6931:6951  _checkInitializing() */\n      tag_343\n        /* \"@openzeppelin/contracts-upgradeable/proxy/utils/Initializable.sol\":6931:6949  _checkInitializing */\n      tag_414\n        /* \"@openzeppelin/contracts-upgradeable/proxy/utils/Initializable.sol\":6931:6951  _checkInitializing() */\n      jump\t// in\n        /* \"@openzeppelin/contracts/utils/Address.sol\":2705:2856  function functionCall(address target, bytes memory data) internal returns (bytes memory) {... */\n    tag_428:\n        /* \"@openzeppelin/contracts/utils/Address.sol\":2780:2792  bytes memory */\n      0x60\n        /* \"@openzeppelin/contracts/utils/Address.sol\":2811:2849  functionCallWithValue(target, data, 0) */\n      tag_378\n        /* \"@openzeppelin/contracts/utils/Address.sol\":2833:2839  target */\n      dup4\n        /* \"@openzeppelin/contracts/utils/Address.sol\":2841:2845  data */\n      dup4\n        /* \"@openzeppelin/contracts/utils/Address.sol\":2847:2848  0 */\n      0x00\n        /* \"@openzeppelin/contracts/utils/Address.sol\":2780:2792  bytes memory */\n      dup5\n        /* \"@openzeppelin/contracts/utils/Address.sol\":3421:3433  bool success */\n      0x00\n        /* \"@openzeppelin/contracts/utils/Address.sol\":3435:3458  bytes memory returndata */\n      dup1\n        /* \"@openzeppelin/contracts/utils/Address.sol\":3462:3468  target */\n      dup6\n      sub(shl(0xa0, 0x01), 0x01)\n        /* \"@openzeppelin/contracts/utils/Address.sol\":3462:3473  target.call */\n      and\n        /* \"@openzeppelin/contracts/utils/Address.sol\":3481:3486  value */\n      dup5\n        /* \"@openzeppelin/contracts/utils/Address.sol\":3488:3492  data */\n      dup7\n        /* \"@openzeppelin/contracts/utils/Address.sol\":3462:3493  target.call{value: value}(data) */\n      mload(0x40)\n      tag_451\n      swap2\n      swap1\n      tag_452\n      jump\t// in\n    tag_451:\n      0x00\n      mload(0x40)\n      dup1\n      dup4\n      sub\n      dup2\n      dup6\n      dup8\n      gas\n      call\n      swap3\n      pop\n      pop\n      pop\n      returndatasize\n      dup1\n      0x00\n      dup2\n      eq\n      tag_455\n      jumpi\n      mload(0x40)\n      swap2\n      pop\n      and(add(returndatasize, 0x3f), not(0x1f))\n      dup3\n      add\n      0x40\n      mstore\n      returndatasize\n      dup3\n      mstore\n      returndatasize\n      0x00\n      0x20\n      dup5\n      add\n      returndatacopy\n      jump(tag_454)\n    tag_455:\n      0x60\n      swap2\n      pop\n    tag_454:\n      pop\n        /* \"@openzeppelin/contracts/utils/Address.sol\":3420:3493  (bool success, bytes memory returndata) = target.call{value: value}(data) */\n      swap2\n      pop\n      swap2\n      pop\n        /* \"@openzeppelin/contracts/utils/Address.sol\":3510:3565  verifyCallResultFromTarget(target, success, returndata) */\n      tag_456\n        /* \"@openzeppelin/contracts/utils/Address.sol\":3537:3543  target */\n      dup7\n        /* \"@openzeppelin/contracts/utils/Address.sol\":3545:3552  success */\n      dup4\n        /* \"@openzeppelin/contracts/utils/Address.sol\":3554:3564  returndata */\n      dup4\n        /* \"@openzeppelin/contracts/utils/Address.sol\":3510:3536  verifyCallResultFromTarget */\n      tag_457\n        /* \"@openzeppelin/contracts/utils/Address.sol\":3510:3565  verifyCallResultFromTarget(target, success, returndata) */\n      jump\t// in\n    tag_456:\n        /* \"@openzeppelin/contracts/utils/Address.sol\":3503:3565  return verifyCallResultFromTarget(target, success, returndata) */\n      swap7\n        /* \"@openzeppelin/contracts/utils/Address.sol\":3180:3572  function functionCallWithValue(address target, bytes memory data, uint256 value) internal returns (bytes memory) {... */\n      swap6\n      pop\n      pop\n      pop\n      pop\n      pop\n      pop\n      jump\t// out\n        /* \"@openzeppelin/contracts/utils/Address.sol\":4625:5207  function verifyCallResultFromTarget(... */\n    tag_457:\n        /* \"@openzeppelin/contracts/utils/Address.sol\":4769:4781  bytes memory */\n      0x60\n        /* \"@openzeppelin/contracts/utils/Address.sol\":4798:4805  success */\n      dup3\n        /* \"@openzeppelin/contracts/utils/Address.sol\":4793:5201  if (!success) {... */\n      tag_459\n      jumpi\n        /* \"@openzeppelin/contracts/utils/Address.sol\":4821:4840  _revert(returndata) */\n      tag_460\n        /* \"@openzeppelin/contracts/utils/Address.sol\":4829:4839  returndata */\n      dup3\n        /* \"@openzeppelin/contracts/utils/Address.sol\":4821:4828  _revert */\n      tag_461\n        /* \"@openzeppelin/contracts/utils/Address.sol\":4821:4840  _revert(returndata) */\n      jump\t// in\n    tag_460:\n        /* \"@openzeppelin/contracts/utils/Address.sol\":4793:5201  if (!success) {... */\n      jump(tag_378)\n    tag_459:\n        /* \"@openzeppelin/contracts/utils/Address.sol\":5045:5062  returndata.length */\n      dup2\n      mload\n        /* \"@openzeppelin/contracts/utils/Address.sol\":5045:5067  returndata.length == 0 */\n      iszero\n        /* \"@openzeppelin/contracts/utils/Address.sol\":5045:5094  returndata.length == 0 && target.code.length == 0 */\n      dup1\n      iszero\n      tag_463\n      jumpi\n      pop\n      sub(shl(0xa0, 0x01), 0x01)\n        /* \"@openzeppelin/contracts/utils/Address.sol\":5071:5089  target.code.length */\n      dup5\n      and\n      extcodesize\n        /* \"@openzeppelin/contracts/utils/Address.sol\":5071:5094  target.code.length == 0 */\n      iszero\n        /* \"@openzeppelin/contracts/utils/Address.sol\":5045:5094  returndata.length == 0 && target.code.length == 0 */\n    tag_463:\n        /* \"@openzeppelin/contracts/utils/Address.sol\":5041:5160  if (returndata.length == 0 && target.code.length == 0) {... */\n      iszero\n      tag_464\n      jumpi\n        /* \"@openzeppelin/contracts/utils/Address.sol\":5121:5145  AddressEmptyCode(target) */\n      mload(0x40)\n      shl(0xe0, 0x9996b315)\n      dup2\n      mstore\n      sub(shl(0xa0, 0x01), 0x01)\n        /* \"#utility.yul\":3563:3595   */\n      dup6\n      and\n        /* \"@openzeppelin/contracts/utils/Address.sol\":5121:5145  AddressEmptyCode(target) */\n      0x04\n      dup3\n      add\n        /* \"#utility.yul\":3545:3596   */\n      mstore\n        /* \"#utility.yul\":3518:3536   */\n      0x24\n      add\n        /* \"@openzeppelin/contracts/utils/Address.sol\":5121:5145  AddressEmptyCode(target) */\n      tag_183\n        /* \"#utility.yul\":3385:3602   */\n      jump\n        /* \"@openzeppelin/contracts/utils/Address.sol\":5041:5160  if (returndata.length == 0 && target.code.length == 0) {... */\n    tag_464:\n      pop\n        /* \"@openzeppelin/contracts/utils/Address.sol\":5180:5190  returndata */\n      dup1\n        /* \"@openzeppelin/contracts/utils/Address.sol\":5173:5190  return returndata */\n      jump(tag_378)\n        /* \"@openzeppelin/contracts/utils/Address.sol\":5743:6259  function _revert(bytes memory returndata) private pure {... */\n    tag_461:\n        /* \"@openzeppelin/contracts/utils/Address.sol\":5874:5891  returndata.length */\n      dup1\n      mload\n        /* \"@openzeppelin/contracts/utils/Address.sol\":5874:5895  returndata.length > 0 */\n      iszero\n        /* \"@openzeppelin/contracts/utils/Address.sol\":5870:6253  if (returndata.length > 0) {... */\n      tag_467\n      jumpi\n        /* \"@openzeppelin/contracts/utils/Address.sol\":6102:6112  returndata */\n      dup1\n        /* \"@openzeppelin/contracts/utils/Address.sol\":6096:6113  mload(returndata) */\n      mload\n        /* \"@openzeppelin/contracts/utils/Address.sol\":6158:6173  returndata_size */\n      dup1\n        /* \"@openzeppelin/contracts/utils/Address.sol\":6145:6155  returndata */\n      dup3\n        /* \"@openzeppelin/contracts/utils/Address.sol\":6141:6143  32 */\n      0x20\n        /* \"@openzeppelin/contracts/utils/Address.sol\":6137:6156  add(32, returndata) */\n      add\n        /* \"@openzeppelin/contracts/utils/Address.sol\":6130:6174  revert(add(32, returndata), returndata_size) */\n      revert\n        /* \"@openzeppelin/contracts/utils/Address.sol\":5870:6253  if (returndata.length > 0) {... */\n    tag_467:\n        /* \"@openzeppelin/contracts/utils/Address.sol\":6225:6242  FailedInnerCall() */\n      mload(0x40)\n      shl(0xe1, 0x0a12f521)\n      dup2\n      mstore\n      0x04\n      add\n      mload(0x40)\n      dup1\n      swap2\n      sub\n      swap1\n      revert\n        /* \"#utility.yul\":196:376   */\n    tag_49:\n        /* \"#utility.yul\":255:261   */\n      0x00\n        /* \"#utility.yul\":308:310   */\n      0x20\n        /* \"#utility.yul\":296:305   */\n      dup3\n        /* \"#utility.yul\":287:294   */\n      dup5\n        /* \"#utility.yul\":283:306   */\n      sub\n        /* \"#utility.yul\":279:311   */\n      slt\n        /* \"#utility.yul\":276:328   */\n      iszero\n      tag_477\n      jumpi\n        /* \"#utility.yul\":324:325   */\n      0x00\n        /* \"#utility.yul\":321:322   */\n      dup1\n        /* \"#utility.yul\":314:326   */\n      revert\n        /* \"#utility.yul\":276:328   */\n    tag_477:\n      pop\n        /* \"#utility.yul\":347:370   */\n      calldataload\n      swap2\n        /* \"#utility.yul\":196:376   */\n      swap1\n      pop\n      jump\t// out\n        /* \"#utility.yul\":889:1028   */\n    tag_469:\n      sub(shl(0xa0, 0x01), 0x01)\n        /* \"#utility.yul\":972:1003   */\n      dup2\n      and\n        /* \"#utility.yul\":962:1004   */\n      dup2\n      eq\n        /* \"#utility.yul\":952:1022   */\n      tag_347\n      jumpi\n        /* \"#utility.yul\":1018:1019   */\n      0x00\n        /* \"#utility.yul\":1015:1016   */\n      dup1\n        /* \"#utility.yul\":1008:1020   */\n      revert\n        /* \"#utility.yul\":1033:1151   */\n    tag_470:\n        /* \"#utility.yul\":1119:1124   */\n      dup1\n        /* \"#utility.yul\":1112:1125   */\n      iszero\n        /* \"#utility.yul\":1105:1126   */\n      iszero\n        /* \"#utility.yul\":1098:1103   */\n      dup2\n        /* \"#utility.yul\":1095:1127   */\n      eq\n        /* \"#utility.yul\":1085:1145   */\n      tag_347\n      jumpi\n        /* \"#utility.yul\":1141:1142   */\n      0x00\n        /* \"#utility.yul\":1138:1139   */\n      dup1\n        /* \"#utility.yul\":1131:1143   */\n      revert\n        /* \"#utility.yul\":1156:1628   */\n    tag_58:\n        /* \"#utility.yul\":1244:1250   */\n      0x00\n        /* \"#utility.yul\":1252:1258   */\n      dup1\n        /* \"#utility.yul\":1260:1266   */\n      0x00\n        /* \"#utility.yul\":1313:1315   */\n      0x60\n        /* \"#utility.yul\":1301:1310   */\n      dup5\n        /* \"#utility.yul\":1292:1299   */\n      dup7\n        /* \"#utility.yul\":1288:1311   */\n      sub\n        /* \"#utility.yul\":1284:1316   */\n      slt\n        /* \"#utility.yul\":1281:1333   */\n      iszero\n      tag_484\n      jumpi\n        /* \"#utility.yul\":1329:1330   */\n      0x00\n        /* \"#utility.yul\":1326:1327   */\n      dup1\n        /* \"#utility.yul\":1319:1331   */\n      revert\n        /* \"#utility.yul\":1281:1333   */\n    tag_484:\n        /* \"#utility.yul\":1365:1374   */\n      dup4\n        /* \"#utility.yul\":1352:1375   */\n      calldataload\n        /* \"#utility.yul\":1342:1375   */\n      swap3\n      pop\n        /* \"#utility.yul\":1425:1427   */\n      0x20\n        /* \"#utility.yul\":1414:1423   */\n      dup5\n        /* \"#utility.yul\":1410:1428   */\n      add\n        /* \"#utility.yul\":1397:1429   */\n      calldataload\n        /* \"#utility.yul\":1438:1477   */\n      tag_485\n        /* \"#utility.yul\":1471:1476   */\n      dup2\n        /* \"#utility.yul\":1438:1477   */\n      tag_469\n      jump\t// in\n    tag_485:\n        /* \"#utility.yul\":1496:1501   */\n      swap2\n      pop\n        /* \"#utility.yul\":1553:1555   */\n      0x40\n        /* \"#utility.yul\":1538:1556   */\n      dup5\n      add\n        /* \"#utility.yul\":1525:1557   */\n      calldataload\n        /* \"#utility.yul\":1566:1596   */\n      tag_486\n        /* \"#utility.yul\":1525:1557   */\n      dup2\n        /* \"#utility.yul\":1566:1596   */\n      tag_470\n      jump\t// in\n    tag_486:\n        /* \"#utility.yul\":1615:1622   */\n      dup1\n        /* \"#utility.yul\":1605:1622   */\n      swap2\n      pop\n      pop\n        /* \"#utility.yul\":1156:1628   */\n      swap3\n      pop\n      swap3\n      pop\n      swap3\n      jump\t// out\n        /* \"#utility.yul\":1633:1775   */\n    tag_471:\n        /* \"#utility.yul\":1701:1721   */\n      dup1\n      calldataload\n        /* \"#utility.yul\":1730:1769   */\n      tag_488\n        /* \"#utility.yul\":1701:1721   */\n      dup2\n        /* \"#utility.yul\":1730:1769   */\n      tag_469\n      jump\t// in\n    tag_488:\n        /* \"#utility.yul\":1633:1775   */\n      swap2\n      swap1\n      pop\n      jump\t// out\n        /* \"#utility.yul\":1780:2035   */\n    tag_62:\n        /* \"#utility.yul\":1839:1845   */\n      0x00\n        /* \"#utility.yul\":1892:1894   */\n      0x20\n        /* \"#utility.yul\":1880:1889   */\n      dup3\n        /* \"#utility.yul\":1871:1878   */\n      dup5\n        /* \"#utility.yul\":1867:1890   */\n      sub\n        /* \"#utility.yul\":1863:1895   */\n      slt\n        /* \"#utility.yul\":1860:1912   */\n      iszero\n      tag_490\n      jumpi\n        /* \"#utility.yul\":1908:1909   */\n      0x00\n        /* \"#utility.yul\":1905:1906   */\n      dup1\n        /* \"#utility.yul\":1898:1910   */\n      revert\n        /* \"#utility.yul\":1860:1912   */\n    tag_490:\n        /* \"#utility.yul\":1947:1956   */\n      dup2\n        /* \"#utility.yul\":1934:1957   */\n      calldataload\n        /* \"#utility.yul\":1966:2005   */\n      tag_378\n        /* \"#utility.yul\":1999:2004   */\n      dup2\n        /* \"#utility.yul\":1966:2005   */\n      tag_469\n      jump\t// in\n        /* \"#utility.yul\":2040:2288   */\n    tag_69:\n        /* \"#utility.yul\":2108:2114   */\n      0x00\n        /* \"#utility.yul\":2116:2122   */\n      dup1\n        /* \"#utility.yul\":2169:2171   */\n      0x40\n        /* \"#utility.yul\":2157:2166   */\n      dup4\n        /* \"#utility.yul\":2148:2155   */\n      dup6\n        /* \"#utility.yul\":2144:2167   */\n      sub\n        /* \"#utility.yul\":2140:2172   */\n      slt\n        /* \"#utility.yul\":2137:2189   */\n      iszero\n      tag_493\n      jumpi\n        /* \"#utility.yul\":2185:2186   */\n      0x00\n        /* \"#utility.yul\":2182:2183   */\n      dup1\n        /* \"#utility.yul\":2175:2187   */\n      revert\n        /* \"#utility.yul\":2137:2189   */\n    tag_493:\n      pop\n      pop\n        /* \"#utility.yul\":2208:2231   */\n      dup1\n      calldataload\n      swap3\n        /* \"#utility.yul\":2278:2280   */\n      0x20\n        /* \"#utility.yul\":2263:2281   */\n      swap1\n      swap2\n      add\n        /* \"#utility.yul\":2250:2282   */\n      calldataload\n      swap2\n      pop\n        /* \"#utility.yul\":2040:2288   */\n      jump\t// out\n        /* \"#utility.yul\":2293:2998   */\n    tag_79:\n        /* \"#utility.yul\":2402:2408   */\n      0x00\n        /* \"#utility.yul\":2410:2416   */\n      dup1\n        /* \"#utility.yul\":2418:2424   */\n      0x00\n        /* \"#utility.yul\":2426:2432   */\n      dup1\n        /* \"#utility.yul\":2434:2440   */\n      0x00\n        /* \"#utility.yul\":2487:2490   */\n      0xa0\n        /* \"#utility.yul\":2475:2484   */\n      dup7\n        /* \"#utility.yul\":2466:2473   */\n      dup9\n        /* \"#utility.yul\":2462:2485   */\n      sub\n        /* \"#utility.yul\":2458:2491   */\n      slt\n        /* \"#utility.yul\":2455:2508   */\n      iszero\n      tag_495\n      jumpi\n        /* \"#utility.yul\":2504:2505   */\n      0x00\n        /* \"#utility.yul\":2501:2502   */\n      dup1\n        /* \"#utility.yul\":2494:2506   */\n      revert\n        /* \"#utility.yul\":2455:2508   */\n    tag_495:\n        /* \"#utility.yul\":2543:2552   */\n      dup6\n        /* \"#utility.yul\":2530:2553   */\n      calldataload\n        /* \"#utility.yul\":2562:2601   */\n      tag_496\n        /* \"#utility.yul\":2595:2600   */\n      dup2\n        /* \"#utility.yul\":2562:2601   */\n      tag_469\n      jump\t// in\n    tag_496:\n        /* \"#utility.yul\":2620:2625   */\n      swap5\n      pop\n        /* \"#utility.yul\":2677:2679   */\n      0x20\n        /* \"#utility.yul\":2662:2680   */\n      dup7\n      add\n        /* \"#utility.yul\":2649:2681   */\n      calldataload\n        /* \"#utility.yul\":2690:2731   */\n      tag_497\n        /* \"#utility.yul\":2649:2681   */\n      dup2\n        /* \"#utility.yul\":2690:2731   */\n      tag_469\n      jump\t// in\n    tag_497:\n        /* \"#utility.yul\":2750:2757   */\n      swap4\n      pop\n        /* \"#utility.yul\":2804:2806   */\n      0x40\n        /* \"#utility.yul\":2789:2807   */\n      dup7\n      add\n        /* \"#utility.yul\":2776:2808   */\n      calldataload\n      swap3\n      pop\n        /* \"#utility.yul\":2855:2857   */\n      0x60\n        /* \"#utility.yul\":2840:2858   */\n      dup7\n      add\n        /* \"#utility.yul\":2827:2859   */\n      calldataload\n      swap2\n      pop\n        /* \"#utility.yul\":2911:2914   */\n      0x80\n        /* \"#utility.yul\":2896:2915   */\n      dup7\n      add\n        /* \"#utility.yul\":2883:2916   */\n      calldataload\n        /* \"#utility.yul\":2925:2966   */\n      tag_498\n        /* \"#utility.yul\":2883:2916   */\n      dup2\n        /* \"#utility.yul\":2925:2966   */\n      tag_469\n      jump\t// in\n    tag_498:\n        /* \"#utility.yul\":2985:2992   */\n      dup1\n        /* \"#utility.yul\":2975:2992   */\n      swap2\n      pop\n      pop\n        /* \"#utility.yul\":2293:2998   */\n      swap3\n      swap6\n      pop\n      swap3\n      swap6\n      swap1\n      swap4\n      pop\n      jump\t// out\n        /* \"#utility.yul\":3003:3380   */\n    tag_88:\n        /* \"#utility.yul\":3077:3083   */\n      0x00\n        /* \"#utility.yul\":3085:3091   */\n      dup1\n        /* \"#utility.yul\":3093:3099   */\n      0x00\n        /* \"#utility.yul\":3146:3148   */\n      0x60\n        /* \"#utility.yul\":3134:3143   */\n      dup5\n        /* \"#utility.yul\":3125:3132   */\n      dup7\n        /* \"#utility.yul\":3121:3144   */\n      sub\n        /* \"#utility.yul\":3117:3149   */\n      slt\n        /* \"#utility.yul\":3114:3166   */\n      iszero\n      tag_500\n      jumpi\n        /* \"#utility.yul\":3162:3163   */\n      0x00\n        /* \"#utility.yul\":3159:3160   */\n      dup1\n        /* \"#utility.yul\":3152:3164   */\n      revert\n        /* \"#utility.yul\":3114:3166   */\n    tag_500:\n        /* \"#utility.yul\":3198:3207   */\n      dup4\n        /* \"#utility.yul\":3185:3208   */\n      calldataload\n        /* \"#utility.yul\":3175:3208   */\n      swap3\n      pop\n        /* \"#utility.yul\":3255:3257   */\n      0x20\n        /* \"#utility.yul\":3244:3253   */\n      dup5\n        /* \"#utility.yul\":3240:3258   */\n      add\n        /* \"#utility.yul\":3227:3259   */\n      calldataload\n        /* \"#utility.yul\":3217:3259   */\n      swap2\n      pop\n        /* \"#utility.yul\":3309:3311   */\n      0x40\n        /* \"#utility.yul\":3298:3307   */\n      dup5\n        /* \"#utility.yul\":3294:3312   */\n      add\n        /* \"#utility.yul\":3281:3313   */\n      calldataload\n        /* \"#utility.yul\":3322:3350   */\n      tag_486\n        /* \"#utility.yul\":3344:3349   */\n      dup2\n        /* \"#utility.yul\":3322:3350   */\n      tag_470\n      jump\t// in\n        /* \"#utility.yul\":3815:4138   */\n    tag_105:\n        /* \"#utility.yul\":3883:3889   */\n      0x00\n        /* \"#utility.yul\":3891:3897   */\n      dup1\n        /* \"#utility.yul\":3944:3946   */\n      0x40\n        /* \"#utility.yul\":3932:3941   */\n      dup4\n        /* \"#utility.yul\":3923:3930   */\n      dup6\n        /* \"#utility.yul\":3919:3942   */\n      sub\n        /* \"#utility.yul\":3915:3947   */\n      slt\n        /* \"#utility.yul\":3912:3964   */\n      iszero\n      tag_505\n      jumpi\n        /* \"#utility.yul\":3960:3961   */\n      0x00\n        /* \"#utility.yul\":3957:3958   */\n      dup1\n        /* \"#utility.yul\":3950:3962   */\n      revert\n        /* \"#utility.yul\":3912:3964   */\n    tag_505:\n        /* \"#utility.yul\":3996:4005   */\n      dup3\n        /* \"#utility.yul\":3983:4006   */\n      calldataload\n        /* \"#utility.yul\":3973:4006   */\n      swap2\n      pop\n        /* \"#utility.yul\":4056:4058   */\n      0x20\n        /* \"#utility.yul\":4045:4054   */\n      dup4\n        /* \"#utility.yul\":4041:4059   */\n      add\n        /* \"#utility.yul\":4028:4060   */\n      calldataload\n        /* \"#utility.yul\":4069:4108   */\n      tag_506\n        /* \"#utility.yul\":4102:4107   */\n      dup2\n        /* \"#utility.yul\":4069:4108   */\n      tag_469\n      jump\t// in\n    tag_506:\n        /* \"#utility.yul\":4127:4132   */\n      dup1\n        /* \"#utility.yul\":4117:4132   */\n      swap2\n      pop\n      pop\n        /* \"#utility.yul\":3815:4138   */\n      swap3\n      pop\n      swap3\n      swap1\n      pop\n      jump\t// out\n        /* \"#utility.yul\":4467:4858   */\n    tag_131:\n        /* \"#utility.yul\":4544:4550   */\n      0x00\n        /* \"#utility.yul\":4552:4558   */\n      dup1\n        /* \"#utility.yul\":4560:4566   */\n      0x00\n        /* \"#utility.yul\":4613:4615   */\n      0x60\n        /* \"#utility.yul\":4601:4610   */\n      dup5\n        /* \"#utility.yul\":4592:4599   */\n      dup7\n        /* \"#utility.yul\":4588:4611   */\n      sub\n        /* \"#utility.yul\":4584:4616   */\n      slt\n        /* \"#utility.yul\":4581:4633   */\n      iszero\n      tag_509\n      jumpi\n        /* \"#utility.yul\":4629:4630   */\n      0x00\n        /* \"#utility.yul\":4626:4627   */\n      dup1\n        /* \"#utility.yul\":4619:4631   */\n      revert\n        /* \"#utility.yul\":4581:4633   */\n    tag_509:\n        /* \"#utility.yul\":4665:4674   */\n      dup4\n        /* \"#utility.yul\":4652:4675   */\n      calldataload\n        /* \"#utility.yul\":4642:4675   */\n      swap3\n      pop\n        /* \"#utility.yul\":4725:4727   */\n      0x20\n        /* \"#utility.yul\":4714:4723   */\n      dup5\n        /* \"#utility.yul\":4710:4728   */\n      add\n        /* \"#utility.yul\":4697:4729   */\n      calldataload\n        /* \"#utility.yul\":4738:4777   */\n      tag_510\n        /* \"#utility.yul\":4771:4776   */\n      dup2\n        /* \"#utility.yul\":4738:4777   */\n      tag_469\n      jump\t// in\n    tag_510:\n        /* \"#utility.yul\":4467:4858   */\n      swap3\n      swap6\n        /* \"#utility.yul\":4796:4801   */\n      swap3\n      swap5\n      pop\n      pop\n      pop\n        /* \"#utility.yul\":4848:4850   */\n      0x40\n        /* \"#utility.yul\":4833:4851   */\n      swap2\n      swap1\n      swap2\n      add\n        /* \"#utility.yul\":4820:4852   */\n      calldataload\n      swap1\n        /* \"#utility.yul\":4467:4858   */\n      jump\t// out\n        /* \"#utility.yul\":5093:5220   */\n    tag_351:\n        /* \"#utility.yul\":5154:5164   */\n      0x4e487b71\n        /* \"#utility.yul\":5149:5152   */\n      0xe0\n        /* \"#utility.yul\":5145:5165   */\n      shl\n        /* \"#utility.yul\":5142:5143   */\n      0x00\n        /* \"#utility.yul\":5135:5166   */\n      mstore\n        /* \"#utility.yul\":5185:5189   */\n      0x41\n        /* \"#utility.yul\":5182:5183   */\n      0x04\n        /* \"#utility.yul\":5175:5190   */\n      mstore\n        /* \"#utility.yul\":5209:5213   */\n      0x24\n        /* \"#utility.yul\":5206:5207   */\n      0x00\n        /* \"#utility.yul\":5199:5214   */\n      revert\n        /* \"#utility.yul\":5225:6416   */\n    tag_145:\n        /* \"#utility.yul\":5318:5324   */\n      0x00\n        /* \"#utility.yul\":5326:5332   */\n      dup1\n        /* \"#utility.yul\":5379:5381   */\n      0x40\n        /* \"#utility.yul\":5367:5376   */\n      dup4\n        /* \"#utility.yul\":5358:5365   */\n      dup6\n        /* \"#utility.yul\":5354:5377   */\n      sub\n        /* \"#utility.yul\":5350:5382   */\n      slt\n        /* \"#utility.yul\":5347:5399   */\n      iszero\n      tag_514\n      jumpi\n        /* \"#utility.yul\":5395:5396   */\n      0x00\n        /* \"#utility.yul\":5392:5393   */\n      dup1\n        /* \"#utility.yul\":5385:5397   */\n      revert\n        /* \"#utility.yul\":5347:5399   */\n    tag_514:\n        /* \"#utility.yul\":5435:5444   */\n      dup3\n        /* \"#utility.yul\":5422:5445   */\n      calldataload\n        /* \"#utility.yul\":5464:5482   */\n      0xffffffffffffffff\n        /* \"#utility.yul\":5505:5507   */\n      dup1\n        /* \"#utility.yul\":5497:5503   */\n      dup3\n        /* \"#utility.yul\":5494:5508   */\n      gt\n        /* \"#utility.yul\":5491:5525   */\n      iszero\n      tag_515\n      jumpi\n        /* \"#utility.yul\":5521:5522   */\n      0x00\n        /* \"#utility.yul\":5518:5519   */\n      dup1\n        /* \"#utility.yul\":5511:5523   */\n      revert\n        /* \"#utility.yul\":5491:5525   */\n    tag_515:\n        /* \"#utility.yul\":5559:5565   */\n      dup2\n        /* \"#utility.yul\":5548:5557   */\n      dup6\n        /* \"#utility.yul\":5544:5566   */\n      add\n        /* \"#utility.yul\":5534:5566   */\n      swap2\n      pop\n        /* \"#utility.yul\":5604:5611   */\n      dup6\n        /* \"#utility.yul\":5597:5601   */\n      0x1f\n        /* \"#utility.yul\":5593:5595   */\n      dup4\n        /* \"#utility.yul\":5589:5602   */\n      add\n        /* \"#utility.yul\":5585:5612   */\n      slt\n        /* \"#utility.yul\":5575:5630   */\n      tag_516\n      jumpi\n        /* \"#utility.yul\":5626:5627   */\n      0x00\n        /* \"#utility.yul\":5623:5624   */\n      dup1\n        /* \"#utility.yul\":5616:5628   */\n      revert\n        /* \"#utility.yul\":5575:5630   */\n    tag_516:\n        /* \"#utility.yul\":5662:5664   */\n      dup2\n        /* \"#utility.yul\":5649:5665   */\n      calldataload\n        /* \"#utility.yul\":5684:5688   */\n      0x20\n        /* \"#utility.yul\":5707:5709   */\n      dup3\n        /* \"#utility.yul\":5703:5705   */\n      dup3\n        /* \"#utility.yul\":5700:5710   */\n      gt\n        /* \"#utility.yul\":5697:5733   */\n      iszero\n      tag_518\n      jumpi\n        /* \"#utility.yul\":5713:5731   */\n      tag_518\n      tag_351\n      jump\t// in\n    tag_518:\n        /* \"#utility.yul\":5759:5761   */\n      dup2\n        /* \"#utility.yul\":5756:5757   */\n      0x05\n        /* \"#utility.yul\":5752:5762   */\n      shl\n        /* \"#utility.yul\":5791:5793   */\n      0x40\n        /* \"#utility.yul\":5785:5794   */\n      mload\n        /* \"#utility.yul\":5854:5856   */\n      0x1f\n        /* \"#utility.yul\":5850:5857   */\n      not\n        /* \"#utility.yul\":5845:5847   */\n      0x3f\n        /* \"#utility.yul\":5841:5843   */\n      dup4\n        /* \"#utility.yul\":5837:5848   */\n      add\n        /* \"#utility.yul\":5833:5858   */\n      and\n        /* \"#utility.yul\":5825:5831   */\n      dup2\n        /* \"#utility.yul\":5821:5859   */\n      add\n        /* \"#utility.yul\":5909:5915   */\n      dup2\n        /* \"#utility.yul\":5897:5907   */\n      dup2\n        /* \"#utility.yul\":5894:5916   */\n      lt\n        /* \"#utility.yul\":5889:5891   */\n      dup7\n        /* \"#utility.yul\":5877:5887   */\n      dup3\n        /* \"#utility.yul\":5874:5892   */\n      gt\n        /* \"#utility.yul\":5871:5917   */\n      or\n        /* \"#utility.yul\":5868:5940   */\n      iszero\n      tag_520\n      jumpi\n        /* \"#utility.yul\":5920:5938   */\n      tag_520\n      tag_351\n      jump\t// in\n    tag_520:\n        /* \"#utility.yul\":5956:5958   */\n      0x40\n        /* \"#utility.yul\":5949:5971   */\n      mstore\n        /* \"#utility.yul\":6006:6024   */\n      swap3\n      dup4\n      mstore\n        /* \"#utility.yul\":6040:6055   */\n      dup2\n      dup4\n      add\n      swap4\n      pop\n        /* \"#utility.yul\":6082:6093   */\n      dup5\n      dup2\n      add\n        /* \"#utility.yul\":6078:6098   */\n      dup3\n      add\n      swap3\n        /* \"#utility.yul\":6110:6129   */\n      dup10\n      dup5\n      gt\n        /* \"#utility.yul\":6107:6146   */\n      iszero\n      tag_521\n      jumpi\n        /* \"#utility.yul\":6142:6143   */\n      0x00\n        /* \"#utility.yul\":6139:6140   */\n      dup1\n        /* \"#utility.yul\":6132:6144   */\n      revert\n        /* \"#utility.yul\":6107:6146   */\n    tag_521:\n        /* \"#utility.yul\":6166:6177   */\n      swap5\n      dup3\n      add\n      swap5\n        /* \"#utility.yul\":6186:6334   */\n    tag_522:\n        /* \"#utility.yul\":6202:6208   */\n      dup4\n        /* \"#utility.yul\":6197:6200   */\n      dup7\n        /* \"#utility.yul\":6194:6209   */\n      lt\n        /* \"#utility.yul\":6186:6334   */\n      iszero\n      tag_524\n      jumpi\n        /* \"#utility.yul\":6268:6291   */\n      tag_525\n        /* \"#utility.yul\":6287:6290   */\n      dup7\n        /* \"#utility.yul\":6268:6291   */\n      tag_471\n      jump\t// in\n    tag_525:\n        /* \"#utility.yul\":6256:6292   */\n      dup6\n      mstore\n        /* \"#utility.yul\":6219:6231   */\n      swap5\n      dup3\n      add\n      swap5\n        /* \"#utility.yul\":6312:6324   */\n      swap4\n      dup3\n      add\n      swap4\n        /* \"#utility.yul\":6186:6334   */\n      jump(tag_522)\n    tag_524:\n        /* \"#utility.yul\":6353:6359   */\n      swap10\n        /* \"#utility.yul\":6391:6409   */\n      swap8\n      swap1\n      swap2\n      add\n        /* \"#utility.yul\":6378:6410   */\n      calldataload\n      swap8\n      pop\n      pop\n      pop\n      pop\n      pop\n      pop\n      pop\n        /* \"#utility.yul\":5225:6416   */\n      jump\t// out\n        /* \"#utility.yul\":6421:6860   */\n    tag_472:\n        /* \"#utility.yul\":6474:6477   */\n      0x00\n        /* \"#utility.yul\":6512:6517   */\n      dup2\n        /* \"#utility.yul\":6506:6518   */\n      mload\n        /* \"#utility.yul\":6539:6545   */\n      dup1\n        /* \"#utility.yul\":6534:6537   */\n      dup5\n        /* \"#utility.yul\":6527:6546   */\n      mstore\n        /* \"#utility.yul\":6565:6569   */\n      0x20\n        /* \"#utility.yul\":6594:6598   */\n      dup1\n        /* \"#utility.yul\":6589:6592   */\n      dup6\n        /* \"#utility.yul\":6585:6599   */\n      add\n        /* \"#utility.yul\":6578:6599   */\n      swap5\n      pop\n        /* \"#utility.yul\":6633:6637   */\n      0x20\n        /* \"#utility.yul\":6626:6631   */\n      dup5\n        /* \"#utility.yul\":6622:6638   */\n      add\n        /* \"#utility.yul\":6656:6657   */\n      0x00\n        /* \"#utility.yul\":6666:6835   */\n    tag_527:\n        /* \"#utility.yul\":6680:6686   */\n      dup4\n        /* \"#utility.yul\":6677:6678   */\n      dup2\n        /* \"#utility.yul\":6674:6687   */\n      lt\n        /* \"#utility.yul\":6666:6835   */\n      iszero\n      tag_529\n      jumpi\n        /* \"#utility.yul\":6741:6754   */\n      dup2\n      mload\n        /* \"#utility.yul\":6729:6755   */\n      dup8\n      mstore\n        /* \"#utility.yul\":6775:6787   */\n      swap6\n      dup3\n      add\n      swap6\n        /* \"#utility.yul\":6810:6825   */\n      swap1\n      dup3\n      add\n      swap1\n        /* \"#utility.yul\":6702:6703   */\n      0x01\n        /* \"#utility.yul\":6695:6704   */\n      add\n        /* \"#utility.yul\":6666:6835   */\n      jump(tag_527)\n    tag_529:\n      pop\n        /* \"#utility.yul\":6851:6854   */\n      swap5\n      swap6\n        /* \"#utility.yul\":6421:6860   */\n      swap5\n      pop\n      pop\n      pop\n      pop\n      pop\n      jump\t// out\n        /* \"#utility.yul\":6865:7330   */\n    tag_148:\n        /* \"#utility.yul\":7122:7124   */\n      0x40\n        /* \"#utility.yul\":7111:7120   */\n      dup2\n        /* \"#utility.yul\":7104:7125   */\n      mstore\n        /* \"#utility.yul\":7085:7089   */\n      0x00\n        /* \"#utility.yul\":7148:7204   */\n      tag_531\n        /* \"#utility.yul\":7200:7202   */\n      0x40\n        /* \"#utility.yul\":7189:7198   */\n      dup4\n        /* \"#utility.yul\":7185:7203   */\n      add\n        /* \"#utility.yul\":7177:7183   */\n      dup6\n        /* \"#utility.yul\":7148:7204   */\n      tag_472\n      jump\t// in\n    tag_531:\n        /* \"#utility.yul\":7252:7261   */\n      dup3\n        /* \"#utility.yul\":7244:7250   */\n      dup2\n        /* \"#utility.yul\":7240:7262   */\n      sub\n        /* \"#utility.yul\":7235:7237   */\n      0x20\n        /* \"#utility.yul\":7224:7233   */\n      dup5\n        /* \"#utility.yul\":7220:7238   */\n      add\n        /* \"#utility.yul\":7213:7263   */\n      mstore\n        /* \"#utility.yul\":7280:7324   */\n      tag_532\n        /* \"#utility.yul\":7317:7323   */\n      dup2\n        /* \"#utility.yul\":7309:7315   */\n      dup6\n        /* \"#utility.yul\":7280:7324   */\n      tag_472\n      jump\t// in\n    tag_532:\n        /* \"#utility.yul\":7272:7324   */\n      swap6\n        /* \"#utility.yul\":6865:7330   */\n      swap5\n      pop\n      pop\n      pop\n      pop\n      pop\n      jump\t// out\n        /* \"#utility.yul\":7335:7462   */\n    tag_473:\n        /* \"#utility.yul\":7396:7406   */\n      0x4e487b71\n        /* \"#utility.yul\":7391:7394   */\n      0xe0\n        /* \"#utility.yul\":7387:7407   */\n      shl\n        /* \"#utility.yul\":7384:7385   */\n      0x00\n        /* \"#utility.yul\":7377:7408   */\n      mstore\n        /* \"#utility.yul\":7427:7431   */\n      0x11\n        /* \"#utility.yul\":7424:7425   */\n      0x04\n        /* \"#utility.yul\":7417:7432   */\n      mstore\n        /* \"#utility.yul\":7451:7455   */\n      0x24\n        /* \"#utility.yul\":7448:7449   */\n      0x00\n        /* \"#utility.yul\":7441:7456   */\n      revert\n        /* \"#utility.yul\":7467:7595   */\n    tag_174:\n        /* \"#utility.yul\":7534:7543   */\n      dup2\n      dup2\n      sub\n        /* \"#utility.yul\":7555:7566   */\n      dup2\n      dup2\n      gt\n        /* \"#utility.yul\":7552:7589   */\n      iszero\n      tag_268\n      jumpi\n        /* \"#utility.yul\":7569:7587   */\n      tag_268\n      tag_473\n      jump\t// in\n        /* \"#utility.yul\":7600:7727   */\n    tag_180:\n        /* \"#utility.yul\":7661:7671   */\n      0x4e487b71\n        /* \"#utility.yul\":7656:7659   */\n      0xe0\n        /* \"#utility.yul\":7652:7672   */\n      shl\n        /* \"#utility.yul\":7649:7650   */\n      0x00\n        /* \"#utility.yul\":7642:7673   */\n      mstore\n        /* \"#utility.yul\":7692:7696   */\n      0x32\n        /* \"#utility.yul\":7689:7690   */\n      0x04\n        /* \"#utility.yul\":7682:7697   */\n      mstore\n        /* \"#utility.yul\":7716:7720   */\n      0x24\n        /* \"#utility.yul\":7713:7714   */\n      0x00\n        /* \"#utility.yul\":7706:7721   */\n      revert\n        /* \"#utility.yul\":10263:10388   */\n    tag_294:\n        /* \"#utility.yul\":10328:10337   */\n      dup1\n      dup3\n      add\n        /* \"#utility.yul\":10349:10359   */\n      dup1\n      dup3\n      gt\n        /* \"#utility.yul\":10346:10382   */\n      iszero\n      tag_268\n      jumpi\n        /* \"#utility.yul\":10362:10380   */\n      tag_268\n      tag_473\n      jump\t// in\n        /* \"#utility.yul\":10393:10638   */\n    tag_335:\n        /* \"#utility.yul\":10460:10466   */\n      0x00\n        /* \"#utility.yul\":10513:10515   */\n      0x20\n        /* \"#utility.yul\":10501:10510   */\n      dup3\n        /* \"#utility.yul\":10492:10499   */\n      dup5\n        /* \"#utility.yul\":10488:10511   */\n      sub\n        /* \"#utility.yul\":10484:10516   */\n      slt\n        /* \"#utility.yul\":10481:10533   */\n      iszero\n      tag_549\n      jumpi\n        /* \"#utility.yul\":10529:10530   */\n      0x00\n        /* \"#utility.yul\":10526:10527   */\n      dup1\n        /* \"#utility.yul\":10519:10531   */\n      revert\n        /* \"#utility.yul\":10481:10533   */\n    tag_549:\n        /* \"#utility.yul\":10561:10570   */\n      dup2\n        /* \"#utility.yul\":10555:10571   */\n      mload\n        /* \"#utility.yul\":10580:10608   */\n      tag_378\n        /* \"#utility.yul\":10602:10607   */\n      dup2\n        /* \"#utility.yul\":10580:10608   */\n      tag_470\n      jump\t// in\n        /* \"#utility.yul\":11401:11569   */\n    tag_384:\n        /* \"#utility.yul\":11474:11483   */\n      dup1\n      dup3\n      mul\n        /* \"#utility.yul\":11505:11514   */\n      dup2\n      iszero\n        /* \"#utility.yul\":11522:11537   */\n      dup3\n      dup3\n      div\n        /* \"#utility.yul\":11516:11538   */\n      dup5\n      eq\n        /* \"#utility.yul\":11502:11539   */\n      or\n        /* \"#utility.yul\":11492:11563   */\n      tag_268\n      jumpi\n        /* \"#utility.yul\":11543:11561   */\n      tag_268\n      tag_473\n      jump\t// in\n        /* \"#utility.yul\":11574:11791   */\n    tag_386:\n        /* \"#utility.yul\":11614:11615   */\n      0x00\n        /* \"#utility.yul\":11640:11641   */\n      dup3\n        /* \"#utility.yul\":11630:11762   */\n      tag_557\n      jumpi\n        /* \"#utility.yul\":11684:11694   */\n      0x4e487b71\n        /* \"#utility.yul\":11679:11682   */\n      0xe0\n        /* \"#utility.yul\":11675:11695   */\n      shl\n        /* \"#utility.yul\":11672:11673   */\n      0x00\n        /* \"#utility.yul\":11665:11696   */\n      mstore\n        /* \"#utility.yul\":11719:11723   */\n      0x12\n        /* \"#utility.yul\":11716:11717   */\n      0x04\n        /* \"#utility.yul\":11709:11724   */\n      mstore\n        /* \"#utility.yul\":11747:11751   */\n      0x24\n        /* \"#utility.yul\":11744:11745   */\n      0x00\n        /* \"#utility.yul\":11737:11752   */\n      revert\n        /* \"#utility.yul\":11630:11762   */\n    tag_557:\n      pop\n        /* \"#utility.yul\":11776:11785   */\n      div\n      swap1\n        /* \"#utility.yul\":11574:11791   */\n      jump\t// out\n        /* \"#utility.yul\":13571:13983   */\n    tag_452:\n        /* \"#utility.yul\":13700:13703   */\n      0x00\n        /* \"#utility.yul\":13738:13744   */\n      dup3\n        /* \"#utility.yul\":13732:13745   */\n      mload\n        /* \"#utility.yul\":13763:13764   */\n      0x00\n        /* \"#utility.yul\":13773:13902   */\n    tag_564:\n        /* \"#utility.yul\":13787:13793   */\n      dup2\n        /* \"#utility.yul\":13784:13785   */\n      dup2\n        /* \"#utility.yul\":13781:13794   */\n      lt\n        /* \"#utility.yul\":13773:13902   */\n      iszero\n      tag_566\n      jumpi\n        /* \"#utility.yul\":13885:13889   */\n      0x20\n        /* \"#utility.yul\":13869:13883   */\n      dup2\n      dup7\n      add\n        /* \"#utility.yul\":13865:13890   */\n      dup2\n      add\n        /* \"#utility.yul\":13859:13891   */\n      mload\n        /* \"#utility.yul\":13846:13857   */\n      dup6\n      dup4\n      add\n        /* \"#utility.yul\":13839:13892   */\n      mstore\n        /* \"#utility.yul\":13802:13814   */\n      add\n        /* \"#utility.yul\":13773:13902   */\n      jump(tag_564)\n    tag_566:\n      pop\n        /* \"#utility.yul\":13957:13958   */\n      0x00\n        /* \"#utility.yul\":13921:13937   */\n      swap3\n      add\n        /* \"#utility.yul\":13946:13959   */\n      swap2\n      dup3\n      mstore\n      pop\n        /* \"#utility.yul\":13921:13937   */\n      swap2\n        /* \"#utility.yul\":13571:13983   */\n      swap1\n      pop\n      jump\t// out\n\n    auxdata: 0xa26469706673582212203049d4d7f6ab6eeb7a3c8f4dcd6e72906c35301870d43fa6f875c73f174cbee064736f6c63430008180033\n}\n",
				"bytecode": {
					"linkReferences": {},
					"object": "608060405234801561000f575f80fd5b50611cd48061001d5f395ff3fe608060405234801561000f575f80fd5b50600436106101d1575f3560e01c8063785e9e86116100fe578063ca1d209d1161009e578063e6fd48bc1161006e578063e6fd48bc1461041d578063ed95f07f14610426578063f2fde38b14610439578063fcfc1b141461044c575f80fd5b8063ca1d209d146103d1578063e2bbb158146103e4578063e4c75c27146103f7578063e6f04acc1461040a575f80fd5b806393f1a40b116100d957806393f1a40b1461034e578063a2383106146103a2578063a85adeab146103b5578063aa5f7e26146103be575f80fd5b8063785e9e86146102eb5780638da5cb5b146103155780638f10369a14610345575f80fd5b8063441a3e70116101745780635c76ca2d116101445780635c76ca2d146102bf578063630b5ba1146102c857806364482f79146102d0578063715018a6146102e3575f80fd5b8063441a3e701461027357806351eb05a6146102865780635312ea8e1461029957806357fb25cc146102ac575f80fd5b806317caf6f1116101af57806317caf6f11461023a5780631eaaa045146102435780633dfcb861146102585780633f90916a1461026b575f80fd5b8063081e3eda146101d55780630e15561a146101ec5780631526fe27146101f5575b5f80fd5b6005545b6040519081526020015b60405180910390f35b6101d960035481565b6102086102033660046118e7565b61046d565b604080516001600160a01b0390961686526020860194909452928401919091526060830152608082015260a0016101e3565b6101d960075481565b61025661025136600461191f565b6104b6565b005b61025661026636600461196e565b610610565b6101d961064c565b610256610281366004611989565b61069d565b6102566102943660046118e7565b6108ac565b6102566102a73660046118e7565b61098e565b6102566102ba3660046119a9565b610ac4565b6101d960015481565b610256610c14565b6102566102de366004611a04565b610c36565b610256610cbf565b5f546102fd906001600160a01b031681565b6040516001600160a01b0390911681526020016101e3565b7f9016d09d72d40fdae2fd8ceac6b6234c7706214fd39c1cd1e609a0528c199300546001600160a01b03166102fd565b6101d960025481565b61038761035c366004611a2f565b600660209081525f928352604080842090915290825290208054600182015460029092015490919083565b604080519384526020840192909252908201526060016101e3565b6101d96103b0366004611a2f565b610cd2565b6101d960095481565b6102566103cc3660046118e7565b610cfb565b6102566103df3660046118e7565b610e08565b6102566103f2366004611989565b610eb1565b6101d9610405366004611a2f565b610fd6565b610256610418366004611a5d565b6110fd565b6101d960085481565b6004546102fd906001600160a01b031681565b61025661044736600461196e565b611220565b61045f61045a366004611aa6565b61125d565b6040516101e3929190611ba6565b6005818154811061047c575f80fd5b5f918252602090912060059091020180546001820154600283015460038401546004909401546001600160a01b0390931694509092909185565b6104be61138e565b80156104cc576104cc610c14565b5f60085442116104de576008546104e0565b425b6007549091506104f090856113e9565b6007556040805160a0810182526001600160a01b039485168152602081019586529081019182525f6060820181815260808301828152600580546001810182559381905293517f036b6384b5eca791c62761152d0c79bb0604c104a5fb6f4eb0703f3154bb3db09390940292830180546001600160a01b031916949097169390931790955594517f036b6384b5eca791c62761152d0c79bb0604c104a5fb6f4eb0703f3154bb3db186015590517f036b6384b5eca791c62761152d0c79bb0604c104a5fb6f4eb0703f3154bb3db285015591517f036b6384b5eca791c62761152d0c79bb0604c104a5fb6f4eb0703f3154bb3db384015550517f036b6384b5eca791c62761152d0c79bb0604c104a5fb6f4eb0703f3154bb3db490910155565b61061861138e565b6001600160a01b03811661062a575f80fd5b600480546001600160a01b0319166001600160a01b0392909216919091179055565b5f600854421161065b57505f90565b5f600954421061066d5760095461066f565b425b9050610697600154610691600854846106889190611be7565b6002549061144e565b906114cc565b91505090565b5f600583815481106106b1576106b1611bfa565b5f9182526020808320868452600682526040808520338652909252922060028101546005909202909201925042101561074b5760405162461bcd60e51b815260206004820152603160248201527f4c6173742073616c6520796f75207265676973746572656420666f72206973206044820152703737ba103334b734b9b432b2103cb2ba1760791b60648201526084015b60405180910390fd5b80548311156107af5760405162461bcd60e51b815260206004820152602a60248201527f77697468647261773a2063616e2774207769746864726177206d6f7265207468604482015269185b8819195c1bdcda5d60b21b6064820152608401610742565b6107b8846108ac565b5f6107f382600101546106916a0c097ce7bc90715b34b9f160241b6107ed8760030154875f015461144e90919063ffffffff16565b90611527565b90506107ff3382611581565b815461080b90856114cc565b8083556003840154610831916a0c097ce7bc90715b34b9f160241b916107ed919061144e565b6001830155825461084c906001600160a01b0316338661160f565b600483015461085b90856114cc565b6004840155831561086d575f60028301555b604051848152859033907ff279e6a1f5e320cca91135676d9cb6e44ca8a08c0b88342bcdb1144f6511b568906020015b60405180910390a35050505050565b5f600582815481106108c0576108c0611bfa565b905f5260205f20906005020190505f60095442106108e0576009546108e2565b425b9050816002015481116108f6575060028101545b60048201545f81900361090d575060029091015550565b5f6109258460020154846114cc90919063ffffffff16565b90505f6109516007546107ed876001015461094b6002548761144e90919063ffffffff16565b9061144e565b905061097d610972846107ed846a0c097ce7bc90715b34b9f160241b61144e565b6003870154906113e9565b600386015550505060029091015550565b5f600582815481106109a2576109a2611bfa565b5f91825260208083208584526006825260408085203386529092529220600281015460059092029092019250421015610a435760405162461bcd60e51b815260206004820152603b60248201527f456d657267656e637920776974686472617720626c6f636b656420647572696e60448201527f672073616c6520616e6420636f6f6c646f776e20706572696f642e00000000006064820152608401610742565b80548254610a5e916001600160a01b0390911690339061160f565b8054604051908152839033907fbb757047c2b5f3974fe26b7c10f732e7bce710b0952a71082702781e62ae05959060200160405180910390a380546004830154610aa7916114cc565b6004909201919091555f8082556001820181905560029091015550565b7ff0c57e16840df040f15088dc2f81fe391c3923bec73e23a9662efc9c229c6a008054600160401b810460ff16159067ffffffffffffffff165f81158015610b095750825b90505f8267ffffffffffffffff166001148015610b255750303b155b905081158015610b33575080155b15610b515760405163f92ee8a960e01b815260040160405180910390fd5b845467ffffffffffffffff191660011785558315610b7b57845460ff60401b1916600160401b1785555b610b848a611673565b5f80546001600160a01b03808c166001600160a01b03199283161790925560028a90556008899055600989905560048054928916929091169190911790558315610c0857845460ff60401b19168555604051600181527fc7f505b2f371ae2175ee4913f4499e1f2633a7b5936321eed1cdaeb6115181d29060200160405180910390a15b50505050505050505050565b6005545f5b81811015610c3257610c2a816108ac565b600101610c19565b5050565b610c3e61138e565b8015610c4c57610c4c610c14565b610c8d82610c8760058681548110610c6657610c66611bfa565b905f5260205f209060050201600101546007546114cc90919063ffffffff16565b906113e9565b6007819055508160058481548110610ca757610ca7611bfa565b905f5260205f20906005020160010181905550505050565b610cc761138e565b610cd05f611684565b565b5f8281526006602090815260408083206001600160a01b03851684529091529020545b92915050565b5f60058281548110610d0f57610d0f611bfa565b5f9182526020808320858452600682526040808520338652909252922060059091029091019150610d3f836108ac565b5f610d7482600101546106916a0c097ce7bc90715b34b9f160241b6107ed8760030154875f015461144e90919063ffffffff16565b8254909150610d8390826113e9565b8083556003840154610da9916a0c097ce7bc90715b34b9f160241b916107ed919061144e565b60018301556004830154610dbd90826113e9565b60048401558154604080518381526020810192909252859133917f92f0bdf80f3916a4279540865e94ef327cf48639092106cca4bddc9bb1de4a86910160405180910390a350505050565b6009544210610e645760405162461bcd60e51b815260206004820152602260248201527f66756e643a20746f6f206c6174652c20746865206661726d20697320636c6f73604482015261195960f21b6064820152608401610742565b5f54610e7b906001600160a01b03163330846116f4565b600254610e89908290611527565b60095f828254610e999190611c0e565b9091555050600354610eab90826113e9565b60035550565b5f60058381548110610ec557610ec5611bfa565b5f918252602080832086845260068252604080852033865290925292206005909102909101915082610ef6856108ac565b815415610f40575f610f3283600101546106916a0c097ce7bc90715b34b9f160241b6107ed8860030154885f015461144e90919063ffffffff16565b9050610f3e3382611581565b505b8254610f57906001600160a01b03163330876116f4565b6004830154610f6690826113e9565b60048401558154610f7790826113e9565b8083556003840154610f9d916a0c097ce7bc90715b34b9f160241b916107ed919061144e565b6001830155604051818152859033907f90890809c654f11d6e72a28fa60149770a0d11ec6c92319d6ceb2bb0a4ea1a159060200161089d565b5f8060058481548110610feb57610feb611bfa565b5f91825260208083208784526006825260408085206001600160a01b0389168652909252922060036005909202909201908101546004820154600283015492945090914211801561103b57508015155b156110c2575f600954421061105257600954611054565b425b90505f61106e8660020154836114cc90919063ffffffff16565b90505f6110946007546107ed896001015461094b6002548761144e90919063ffffffff16565b90506110bc6110b5856107ed846a0c097ce7bc90715b34b9f160241b61144e565b86906113e9565b94505050505b6110f283600101546106916a0c097ce7bc90715b34b9f160241b6107ed86885f015461144e90919063ffffffff16565b979650505050505050565b60048054604051631400493d60e31b815233928101929092526001600160a01b03169063a00249e890602401602060405180830381865afa158015611144573d5f803e3d5ffd5b505050506040513d601f19601f820116820180604052508101906111689190611c21565b6111be5760405162461bcd60e51b815260206004820152602160248201527f53616c65206e6f742063726561746564207468726f75676820666163746f72796044820152601760f91b6064820152608401610742565b5f8381526006602090815260408083206001600160a01b0386168452909152902060028101544210156111ef575f80fd5b600281019190915560030180546001810182555f91825260209091200180546001600160a01b031916331790555050565b61122861138e565b6001600160a01b03811661125157604051631e4fbdf760e01b81525f6004820152602401610742565b61125a81611684565b50565b6060805f845167ffffffffffffffff81111561127b5761127b611a92565b6040519080825280602002602001820160405280156112a4578160200160208202803683370190505b5090505f855167ffffffffffffffff8111156112c2576112c2611a92565b6040519080825280602002602001820160405280156112eb578160200160208202803683370190505b5090505f5b86518110156113825761131c8688838151811061130f5761130f611bfa565b6020026020010151610cd2565b83828151811061132e5761132e611bfa565b60200260200101818152505061135d8688838151811061135057611350611bfa565b6020026020010151610fd6565b82828151811061136f5761136f611bfa565b60209081029190910101526001016112f0565b50909590945092505050565b336113c07f9016d09d72d40fdae2fd8ceac6b6234c7706214fd39c1cd1e609a0528c199300546001600160a01b031690565b6001600160a01b031614610cd05760405163118cdaa760e01b8152336004820152602401610742565b5f806113f58385611c0e565b9050838110156114475760405162461bcd60e51b815260206004820152601b60248201527f536166654d6174683a206164646974696f6e206f766572666c6f7700000000006044820152606401610742565b9392505050565b5f825f0361145d57505f610cf5565b5f6114688385611c3c565b9050826114758583611c53565b146114475760405162461bcd60e51b815260206004820152602160248201527f536166654d6174683a206d756c7469706c69636174696f6e206f766572666c6f6044820152607760f81b6064820152608401610742565b5f8282111561151d5760405162461bcd60e51b815260206004820152601e60248201527f536166654d6174683a207375627472616374696f6e206f766572666c6f7700006044820152606401610742565b6114478284611be7565b5f8082116115775760405162461bcd60e51b815260206004820152601a60248201527f536166654d6174683a206469766973696f6e206279207a65726f0000000000006044820152606401610742565b6114478284611c53565b5f5460405163a9059cbb60e01b81526001600160a01b038481166004830152602482018490529091169063a9059cbb906044016020604051808303815f875af11580156115d0573d5f803e3d5ffd5b505050506040513d601f19601f820116820180604052508101906115f49190611c21565b508060015f8282546116069190611c0e565b90915550505050565b6040516001600160a01b0383811660248301526044820183905261166e91859182169063a9059cbb906064015b604051602081830303815290604052915060e01b6020820180516001600160e01b038381831617835250505050611733565b505050565b61167b611794565b61125a816117dd565b7f9016d09d72d40fdae2fd8ceac6b6234c7706214fd39c1cd1e609a0528c19930080546001600160a01b031981166001600160a01b03848116918217845560405192169182907f8be0079c531659141344cd1fd0a4f28419497f9722a3daafe3b4186f6b6457e0905f90a3505050565b6040516001600160a01b03848116602483015283811660448301526064820183905261172d9186918216906323b872dd9060840161163c565b50505050565b5f6117476001600160a01b038416836117e5565b905080515f1415801561176b5750808060200190518101906117699190611c21565b155b1561166e57604051635274afe760e01b81526001600160a01b0384166004820152602401610742565b7ff0c57e16840df040f15088dc2f81fe391c3923bec73e23a9662efc9c229c6a0054600160401b900460ff16610cd057604051631afcd79f60e31b815260040160405180910390fd5b611228611794565b606061144783835f845f80856001600160a01b031684866040516118099190611c72565b5f6040518083038185875af1925050503d805f8114611843576040519150601f19603f3d011682016040523d82523d5f602084013e611848565b606091505b5091509150611858868383611862565b9695505050505050565b60608261187757611872826118be565b611447565b815115801561188e57506001600160a01b0384163b155b156118b757604051639996b31560e01b81526001600160a01b0385166004820152602401610742565b5080611447565b8051156118ce5780518082602001fd5b604051630a12f52160e11b815260040160405180910390fd5b5f602082840312156118f7575f80fd5b5035919050565b6001600160a01b038116811461125a575f80fd5b801515811461125a575f80fd5b5f805f60608486031215611931575f80fd5b833592506020840135611943816118fe565b9150604084013561195381611912565b809150509250925092565b8035611969816118fe565b919050565b5f6020828403121561197e575f80fd5b8135611447816118fe565b5f806040838503121561199a575f80fd5b50508035926020909101359150565b5f805f805f60a086880312156119bd575f80fd5b85356119c8816118fe565b945060208601356119d8816118fe565b9350604086013592506060860135915060808601356119f6816118fe565b809150509295509295909350565b5f805f60608486031215611a16575f80fd5b8335925060208401359150604084013561195381611912565b5f8060408385031215611a40575f80fd5b823591506020830135611a52816118fe565b809150509250929050565b5f805f60608486031215611a6f575f80fd5b833592506020840135611a81816118fe565b929592945050506040919091013590565b634e487b7160e01b5f52604160045260245ffd5b5f8060408385031215611ab7575f80fd5b823567ffffffffffffffff80821115611ace575f80fd5b818501915085601f830112611ae1575f80fd5b8135602082821115611af557611af5611a92565b8160051b604051601f19603f83011681018181108682111715611b1a57611b1a611a92565b604052928352818301935084810182019289841115611b37575f80fd5b948201945b83861015611b5c57611b4d8661195e565b85529482019493820193611b3c565b9997909101359750505050505050565b5f815180845260208085019450602084015f5b83811015611b9b57815187529582019590820190600101611b7f565b509495945050505050565b604081525f611bb86040830185611b6c565b8281036020840152611bca8185611b6c565b95945050505050565b634e487b7160e01b5f52601160045260245ffd5b81810381811115610cf557610cf5611bd3565b634e487b7160e01b5f52603260045260245ffd5b80820180821115610cf557610cf5611bd3565b5f60208284031215611c31575f80fd5b815161144781611912565b8082028115828204841417610cf557610cf5611bd3565b5f82611c6d57634e487b7160e01b5f52601260045260245ffd5b500490565b5f82515f5b81811015611c915760208186018101518583015201611c77565b505f92019182525091905056fea26469706673582212203049d4d7f6ab6eeb7a3c8f4dcd6e72906c35301870d43fa6f875c73f174cbee064736f6c63430008180033",
					"opcodes": "PUSH1 0x80 PUSH1 0x40 MSTORE CALLVALUE DUP1 ISZERO PUSH2 0xF JUMPI PUSH0 DUP1 REVERT JUMPDEST POP PUSH2 0x1CD4 DUP1 PUSH2 0x1D PUSH0 CODECOPY PUSH0 RETURN INVALID PUSH1 0x80 PUSH1 0x40 MSTORE CALLVALUE DUP1 ISZERO PUSH2 0xF JUMPI PUSH0 DUP1 REVERT JUMPDEST POP PUSH1 0x4 CALLDATASIZE LT PUSH2 0x1D1 JUMPI PUSH0 CALLDATALOAD PUSH1 0xE0 SHR DUP1 PUSH4 0x785E9E86 GT PUSH2 0xFE JUMPI DUP1 PUSH4 0xCA1D209D GT PUSH2 0x9E JUMPI DUP1 PUSH4 0xE6FD48BC GT PUSH2 0x6E JUMPI DUP1 PUSH4 0xE6FD48BC EQ PUSH2 0x41D JUMPI DUP1 PUSH4 0xED95F07F EQ PUSH2 0x426 JUMPI DUP1 PUSH4 0xF2FDE38B EQ PUSH2 0x439 JUMPI DUP1 PUSH4 0xFCFC1B14 EQ PUSH2 0x44C JUMPI PUSH0 DUP1 REVERT JUMPDEST DUP1 PUSH4 0xCA1D209D EQ PUSH2 0x3D1 JUMPI DUP1 PUSH4 0xE2BBB158 EQ PUSH2 0x3E4 JUMPI DUP1 PUSH4 0xE4C75C27 EQ PUSH2 0x3F7 JUMPI DUP1 PUSH4 0xE6F04ACC EQ PUSH2 0x40A JUMPI PUSH0 DUP1 REVERT JUMPDEST DUP1 PUSH4 0x93F1A40B GT PUSH2 0xD9 JUMPI DUP1 PUSH4 0x93F1A40B EQ PUSH2 0x34E JUMPI DUP1 PUSH4 0xA2383106 EQ PUSH2 0x3A2 JUMPI DUP1 PUSH4 0xA85ADEAB EQ PUSH2 0x3B5 JUMPI DUP1 PUSH4 0xAA5F7E26 EQ PUSH2 0x3BE JUMPI PUSH0 DUP1 REVERT JUMPDEST DUP1 PUSH4 0x785E9E86 EQ PUSH2 0x2EB JUMPI DUP1 PUSH4 0x8DA5CB5B EQ PUSH2 0x315 JUMPI DUP1 PUSH4 0x8F10369A EQ PUSH2 0x345 JUMPI PUSH0 DUP1 REVERT JUMPDEST DUP1 PUSH4 0x441A3E70 GT PUSH2 0x174 JUMPI DUP1 PUSH4 0x5C76CA2D GT PUSH2 0x144 JUMPI DUP1 PUSH4 0x5C76CA2D EQ PUSH2 0x2BF JUMPI DUP1 PUSH4 0x630B5BA1 EQ PUSH2 0x2C8 JUMPI DUP1 PUSH4 0x64482F79 EQ PUSH2 0x2D0 JUMPI DUP1 PUSH4 0x715018A6 EQ PUSH2 0x2E3 JUMPI PUSH0 DUP1 REVERT JUMPDEST DUP1 PUSH4 0x441A3E70 EQ PUSH2 0x273 JUMPI DUP1 PUSH4 0x51EB05A6 EQ PUSH2 0x286 JUMPI DUP1 PUSH4 0x5312EA8E EQ PUSH2 0x299 JUMPI DUP1 PUSH4 0x57FB25CC EQ PUSH2 0x2AC JUMPI PUSH0 DUP1 REVERT JUMPDEST DUP1 PUSH4 0x17CAF6F1 GT PUSH2 0x1AF JUMPI DUP1 PUSH4 0x17CAF6F1 EQ PUSH2 0x23A JUMPI DUP1 PUSH4 0x1EAAA045 EQ PUSH2 0x243 JUMPI DUP1 PUSH4 0x3DFCB861 EQ PUSH2 0x258 JUMPI DUP1 PUSH4 0x3F90916A EQ PUSH2 0x26B JUMPI PUSH0 DUP1 REVERT JUMPDEST DUP1 PUSH4 0x81E3EDA EQ PUSH2 0x1D5 JUMPI DUP1 PUSH4 0xE15561A EQ PUSH2 0x1EC JUMPI DUP1 PUSH4 0x1526FE27 EQ PUSH2 0x1F5 JUMPI JUMPDEST PUSH0 DUP1 REVERT JUMPDEST PUSH1 0x5 SLOAD JUMPDEST PUSH1 0x40 MLOAD SWAP1 DUP2 MSTORE PUSH1 0x20 ADD JUMPDEST PUSH1 0x40 MLOAD DUP1 SWAP2 SUB SWAP1 RETURN JUMPDEST PUSH2 0x1D9 PUSH1 0x3 SLOAD DUP2 JUMP JUMPDEST PUSH2 0x208 PUSH2 0x203 CALLDATASIZE PUSH1 0x4 PUSH2 0x18E7 JUMP JUMPDEST PUSH2 0x46D JUMP JUMPDEST PUSH1 0x40 DUP1 MLOAD PUSH1 0x1 PUSH1 0x1 PUSH1 0xA0 SHL SUB SWAP1 SWAP7 AND DUP7 MSTORE PUSH1 0x20 DUP7 ADD SWAP5 SWAP1 SWAP5 MSTORE SWAP3 DUP5 ADD SWAP2 SWAP1 SWAP2 MSTORE PUSH1 0x60 DUP4 ADD MSTORE PUSH1 0x80 DUP3 ADD MSTORE PUSH1 0xA0 ADD PUSH2 0x1E3 JUMP JUMPDEST PUSH2 0x1D9 PUSH1 0x7 SLOAD DUP2 JUMP JUMPDEST PUSH2 0x256 PUSH2 0x251 CALLDATASIZE PUSH1 0x4 PUSH2 0x191F JUMP JUMPDEST PUSH2 0x4B6 JUMP JUMPDEST STOP JUMPDEST PUSH2 0x256 PUSH2 0x266 CALLDATASIZE PUSH1 0x4 PUSH2 0x196E JUMP JUMPDEST PUSH2 0x610 JUMP JUMPDEST PUSH2 0x1D9 PUSH2 0x64C JUMP JUMPDEST PUSH2 0x256 PUSH2 0x281 CALLDATASIZE PUSH1 0x4 PUSH2 0x1989 JUMP JUMPDEST PUSH2 0x69D JUMP JUMPDEST PUSH2 0x256 PUSH2 0x294 CALLDATASIZE PUSH1 0x4 PUSH2 0x18E7 JUMP JUMPDEST PUSH2 0x8AC JUMP JUMPDEST PUSH2 0x256 PUSH2 0x2A7 CALLDATASIZE PUSH1 0x4 PUSH2 0x18E7 JUMP JUMPDEST PUSH2 0x98E JUMP JUMPDEST PUSH2 0x256 PUSH2 0x2BA CALLDATASIZE PUSH1 0x4 PUSH2 0x19A9 JUMP JUMPDEST PUSH2 0xAC4 JUMP JUMPDEST PUSH2 0x1D9 PUSH1 0x1 SLOAD DUP2 JUMP JUMPDEST PUSH2 0x256 PUSH2 0xC14 JUMP JUMPDEST PUSH2 0x256 PUSH2 0x2DE CALLDATASIZE PUSH1 0x4 PUSH2 0x1A04 JUMP JUMPDEST PUSH2 0xC36 JUMP JUMPDEST PUSH2 0x256 PUSH2 0xCBF JUMP JUMPDEST PUSH0 SLOAD PUSH2 0x2FD SWAP1 PUSH1 0x1 PUSH1 0x1 PUSH1 0xA0 SHL SUB AND DUP2 JUMP JUMPDEST PUSH1 0x40 MLOAD PUSH1 0x1 PUSH1 0x1 PUSH1 0xA0 SHL SUB SWAP1 SWAP2 AND DUP2 MSTORE PUSH1 0x20 ADD PUSH2 0x1E3 JUMP JUMPDEST PUSH32 0x9016D09D72D40FDAE2FD8CEAC6B6234C7706214FD39C1CD1E609A0528C199300 SLOAD PUSH1 0x1 PUSH1 0x1 PUSH1 0xA0 SHL SUB AND PUSH2 0x2FD JUMP JUMPDEST PUSH2 0x1D9 PUSH1 0x2 SLOAD DUP2 JUMP JUMPDEST PUSH2 0x387 PUSH2 0x35C CALLDATASIZE PUSH1 0x4 PUSH2 0x1A2F JUMP JUMPDEST PUSH1 0x6 PUSH1 0x20 SWAP1 DUP2 MSTORE PUSH0 SWAP3 DUP4 MSTORE PUSH1 0x40 DUP1 DUP5 KECCAK256 SWAP1 SWAP2 MSTORE SWAP1 DUP3 MSTORE SWAP1 KECCAK256 DUP1 SLOAD PUSH1 0x1 DUP3 ADD SLOAD PUSH1 0x2 SWAP1 SWAP3 ADD SLOAD SWAP1 SWAP2 SWAP1 DUP4 JUMP JUMPDEST PUSH1 0x40 DUP1 MLOAD SWAP4 DUP5 MSTORE PUSH1 0x20 DUP5 ADD SWAP3 SWAP1 SWAP3 MSTORE SWAP1 DUP3 ADD MSTORE PUSH1 0x60 ADD PUSH2 0x1E3 JUMP JUMPDEST PUSH2 0x1D9 PUSH2 0x3B0 CALLDATASIZE PUSH1 0x4 PUSH2 0x1A2F JUMP JUMPDEST PUSH2 0xCD2 JUMP JUMPDEST PUSH2 0x1D9 PUSH1 0x9 SLOAD DUP2 JUMP JUMPDEST PUSH2 0x256 PUSH2 0x3CC CALLDATASIZE PUSH1 0x4 PUSH2 0x18E7 JUMP JUMPDEST PUSH2 0xCFB JUMP JUMPDEST PUSH2 0x256 PUSH2 0x3DF CALLDATASIZE PUSH1 0x4 PUSH2 0x18E7 JUMP JUMPDEST PUSH2 0xE08 JUMP JUMPDEST PUSH2 0x256 PUSH2 0x3F2 CALLDATASIZE PUSH1 0x4 PUSH2 0x1989 JUMP JUMPDEST PUSH2 0xEB1 JUMP JUMPDEST PUSH2 0x1D9 PUSH2 0x405 CALLDATASIZE PUSH1 0x4 PUSH2 0x1A2F JUMP JUMPDEST PUSH2 0xFD6 JUMP JUMPDEST PUSH2 0x256 PUSH2 0x418 CALLDATASIZE PUSH1 0x4 PUSH2 0x1A5D JUMP JUMPDEST PUSH2 0x10FD JUMP JUMPDEST PUSH2 0x1D9 PUSH1 0x8 SLOAD DUP2 JUMP JUMPDEST PUSH1 0x4 SLOAD PUSH2 0x2FD SWAP1 PUSH1 0x1 PUSH1 0x1 PUSH1 0xA0 SHL SUB AND DUP2 JUMP JUMPDEST PUSH2 0x256 PUSH2 0x447 CALLDATASIZE PUSH1 0x4 PUSH2 0x196E JUMP JUMPDEST PUSH2 0x1220 JUMP JUMPDEST PUSH2 0x45F PUSH2 0x45A CALLDATASIZE PUSH1 0x4 PUSH2 0x1AA6 JUMP JUMPDEST PUSH2 0x125D JUMP JUMPDEST PUSH1 0x40 MLOAD PUSH2 0x1E3 SWAP3 SWAP2 SWAP1 PUSH2 0x1BA6 JUMP JUMPDEST PUSH1 0x5 DUP2 DUP2 SLOAD DUP2 LT PUSH2 0x47C JUMPI PUSH0 DUP1 REVERT JUMPDEST PUSH0 SWAP2 DUP3 MSTORE PUSH1 0x20 SWAP1 SWAP2 KECCAK256 PUSH1 0x5 SWAP1 SWAP2 MUL ADD DUP1 SLOAD PUSH1 0x1 DUP3 ADD SLOAD PUSH1 0x2 DUP4 ADD SLOAD PUSH1 0x3 DUP5 ADD SLOAD PUSH1 0x4 SWAP1 SWAP5 ADD SLOAD PUSH1 0x1 PUSH1 0x1 PUSH1 0xA0 SHL SUB SWAP1 SWAP4 AND SWAP5 POP SWAP1 SWAP3 SWAP1 SWAP2 DUP6 JUMP JUMPDEST PUSH2 0x4BE PUSH2 0x138E JUMP JUMPDEST DUP1 ISZERO PUSH2 0x4CC JUMPI PUSH2 0x4CC PUSH2 0xC14 JUMP JUMPDEST PUSH0 PUSH1 0x8 SLOAD TIMESTAMP GT PUSH2 0x4DE JUMPI PUSH1 0x8 SLOAD PUSH2 0x4E0 JUMP JUMPDEST TIMESTAMP JUMPDEST PUSH1 0x7 SLOAD SWAP1 SWAP2 POP PUSH2 0x4F0 SWAP1 DUP6 PUSH2 0x13E9 JUMP JUMPDEST PUSH1 0x7 SSTORE PUSH1 0x40 DUP1 MLOAD PUSH1 0xA0 DUP2 ADD DUP3 MSTORE PUSH1 0x1 PUSH1 0x1 PUSH1 0xA0 SHL SUB SWAP5 DUP6 AND DUP2 MSTORE PUSH1 0x20 DUP2 ADD SWAP6 DUP7 MSTORE SWAP1 DUP2 ADD SWAP2 DUP3 MSTORE PUSH0 PUSH1 0x60 DUP3 ADD DUP2 DUP2 MSTORE PUSH1 0x80 DUP4 ADD DUP3 DUP2 MSTORE PUSH1 0x5 DUP1 SLOAD PUSH1 0x1 DUP2 ADD DUP3 SSTORE SWAP4 DUP2 SWAP1 MSTORE SWAP4 MLOAD PUSH32 0x36B6384B5ECA791C62761152D0C79BB0604C104A5FB6F4EB0703F3154BB3DB0 SWAP4 SWAP1 SWAP5 MUL SWAP3 DUP4 ADD DUP1 SLOAD PUSH1 0x1 PUSH1 0x1 PUSH1 0xA0 SHL SUB NOT AND SWAP5 SWAP1 SWAP8 AND SWAP4 SWAP1 SWAP4 OR SWAP1 SWAP6 SSTORE SWAP5 MLOAD PUSH32 0x36B6384B5ECA791C62761152D0C79BB0604C104A5FB6F4EB0703F3154BB3DB1 DUP7 ADD SSTORE SWAP1 MLOAD PUSH32 0x36B6384B5ECA791C62761152D0C79BB0604C104A5FB6F4EB0703F3154BB3DB2 DUP6 ADD SSTORE SWAP2 MLOAD PUSH32 0x36B6384B5ECA791C62761152D0C79BB0604C104A5FB6F4EB0703F3154BB3DB3 DUP5 ADD SSTORE POP MLOAD PUSH32 0x36B6384B5ECA791C62761152D0C79BB0604C104A5FB6F4EB0703F3154BB3DB4 SWAP1 SWAP2 ADD SSTORE JUMP JUMPDEST PUSH2 0x618 PUSH2 0x138E JUMP JUMPDEST PUSH1 0x1 PUSH1 0x1 PUSH1 0xA0 SHL SUB DUP2 AND PUSH2 0x62A JUMPI PUSH0 DUP1 REVERT JUMPDEST PUSH1 0x4 DUP1 SLOAD PUSH1 0x1 PUSH1 0x1 PUSH1 0xA0 SHL SUB NOT AND PUSH1 0x1 PUSH1 0x1 PUSH1 0xA0 SHL SUB SWAP3 SWAP1 SWAP3 AND SWAP2 SWAP1 SWAP2 OR SWAP1 SSTORE JUMP JUMPDEST PUSH0 PUSH1 0x8 SLOAD TIMESTAMP GT PUSH2 0x65B JUMPI POP PUSH0 SWAP1 JUMP JUMPDEST PUSH0 PUSH1 0x9 SLOAD TIMESTAMP LT PUSH2 0x66D JUMPI PUSH1 0x9 SLOAD PUSH2 0x66F JUMP JUMPDEST TIMESTAMP JUMPDEST SWAP1 POP PUSH2 0x697 PUSH1 0x1 SLOAD PUSH2 0x691 PUSH1 0x8 SLOAD DUP5 PUSH2 0x688 SWAP2 SWAP1 PUSH2 0x1BE7 JUMP JUMPDEST PUSH1 0x2 SLOAD SWAP1 PUSH2 0x144E JUMP JUMPDEST SWAP1 PUSH2 0x14CC JUMP JUMPDEST SWAP2 POP POP SWAP1 JUMP JUMPDEST PUSH0 PUSH1 0x5 DUP4 DUP2 SLOAD DUP2 LT PUSH2 0x6B1 JUMPI PUSH2 0x6B1 PUSH2 0x1BFA JUMP JUMPDEST PUSH0 SWAP2 DUP3 MSTORE PUSH1 0x20 DUP1 DUP4 KECCAK256 DUP7 DUP5 MSTORE PUSH1 0x6 DUP3 MSTORE PUSH1 0x40 DUP1 DUP6 KECCAK256 CALLER DUP7 MSTORE SWAP1 SWAP3 MSTORE SWAP3 KECCAK256 PUSH1 0x2 DUP2 ADD SLOAD PUSH1 0x5 SWAP1 SWAP3 MUL SWAP1 SWAP3 ADD SWAP3 POP TIMESTAMP LT ISZERO PUSH2 0x74B JUMPI PUSH1 0x40 MLOAD PUSH3 0x461BCD PUSH1 0xE5 SHL DUP2 MSTORE PUSH1 0x20 PUSH1 0x4 DUP3 ADD MSTORE PUSH1 0x31 PUSH1 0x24 DUP3 ADD MSTORE PUSH32 0x4C6173742073616C6520796F75207265676973746572656420666F7220697320 PUSH1 0x44 DUP3 ADD MSTORE PUSH17 0x3737BA103334B734B9B432B2103CB2BA17 PUSH1 0x79 SHL PUSH1 0x64 DUP3 ADD MSTORE PUSH1 0x84 ADD JUMPDEST PUSH1 0x40 MLOAD DUP1 SWAP2 SUB SWAP1 REVERT JUMPDEST DUP1 SLOAD DUP4 GT ISZERO PUSH2 0x7AF JUMPI PUSH1 0x40 MLOAD PUSH3 0x461BCD PUSH1 0xE5 SHL DUP2 MSTORE PUSH1 0x20 PUSH1 0x4 DUP3 ADD MSTORE PUSH1 0x2A PUSH1 0x24 DUP3 ADD MSTORE PUSH32 0x77697468647261773A2063616E2774207769746864726177206D6F7265207468 PUSH1 0x44 DUP3 ADD MSTORE PUSH10 0x185B8819195C1BDCDA5D PUSH1 0xB2 SHL PUSH1 0x64 DUP3 ADD MSTORE PUSH1 0x84 ADD PUSH2 0x742 JUMP JUMPDEST PUSH2 0x7B8 DUP5 PUSH2 0x8AC JUMP JUMPDEST PUSH0 PUSH2 0x7F3 DUP3 PUSH1 0x1 ADD SLOAD PUSH2 0x691 PUSH11 0xC097CE7BC90715B34B9F1 PUSH1 0x24 SHL PUSH2 0x7ED DUP8 PUSH1 0x3 ADD SLOAD DUP8 PUSH0 ADD SLOAD PUSH2 0x144E SWAP1 SWAP2 SWAP1 PUSH4 0xFFFFFFFF AND JUMP JUMPDEST SWAP1 PUSH2 0x1527 JUMP JUMPDEST SWAP1 POP PUSH2 0x7FF CALLER DUP3 PUSH2 0x1581 JUMP JUMPDEST DUP2 SLOAD PUSH2 0x80B SWAP1 DUP6 PUSH2 0x14CC JUMP JUMPDEST DUP1 DUP4 SSTORE PUSH1 0x3 DUP5 ADD SLOAD PUSH2 0x831 SWAP2 PUSH11 0xC097CE7BC90715B34B9F1 PUSH1 0x24 SHL SWAP2 PUSH2 0x7ED SWAP2 SWAP1 PUSH2 0x144E JUMP JUMPDEST PUSH1 0x1 DUP4 ADD SSTORE DUP3 SLOAD PUSH2 0x84C SWAP1 PUSH1 0x1 PUSH1 0x1 PUSH1 0xA0 SHL SUB AND CALLER DUP7 PUSH2 0x160F JUMP JUMPDEST PUSH1 0x4 DUP4 ADD SLOAD PUSH2 0x85B SWAP1 DUP6 PUSH2 0x14CC JUMP JUMPDEST PUSH1 0x4 DUP5 ADD SSTORE DUP4 ISZERO PUSH2 0x86D JUMPI PUSH0 PUSH1 0x2 DUP4 ADD SSTORE JUMPDEST PUSH1 0x40 MLOAD DUP5 DUP2 MSTORE DUP6 SWAP1 CALLER SWAP1 PUSH32 0xF279E6A1F5E320CCA91135676D9CB6E44CA8A08C0B88342BCDB1144F6511B568 SWAP1 PUSH1 0x20 ADD JUMPDEST PUSH1 0x40 MLOAD DUP1 SWAP2 SUB SWAP1 LOG3 POP POP POP POP POP JUMP JUMPDEST PUSH0 PUSH1 0x5 DUP3 DUP2 SLOAD DUP2 LT PUSH2 0x8C0 JUMPI PUSH2 0x8C0 PUSH2 0x1BFA JUMP JUMPDEST SWAP1 PUSH0 MSTORE PUSH1 0x20 PUSH0 KECCAK256 SWAP1 PUSH1 0x5 MUL ADD SWAP1 POP PUSH0 PUSH1 0x9 SLOAD TIMESTAMP LT PUSH2 0x8E0 JUMPI PUSH1 0x9 SLOAD PUSH2 0x8E2 JUMP JUMPDEST TIMESTAMP JUMPDEST SWAP1 POP DUP2 PUSH1 0x2 ADD SLOAD DUP2 GT PUSH2 0x8F6 JUMPI POP PUSH1 0x2 DUP2 ADD SLOAD JUMPDEST PUSH1 0x4 DUP3 ADD SLOAD PUSH0 DUP2 SWAP1 SUB PUSH2 0x90D JUMPI POP PUSH1 0x2 SWAP1 SWAP2 ADD SSTORE POP JUMP JUMPDEST PUSH0 PUSH2 0x925 DUP5 PUSH1 0x2 ADD SLOAD DUP5 PUSH2 0x14CC SWAP1 SWAP2 SWAP1 PUSH4 0xFFFFFFFF AND JUMP JUMPDEST SWAP1 POP PUSH0 PUSH2 0x951 PUSH1 0x7 SLOAD PUSH2 0x7ED DUP8 PUSH1 0x1 ADD SLOAD PUSH2 0x94B PUSH1 0x2 SLOAD DUP8 PUSH2 0x144E SWAP1 SWAP2 SWAP1 PUSH4 0xFFFFFFFF AND JUMP JUMPDEST SWAP1 PUSH2 0x144E JUMP JUMPDEST SWAP1 POP PUSH2 0x97D PUSH2 0x972 DUP5 PUSH2 0x7ED DUP5 PUSH11 0xC097CE7BC90715B34B9F1 PUSH1 0x24 SHL PUSH2 0x144E JUMP JUMPDEST PUSH1 0x3 DUP8 ADD SLOAD SWAP1 PUSH2 0x13E9 JUMP JUMPDEST PUSH1 0x3 DUP7 ADD SSTORE POP POP POP PUSH1 0x2 SWAP1 SWAP2 ADD SSTORE POP JUMP JUMPDEST PUSH0 PUSH1 0x5 DUP3 DUP2 SLOAD DUP2 LT PUSH2 0x9A2 JUMPI PUSH2 0x9A2 PUSH2 0x1BFA JUMP JUMPDEST PUSH0 SWAP2 DUP3 MSTORE PUSH1 0x20 DUP1 DUP4 KECCAK256 DUP6 DUP5 MSTORE PUSH1 0x6 DUP3 MSTORE PUSH1 0x40 DUP1 DUP6 KECCAK256 CALLER DUP7 MSTORE SWAP1 SWAP3 MSTORE SWAP3 KECCAK256 PUSH1 0x2 DUP2 ADD SLOAD PUSH1 0x5 SWAP1 SWAP3 MUL SWAP1 SWAP3 ADD SWAP3 POP TIMESTAMP LT ISZERO PUSH2 0xA43 JUMPI PUSH1 0x40 MLOAD PUSH3 0x461BCD PUSH1 0xE5 SHL DUP2 MSTORE PUSH1 0x20 PUSH1 0x4 DUP3 ADD MSTORE PUSH1 0x3B PUSH1 0x24 DUP3 ADD MSTORE PUSH32 0x456D657267656E637920776974686472617720626C6F636B656420647572696E PUSH1 0x44 DUP3 ADD MSTORE PUSH32 0x672073616C6520616E6420636F6F6C646F776E20706572696F642E0000000000 PUSH1 0x64 DUP3 ADD MSTORE PUSH1 0x84 ADD PUSH2 0x742 JUMP JUMPDEST DUP1 SLOAD DUP3 SLOAD PUSH2 0xA5E SWAP2 PUSH1 0x1 PUSH1 0x1 PUSH1 0xA0 SHL SUB SWAP1 SWAP2 AND SWAP1 CALLER SWAP1 PUSH2 0x160F JUMP JUMPDEST DUP1 SLOAD PUSH1 0x40 MLOAD SWAP1 DUP2 MSTORE DUP4 SWAP1 CALLER SWAP1 PUSH32 0xBB757047C2B5F3974FE26B7C10F732E7BCE710B0952A71082702781E62AE0595 SWAP1 PUSH1 0x20 ADD PUSH1 0x40 MLOAD DUP1 SWAP2 SUB SWAP1 LOG3 DUP1 SLOAD PUSH1 0x4 DUP4 ADD SLOAD PUSH2 0xAA7 SWAP2 PUSH2 0x14CC JUMP JUMPDEST PUSH1 0x4 SWAP1 SWAP3 ADD SWAP2 SWAP1 SWAP2 SSTORE PUSH0 DUP1 DUP3 SSTORE PUSH1 0x1 DUP3 ADD DUP2 SWAP1 SSTORE PUSH1 0x2 SWAP1 SWAP2 ADD SSTORE POP JUMP JUMPDEST PUSH32 0xF0C57E16840DF040F15088DC2F81FE391C3923BEC73E23A9662EFC9C229C6A00 DUP1 SLOAD PUSH1 0x1 PUSH1 0x40 SHL DUP2 DIV PUSH1 0xFF AND ISZERO SWAP1 PUSH8 0xFFFFFFFFFFFFFFFF AND PUSH0 DUP2 ISZERO DUP1 ISZERO PUSH2 0xB09 JUMPI POP DUP3 JUMPDEST SWAP1 POP PUSH0 DUP3 PUSH8 0xFFFFFFFFFFFFFFFF AND PUSH1 0x1 EQ DUP1 ISZERO PUSH2 0xB25 JUMPI POP ADDRESS EXTCODESIZE ISZERO JUMPDEST SWAP1 POP DUP2 ISZERO DUP1 ISZERO PUSH2 0xB33 JUMPI POP DUP1 ISZERO JUMPDEST ISZERO PUSH2 0xB51 JUMPI PUSH1 0x40 MLOAD PUSH4 0xF92EE8A9 PUSH1 0xE0 SHL DUP2 MSTORE PUSH1 0x4 ADD PUSH1 0x40 MLOAD DUP1 SWAP2 SUB SWAP1 REVERT JUMPDEST DUP5 SLOAD PUSH8 0xFFFFFFFFFFFFFFFF NOT AND PUSH1 0x1 OR DUP6 SSTORE DUP4 ISZERO PUSH2 0xB7B JUMPI DUP5 SLOAD PUSH1 0xFF PUSH1 0x40 SHL NOT AND PUSH1 0x1 PUSH1 0x40 SHL OR DUP6 SSTORE JUMPDEST PUSH2 0xB84 DUP11 PUSH2 0x1673 JUMP JUMPDEST PUSH0 DUP1 SLOAD PUSH1 0x1 PUSH1 0x1 PUSH1 0xA0 SHL SUB DUP1 DUP13 AND PUSH1 0x1 PUSH1 0x1 PUSH1 0xA0 SHL SUB NOT SWAP3 DUP4 AND OR SWAP1 SWAP3 SSTORE PUSH1 0x2 DUP11 SWAP1 SSTORE PUSH1 0x8 DUP10 SWAP1 SSTORE PUSH1 0x9 DUP10 SWAP1 SSTORE PUSH1 0x4 DUP1 SLOAD SWAP3 DUP10 AND SWAP3 SWAP1 SWAP2 AND SWAP2 SWAP1 SWAP2 OR SWAP1 SSTORE DUP4 ISZERO PUSH2 0xC08 JUMPI DUP5 SLOAD PUSH1 0xFF PUSH1 0x40 SHL NOT AND DUP6 SSTORE PUSH1 0x40 MLOAD PUSH1 0x1 DUP2 MSTORE PUSH32 0xC7F505B2F371AE2175EE4913F4499E1F2633A7B5936321EED1CDAEB6115181D2 SWAP1 PUSH1 0x20 ADD PUSH1 0x40 MLOAD DUP1 SWAP2 SUB SWAP1 LOG1 JUMPDEST POP POP POP POP POP POP POP POP POP POP JUMP JUMPDEST PUSH1 0x5 SLOAD PUSH0 JUMPDEST DUP2 DUP2 LT ISZERO PUSH2 0xC32 JUMPI PUSH2 0xC2A DUP2 PUSH2 0x8AC JUMP JUMPDEST PUSH1 0x1 ADD PUSH2 0xC19 JUMP JUMPDEST POP POP JUMP JUMPDEST PUSH2 0xC3E PUSH2 0x138E JUMP JUMPDEST DUP1 ISZERO PUSH2 0xC4C JUMPI PUSH2 0xC4C PUSH2 0xC14 JUMP JUMPDEST PUSH2 0xC8D DUP3 PUSH2 0xC87 PUSH1 0x5 DUP7 DUP2 SLOAD DUP2 LT PUSH2 0xC66 JUMPI PUSH2 0xC66 PUSH2 0x1BFA JUMP JUMPDEST SWAP1 PUSH0 MSTORE PUSH1 0x20 PUSH0 KECCAK256 SWAP1 PUSH1 0x5 MUL ADD PUSH1 0x1 ADD SLOAD PUSH1 0x7 SLOAD PUSH2 0x14CC SWAP1 SWAP2 SWAP1 PUSH4 0xFFFFFFFF AND JUMP JUMPDEST SWAP1 PUSH2 0x13E9 JUMP JUMPDEST PUSH1 0x7 DUP2 SWAP1 SSTORE POP DUP2 PUSH1 0x5 DUP5 DUP2 SLOAD DUP2 LT PUSH2 0xCA7 JUMPI PUSH2 0xCA7 PUSH2 0x1BFA JUMP JUMPDEST SWAP1 PUSH0 MSTORE PUSH1 0x20 PUSH0 KECCAK256 SWAP1 PUSH1 0x5 MUL ADD PUSH1 0x1 ADD DUP2 SWAP1 SSTORE POP POP POP POP JUMP JUMPDEST PUSH2 0xCC7 PUSH2 0x138E JUMP JUMPDEST PUSH2 0xCD0 PUSH0 PUSH2 0x1684 JUMP JUMPDEST JUMP JUMPDEST PUSH0 DUP3 DUP2 MSTORE PUSH1 0x6 PUSH1 0x20 SWAP1 DUP2 MSTORE PUSH1 0x40 DUP1 DUP4 KECCAK256 PUSH1 0x1 PUSH1 0x1 PUSH1 0xA0 SHL SUB DUP6 AND DUP5 MSTORE SWAP1 SWAP2 MSTORE SWAP1 KECCAK256 SLOAD JUMPDEST SWAP3 SWAP2 POP POP JUMP JUMPDEST PUSH0 PUSH1 0x5 DUP3 DUP2 SLOAD DUP2 LT PUSH2 0xD0F JUMPI PUSH2 0xD0F PUSH2 0x1BFA JUMP JUMPDEST PUSH0 SWAP2 DUP3 MSTORE PUSH1 0x20 DUP1 DUP4 KECCAK256 DUP6 DUP5 MSTORE PUSH1 0x6 DUP3 MSTORE PUSH1 0x40 DUP1 DUP6 KECCAK256 CALLER DUP7 MSTORE SWAP1 SWAP3 MSTORE SWAP3 KECCAK256 PUSH1 0x5 SWAP1 SWAP2 MUL SWAP1 SWAP2 ADD SWAP2 POP PUSH2 0xD3F DUP4 PUSH2 0x8AC JUMP JUMPDEST PUSH0 PUSH2 0xD74 DUP3 PUSH1 0x1 ADD SLOAD PUSH2 0x691 PUSH11 0xC097CE7BC90715B34B9F1 PUSH1 0x24 SHL PUSH2 0x7ED DUP8 PUSH1 0x3 ADD SLOAD DUP8 PUSH0 ADD SLOAD PUSH2 0x144E SWAP1 SWAP2 SWAP1 PUSH4 0xFFFFFFFF AND JUMP JUMPDEST DUP3 SLOAD SWAP1 SWAP2 POP PUSH2 0xD83 SWAP1 DUP3 PUSH2 0x13E9 JUMP JUMPDEST DUP1 DUP4 SSTORE PUSH1 0x3 DUP5 ADD SLOAD PUSH2 0xDA9 SWAP2 PUSH11 0xC097CE7BC90715B34B9F1 PUSH1 0x24 SHL SWAP2 PUSH2 0x7ED SWAP2 SWAP1 PUSH2 0x144E JUMP JUMPDEST PUSH1 0x1 DUP4 ADD SSTORE PUSH1 0x4 DUP4 ADD SLOAD PUSH2 0xDBD SWAP1 DUP3 PUSH2 0x13E9 JUMP JUMPDEST PUSH1 0x4 DUP5 ADD SSTORE DUP2 SLOAD PUSH1 0x40 DUP1 MLOAD DUP4 DUP2 MSTORE PUSH1 0x20 DUP2 ADD SWAP3 SWAP1 SWAP3 MSTORE DUP6 SWAP2 CALLER SWAP2 PUSH32 0x92F0BDF80F3916A4279540865E94EF327CF48639092106CCA4BDDC9BB1DE4A86 SWAP2 ADD PUSH1 0x40 MLOAD DUP1 SWAP2 SUB SWAP1 LOG3 POP POP POP POP JUMP JUMPDEST PUSH1 0x9 SLOAD TIMESTAMP LT PUSH2 0xE64 JUMPI PUSH1 0x40 MLOAD PUSH3 0x461BCD PUSH1 0xE5 SHL DUP2 MSTORE PUSH1 0x20 PUSH1 0x4 DUP3 ADD MSTORE PUSH1 0x22 PUSH1 0x24 DUP3 ADD MSTORE PUSH32 0x66756E643A20746F6F206C6174652C20746865206661726D20697320636C6F73 PUSH1 0x44 DUP3 ADD MSTORE PUSH2 0x1959 PUSH1 0xF2 SHL PUSH1 0x64 DUP3 ADD MSTORE PUSH1 0x84 ADD PUSH2 0x742 JUMP JUMPDEST PUSH0 SLOAD PUSH2 0xE7B SWAP1 PUSH1 0x1 PUSH1 0x1 PUSH1 0xA0 SHL SUB AND CALLER ADDRESS DUP5 PUSH2 0x16F4 JUMP JUMPDEST PUSH1 0x2 SLOAD PUSH2 0xE89 SWAP1 DUP3 SWAP1 PUSH2 0x1527 JUMP JUMPDEST PUSH1 0x9 PUSH0 DUP3 DUP3 SLOAD PUSH2 0xE99 SWAP2 SWAP1 PUSH2 0x1C0E JUMP JUMPDEST SWAP1 SWAP2 SSTORE POP POP PUSH1 0x3 SLOAD PUSH2 0xEAB SWAP1 DUP3 PUSH2 0x13E9 JUMP JUMPDEST PUSH1 0x3 SSTORE POP JUMP JUMPDEST PUSH0 PUSH1 0x5 DUP4 DUP2 SLOAD DUP2 LT PUSH2 0xEC5 JUMPI PUSH2 0xEC5 PUSH2 0x1BFA JUMP JUMPDEST PUSH0 SWAP2 DUP3 MSTORE PUSH1 0x20 DUP1 DUP4 KECCAK256 DUP7 DUP5 MSTORE PUSH1 0x6 DUP3 MSTORE PUSH1 0x40 DUP1 DUP6 KECCAK256 CALLER DUP7 MSTORE SWAP1 SWAP3 MSTORE SWAP3 KECCAK256 PUSH1 0x5 SWAP1 SWAP2 MUL SWAP1 SWAP2 ADD SWAP2 POP DUP3 PUSH2 0xEF6 DUP6 PUSH2 0x8AC JUMP JUMPDEST DUP2 SLOAD ISZERO PUSH2 0xF40 JUMPI PUSH0 PUSH2 0xF32 DUP4 PUSH1 0x1 ADD SLOAD PUSH2 0x691 PUSH11 0xC097CE7BC90715B34B9F1 PUSH1 0x24 SHL PUSH2 0x7ED DUP9 PUSH1 0x3 ADD SLOAD DUP9 PUSH0 ADD SLOAD PUSH2 0x144E SWAP1 SWAP2 SWAP1 PUSH4 0xFFFFFFFF AND JUMP JUMPDEST SWAP1 POP PUSH2 0xF3E CALLER DUP3 PUSH2 0x1581 JUMP JUMPDEST POP JUMPDEST DUP3 SLOAD PUSH2 0xF57 SWAP1 PUSH1 0x1 PUSH1 0x1 PUSH1 0xA0 SHL SUB AND CALLER ADDRESS DUP8 PUSH2 0x16F4 JUMP JUMPDEST PUSH1 0x4 DUP4 ADD SLOAD PUSH2 0xF66 SWAP1 DUP3 PUSH2 0x13E9 JUMP JUMPDEST PUSH1 0x4 DUP5 ADD SSTORE DUP2 SLOAD PUSH2 0xF77 SWAP1 DUP3 PUSH2 0x13E9 JUMP JUMPDEST DUP1 DUP4 SSTORE PUSH1 0x3 DUP5 ADD SLOAD PUSH2 0xF9D SWAP2 PUSH11 0xC097CE7BC90715B34B9F1 PUSH1 0x24 SHL SWAP2 PUSH2 0x7ED SWAP2 SWAP1 PUSH2 0x144E JUMP JUMPDEST PUSH1 0x1 DUP4 ADD SSTORE PUSH1 0x40 MLOAD DUP2 DUP2 MSTORE DUP6 SWAP1 CALLER SWAP1 PUSH32 0x90890809C654F11D6E72A28FA60149770A0D11EC6C92319D6CEB2BB0A4EA1A15 SWAP1 PUSH1 0x20 ADD PUSH2 0x89D JUMP JUMPDEST PUSH0 DUP1 PUSH1 0x5 DUP5 DUP2 SLOAD DUP2 LT PUSH2 0xFEB JUMPI PUSH2 0xFEB PUSH2 0x1BFA JUMP JUMPDEST PUSH0 SWAP2 DUP3 MSTORE PUSH1 0x20 DUP1 DUP4 KECCAK256 DUP8 DUP5 MSTORE PUSH1 0x6 DUP3 MSTORE PUSH1 0x40 DUP1 DUP6 KECCAK256 PUSH1 0x1 PUSH1 0x1 PUSH1 0xA0 SHL SUB DUP10 AND DUP7 MSTORE SWAP1 SWAP3 MSTORE SWAP3 KECCAK256 PUSH1 0x3 PUSH1 0x5 SWAP1 SWAP3 MUL SWAP1 SWAP3 ADD SWAP1 DUP2 ADD SLOAD PUSH1 0x4 DUP3 ADD SLOAD PUSH1 0x2 DUP4 ADD SLOAD SWAP3 SWAP5 POP SWAP1 SWAP2 TIMESTAMP GT DUP1 ISZERO PUSH2 0x103B JUMPI POP DUP1 ISZERO ISZERO JUMPDEST ISZERO PUSH2 0x10C2 JUMPI PUSH0 PUSH1 0x9 SLOAD TIMESTAMP LT PUSH2 0x1052 JUMPI PUSH1 0x9 SLOAD PUSH2 0x1054 JUMP JUMPDEST TIMESTAMP JUMPDEST SWAP1 POP PUSH0 PUSH2 0x106E DUP7 PUSH1 0x2 ADD SLOAD DUP4 PUSH2 0x14CC SWAP1 SWAP2 SWAP1 PUSH4 0xFFFFFFFF AND JUMP JUMPDEST SWAP1 POP PUSH0 PUSH2 0x1094 PUSH1 0x7 SLOAD PUSH2 0x7ED DUP10 PUSH1 0x1 ADD SLOAD PUSH2 0x94B PUSH1 0x2 SLOAD DUP8 PUSH2 0x144E SWAP1 SWAP2 SWAP1 PUSH4 0xFFFFFFFF AND JUMP JUMPDEST SWAP1 POP PUSH2 0x10BC PUSH2 0x10B5 DUP6 PUSH2 0x7ED DUP5 PUSH11 0xC097CE7BC90715B34B9F1 PUSH1 0x24 SHL PUSH2 0x144E JUMP JUMPDEST DUP7 SWAP1 PUSH2 0x13E9 JUMP JUMPDEST SWAP5 POP POP POP POP JUMPDEST PUSH2 0x10F2 DUP4 PUSH1 0x1 ADD SLOAD PUSH2 0x691 PUSH11 0xC097CE7BC90715B34B9F1 PUSH1 0x24 SHL PUSH2 0x7ED DUP7 DUP9 PUSH0 ADD SLOAD PUSH2 0x144E SWAP1 SWAP2 SWAP1 PUSH4 0xFFFFFFFF AND JUMP JUMPDEST SWAP8 SWAP7 POP POP POP POP POP POP POP JUMP JUMPDEST PUSH1 0x4 DUP1 SLOAD PUSH1 0x40 MLOAD PUSH4 0x1400493D PUSH1 0xE3 SHL DUP2 MSTORE CALLER SWAP3 DUP2 ADD SWAP3 SWAP1 SWAP3 MSTORE PUSH1 0x1 PUSH1 0x1 PUSH1 0xA0 SHL SUB AND SWAP1 PUSH4 0xA00249E8 SWAP1 PUSH1 0x24 ADD PUSH1 0x20 PUSH1 0x40 MLOAD DUP1 DUP4 SUB DUP2 DUP7 GAS STATICCALL ISZERO DUP1 ISZERO PUSH2 0x1144 JUMPI RETURNDATASIZE PUSH0 DUP1 RETURNDATACOPY RETURNDATASIZE PUSH0 REVERT JUMPDEST POP POP POP POP PUSH1 0x40 MLOAD RETURNDATASIZE PUSH1 0x1F NOT PUSH1 0x1F DUP3 ADD AND DUP3 ADD DUP1 PUSH1 0x40 MSTORE POP DUP2 ADD SWAP1 PUSH2 0x1168 SWAP2 SWAP1 PUSH2 0x1C21 JUMP JUMPDEST PUSH2 0x11BE JUMPI PUSH1 0x40 MLOAD PUSH3 0x461BCD PUSH1 0xE5 SHL DUP2 MSTORE PUSH1 0x20 PUSH1 0x4 DUP3 ADD MSTORE PUSH1 0x21 PUSH1 0x24 DUP3 ADD MSTORE PUSH32 0x53616C65206E6F742063726561746564207468726F75676820666163746F7279 PUSH1 0x44 DUP3 ADD MSTORE PUSH1 0x17 PUSH1 0xF9 SHL PUSH1 0x64 DUP3 ADD MSTORE PUSH1 0x84 ADD PUSH2 0x742 JUMP JUMPDEST PUSH0 DUP4 DUP2 MSTORE PUSH1 0x6 PUSH1 0x20 SWAP1 DUP2 MSTORE PUSH1 0x40 DUP1 DUP4 KECCAK256 PUSH1 0x1 PUSH1 0x1 PUSH1 0xA0 SHL SUB DUP7 AND DUP5 MSTORE SWAP1 SWAP2 MSTORE SWAP1 KECCAK256 PUSH1 0x2 DUP2 ADD SLOAD TIMESTAMP LT ISZERO PUSH2 0x11EF JUMPI PUSH0 DUP1 REVERT JUMPDEST PUSH1 0x2 DUP2 ADD SWAP2 SWAP1 SWAP2 SSTORE PUSH1 0x3 ADD DUP1 SLOAD PUSH1 0x1 DUP2 ADD DUP3 SSTORE PUSH0 SWAP2 DUP3 MSTORE PUSH1 0x20 SWAP1 SWAP2 KECCAK256 ADD DUP1 SLOAD PUSH1 0x1 PUSH1 0x1 PUSH1 0xA0 SHL SUB NOT AND CALLER OR SWAP1 SSTORE POP POP JUMP JUMPDEST PUSH2 0x1228 PUSH2 0x138E JUMP JUMPDEST PUSH1 0x1 PUSH1 0x1 PUSH1 0xA0 SHL SUB DUP2 AND PUSH2 0x1251 JUMPI PUSH1 0x40 MLOAD PUSH4 0x1E4FBDF7 PUSH1 0xE0 SHL DUP2 MSTORE PUSH0 PUSH1 0x4 DUP3 ADD MSTORE PUSH1 0x24 ADD PUSH2 0x742 JUMP JUMPDEST PUSH2 0x125A DUP2 PUSH2 0x1684 JUMP JUMPDEST POP JUMP JUMPDEST PUSH1 0x60 DUP1 PUSH0 DUP5 MLOAD PUSH8 0xFFFFFFFFFFFFFFFF DUP2 GT ISZERO PUSH2 0x127B JUMPI PUSH2 0x127B PUSH2 0x1A92 JUMP JUMPDEST PUSH1 0x40 MLOAD SWAP1 DUP1 DUP3 MSTORE DUP1 PUSH1 0x20 MUL PUSH1 0x20 ADD DUP3 ADD PUSH1 0x40 MSTORE DUP1 ISZERO PUSH2 0x12A4 JUMPI DUP2 PUSH1 0x20 ADD PUSH1 0x20 DUP3 MUL DUP1 CALLDATASIZE DUP4 CALLDATACOPY ADD SWAP1 POP JUMPDEST POP SWAP1 POP PUSH0 DUP6 MLOAD PUSH8 0xFFFFFFFFFFFFFFFF DUP2 GT ISZERO PUSH2 0x12C2 JUMPI PUSH2 0x12C2 PUSH2 0x1A92 JUMP JUMPDEST PUSH1 0x40 MLOAD SWAP1 DUP1 DUP3 MSTORE DUP1 PUSH1 0x20 MUL PUSH1 0x20 ADD DUP3 ADD PUSH1 0x40 MSTORE DUP1 ISZERO PUSH2 0x12EB JUMPI DUP2 PUSH1 0x20 ADD PUSH1 0x20 DUP3 MUL DUP1 CALLDATASIZE DUP4 CALLDATACOPY ADD SWAP1 POP JUMPDEST POP SWAP1 POP PUSH0 JUMPDEST DUP7 MLOAD DUP2 LT ISZERO PUSH2 0x1382 JUMPI PUSH2 0x131C DUP7 DUP9 DUP4 DUP2 MLOAD DUP2 LT PUSH2 0x130F JUMPI PUSH2 0x130F PUSH2 0x1BFA JUMP JUMPDEST PUSH1 0x20 MUL PUSH1 0x20 ADD ADD MLOAD PUSH2 0xCD2 JUMP JUMPDEST DUP4 DUP3 DUP2 MLOAD DUP2 LT PUSH2 0x132E JUMPI PUSH2 0x132E PUSH2 0x1BFA JUMP JUMPDEST PUSH1 0x20 MUL PUSH1 0x20 ADD ADD DUP2 DUP2 MSTORE POP POP PUSH2 0x135D DUP7 DUP9 DUP4 DUP2 MLOAD DUP2 LT PUSH2 0x1350 JUMPI PUSH2 0x1350 PUSH2 0x1BFA JUMP JUMPDEST PUSH1 0x20 MUL PUSH1 0x20 ADD ADD MLOAD PUSH2 0xFD6 JUMP JUMPDEST DUP3 DUP3 DUP2 MLOAD DUP2 LT PUSH2 0x136F JUMPI PUSH2 0x136F PUSH2 0x1BFA JUMP JUMPDEST PUSH1 0x20 SWAP1 DUP2 MUL SWAP2 SWAP1 SWAP2 ADD ADD MSTORE PUSH1 0x1 ADD PUSH2 0x12F0 JUMP JUMPDEST POP SWAP1 SWAP6 SWAP1 SWAP5 POP SWAP3 POP POP POP JUMP JUMPDEST CALLER PUSH2 0x13C0 PUSH32 0x9016D09D72D40FDAE2FD8CEAC6B6234C7706214FD39C1CD1E609A0528C199300 SLOAD PUSH1 0x1 PUSH1 0x1 PUSH1 0xA0 SHL SUB AND SWAP1 JUMP JUMPDEST PUSH1 0x1 PUSH1 0x1 PUSH1 0xA0 SHL SUB AND EQ PUSH2 0xCD0 JUMPI PUSH1 0x40 MLOAD PUSH4 0x118CDAA7 PUSH1 0xE0 SHL DUP2 MSTORE CALLER PUSH1 0x4 DUP3 ADD MSTORE PUSH1 0x24 ADD PUSH2 0x742 JUMP JUMPDEST PUSH0 DUP1 PUSH2 0x13F5 DUP4 DUP6 PUSH2 0x1C0E JUMP JUMPDEST SWAP1 POP DUP4 DUP2 LT ISZERO PUSH2 0x1447 JUMPI PUSH1 0x40 MLOAD PUSH3 0x461BCD PUSH1 0xE5 SHL DUP2 MSTORE PUSH1 0x20 PUSH1 0x4 DUP3 ADD MSTORE PUSH1 0x1B PUSH1 0x24 DUP3 ADD MSTORE PUSH32 0x536166654D6174683A206164646974696F6E206F766572666C6F770000000000 PUSH1 0x44 DUP3 ADD MSTORE PUSH1 0x64 ADD PUSH2 0x742 JUMP JUMPDEST SWAP4 SWAP3 POP POP POP JUMP JUMPDEST PUSH0 DUP3 PUSH0 SUB PUSH2 0x145D JUMPI POP PUSH0 PUSH2 0xCF5 JUMP JUMPDEST PUSH0 PUSH2 0x1468 DUP4 DUP6 PUSH2 0x1C3C JUMP JUMPDEST SWAP1 POP DUP3 PUSH2 0x1475 DUP6 DUP4 PUSH2 0x1C53 JUMP JUMPDEST EQ PUSH2 0x1447 JUMPI PUSH1 0x40 MLOAD PUSH3 0x461BCD PUSH1 0xE5 SHL DUP2 MSTORE PUSH1 0x20 PUSH1 0x4 DUP3 ADD MSTORE PUSH1 0x21 PUSH1 0x24 DUP3 ADD MSTORE PUSH32 0x536166654D6174683A206D756C7469706C69636174696F6E206F766572666C6F PUSH1 0x44 DUP3 ADD MSTORE PUSH1 0x77 PUSH1 0xF8 SHL PUSH1 0x64 DUP3 ADD MSTORE PUSH1 0x84 ADD PUSH2 0x742 JUMP JUMPDEST PUSH0 DUP3 DUP3 GT ISZERO PUSH2 0x151D JUMPI PUSH1 0x40 MLOAD PUSH3 0x461BCD PUSH1 0xE5 SHL DUP2 MSTORE PUSH1 0x20 PUSH1 0x4 DUP3 ADD MSTORE PUSH1 0x1E PUSH1 0x24 DUP3 ADD MSTORE PUSH32 0x536166654D6174683A207375627472616374696F6E206F766572666C6F770000 PUSH1 0x44 DUP3 ADD MSTORE PUSH1 0x64 ADD PUSH2 0x742 JUMP JUMPDEST PUSH2 0x1447 DUP3 DUP5 PUSH2 0x1BE7 JUMP JUMPDEST PUSH0 DUP1 DUP3 GT PUSH2 0x1577 JUMPI PUSH1 0x40 MLOAD PUSH3 0x461BCD PUSH1 0xE5 SHL DUP2 MSTORE PUSH1 0x20 PUSH1 0x4 DUP3 ADD MSTORE PUSH1 0x1A PUSH1 0x24 DUP3 ADD MSTORE PUSH32 0x536166654D6174683A206469766973696F6E206279207A65726F000000000000 PUSH1 0x44 DUP3 ADD MSTORE PUSH1 0x64 ADD PUSH2 0x742 JUMP JUMPDEST PUSH2 0x1447 DUP3 DUP5 PUSH2 0x1C53 JUMP JUMPDEST PUSH0 SLOAD PUSH1 0x40 MLOAD PUSH4 0xA9059CBB PUSH1 0xE0 SHL DUP2 MSTORE PUSH1 0x1 PUSH1 0x1 PUSH1 0xA0 SHL SUB DUP5 DUP2 AND PUSH1 0x4 DUP4 ADD MSTORE PUSH1 0x24 DUP3 ADD DUP5 SWAP1 MSTORE SWAP1 SWAP2 AND SWAP1 PUSH4 0xA9059CBB SWAP1 PUSH1 0x44 ADD PUSH1 0x20 PUSH1 0x40 MLOAD DUP1 DUP4 SUB DUP2 PUSH0 DUP8 GAS CALL ISZERO DUP1 ISZERO PUSH2 0x15D0 JUMPI RETURNDATASIZE PUSH0 DUP1 RETURNDATACOPY RETURNDATASIZE PUSH0 REVERT JUMPDEST POP POP POP POP PUSH1 0x40 MLOAD RETURNDATASIZE PUSH1 0x1F NOT PUSH1 0x1F DUP3 ADD AND DUP3 ADD DUP1 PUSH1 0x40 MSTORE POP DUP2 ADD SWAP1 PUSH2 0x15F4 SWAP2 SWAP1 PUSH2 0x1C21 JUMP JUMPDEST POP DUP1 PUSH1 0x1 PUSH0 DUP3 DUP3 SLOAD PUSH2 0x1606 SWAP2 SWAP1 PUSH2 0x1C0E JUMP JUMPDEST SWAP1 SWAP2 SSTORE POP POP POP POP JUMP JUMPDEST PUSH1 0x40 MLOAD PUSH1 0x1 PUSH1 0x1 PUSH1 0xA0 SHL SUB DUP4 DUP2 AND PUSH1 0x24 DUP4 ADD MSTORE PUSH1 0x44 DUP3 ADD DUP4 SWAP1 MSTORE PUSH2 0x166E SWAP2 DUP6 SWAP2 DUP3 AND SWAP1 PUSH4 0xA9059CBB SWAP1 PUSH1 0x64 ADD JUMPDEST PUSH1 0x40 MLOAD PUSH1 0x20 DUP2 DUP4 SUB SUB DUP2 MSTORE SWAP1 PUSH1 0x40 MSTORE SWAP2 POP PUSH1 0xE0 SHL PUSH1 0x20 DUP3 ADD DUP1 MLOAD PUSH1 0x1 PUSH1 0x1 PUSH1 0xE0 SHL SUB DUP4 DUP2 DUP4 AND OR DUP4 MSTORE POP POP POP POP PUSH2 0x1733 JUMP JUMPDEST POP POP POP JUMP JUMPDEST PUSH2 0x167B PUSH2 0x1794 JUMP JUMPDEST PUSH2 0x125A DUP2 PUSH2 0x17DD JUMP JUMPDEST PUSH32 0x9016D09D72D40FDAE2FD8CEAC6B6234C7706214FD39C1CD1E609A0528C199300 DUP1 SLOAD PUSH1 0x1 PUSH1 0x1 PUSH1 0xA0 SHL SUB NOT DUP2 AND PUSH1 0x1 PUSH1 0x1 PUSH1 0xA0 SHL SUB DUP5 DUP2 AND SWAP2 DUP3 OR DUP5 SSTORE PUSH1 0x40 MLOAD SWAP3 AND SWAP2 DUP3 SWAP1 PUSH32 0x8BE0079C531659141344CD1FD0A4F28419497F9722A3DAAFE3B4186F6B6457E0 SWAP1 PUSH0 SWAP1 LOG3 POP POP POP JUMP JUMPDEST PUSH1 0x40 MLOAD PUSH1 0x1 PUSH1 0x1 PUSH1 0xA0 SHL SUB DUP5 DUP2 AND PUSH1 0x24 DUP4 ADD MSTORE DUP4 DUP2 AND PUSH1 0x44 DUP4 ADD MSTORE PUSH1 0x64 DUP3 ADD DUP4 SWAP1 MSTORE PUSH2 0x172D SWAP2 DUP7 SWAP2 DUP3 AND SWAP1 PUSH4 0x23B872DD SWAP1 PUSH1 0x84 ADD PUSH2 0x163C JUMP JUMPDEST POP POP POP POP JUMP JUMPDEST PUSH0 PUSH2 0x1747 PUSH1 0x1 PUSH1 0x1 PUSH1 0xA0 SHL SUB DUP5 AND DUP4 PUSH2 0x17E5 JUMP JUMPDEST SWAP1 POP DUP1 MLOAD PUSH0 EQ ISZERO DUP1 ISZERO PUSH2 0x176B JUMPI POP DUP1 DUP1 PUSH1 0x20 ADD SWAP1 MLOAD DUP2 ADD SWAP1 PUSH2 0x1769 SWAP2 SWAP1 PUSH2 0x1C21 JUMP JUMPDEST ISZERO JUMPDEST ISZERO PUSH2 0x166E JUMPI PUSH1 0x40 MLOAD PUSH4 0x5274AFE7 PUSH1 0xE0 SHL DUP2 MSTORE PUSH1 0x1 PUSH1 0x1 PUSH1 0xA0 SHL SUB DUP5 AND PUSH1 0x4 DUP3 ADD MSTORE PUSH1 0x24 ADD PUSH2 0x742 JUMP JUMPDEST PUSH32 0xF0C57E16840DF040F15088DC2F81FE391C3923BEC73E23A9662EFC9C229C6A00 SLOAD PUSH1 0x1 PUSH1 0x40 SHL SWAP1 DIV PUSH1 0xFF AND PUSH2 0xCD0 JUMPI PUSH1 0x40 MLOAD PUSH4 0x1AFCD79F PUSH1 0xE3 SHL DUP2 MSTORE PUSH1 0x4 ADD PUSH1 0x40 MLOAD DUP1 SWAP2 SUB SWAP1 REVERT JUMPDEST PUSH2 0x1228 PUSH2 0x1794 JUMP JUMPDEST PUSH1 0x60 PUSH2 0x1447 DUP4 DUP4 PUSH0 DUP5 PUSH0 DUP1 DUP6 PUSH1 0x1 PUSH1 0x1 PUSH1 0xA0 SHL SUB AND DUP5 DUP7 PUSH1 0x40 MLOAD PUSH2 0x1809 SWAP2 SWAP1 PUSH2 0x1C72 JUMP JUMPDEST PUSH0 PUSH1 0x40 MLOAD DUP1 DUP4 SUB DUP2 DUP6 DUP8 GAS CALL SWAP3 POP POP POP RETURNDATASIZE DUP1 PUSH0 DUP2 EQ PUSH2 0x1843 JUMPI PUSH1 0x40 MLOAD SWAP2 POP PUSH1 0x1F NOT PUSH1 0x3F RETURNDATASIZE ADD AND DUP3 ADD PUSH1 0x40 MSTORE RETURNDATASIZE DUP3 MSTORE RETURNDATASIZE PUSH0 PUSH1 0x20 DUP5 ADD RETURNDATACOPY PUSH2 0x1848 JUMP JUMPDEST PUSH1 0x60 SWAP2 POP JUMPDEST POP SWAP2 POP SWAP2 POP PUSH2 0x1858 DUP7 DUP4 DUP4 PUSH2 0x1862 JUMP JUMPDEST SWAP7 SWAP6 POP POP POP POP POP POP JUMP JUMPDEST PUSH1 0x60 DUP3 PUSH2 0x1877 JUMPI PUSH2 0x1872 DUP3 PUSH2 0x18BE JUMP JUMPDEST PUSH2 0x1447 JUMP JUMPDEST DUP2 MLOAD ISZERO DUP1 ISZERO PUSH2 0x188E JUMPI POP PUSH1 0x1 PUSH1 0x1 PUSH1 0xA0 SHL SUB DUP5 AND EXTCODESIZE ISZERO JUMPDEST ISZERO PUSH2 0x18B7 JUMPI PUSH1 0x40 MLOAD PUSH4 0x9996B315 PUSH1 0xE0 SHL DUP2 MSTORE PUSH1 0x1 PUSH1 0x1 PUSH1 0xA0 SHL SUB DUP6 AND PUSH1 0x4 DUP3 ADD MSTORE PUSH1 0x24 ADD PUSH2 0x742 JUMP JUMPDEST POP DUP1 PUSH2 0x1447 JUMP JUMPDEST DUP1 MLOAD ISZERO PUSH2 0x18CE JUMPI DUP1 MLOAD DUP1 DUP3 PUSH1 0x20 ADD REVERT JUMPDEST PUSH1 0x40 MLOAD PUSH4 0xA12F521 PUSH1 0xE1 SHL DUP2 MSTORE PUSH1 0x4 ADD PUSH1 0x40 MLOAD DUP1 SWAP2 SUB SWAP1 REVERT JUMPDEST PUSH0 PUSH1 0x20 DUP3 DUP5 SUB SLT ISZERO PUSH2 0x18F7 JUMPI PUSH0 DUP1 REVERT JUMPDEST POP CALLDATALOAD SWAP2 SWAP1 POP JUMP JUMPDEST PUSH1 0x1 PUSH1 0x1 PUSH1 0xA0 SHL SUB DUP2 AND DUP2 EQ PUSH2 0x125A JUMPI PUSH0 DUP1 REVERT JUMPDEST DUP1 ISZERO ISZERO DUP2 EQ PUSH2 0x125A JUMPI PUSH0 DUP1 REVERT JUMPDEST PUSH0 DUP1 PUSH0 PUSH1 0x60 DUP5 DUP7 SUB SLT ISZERO PUSH2 0x1931 JUMPI PUSH0 DUP1 REVERT JUMPDEST DUP4 CALLDATALOAD SWAP3 POP PUSH1 0x20 DUP5 ADD CALLDATALOAD PUSH2 0x1943 DUP2 PUSH2 0x18FE JUMP JUMPDEST SWAP2 POP PUSH1 0x40 DUP5 ADD CALLDATALOAD PUSH2 0x1953 DUP2 PUSH2 0x1912 JUMP JUMPDEST DUP1 SWAP2 POP POP SWAP3 POP SWAP3 POP SWAP3 JUMP JUMPDEST DUP1 CALLDATALOAD PUSH2 0x1969 DUP2 PUSH2 0x18FE JUMP JUMPDEST SWAP2 SWAP1 POP JUMP JUMPDEST PUSH0 PUSH1 0x20 DUP3 DUP5 SUB SLT ISZERO PUSH2 0x197E JUMPI PUSH0 DUP1 REVERT JUMPDEST DUP2 CALLDATALOAD PUSH2 0x1447 DUP2 PUSH2 0x18FE JUMP JUMPDEST PUSH0 DUP1 PUSH1 0x40 DUP4 DUP6 SUB SLT ISZERO PUSH2 0x199A JUMPI PUSH0 DUP1 REVERT JUMPDEST POP POP DUP1 CALLDATALOAD SWAP3 PUSH1 0x20 SWAP1 SWAP2 ADD CALLDATALOAD SWAP2 POP JUMP JUMPDEST PUSH0 DUP1 PUSH0 DUP1 PUSH0 PUSH1 0xA0 DUP7 DUP9 SUB SLT ISZERO PUSH2 0x19BD JUMPI PUSH0 DUP1 REVERT JUMPDEST DUP6 CALLDATALOAD PUSH2 0x19C8 DUP2 PUSH2 0x18FE JUMP JUMPDEST SWAP5 POP PUSH1 0x20 DUP7 ADD CALLDATALOAD PUSH2 0x19D8 DUP2 PUSH2 0x18FE JUMP JUMPDEST SWAP4 POP PUSH1 0x40 DUP7 ADD CALLDATALOAD SWAP3 POP PUSH1 0x60 DUP7 ADD CALLDATALOAD SWAP2 POP PUSH1 0x80 DUP7 ADD CALLDATALOAD PUSH2 0x19F6 DUP2 PUSH2 0x18FE JUMP JUMPDEST DUP1 SWAP2 POP POP SWAP3 SWAP6 POP SWAP3 SWAP6 SWAP1 SWAP4 POP JUMP JUMPDEST PUSH0 DUP1 PUSH0 PUSH1 0x60 DUP5 DUP7 SUB SLT ISZERO PUSH2 0x1A16 JUMPI PUSH0 DUP1 REVERT JUMPDEST DUP4 CALLDATALOAD SWAP3 POP PUSH1 0x20 DUP5 ADD CALLDATALOAD SWAP2 POP PUSH1 0x40 DUP5 ADD CALLDATALOAD PUSH2 0x1953 DUP2 PUSH2 0x1912 JUMP JUMPDEST PUSH0 DUP1 PUSH1 0x40 DUP4 DUP6 SUB SLT ISZERO PUSH2 0x1A40 JUMPI PUSH0 DUP1 REVERT JUMPDEST DUP3 CALLDATALOAD SWAP2 POP PUSH1 0x20 DUP4 ADD CALLDATALOAD PUSH2 0x1A52 DUP2 PUSH2 0x18FE JUMP JUMPDEST DUP1 SWAP2 POP POP SWAP3 POP SWAP3 SWAP1 POP JUMP JUMPDEST PUSH0 DUP1 PUSH0 PUSH1 0x60 DUP5 DUP7 SUB SLT ISZERO PUSH2 0x1A6F JUMPI PUSH0 DUP1 REVERT JUMPDEST DUP4 CALLDATALOAD SWAP3 POP PUSH1 0x20 DUP5 ADD CALLDATALOAD PUSH2 0x1A81 DUP2 PUSH2 0x18FE JUMP JUMPDEST SWAP3 SWAP6 SWAP3 SWAP5 POP POP POP PUSH1 0x40 SWAP2 SWAP1 SWAP2 ADD CALLDATALOAD SWAP1 JUMP JUMPDEST PUSH4 0x4E487B71 PUSH1 0xE0 SHL PUSH0 MSTORE PUSH1 0x41 PUSH1 0x4 MSTORE PUSH1 0x24 PUSH0 REVERT JUMPDEST PUSH0 DUP1 PUSH1 0x40 DUP4 DUP6 SUB SLT ISZERO PUSH2 0x1AB7 JUMPI PUSH0 DUP1 REVERT JUMPDEST DUP3 CALLDATALOAD PUSH8 0xFFFFFFFFFFFFFFFF DUP1 DUP3 GT ISZERO PUSH2 0x1ACE JUMPI PUSH0 DUP1 REVERT JUMPDEST DUP2 DUP6 ADD SWAP2 POP DUP6 PUSH1 0x1F DUP4 ADD SLT PUSH2 0x1AE1 JUMPI PUSH0 DUP1 REVERT JUMPDEST DUP2 CALLDATALOAD PUSH1 0x20 DUP3 DUP3 GT ISZERO PUSH2 0x1AF5 JUMPI PUSH2 0x1AF5 PUSH2 0x1A92 JUMP JUMPDEST DUP2 PUSH1 0x5 SHL PUSH1 0x40 MLOAD PUSH1 0x1F NOT PUSH1 0x3F DUP4 ADD AND DUP2 ADD DUP2 DUP2 LT DUP7 DUP3 GT OR ISZERO PUSH2 0x1B1A JUMPI PUSH2 0x1B1A PUSH2 0x1A92 JUMP JUMPDEST PUSH1 0x40 MSTORE SWAP3 DUP4 MSTORE DUP2 DUP4 ADD SWAP4 POP DUP5 DUP2 ADD DUP3 ADD SWAP3 DUP10 DUP5 GT ISZERO PUSH2 0x1B37 JUMPI PUSH0 DUP1 REVERT JUMPDEST SWAP5 DUP3 ADD SWAP5 JUMPDEST DUP4 DUP7 LT ISZERO PUSH2 0x1B5C JUMPI PUSH2 0x1B4D DUP7 PUSH2 0x195E JUMP JUMPDEST DUP6 MSTORE SWAP5 DUP3 ADD SWAP5 SWAP4 DUP3 ADD SWAP4 PUSH2 0x1B3C JUMP JUMPDEST SWAP10 SWAP8 SWAP1 SWAP2 ADD CALLDATALOAD SWAP8 POP POP POP POP POP POP POP JUMP JUMPDEST PUSH0 DUP2 MLOAD DUP1 DUP5 MSTORE PUSH1 0x20 DUP1 DUP6 ADD SWAP5 POP PUSH1 0x20 DUP5 ADD PUSH0 JUMPDEST DUP4 DUP2 LT ISZERO PUSH2 0x1B9B JUMPI DUP2 MLOAD DUP8 MSTORE SWAP6 DUP3 ADD SWAP6 SWAP1 DUP3 ADD SWAP1 PUSH1 0x1 ADD PUSH2 0x1B7F JUMP JUMPDEST POP SWAP5 SWAP6 SWAP5 POP POP POP POP POP JUMP JUMPDEST PUSH1 0x40 DUP2 MSTORE PUSH0 PUSH2 0x1BB8 PUSH1 0x40 DUP4 ADD DUP6 PUSH2 0x1B6C JUMP JUMPDEST DUP3 DUP2 SUB PUSH1 0x20 DUP5 ADD MSTORE PUSH2 0x1BCA DUP2 DUP6 PUSH2 0x1B6C JUMP JUMPDEST SWAP6 SWAP5 POP POP POP POP POP JUMP JUMPDEST PUSH4 0x4E487B71 PUSH1 0xE0 SHL PUSH0 MSTORE PUSH1 0x11 PUSH1 0x4 MSTORE PUSH1 0x24 PUSH0 REVERT JUMPDEST DUP2 DUP2 SUB DUP2 DUP2 GT ISZERO PUSH2 0xCF5 JUMPI PUSH2 0xCF5 PUSH2 0x1BD3 JUMP JUMPDEST PUSH4 0x4E487B71 PUSH1 0xE0 SHL PUSH0 MSTORE PUSH1 0x32 PUSH1 0x4 MSTORE PUSH1 0x24 PUSH0 REVERT JUMPDEST DUP1 DUP3 ADD DUP1 DUP3 GT ISZERO PUSH2 0xCF5 JUMPI PUSH2 0xCF5 PUSH2 0x1BD3 JUMP JUMPDEST PUSH0 PUSH1 0x20 DUP3 DUP5 SUB SLT ISZERO PUSH2 0x1C31 JUMPI PUSH0 DUP1 REVERT JUMPDEST DUP2 MLOAD PUSH2 0x1447 DUP2 PUSH2 0x1912 JUMP JUMPDEST DUP1 DUP3 MUL DUP2 ISZERO DUP3 DUP3 DIV DUP5 EQ OR PUSH2 0xCF5 JUMPI PUSH2 0xCF5 PUSH2 0x1BD3 JUMP JUMPDEST PUSH0 DUP3 PUSH2 0x1C6D JUMPI PUSH4 0x4E487B71 PUSH1 0xE0 SHL PUSH0 MSTORE PUSH1 0x12 PUSH1 0x4 MSTORE PUSH1 0x24 PUSH0 REVERT JUMPDEST POP DIV SWAP1 JUMP JUMPDEST PUSH0 DUP3 MLOAD PUSH0 JUMPDEST DUP2 DUP2 LT ISZERO PUSH2 0x1C91 JUMPI PUSH1 0x20 DUP2 DUP7 ADD DUP2 ADD MLOAD DUP6 DUP4 ADD MSTORE ADD PUSH2 0x1C77 JUMP JUMPDEST POP PUSH0 SWAP3 ADD SWAP2 DUP3 MSTORE POP SWAP2 SWAP1 POP JUMP INVALID LOG2 PUSH5 0x6970667358 0x22 SLT KECCAK256 ADDRESS BLOBHASH 0xD4 0xD7 0xF6 0xAB PUSH15 0xEB7A3C8F4DCD6E72906C35301870D4 EXTCODEHASH 0xA6 0xF8 PUSH22 0xC73F174CBEE064736F6C634300081800330000000000 "
				},
				"gasEstimates": {
					"creation": {
						"codeDepositCost": "1476000",
						"executionCost": "1539",
						"totalCost": "1477539"
					},
					"external": {
						"add(uint256,address,bool)": "infinite",
						"compound(uint256)": "infinite",
						"deposit(uint256,uint256)": "infinite",
						"deposited(uint256,address)": "2707",
						"emergencyWithdraw(uint256)": "infinite",
						"endTimestamp()": "2372",
						"erc20()": "2381",
						"fund(uint256)": "infinite",
						"getPendingAndDepositedForUsers(address[],uint256)": "infinite",
						"initialize(address,address,uint256,uint256,address)": "infinite",
						"massUpdatePools()": "infinite",
						"owner()": "2398",
						"paidOut()": "2328",
						"pending(uint256,address)": "infinite",
						"poolInfo(uint256)": "13257",
						"poolLength()": "2316",
						"renounceOwnership()": "infinite",
						"rewardPerSecond()": "2373",
						"salesFactory()": "2402",
						"set(uint256,uint256,bool)": "infinite",
						"setSalesFactory(address)": "26885",
						"setTokensUnlockTime(uint256,address,uint256)": "infinite",
						"startTimestamp()": "2327",
						"totalAllocPoint()": "2329",
						"totalPending()": "infinite",
						"totalRewards()": "2352",
						"transferOwnership(address)": "infinite",
						"updatePool(uint256)": "infinite",
						"userInfo(uint256,address)": "6933",
						"withdraw(uint256,uint256)": "infinite"
					},
					"internal": {
						"erc20Transfer(address,uint256)": "infinite"
					}
				},
				"methodIdentifiers": {
					"add(uint256,address,bool)": "1eaaa045",
					"compound(uint256)": "aa5f7e26",
					"deposit(uint256,uint256)": "e2bbb158",
					"deposited(uint256,address)": "a2383106",
					"emergencyWithdraw(uint256)": "5312ea8e",
					"endTimestamp()": "a85adeab",
					"erc20()": "785e9e86",
					"fund(uint256)": "ca1d209d",
					"getPendingAndDepositedForUsers(address[],uint256)": "fcfc1b14",
					"initialize(address,address,uint256,uint256,address)": "57fb25cc",
					"massUpdatePools()": "630b5ba1",
					"owner()": "8da5cb5b",
					"paidOut()": "5c76ca2d",
					"pending(uint256,address)": "e4c75c27",
					"poolInfo(uint256)": "1526fe27",
					"poolLength()": "081e3eda",
					"renounceOwnership()": "715018a6",
					"rewardPerSecond()": "8f10369a",
					"salesFactory()": "ed95f07f",
					"set(uint256,uint256,bool)": "64482f79",
					"setSalesFactory(address)": "3dfcb861",
					"setTokensUnlockTime(uint256,address,uint256)": "e6f04acc",
					"startTimestamp()": "e6fd48bc",
					"totalAllocPoint()": "17caf6f1",
					"totalPending()": "3f90916a",
					"totalRewards()": "0e15561a",
					"transferOwnership(address)": "f2fde38b",
					"updatePool(uint256)": "51eb05a6",
					"userInfo(uint256,address)": "93f1a40b",
					"withdraw(uint256,uint256)": "441a3e70"
				}
			},
			"storageLayout": {
				"storage": [
					{
						"astId": 1192,
						"contract": "contracts/AllocationStaking.sol:AllocationStaking",
						"label": "erc20",
						"offset": 0,
						"slot": "0",
						"type": "t_contract(IERC20)572"
					},
					{
						"astId": 1194,
						"contract": "contracts/AllocationStaking.sol:AllocationStaking",
						"label": "paidOut",
						"offset": 0,
						"slot": "1",
						"type": "t_uint256"
					},
					{
						"astId": 1196,
						"contract": "contracts/AllocationStaking.sol:AllocationStaking",
						"label": "rewardPerSecond",
						"offset": 0,
						"slot": "2",
						"type": "t_uint256"
					},
					{
						"astId": 1198,
						"contract": "contracts/AllocationStaking.sol:AllocationStaking",
						"label": "totalRewards",
						"offset": 0,
						"slot": "3",
						"type": "t_uint256"
					},
					{
						"astId": 1201,
						"contract": "contracts/AllocationStaking.sol:AllocationStaking",
						"label": "salesFactory",
						"offset": 0,
						"slot": "4",
						"type": "t_contract(ISalesFactory)2342"
					},
					{
						"astId": 1205,
						"contract": "contracts/AllocationStaking.sol:AllocationStaking",
						"label": "poolInfo",
						"offset": 0,
						"slot": "5",
						"type": "t_array(t_struct(PoolInfo)1189_storage)dyn_storage"
					},
					{
						"astId": 1212,
						"contract": "contracts/AllocationStaking.sol:AllocationStaking",
						"label": "userInfo",
						"offset": 0,
						"slot": "6",
						"type": "t_mapping(t_uint256,t_mapping(t_address,t_struct(UserInfo)1177_storage))"
					},
					{
						"astId": 1214,
						"contract": "contracts/AllocationStaking.sol:AllocationStaking",
						"label": "totalAllocPoint",
						"offset": 0,
						"slot": "7",
						"type": "t_uint256"
					},
					{
						"astId": 1216,
						"contract": "contracts/AllocationStaking.sol:AllocationStaking",
						"label": "startTimestamp",
						"offset": 0,
						"slot": "8",
						"type": "t_uint256"
					},
					{
						"astId": 1218,
						"contract": "contracts/AllocationStaking.sol:AllocationStaking",
						"label": "endTimestamp",
						"offset": 0,
						"slot": "9",
						"type": "t_uint256"
					}
				],
				"types": {
					"t_address": {
						"encoding": "inplace",
						"label": "address",
						"numberOfBytes": "20"
					},
					"t_array(t_address)dyn_storage": {
						"base": "t_address",
						"encoding": "dynamic_array",
						"label": "address[]",
						"numberOfBytes": "32"
					},
					"t_array(t_struct(PoolInfo)1189_storage)dyn_storage": {
						"base": "t_struct(PoolInfo)1189_storage",
						"encoding": "dynamic_array",
						"label": "struct AllocationStaking.PoolInfo[]",
						"numberOfBytes": "32"
					},
					"t_contract(IERC20)572": {
						"encoding": "inplace",
						"label": "contract IERC20",
						"numberOfBytes": "20"
					},
					"t_contract(ISalesFactory)2342": {
						"encoding": "inplace",
						"label": "contract ISalesFactory",
						"numberOfBytes": "20"
					},
					"t_mapping(t_address,t_struct(UserInfo)1177_storage)": {
						"encoding": "mapping",
						"key": "t_address",
						"label": "mapping(address => struct AllocationStaking.UserInfo)",
						"numberOfBytes": "32",
						"value": "t_struct(UserInfo)1177_storage"
					},
					"t_mapping(t_uint256,t_mapping(t_address,t_struct(UserInfo)1177_storage))": {
						"encoding": "mapping",
						"key": "t_uint256",
						"label": "mapping(uint256 => mapping(address => struct AllocationStaking.UserInfo))",
						"numberOfBytes": "32",
						"value": "t_mapping(t_address,t_struct(UserInfo)1177_storage)"
					},
					"t_struct(PoolInfo)1189_storage": {
						"encoding": "inplace",
						"label": "struct AllocationStaking.PoolInfo",
						"members": [
							{
								"astId": 1180,
								"contract": "contracts/AllocationStaking.sol:AllocationStaking",
								"label": "lpToken",
								"offset": 0,
								"slot": "0",
								"type": "t_contract(IERC20)572"
							},
							{
								"astId": 1182,
								"contract": "contracts/AllocationStaking.sol:AllocationStaking",
								"label": "allocPoint",
								"offset": 0,
								"slot": "1",
								"type": "t_uint256"
							},
							{
								"astId": 1184,
								"contract": "contracts/AllocationStaking.sol:AllocationStaking",
								"label": "lastRewardTimestamp",
								"offset": 0,
								"slot": "2",
								"type": "t_uint256"
							},
							{
								"astId": 1186,
								"contract": "contracts/AllocationStaking.sol:AllocationStaking",
								"label": "accERC20PerShare",
								"offset": 0,
								"slot": "3",
								"type": "t_uint256"
							},
							{
								"astId": 1188,
								"contract": "contracts/AllocationStaking.sol:AllocationStaking",
								"label": "totalDeposits",
								"offset": 0,
								"slot": "4",
								"type": "t_uint256"
							}
						],
						"numberOfBytes": "160"
					},
					"t_struct(UserInfo)1177_storage": {
						"encoding": "inplace",
						"label": "struct AllocationStaking.UserInfo",
						"members": [
							{
								"astId": 1169,
								"contract": "contracts/AllocationStaking.sol:AllocationStaking",
								"label": "amount",
								"offset": 0,
								"slot": "0",
								"type": "t_uint256"
							},
							{
								"astId": 1171,
								"contract": "contracts/AllocationStaking.sol:AllocationStaking",
								"label": "rewardDebt",
								"offset": 0,
								"slot": "1",
								"type": "t_uint256"
							},
							{
								"astId": 1173,
								"contract": "contracts/AllocationStaking.sol:AllocationStaking",
								"label": "tokensUnlockTime",
								"offset": 0,
								"slot": "2",
								"type": "t_uint256"
							},
							{
								"astId": 1176,
								"contract": "contracts/AllocationStaking.sol:AllocationStaking",
								"label": "salesRegistered",
								"offset": 0,
								"slot": "3",
								"type": "t_array(t_address)dyn_storage"
							}
						],
						"numberOfBytes": "128"
					},
					"t_uint256": {
						"encoding": "inplace",
						"label": "uint256",
						"numberOfBytes": "32"
					}
				}
			},
			"userdoc": {
				"kind": "user",
				"methods": {},
				"version": 1
			}
		}
	}
}