{
	"contracts/Admin.sol": {
		"Admin": {
			"abi": [
				{
					"inputs": [
						{
							"internalType": "address[]",
							"name": "_admins",
							"type": "address[]"
						}
					],
					"stateMutability": "nonpayable",
					"type": "constructor"
				},
				{
					"inputs": [
						{
							"internalType": "address",
							"name": "_adminAddress",
							"type": "address"
						}
					],
					"name": "addAdmin",
					"outputs": [],
					"stateMutability": "nonpayable",
					"type": "function"
				},
				{
					"inputs": [
						{
							"internalType": "uint256",
							"name": "",
							"type": "uint256"
						}
					],
					"name": "admins",
					"outputs": [
						{
							"internalType": "address",
							"name": "",
							"type": "address"
						}
					],
					"stateMutability": "view",
					"type": "function"
				},
				{
					"inputs": [],
					"name": "getAllAdmins",
					"outputs": [
						{
							"internalType": "address[]",
							"name": "",
							"type": "address[]"
						}
					],
					"stateMutability": "view",
					"type": "function"
				},
				{
					"inputs": [
						{
							"internalType": "address",
							"name": "",
							"type": "address"
						}
					],
					"name": "isAdmin",
					"outputs": [
						{
							"internalType": "bool",
							"name": "",
							"type": "bool"
						}
					],
					"stateMutability": "view",
					"type": "function"
				},
				{
					"inputs": [
						{
							"internalType": "address",
							"name": "_adminAddress",
							"type": "address"
						}
					],
					"name": "removeAdmin",
					"outputs": [],
					"stateMutability": "nonpayable",
					"type": "function"
				}
			],
			"devdoc": {
				"kind": "dev",
				"methods": {},
				"version": 1
			},
			"evm": {
				"assembly": "    /* \"contracts/Admin.sol\":65:1981  contract Admin {... */\n  mstore(0x40, 0x80)\n    /* \"contracts/Admin.sol\":456:641  constructor (address [] memory _admins) {... */\n  callvalue\n  dup1\n  iszero\n  tag_1\n  jumpi\n  0x00\n  dup1\n  revert\ntag_1:\n  pop\n  mload(0x40)\n  sub(codesize, bytecodeSize)\n  dup1\n  bytecodeSize\n  dup4\n  codecopy\n  dup2\n  add\n  0x40\n  dup2\n  swap1\n  mstore\n  tag_2\n  swap2\n  tag_3\n  jump\t// in\ntag_2:\n    /* \"contracts/Admin.sol\":510:516  uint i */\n  0x00\n    /* \"contracts/Admin.sol\":506:635  for(uint i = 0; i < _admins.length; i++) {... */\ntag_6:\n    /* \"contracts/Admin.sol\":526:533  _admins */\n  dup2\n    /* \"contracts/Admin.sol\":526:540  _admins.length */\n  mload\n    /* \"contracts/Admin.sol\":522:523  i */\n  dup2\n    /* \"contracts/Admin.sol\":522:540  i < _admins.length */\n  lt\n    /* \"contracts/Admin.sol\":506:635  for(uint i = 0; i < _admins.length; i++) {... */\n  iszero\n  tag_7\n  jumpi\n    /* \"contracts/Admin.sol\":561:567  admins */\n  0x00\n    /* \"contracts/Admin.sol\":573:580  _admins */\n  dup3\n    /* \"contracts/Admin.sol\":581:582  i */\n  dup3\n    /* \"contracts/Admin.sol\":573:583  _admins[i] */\n  dup2\n  mload\n  dup2\n  lt\n  tag_10\n  jumpi\n  tag_10\n  tag_11\n  jump\t// in\ntag_10:\n  0x20\n  swap1\n  dup2\n  mul\n  swap2\n  swap1\n  swap2\n  add\n  dup2\n  add\n  mload\n    /* \"contracts/Admin.sol\":561:584  admins.push(_admins[i]) */\n  dup3\n  sload\n  0x01\n  dup1\n  dup3\n  add\n  dup6\n  sstore\n  0x00\n  swap5\n  dup6\n  mstore\n  swap3\n  dup5\n  keccak256\n  add\n  dup1\n  sload\n  not(sub(shl(0xa0, 0x01), 0x01))\n  and\n  sub(shl(0xa0, 0x01), 0x01)\n  swap1\n  swap3\n  and\n  swap2\n  swap1\n  swap2\n  or\n  swap1\n  sstore\n    /* \"contracts/Admin.sol\":606:616  _admins[i] */\n  dup4\n  mload\n    /* \"contracts/Admin.sol\":561:584  admins.push(_admins[i]) */\n  swap1\n  swap2\n  dup3\n  swap2\n    /* \"contracts/Admin.sol\":606:616  _admins[i] */\n  dup6\n  swap1\n    /* \"contracts/Admin.sol\":614:615  i */\n  dup6\n  swap1\n    /* \"contracts/Admin.sol\":606:616  _admins[i] */\n  dup2\n  lt\n  tag_14\n  jumpi\n  tag_14\n  tag_11\n  jump\t// in\ntag_14:\n  0x20\n  swap1\n  dup2\n  mul\n  swap2\n  swap1\n  swap2\n  add\n  dup2\n  add\n  mload\n  sub(shl(0xa0, 0x01), 0x01)\n    /* \"contracts/Admin.sol\":598:617  isAdmin[_admins[i]] */\n  and\n  dup3\n  mstore\n  dup2\n  add\n  swap2\n  swap1\n  swap2\n  mstore\n  0x40\n  add\n  0x00\n  keccak256\n    /* \"contracts/Admin.sol\":598:624  isAdmin[_admins[i]] = true */\n  dup1\n  sload\n  not(0xff)\n  and\n  swap2\n  iszero\n  iszero\n  swap2\n  swap1\n  swap2\n  or\n  swap1\n  sstore\n  0x01\n    /* \"contracts/Admin.sol\":542:545  i++ */\n  add\n    /* \"contracts/Admin.sol\":506:635  for(uint i = 0; i < _admins.length; i++) {... */\n  jump(tag_6)\ntag_7:\n  pop\n    /* \"contracts/Admin.sol\":456:641  constructor (address [] memory _admins) {... */\n  pop\n    /* \"contracts/Admin.sol\":65:1981  contract Admin {... */\n  jump(tag_18)\n    /* \"#utility.yul\":14:141   */\ntag_16:\n    /* \"#utility.yul\":75:85   */\n  0x4e487b71\n    /* \"#utility.yul\":70:73   */\n  0xe0\n    /* \"#utility.yul\":66:86   */\n  shl\n    /* \"#utility.yul\":63:64   */\n  0x00\n    /* \"#utility.yul\":56:87   */\n  mstore\n    /* \"#utility.yul\":106:110   */\n  0x41\n    /* \"#utility.yul\":103:104   */\n  0x04\n    /* \"#utility.yul\":96:111   */\n  mstore\n    /* \"#utility.yul\":130:134   */\n  0x24\n    /* \"#utility.yul\":127:128   */\n  0x00\n    /* \"#utility.yul\":120:135   */\n  revert\n    /* \"#utility.yul\":146:323   */\ntag_17:\n    /* \"#utility.yul\":225:238   */\n  dup1\n  mload\n  sub(shl(0xa0, 0x01), 0x01)\n    /* \"#utility.yul\":267:298   */\n  dup2\n  and\n    /* \"#utility.yul\":257:299   */\n  dup2\n  eq\n    /* \"#utility.yul\":247:317   */\n  tag_21\n  jumpi\n    /* \"#utility.yul\":313:314   */\n  0x00\n    /* \"#utility.yul\":310:311   */\n  dup1\n    /* \"#utility.yul\":303:315   */\n  revert\n    /* \"#utility.yul\":247:317   */\ntag_21:\n    /* \"#utility.yul\":146:323   */\n  swap2\n  swap1\n  pop\n  jump\t// out\n    /* \"#utility.yul\":328:1457   */\ntag_3:\n    /* \"#utility.yul\":423:429   */\n  0x00\n    /* \"#utility.yul\":454:456   */\n  0x20\n    /* \"#utility.yul\":497:499   */\n  dup1\n    /* \"#utility.yul\":485:494   */\n  dup4\n    /* \"#utility.yul\":476:483   */\n  dup6\n    /* \"#utility.yul\":472:495   */\n  sub\n    /* \"#utility.yul\":468:500   */\n  slt\n    /* \"#utility.yul\":465:517   */\n  iszero\n  tag_23\n  jumpi\n    /* \"#utility.yul\":513:514   */\n  0x00\n    /* \"#utility.yul\":510:511   */\n  dup1\n    /* \"#utility.yul\":503:515   */\n  revert\n    /* \"#utility.yul\":465:517   */\ntag_23:\n    /* \"#utility.yul\":540:556   */\n  dup3\n  mload\n  sub(shl(0x40, 0x01), 0x01)\n    /* \"#utility.yul\":605:619   */\n  dup1\n  dup3\n  gt\n    /* \"#utility.yul\":602:636   */\n  iszero\n  tag_24\n  jumpi\n    /* \"#utility.yul\":632:633   */\n  0x00\n    /* \"#utility.yul\":629:630   */\n  dup1\n    /* \"#utility.yul\":622:634   */\n  revert\n    /* \"#utility.yul\":602:636   */\ntag_24:\n    /* \"#utility.yul\":670:676   */\n  dup2\n    /* \"#utility.yul\":659:668   */\n  dup6\n    /* \"#utility.yul\":655:677   */\n  add\n    /* \"#utility.yul\":645:677   */\n  swap2\n  pop\n    /* \"#utility.yul\":715:722   */\n  dup6\n    /* \"#utility.yul\":708:712   */\n  0x1f\n    /* \"#utility.yul\":704:706   */\n  dup4\n    /* \"#utility.yul\":700:713   */\n  add\n    /* \"#utility.yul\":696:723   */\n  slt\n    /* \"#utility.yul\":686:741   */\n  tag_25\n  jumpi\n    /* \"#utility.yul\":737:738   */\n  0x00\n    /* \"#utility.yul\":734:735   */\n  dup1\n    /* \"#utility.yul\":727:739   */\n  revert\n    /* \"#utility.yul\":686:741   */\ntag_25:\n    /* \"#utility.yul\":766:768   */\n  dup2\n    /* \"#utility.yul\":760:769   */\n  mload\n    /* \"#utility.yul\":788:790   */\n  dup2\n    /* \"#utility.yul\":784:786   */\n  dup2\n    /* \"#utility.yul\":781:791   */\n  gt\n    /* \"#utility.yul\":778:814   */\n  iszero\n  tag_27\n  jumpi\n    /* \"#utility.yul\":794:812   */\n  tag_27\n  tag_16\n  jump\t// in\ntag_27:\n    /* \"#utility.yul\":840:842   */\n  dup1\n    /* \"#utility.yul\":837:838   */\n  0x05\n    /* \"#utility.yul\":833:843   */\n  shl\n    /* \"#utility.yul\":872:874   */\n  0x40\n    /* \"#utility.yul\":866:875   */\n  mload\n    /* \"#utility.yul\":935:937   */\n  0x1f\n    /* \"#utility.yul\":931:938   */\n  not\n    /* \"#utility.yul\":926:928   */\n  0x3f\n    /* \"#utility.yul\":922:924   */\n  dup4\n    /* \"#utility.yul\":918:929   */\n  add\n    /* \"#utility.yul\":914:939   */\n  and\n    /* \"#utility.yul\":906:912   */\n  dup2\n    /* \"#utility.yul\":902:940   */\n  add\n    /* \"#utility.yul\":990:996   */\n  dup2\n    /* \"#utility.yul\":978:988   */\n  dup2\n    /* \"#utility.yul\":975:997   */\n  lt\n    /* \"#utility.yul\":970:972   */\n  dup6\n    /* \"#utility.yul\":958:968   */\n  dup3\n    /* \"#utility.yul\":955:973   */\n  gt\n    /* \"#utility.yul\":952:998   */\n  or\n    /* \"#utility.yul\":949:1021   */\n  iszero\n  tag_29\n  jumpi\n    /* \"#utility.yul\":1001:1019   */\n  tag_29\n  tag_16\n  jump\t// in\ntag_29:\n    /* \"#utility.yul\":1037:1039   */\n  0x40\n    /* \"#utility.yul\":1030:1052   */\n  mstore\n    /* \"#utility.yul\":1087:1105   */\n  swap2\n  dup3\n  mstore\n    /* \"#utility.yul\":1121:1136   */\n  dup5\n  dup3\n  add\n  swap3\n  pop\n    /* \"#utility.yul\":1163:1174   */\n  dup4\n  dup2\n  add\n    /* \"#utility.yul\":1159:1179   */\n  dup6\n  add\n  swap2\n    /* \"#utility.yul\":1191:1210   */\n  dup9\n  dup4\n  gt\n    /* \"#utility.yul\":1188:1227   */\n  iszero\n  tag_30\n  jumpi\n    /* \"#utility.yul\":1223:1224   */\n  0x00\n    /* \"#utility.yul\":1220:1221   */\n  dup1\n    /* \"#utility.yul\":1213:1225   */\n  revert\n    /* \"#utility.yul\":1188:1227   */\ntag_30:\n    /* \"#utility.yul\":1247:1258   */\n  swap4\n  dup6\n  add\n  swap4\n    /* \"#utility.yul\":1267:1426   */\ntag_31:\n    /* \"#utility.yul\":1283:1289   */\n  dup3\n    /* \"#utility.yul\":1278:1281   */\n  dup6\n    /* \"#utility.yul\":1275:1290   */\n  lt\n    /* \"#utility.yul\":1267:1426   */\n  iszero\n  tag_33\n  jumpi\n    /* \"#utility.yul\":1349:1383   */\n  tag_34\n    /* \"#utility.yul\":1379:1382   */\n  dup6\n    /* \"#utility.yul\":1349:1383   */\n  tag_17\n  jump\t// in\ntag_34:\n    /* \"#utility.yul\":1337:1384   */\n  dup5\n  mstore\n    /* \"#utility.yul\":1300:1312   */\n  swap4\n  dup6\n  add\n  swap4\n    /* \"#utility.yul\":1404:1416   */\n  swap3\n  dup6\n  add\n  swap3\n    /* \"#utility.yul\":1267:1426   */\n  jump(tag_31)\ntag_33:\n    /* \"#utility.yul\":1445:1451   */\n  swap9\n    /* \"#utility.yul\":328:1457   */\n  swap8\n  pop\n  pop\n  pop\n  pop\n  pop\n  pop\n  pop\n  pop\n  jump\t// out\n    /* \"#utility.yul\":1462:1589   */\ntag_11:\n    /* \"#utility.yul\":1523:1533   */\n  0x4e487b71\n    /* \"#utility.yul\":1518:1521   */\n  0xe0\n    /* \"#utility.yul\":1514:1534   */\n  shl\n    /* \"#utility.yul\":1511:1512   */\n  0x00\n    /* \"#utility.yul\":1504:1535   */\n  mstore\n    /* \"#utility.yul\":1554:1558   */\n  0x32\n    /* \"#utility.yul\":1551:1552   */\n  0x04\n    /* \"#utility.yul\":1544:1559   */\n  mstore\n    /* \"#utility.yul\":1578:1582   */\n  0x24\n    /* \"#utility.yul\":1575:1576   */\n  0x00\n    /* \"#utility.yul\":1568:1583   */\n  revert\n    /* \"#utility.yul\":1462:1589   */\ntag_18:\n    /* \"contracts/Admin.sol\":65:1981  contract Admin {... */\n  dataSize(sub_0)\n  dup1\n  dataOffset(sub_0)\n  0x00\n  codecopy\n  0x00\n  return\nstop\n\nsub_0: assembly {\n        /* \"contracts/Admin.sol\":65:1981  contract Admin {... */\n      mstore(0x40, 0x80)\n      callvalue\n      dup1\n      iszero\n      tag_1\n      jumpi\n      0x00\n      dup1\n      revert\n    tag_1:\n      pop\n      jumpi(tag_2, lt(calldatasize, 0x04))\n      shr(0xe0, calldataload(0x00))\n      dup1\n      0x14bfd6d0\n      eq\n      tag_3\n      jumpi\n      dup1\n      0x1785f53c\n      eq\n      tag_4\n      jumpi\n      dup1\n      0x24d7806c\n      eq\n      tag_5\n      jumpi\n      dup1\n      0x70480275\n      eq\n      tag_6\n      jumpi\n      dup1\n      0xe9523c97\n      eq\n      tag_7\n      jumpi\n    tag_2:\n      0x00\n      dup1\n      revert\n        /* \"contracts/Admin.sol\":113:137  address [] public admins */\n    tag_3:\n      tag_8\n      tag_9\n      calldatasize\n      0x04\n      tag_10\n      jump\t// in\n    tag_9:\n      tag_11\n      jump\t// in\n    tag_8:\n      mload(0x40)\n      sub(shl(0xa0, 0x01), 0x01)\n        /* \"#utility.yul\":363:395   */\n      swap1\n      swap2\n      and\n        /* \"#utility.yul\":345:396   */\n      dup2\n      mstore\n        /* \"#utility.yul\":333:335   */\n      0x20\n        /* \"#utility.yul\":318:336   */\n      add\n        /* \"contracts/Admin.sol\":113:137  address [] public admins */\n    tag_12:\n      mload(0x40)\n      dup1\n      swap2\n      sub\n      swap1\n      return\n        /* \"contracts/Admin.sol\":1134:1836  function removeAdmin(... */\n    tag_4:\n      tag_14\n      tag_15\n      calldatasize\n      0x04\n      tag_16\n      jump\t// in\n    tag_15:\n      tag_17\n      jump\t// in\n    tag_14:\n      stop\n        /* \"contracts/Admin.sol\":197:236  mapping(address => bool) public isAdmin */\n    tag_5:\n      tag_18\n      tag_19\n      calldatasize\n      0x04\n      tag_16\n      jump\t// in\n    tag_19:\n      mstore(0x20, 0x01)\n      0x00\n      swap1\n      dup2\n      mstore\n      0x40\n      swap1\n      keccak256\n      sload\n      0xff\n      and\n      dup2\n      jump\n    tag_18:\n      mload(0x40)\n        /* \"#utility.yul\":863:877   */\n      swap1\n      iszero\n        /* \"#utility.yul\":856:878   */\n      iszero\n        /* \"#utility.yul\":838:879   */\n      dup2\n      mstore\n        /* \"#utility.yul\":826:828   */\n      0x20\n        /* \"#utility.yul\":811:829   */\n      add\n        /* \"contracts/Admin.sol\":197:236  mapping(address => bool) public isAdmin */\n      tag_12\n        /* \"#utility.yul\":698:885   */\n      jump\n        /* \"contracts/Admin.sol\":647:1128  function addAdmin(... */\n    tag_6:\n      tag_14\n      tag_24\n      calldatasize\n      0x04\n      tag_16\n      jump\t// in\n    tag_24:\n      tag_25\n      jump\t// in\n        /* \"contracts/Admin.sol\":1866:1978  function getAllAdmins()... */\n    tag_7:\n      tag_26\n      tag_27\n      jump\t// in\n    tag_26:\n      mload(0x40)\n      tag_12\n      swap2\n      swap1\n      tag_29\n      jump\t// in\n        /* \"contracts/Admin.sol\":113:137  address [] public admins */\n    tag_11:\n      0x00\n      dup2\n      dup2\n      sload\n      dup2\n      lt\n      tag_30\n      jumpi\n      0x00\n      dup1\n      revert\n    tag_30:\n      0x00\n      swap2\n      dup3\n      mstore\n      0x20\n      swap1\n      swap2\n      keccak256\n      add\n      sload\n      sub(shl(0xa0, 0x01), 0x01)\n      and\n      swap1\n      pop\n      dup2\n      jump\t// out\n        /* \"contracts/Admin.sol\":1134:1836  function removeAdmin(... */\n    tag_17:\n        /* \"contracts/Admin.sol\":337:347  msg.sender */\n      caller\n        /* \"contracts/Admin.sol\":329:348  isAdmin[msg.sender] */\n      0x00\n      swap1\n      dup2\n      mstore\n        /* \"contracts/Admin.sol\":329:336  isAdmin */\n      0x01\n        /* \"contracts/Admin.sol\":329:348  isAdmin[msg.sender] */\n      0x20\n      mstore\n      0x40\n      swap1\n      keccak256\n      sload\n      0xff\n      and\n        /* \"contracts/Admin.sol\":321:373  require(isAdmin[msg.sender], \"Only admin can call.\") */\n      tag_33\n      jumpi\n      mload(0x40)\n      shl(0xe5, 0x461bcd)\n      dup2\n      mstore\n        /* \"#utility.yul\":1755:1757   */\n      0x20\n        /* \"contracts/Admin.sol\":321:373  require(isAdmin[msg.sender], \"Only admin can call.\") */\n      0x04\n      dup3\n      add\n        /* \"#utility.yul\":1737:1758   */\n      mstore\n        /* \"#utility.yul\":1794:1796   */\n      0x14\n        /* \"#utility.yul\":1774:1792   */\n      0x24\n      dup3\n      add\n        /* \"#utility.yul\":1767:1797   */\n      mstore\n      shl(0x61, 0x27b7363c9030b236b4b71031b0b71031b0b63617)\n        /* \"#utility.yul\":1813:1831   */\n      0x44\n      dup3\n      add\n        /* \"#utility.yul\":1806:1856   */\n      mstore\n        /* \"#utility.yul\":1873:1891   */\n      0x64\n      add\n        /* \"contracts/Admin.sol\":321:373  require(isAdmin[msg.sender], \"Only admin can call.\") */\n    tag_34:\n      mload(0x40)\n      dup1\n      swap2\n      sub\n      swap1\n      revert\n    tag_33:\n      sub(shl(0xa0, 0x01), 0x01)\n        /* \"contracts/Admin.sol\":1271:1293  isAdmin[_adminAddress] */\n      dup2\n      and\n      0x00\n      swap1\n      dup2\n      mstore\n        /* \"contracts/Admin.sol\":1271:1278  isAdmin */\n      0x01\n        /* \"contracts/Admin.sol\":1271:1293  isAdmin[_adminAddress] */\n      0x20\n      mstore\n      0x40\n      swap1\n      keccak256\n      sload\n      0xff\n      and\n        /* \"contracts/Admin.sol\":1263:1294  require(isAdmin[_adminAddress]) */\n      tag_37\n      jumpi\n      0x00\n      dup1\n      revert\n    tag_37:\n        /* \"contracts/Admin.sol\":1312:1318  admins */\n      0x00\n        /* \"contracts/Admin.sol\":1312:1325  admins.length */\n      sload\n        /* \"contracts/Admin.sol\":1328:1329  1 */\n      0x01\n      lt\n        /* \"contracts/Admin.sol\":1304:1392  require(admins.length > 1, \"Can not remove all admins since contract becomes unusable.\") */\n      tag_38\n      jumpi\n      mload(0x40)\n      shl(0xe5, 0x461bcd)\n      dup2\n      mstore\n        /* \"#utility.yul\":2104:2106   */\n      0x20\n        /* \"contracts/Admin.sol\":1304:1392  require(admins.length > 1, \"Can not remove all admins since contract becomes unusable.\") */\n      0x04\n      dup3\n      add\n        /* \"#utility.yul\":2086:2107   */\n      mstore\n        /* \"#utility.yul\":2143:2145   */\n      0x3a\n        /* \"#utility.yul\":2123:2141   */\n      0x24\n      dup3\n      add\n        /* \"#utility.yul\":2116:2146   */\n      mstore\n        /* \"#utility.yul\":2182:2216   */\n      0x43616e206e6f742072656d6f766520616c6c2061646d696e732073696e636520\n        /* \"#utility.yul\":2162:2180   */\n      0x44\n      dup3\n      add\n        /* \"#utility.yul\":2155:2217   */\n      mstore\n        /* \"#utility.yul\":2253:2281   */\n      0x636f6e7472616374206265636f6d657320756e757361626c652e000000000000\n        /* \"#utility.yul\":2233:2251   */\n      0x64\n      dup3\n      add\n        /* \"#utility.yul\":2226:2282   */\n      mstore\n        /* \"#utility.yul\":2299:2318   */\n      0x84\n      add\n        /* \"contracts/Admin.sol\":1304:1392  require(admins.length > 1, \"Can not remove all admins since contract becomes unusable.\") */\n      tag_34\n        /* \"#utility.yul\":1902:2324   */\n      jump\n        /* \"contracts/Admin.sol\":1304:1392  require(admins.length > 1, \"Can not remove all admins since contract becomes unusable.\") */\n    tag_38:\n        /* \"contracts/Admin.sol\":1402:1408  uint i */\n      0x00\n        /* \"contracts/Admin.sol\":1423:1599  while(admins[i] != _adminAddress) {... */\n    tag_41:\n        /* \"contracts/Admin.sol\":1442:1455  _adminAddress */\n      dup2\n      sub(shl(0xa0, 0x01), 0x01)\n        /* \"contracts/Admin.sol\":1429:1455  admins[i] != _adminAddress */\n      and\n        /* \"contracts/Admin.sol\":1429:1435  admins */\n      0x00\n        /* \"contracts/Admin.sol\":1436:1437  i */\n      dup3\n        /* \"contracts/Admin.sol\":1429:1438  admins[i] */\n      dup2\n      sload\n      dup2\n      lt\n      tag_44\n      jumpi\n      tag_44\n      tag_45\n      jump\t// in\n    tag_44:\n      0x00\n      swap2\n      dup3\n      mstore\n      0x20\n      swap1\n      swap2\n      keccak256\n      add\n      sload\n      sub(shl(0xa0, 0x01), 0x01)\n      and\n        /* \"contracts/Admin.sol\":1429:1455  admins[i] != _adminAddress */\n      eq\n        /* \"contracts/Admin.sol\":1423:1599  while(admins[i] != _adminAddress) {... */\n      tag_42\n      jumpi\n        /* \"contracts/Admin.sol\":1479:1485  admins */\n      0x00\n        /* \"contracts/Admin.sol\":1479:1492  admins.length */\n      sload\n        /* \"contracts/Admin.sol\":1474:1492  i == admins.length */\n      dup2\n      sub\n        /* \"contracts/Admin.sol\":1471:1572  if(i == admins.length) {... */\n      tag_47\n      jumpi\n        /* \"contracts/Admin.sol\":1512:1557  revert(\"Passed admin address does not exist\") */\n      mload(0x40)\n      shl(0xe5, 0x461bcd)\n      dup2\n      mstore\n        /* \"#utility.yul\":2663:2665   */\n      0x20\n        /* \"contracts/Admin.sol\":1512:1557  revert(\"Passed admin address does not exist\") */\n      0x04\n      dup3\n      add\n        /* \"#utility.yul\":2645:2666   */\n      mstore\n        /* \"#utility.yul\":2702:2704   */\n      0x23\n        /* \"#utility.yul\":2682:2700   */\n      0x24\n      dup3\n      add\n        /* \"#utility.yul\":2675:2705   */\n      mstore\n        /* \"#utility.yul\":2741:2775   */\n      0x5061737365642061646d696e206164647265737320646f6573206e6f74206578\n        /* \"#utility.yul\":2721:2739   */\n      0x44\n      dup3\n      add\n        /* \"#utility.yul\":2714:2776   */\n      mstore\n      shl(0xea, 0x1a5cdd)\n        /* \"#utility.yul\":2792:2810   */\n      0x64\n      dup3\n      add\n        /* \"#utility.yul\":2785:2818   */\n      mstore\n        /* \"#utility.yul\":2835:2854   */\n      0x84\n      add\n        /* \"contracts/Admin.sol\":1512:1557  revert(\"Passed admin address does not exist\") */\n      tag_34\n        /* \"#utility.yul\":2461:2860   */\n      jump\n        /* \"contracts/Admin.sol\":1471:1572  if(i == admins.length) {... */\n    tag_47:\n        /* \"contracts/Admin.sol\":1585:1588  i++ */\n      dup1\n      tag_50\n      dup2\n      tag_51\n      jump\t// in\n    tag_50:\n      swap2\n      pop\n      pop\n        /* \"contracts/Admin.sol\":1423:1599  while(admins[i] != _adminAddress) {... */\n      jump(tag_41)\n    tag_42:\n        /* \"contracts/Admin.sol\":1682:1688  admins */\n      0x00\n        /* \"contracts/Admin.sol\":1689:1702  admins.length */\n      dup1\n      sload\n        /* \"contracts/Admin.sol\":1689:1704  admins.length-1 */\n      tag_52\n      swap1\n        /* \"contracts/Admin.sol\":1703:1704  1 */\n      0x01\n      swap1\n        /* \"contracts/Admin.sol\":1689:1704  admins.length-1 */\n      tag_53\n      jump\t// in\n    tag_52:\n        /* \"contracts/Admin.sol\":1682:1705  admins[admins.length-1] */\n      dup2\n      sload\n      dup2\n      lt\n      tag_55\n      jumpi\n      tag_55\n      tag_45\n      jump\t// in\n    tag_55:\n      0x00\n      swap2\n      dup3\n      mstore\n      0x20\n      dup3\n      keccak256\n      add\n      sload\n        /* \"contracts/Admin.sol\":1670:1679  admins[i] */\n      dup2\n      sload\n      sub(shl(0xa0, 0x01), 0x01)\n        /* \"contracts/Admin.sol\":1682:1705  admins[admins.length-1] */\n      swap1\n      swap2\n      and\n      swap2\n      swap1\n        /* \"contracts/Admin.sol\":1677:1678  i */\n      dup4\n      swap1\n        /* \"contracts/Admin.sol\":1670:1679  admins[i] */\n      dup2\n      lt\n      tag_58\n      jumpi\n      tag_58\n      tag_45\n      jump\t// in\n    tag_58:\n      0x00\n      swap2\n      dup3\n      mstore\n      0x20\n      dup1\n      dup4\n      keccak256\n      swap2\n      swap1\n      swap2\n      add\n        /* \"contracts/Admin.sol\":1670:1705  admins[i] = admins[admins.length-1] */\n      dup1\n      sload\n      not(sub(shl(0xa0, 0x01), 0x01))\n      and\n      sub(shl(0xa0, 0x01), 0x01)\n      swap5\n      dup6\n      and\n      or\n      swap1\n      sstore\n        /* \"contracts/Admin.sol\":1716:1738  isAdmin[_adminAddress] */\n      swap2\n      dup5\n      and\n      dup2\n      mstore\n      0x01\n      swap1\n      swap2\n      mstore\n      0x40\n      dup2\n      keccak256\n        /* \"contracts/Admin.sol\":1716:1746  isAdmin[_adminAddress] = false */\n      dup1\n      sload\n      not(0xff)\n      and\n      swap1\n      sstore\n        /* \"contracts/Admin.sol\":1817:1829  admins.pop() */\n      dup1\n      sload\n      dup1\n      tag_61\n      jumpi\n      tag_61\n      tag_62\n      jump\t// in\n    tag_61:\n      0x00\n      dup3\n      dup2\n      mstore\n      0x20\n      swap1\n      keccak256\n      dup2\n      add\n      not(0x00)\n      swap1\n      dup2\n      add\n      dup1\n      sload\n      not(sub(shl(0xa0, 0x01), 0x01))\n      and\n      swap1\n      sstore\n      add\n      swap1\n      sstore\n      pop\n      pop\n        /* \"contracts/Admin.sol\":1134:1836  function removeAdmin(... */\n      jump\t// out\n        /* \"contracts/Admin.sol\":647:1128  function addAdmin(... */\n    tag_25:\n        /* \"contracts/Admin.sol\":337:347  msg.sender */\n      caller\n        /* \"contracts/Admin.sol\":329:348  isAdmin[msg.sender] */\n      0x00\n      swap1\n      dup2\n      mstore\n        /* \"contracts/Admin.sol\":329:336  isAdmin */\n      0x01\n        /* \"contracts/Admin.sol\":329:348  isAdmin[msg.sender] */\n      0x20\n      mstore\n      0x40\n      swap1\n      keccak256\n      sload\n      0xff\n      and\n        /* \"contracts/Admin.sol\":321:373  require(isAdmin[msg.sender], \"Only admin can call.\") */\n      tag_65\n      jumpi\n      mload(0x40)\n      shl(0xe5, 0x461bcd)\n      dup2\n      mstore\n        /* \"#utility.yul\":1755:1757   */\n      0x20\n        /* \"contracts/Admin.sol\":321:373  require(isAdmin[msg.sender], \"Only admin can call.\") */\n      0x04\n      dup3\n      add\n        /* \"#utility.yul\":1737:1758   */\n      mstore\n        /* \"#utility.yul\":1794:1796   */\n      0x14\n        /* \"#utility.yul\":1774:1792   */\n      0x24\n      dup3\n      add\n        /* \"#utility.yul\":1767:1797   */\n      mstore\n      shl(0x61, 0x27b7363c9030b236b4b71031b0b71031b0b63617)\n        /* \"#utility.yul\":1813:1831   */\n      0x44\n      dup3\n      add\n        /* \"#utility.yul\":1806:1856   */\n      mstore\n        /* \"#utility.yul\":1873:1891   */\n      0x64\n      add\n        /* \"contracts/Admin.sol\":321:373  require(isAdmin[msg.sender], \"Only admin can call.\") */\n      tag_34\n        /* \"#utility.yul\":1553:1897   */\n      jump\n        /* \"contracts/Admin.sol\":321:373  require(isAdmin[msg.sender], \"Only admin can call.\") */\n    tag_65:\n      sub(shl(0xa0, 0x01), 0x01)\n        /* \"contracts/Admin.sol\":795:824  _adminAddress != address(0x0) */\n      dup2\n      and\n        /* \"contracts/Admin.sol\":787:871  require(_adminAddress != address(0x0), \"[RBAC] : Admin must be != than 0x0 address\") */\n      tag_68\n      jumpi\n      mload(0x40)\n      shl(0xe5, 0x461bcd)\n      dup2\n      mstore\n        /* \"#utility.yul\":3604:3606   */\n      0x20\n        /* \"contracts/Admin.sol\":787:871  require(_adminAddress != address(0x0), \"[RBAC] : Admin must be != than 0x0 address\") */\n      0x04\n      dup3\n      add\n        /* \"#utility.yul\":3586:3607   */\n      mstore\n        /* \"#utility.yul\":3643:3645   */\n      0x2a\n        /* \"#utility.yul\":3623:3641   */\n      0x24\n      dup3\n      add\n        /* \"#utility.yul\":3616:3646   */\n      mstore\n        /* \"#utility.yul\":3682:3716   */\n      0x5b524241435d203a2041646d696e206d75737420626520213d207468616e2030\n        /* \"#utility.yul\":3662:3680   */\n      0x44\n      dup3\n      add\n        /* \"#utility.yul\":3655:3717   */\n      mstore\n      shl(0xb0, 0x78302061646472657373)\n        /* \"#utility.yul\":3733:3751   */\n      0x64\n      dup3\n      add\n        /* \"#utility.yul\":3726:3766   */\n      mstore\n        /* \"#utility.yul\":3783:3802   */\n      0x84\n      add\n        /* \"contracts/Admin.sol\":787:871  require(_adminAddress != address(0x0), \"[RBAC] : Admin must be != than 0x0 address\") */\n      tag_34\n        /* \"#utility.yul\":3402:3808   */\n      jump\n        /* \"contracts/Admin.sol\":787:871  require(_adminAddress != address(0x0), \"[RBAC] : Admin must be != than 0x0 address\") */\n    tag_68:\n      sub(shl(0xa0, 0x01), 0x01)\n        /* \"contracts/Admin.sol\":926:948  isAdmin[_adminAddress] */\n      dup2\n      and\n      0x00\n      swap1\n      dup2\n      mstore\n        /* \"contracts/Admin.sol\":926:933  isAdmin */\n      0x01\n        /* \"contracts/Admin.sol\":926:948  isAdmin[_adminAddress] */\n      0x20\n      mstore\n      0x40\n      swap1\n      keccak256\n      sload\n      0xff\n      and\n        /* \"contracts/Admin.sol\":925:948  !isAdmin[_adminAddress] */\n      iszero\n        /* \"contracts/Admin.sol\":917:983  require(!isAdmin[_adminAddress], \"[RBAC] : Admin already exists.\") */\n      tag_71\n      jumpi\n      mload(0x40)\n      shl(0xe5, 0x461bcd)\n      dup2\n      mstore\n        /* \"#utility.yul\":4015:4017   */\n      0x20\n        /* \"contracts/Admin.sol\":917:983  require(!isAdmin[_adminAddress], \"[RBAC] : Admin already exists.\") */\n      0x04\n      dup3\n      add\n        /* \"#utility.yul\":3997:4018   */\n      mstore\n        /* \"#utility.yul\":4054:4056   */\n      0x1e\n        /* \"#utility.yul\":4034:4052   */\n      0x24\n      dup3\n      add\n        /* \"#utility.yul\":4027:4057   */\n      mstore\n        /* \"#utility.yul\":4093:4125   */\n      0x5b524241435d203a2041646d696e20616c7265616479206578697374732e0000\n        /* \"#utility.yul\":4073:4091   */\n      0x44\n      dup3\n      add\n        /* \"#utility.yul\":4066:4126   */\n      mstore\n        /* \"#utility.yul\":4143:4161   */\n      0x64\n      add\n        /* \"contracts/Admin.sol\":917:983  require(!isAdmin[_adminAddress], \"[RBAC] : Admin already exists.\") */\n      tag_34\n        /* \"#utility.yul\":3813:4167   */\n      jump\n        /* \"contracts/Admin.sol\":917:983  require(!isAdmin[_adminAddress], \"[RBAC] : Admin already exists.\") */\n    tag_71:\n        /* \"contracts/Admin.sol\":1033:1039  admins */\n      0x00\n        /* \"contracts/Admin.sol\":1033:1059  admins.push(_adminAddress) */\n      dup1\n      sload\n      0x01\n      dup2\n      dup2\n      add\n      dup4\n      sstore\n      0x290decd9548b62a8d60345a988386fc84ba6bc95484008f6362f93160ef3e563\n      swap1\n      swap2\n      add\n      dup1\n      sload\n      sub(shl(0xa0, 0x01), 0x01)\n      swap1\n      swap5\n      and\n      not(sub(shl(0xa0, 0x01), 0x01))\n      swap1\n      swap5\n      and\n      dup5\n      or\n      swap1\n      sstore\n        /* \"contracts/Admin.sol\":1092:1114  isAdmin[_adminAddress] */\n      swap2\n      dup2\n      mstore\n        /* \"contracts/Admin.sol\":1033:1059  admins.push(_adminAddress) */\n      0x20\n        /* \"contracts/Admin.sol\":1092:1114  isAdmin[_adminAddress] */\n      dup3\n      swap1\n      mstore\n      0x40\n      swap1\n      keccak256\n        /* \"contracts/Admin.sol\":1092:1121  isAdmin[_adminAddress] = true */\n      dup1\n      sload\n      not(0xff)\n      and\n      swap1\n      swap2\n      or\n      swap1\n      sstore\n        /* \"contracts/Admin.sol\":647:1128  function addAdmin(... */\n      jump\t// out\n        /* \"contracts/Admin.sol\":1866:1978  function getAllAdmins()... */\n    tag_27:\n        /* \"contracts/Admin.sol\":1925:1942  address [] memory */\n      0x60\n        /* \"contracts/Admin.sol\":1965:1971  admins */\n      0x00\n        /* \"contracts/Admin.sol\":1958:1971  return admins */\n      dup1\n      sload\n      dup1\n      0x20\n      mul\n      0x20\n      add\n      mload(0x40)\n      swap1\n      dup2\n      add\n      0x40\n      mstore\n      dup1\n      swap3\n      swap2\n      swap1\n      dup2\n      dup2\n      mstore\n      0x20\n      add\n      dup3\n      dup1\n      sload\n      dup1\n      iszero\n      tag_76\n      jumpi\n      0x20\n      mul\n      dup3\n      add\n      swap2\n      swap1\n      0x00\n      mstore\n      keccak256(0x00, 0x20)\n      swap1\n    tag_77:\n      dup2\n      sload\n      sub(shl(0xa0, 0x01), 0x01)\n      and\n      dup2\n      mstore\n      0x01\n      swap1\n      swap2\n      add\n      swap1\n      0x20\n      add\n      dup1\n      dup4\n      gt\n      tag_77\n      jumpi\n    tag_76:\n      pop\n      pop\n      pop\n      pop\n      pop\n      swap1\n      pop\n        /* \"contracts/Admin.sol\":1866:1978  function getAllAdmins()... */\n      swap1\n      jump\t// out\n        /* \"#utility.yul\":14:194   */\n    tag_10:\n        /* \"#utility.yul\":73:79   */\n      0x00\n        /* \"#utility.yul\":126:128   */\n      0x20\n        /* \"#utility.yul\":114:123   */\n      dup3\n        /* \"#utility.yul\":105:112   */\n      dup5\n        /* \"#utility.yul\":101:124   */\n      sub\n        /* \"#utility.yul\":97:129   */\n      slt\n        /* \"#utility.yul\":94:146   */\n      iszero\n      tag_81\n      jumpi\n        /* \"#utility.yul\":142:143   */\n      0x00\n        /* \"#utility.yul\":139:140   */\n      dup1\n        /* \"#utility.yul\":132:144   */\n      revert\n        /* \"#utility.yul\":94:146   */\n    tag_81:\n      pop\n        /* \"#utility.yul\":165:188   */\n      calldataload\n      swap2\n        /* \"#utility.yul\":14:194   */\n      swap1\n      pop\n      jump\t// out\n        /* \"#utility.yul\":407:693   */\n    tag_16:\n        /* \"#utility.yul\":466:472   */\n      0x00\n        /* \"#utility.yul\":519:521   */\n      0x20\n        /* \"#utility.yul\":507:516   */\n      dup3\n        /* \"#utility.yul\":498:505   */\n      dup5\n        /* \"#utility.yul\":494:517   */\n      sub\n        /* \"#utility.yul\":490:522   */\n      slt\n        /* \"#utility.yul\":487:539   */\n      iszero\n      tag_84\n      jumpi\n        /* \"#utility.yul\":535:536   */\n      0x00\n        /* \"#utility.yul\":532:533   */\n      dup1\n        /* \"#utility.yul\":525:537   */\n      revert\n        /* \"#utility.yul\":487:539   */\n    tag_84:\n        /* \"#utility.yul\":561:584   */\n      dup2\n      calldataload\n      sub(shl(0xa0, 0x01), 0x01)\n        /* \"#utility.yul\":613:644   */\n      dup2\n      and\n        /* \"#utility.yul\":603:645   */\n      dup2\n      eq\n        /* \"#utility.yul\":593:663   */\n      tag_85\n      jumpi\n        /* \"#utility.yul\":659:660   */\n      0x00\n        /* \"#utility.yul\":656:657   */\n      dup1\n        /* \"#utility.yul\":649:661   */\n      revert\n        /* \"#utility.yul\":593:663   */\n    tag_85:\n        /* \"#utility.yul\":682:687   */\n      swap4\n        /* \"#utility.yul\":407:693   */\n      swap3\n      pop\n      pop\n      pop\n      jump\t// out\n        /* \"#utility.yul\":890:1548   */\n    tag_29:\n        /* \"#utility.yul\":1061:1063   */\n      0x20\n        /* \"#utility.yul\":1113:1134   */\n      dup1\n      dup3\n      mstore\n        /* \"#utility.yul\":1183:1196   */\n      dup3\n      mload\n        /* \"#utility.yul\":1086:1104   */\n      dup3\n      dup3\n      add\n        /* \"#utility.yul\":1205:1227   */\n      dup2\n      swap1\n      mstore\n        /* \"#utility.yul\":1032:1036   */\n      0x00\n      swap2\n        /* \"#utility.yul\":1061:1063   */\n      swap1\n        /* \"#utility.yul\":1284:1299   */\n      dup5\n      dup3\n      add\n      swap1\n        /* \"#utility.yul\":1258:1260   */\n      0x40\n        /* \"#utility.yul\":1243:1261   */\n      dup6\n      add\n      swap1\n        /* \"#utility.yul\":1032:1036   */\n      dup5\n        /* \"#utility.yul\":1327:1522   */\n    tag_88:\n        /* \"#utility.yul\":1341:1347   */\n      dup2\n        /* \"#utility.yul\":1338:1339   */\n      dup2\n        /* \"#utility.yul\":1335:1348   */\n      lt\n        /* \"#utility.yul\":1327:1522   */\n      iszero\n      tag_90\n      jumpi\n        /* \"#utility.yul\":1406:1419   */\n      dup4\n      mload\n      sub(shl(0xa0, 0x01), 0x01)\n        /* \"#utility.yul\":1402:1441   */\n      and\n        /* \"#utility.yul\":1390:1442   */\n      dup4\n      mstore\n        /* \"#utility.yul\":1497:1512   */\n      swap3\n      dup5\n      add\n      swap3\n        /* \"#utility.yul\":1462:1474   */\n      swap2\n      dup5\n      add\n      swap2\n        /* \"#utility.yul\":1438:1439   */\n      0x01\n        /* \"#utility.yul\":1356:1365   */\n      add\n        /* \"#utility.yul\":1327:1522   */\n      jump(tag_88)\n    tag_90:\n      pop\n        /* \"#utility.yul\":1539:1542   */\n      swap1\n      swap7\n        /* \"#utility.yul\":890:1548   */\n      swap6\n      pop\n      pop\n      pop\n      pop\n      pop\n      pop\n      jump\t// out\n        /* \"#utility.yul\":2329:2456   */\n    tag_45:\n        /* \"#utility.yul\":2390:2400   */\n      0x4e487b71\n        /* \"#utility.yul\":2385:2388   */\n      0xe0\n        /* \"#utility.yul\":2381:2401   */\n      shl\n        /* \"#utility.yul\":2378:2379   */\n      0x00\n        /* \"#utility.yul\":2371:2402   */\n      mstore\n        /* \"#utility.yul\":2421:2425   */\n      0x32\n        /* \"#utility.yul\":2418:2419   */\n      0x04\n        /* \"#utility.yul\":2411:2426   */\n      mstore\n        /* \"#utility.yul\":2445:2449   */\n      0x24\n        /* \"#utility.yul\":2442:2443   */\n      0x00\n        /* \"#utility.yul\":2435:2450   */\n      revert\n        /* \"#utility.yul\":2865:2992   */\n    tag_78:\n        /* \"#utility.yul\":2926:2936   */\n      0x4e487b71\n        /* \"#utility.yul\":2921:2924   */\n      0xe0\n        /* \"#utility.yul\":2917:2937   */\n      shl\n        /* \"#utility.yul\":2914:2915   */\n      0x00\n        /* \"#utility.yul\":2907:2938   */\n      mstore\n        /* \"#utility.yul\":2957:2961   */\n      0x11\n        /* \"#utility.yul\":2954:2955   */\n      0x04\n        /* \"#utility.yul\":2947:2962   */\n      mstore\n        /* \"#utility.yul\":2981:2985   */\n      0x24\n        /* \"#utility.yul\":2978:2979   */\n      0x00\n        /* \"#utility.yul\":2971:2986   */\n      revert\n        /* \"#utility.yul\":2997:3132   */\n    tag_51:\n        /* \"#utility.yul\":3036:3039   */\n      0x00\n        /* \"#utility.yul\":3057:3074   */\n      0x01\n      dup3\n      add\n        /* \"#utility.yul\":3054:3097   */\n      tag_98\n      jumpi\n        /* \"#utility.yul\":3077:3095   */\n      tag_98\n      tag_78\n      jump\t// in\n    tag_98:\n      pop\n        /* \"#utility.yul\":3124:3125   */\n      0x01\n        /* \"#utility.yul\":3113:3126   */\n      add\n      swap1\n        /* \"#utility.yul\":2997:3132   */\n      jump\t// out\n        /* \"#utility.yul\":3137:3265   */\n    tag_53:\n        /* \"#utility.yul\":3204:3213   */\n      dup2\n      dup2\n      sub\n        /* \"#utility.yul\":3225:3236   */\n      dup2\n      dup2\n      gt\n        /* \"#utility.yul\":3222:3259   */\n      iszero\n      tag_101\n      jumpi\n        /* \"#utility.yul\":3239:3257   */\n      tag_101\n      tag_78\n      jump\t// in\n    tag_101:\n        /* \"#utility.yul\":3137:3265   */\n      swap3\n      swap2\n      pop\n      pop\n      jump\t// out\n        /* \"#utility.yul\":3270:3397   */\n    tag_62:\n        /* \"#utility.yul\":3331:3341   */\n      0x4e487b71\n        /* \"#utility.yul\":3326:3329   */\n      0xe0\n        /* \"#utility.yul\":3322:3342   */\n      shl\n        /* \"#utility.yul\":3319:3320   */\n      0x00\n        /* \"#utility.yul\":3312:3343   */\n      mstore\n        /* \"#utility.yul\":3362:3366   */\n      0x31\n        /* \"#utility.yul\":3359:3360   */\n      0x04\n        /* \"#utility.yul\":3352:3367   */\n      mstore\n        /* \"#utility.yul\":3386:3390   */\n      0x24\n        /* \"#utility.yul\":3383:3384   */\n      0x00\n        /* \"#utility.yul\":3376:3391   */\n      revert\n\n    auxdata: 0xa264697066735822122041ccd8d46360094e1362b17a6bd64f14dccee7ca684da4defa932b31b315178f64736f6c63430008180033\n}\n",
				"bytecode": {
					"linkReferences": {},
					"object": "608060405234801561000f575f80fd5b5060405161087938038061087983398101604081905261002e9161010d565b5f5b81518110156100d7575f82828151811061004c5761004c6101cc565b6020908102919091018101518254600180820185555f9485529284200180546001600160a01b0319166001600160a01b0390921691909117905583519091829185908590811061009e5761009e6101cc565b6020908102919091018101516001600160a01b031682528101919091526040015f20805460ff1916911515919091179055600101610030565b50506101e0565b634e487b7160e01b5f52604160045260245ffd5b80516001600160a01b0381168114610108575f80fd5b919050565b5f602080838503121561011e575f80fd5b82516001600160401b0380821115610134575f80fd5b818501915085601f830112610147575f80fd5b815181811115610159576101596100de565b8060051b604051601f19603f8301168101818110858211171561017e5761017e6100de565b60405291825284820192508381018501918883111561019b575f80fd5b938501935b828510156101c0576101b1856100f2565b845293850193928501926101a0565b98975050505050505050565b634e487b7160e01b5f52603260045260245ffd5b61068c806101ed5f395ff3fe608060405234801561000f575f80fd5b5060043610610055575f3560e01c806314bfd6d0146100595780631785f53c1461008957806324d7806c1461009e57806370480275146100d0578063e9523c97146100e3575b5f80fd5b61006c610067366004610559565b6100f8565b6040516001600160a01b0390911681526020015b60405180910390f35b61009c610097366004610570565b61011f565b005b6100c06100ac366004610570565b60016020525f908152604090205460ff1681565b6040519015158152602001610080565b61009c6100de366004610570565b610370565b6100eb6104fa565b604051610080919061059d565b5f8181548110610106575f80fd5b5f918252602090912001546001600160a01b0316905081565b335f9081526001602052604090205460ff166101795760405162461bcd60e51b815260206004820152601460248201527327b7363c9030b236b4b71031b0b71031b0b6361760611b60448201526064015b60405180910390fd5b6001600160a01b0381165f9081526001602052604090205460ff1661019c575f80fd5b5f546001106102135760405162461bcd60e51b815260206004820152603a60248201527f43616e206e6f742072656d6f766520616c6c2061646d696e732073696e63652060448201527f636f6e7472616374206265636f6d657320756e757361626c652e0000000000006064820152608401610170565b5f5b816001600160a01b03165f8281548110610231576102316105e9565b5f918252602090912001546001600160a01b0316146102b8575f5481036102a65760405162461bcd60e51b815260206004820152602360248201527f5061737365642061646d696e206164647265737320646f6573206e6f742065786044820152621a5cdd60ea1b6064820152608401610170565b806102b081610611565b915050610215565b5f80546102c790600190610629565b815481106102d7576102d76105e9565b5f91825260208220015481546001600160a01b03909116919083908110610300576103006105e9565b5f91825260208083209190910180546001600160a01b0319166001600160a01b039485161790559184168152600190915260408120805460ff1916905580548061034c5761034c610642565b5f8281526020902081015f1990810180546001600160a01b03191690550190555050565b335f9081526001602052604090205460ff166103c55760405162461bcd60e51b815260206004820152601460248201527327b7363c9030b236b4b71031b0b71031b0b6361760611b6044820152606401610170565b6001600160a01b03811661042e5760405162461bcd60e51b815260206004820152602a60248201527f5b524241435d203a2041646d696e206d75737420626520213d207468616e20306044820152697830206164647265737360b01b6064820152608401610170565b6001600160a01b0381165f9081526001602052604090205460ff16156104965760405162461bcd60e51b815260206004820152601e60248201527f5b524241435d203a2041646d696e20616c7265616479206578697374732e00006044820152606401610170565b5f8054600181810183557f290decd9548b62a8d60345a988386fc84ba6bc95484008f6362f93160ef3e56390910180546001600160a01b039094166001600160a01b031990941684179055918152602082905260409020805460ff19169091179055565b60605f80548060200260200160405190810160405280929190818152602001828054801561054f57602002820191905f5260205f20905b81546001600160a01b03168152600190910190602001808311610531575b5050505050905090565b5f60208284031215610569575f80fd5b5035919050565b5f60208284031215610580575f80fd5b81356001600160a01b0381168114610596575f80fd5b9392505050565b602080825282518282018190525f9190848201906040850190845b818110156105dd5783516001600160a01b0316835292840192918401916001016105b8565b50909695505050505050565b634e487b7160e01b5f52603260045260245ffd5b634e487b7160e01b5f52601160045260245ffd5b5f60018201610622576106226105fd565b5060010190565b8181038181111561063c5761063c6105fd565b92915050565b634e487b7160e01b5f52603160045260245ffdfea264697066735822122041ccd8d46360094e1362b17a6bd64f14dccee7ca684da4defa932b31b315178f64736f6c63430008180033",
					"opcodes": "PUSH1 0x80 PUSH1 0x40 MSTORE CALLVALUE DUP1 ISZERO PUSH2 0xF JUMPI PUSH0 DUP1 REVERT JUMPDEST POP PUSH1 0x40 MLOAD PUSH2 0x879 CODESIZE SUB DUP1 PUSH2 0x879 DUP4 CODECOPY DUP2 ADD PUSH1 0x40 DUP2 SWAP1 MSTORE PUSH2 0x2E SWAP2 PUSH2 0x10D JUMP JUMPDEST PUSH0 JUMPDEST DUP2 MLOAD DUP2 LT ISZERO PUSH2 0xD7 JUMPI PUSH0 DUP3 DUP3 DUP2 MLOAD DUP2 LT PUSH2 0x4C JUMPI PUSH2 0x4C PUSH2 0x1CC JUMP JUMPDEST PUSH1 0x20 SWAP1 DUP2 MUL SWAP2 SWAP1 SWAP2 ADD DUP2 ADD MLOAD DUP3 SLOAD PUSH1 0x1 DUP1 DUP3 ADD DUP6 SSTORE PUSH0 SWAP5 DUP6 MSTORE SWAP3 DUP5 KECCAK256 ADD DUP1 SLOAD PUSH1 0x1 PUSH1 0x1 PUSH1 0xA0 SHL SUB NOT AND PUSH1 0x1 PUSH1 0x1 PUSH1 0xA0 SHL SUB SWAP1 SWAP3 AND SWAP2 SWAP1 SWAP2 OR SWAP1 SSTORE DUP4 MLOAD SWAP1 SWAP2 DUP3 SWAP2 DUP6 SWAP1 DUP6 SWAP1 DUP2 LT PUSH2 0x9E JUMPI PUSH2 0x9E PUSH2 0x1CC JUMP JUMPDEST PUSH1 0x20 SWAP1 DUP2 MUL SWAP2 SWAP1 SWAP2 ADD DUP2 ADD MLOAD PUSH1 0x1 PUSH1 0x1 PUSH1 0xA0 SHL SUB AND DUP3 MSTORE DUP2 ADD SWAP2 SWAP1 SWAP2 MSTORE PUSH1 0x40 ADD PUSH0 KECCAK256 DUP1 SLOAD PUSH1 0xFF NOT AND SWAP2 ISZERO ISZERO SWAP2 SWAP1 SWAP2 OR SWAP1 SSTORE PUSH1 0x1 ADD PUSH2 0x30 JUMP JUMPDEST POP POP PUSH2 0x1E0 JUMP JUMPDEST PUSH4 0x4E487B71 PUSH1 0xE0 SHL PUSH0 MSTORE PUSH1 0x41 PUSH1 0x4 MSTORE PUSH1 0x24 PUSH0 REVERT JUMPDEST DUP1 MLOAD PUSH1 0x1 PUSH1 0x1 PUSH1 0xA0 SHL SUB DUP2 AND DUP2 EQ PUSH2 0x108 JUMPI PUSH0 DUP1 REVERT JUMPDEST SWAP2 SWAP1 POP JUMP JUMPDEST PUSH0 PUSH1 0x20 DUP1 DUP4 DUP6 SUB SLT ISZERO PUSH2 0x11E JUMPI PUSH0 DUP1 REVERT JUMPDEST DUP3 MLOAD PUSH1 0x1 PUSH1 0x1 PUSH1 0x40 SHL SUB DUP1 DUP3 GT ISZERO PUSH2 0x134 JUMPI PUSH0 DUP1 REVERT JUMPDEST DUP2 DUP6 ADD SWAP2 POP DUP6 PUSH1 0x1F DUP4 ADD SLT PUSH2 0x147 JUMPI PUSH0 DUP1 REVERT JUMPDEST DUP2 MLOAD DUP2 DUP2 GT ISZERO PUSH2 0x159 JUMPI PUSH2 0x159 PUSH2 0xDE JUMP JUMPDEST DUP1 PUSH1 0x5 SHL PUSH1 0x40 MLOAD PUSH1 0x1F NOT PUSH1 0x3F DUP4 ADD AND DUP2 ADD DUP2 DUP2 LT DUP6 DUP3 GT OR ISZERO PUSH2 0x17E JUMPI PUSH2 0x17E PUSH2 0xDE JUMP JUMPDEST PUSH1 0x40 MSTORE SWAP2 DUP3 MSTORE DUP5 DUP3 ADD SWAP3 POP DUP4 DUP2 ADD DUP6 ADD SWAP2 DUP9 DUP4 GT ISZERO PUSH2 0x19B JUMPI PUSH0 DUP1 REVERT JUMPDEST SWAP4 DUP6 ADD SWAP4 JUMPDEST DUP3 DUP6 LT ISZERO PUSH2 0x1C0 JUMPI PUSH2 0x1B1 DUP6 PUSH2 0xF2 JUMP JUMPDEST DUP5 MSTORE SWAP4 DUP6 ADD SWAP4 SWAP3 DUP6 ADD SWAP3 PUSH2 0x1A0 JUMP JUMPDEST SWAP9 SWAP8 POP POP POP POP POP POP POP POP JUMP JUMPDEST PUSH4 0x4E487B71 PUSH1 0xE0 SHL PUSH0 MSTORE PUSH1 0x32 PUSH1 0x4 MSTORE PUSH1 0x24 PUSH0 REVERT JUMPDEST PUSH2 0x68C DUP1 PUSH2 0x1ED PUSH0 CODECOPY PUSH0 RETURN INVALID PUSH1 0x80 PUSH1 0x40 MSTORE CALLVALUE DUP1 ISZERO PUSH2 0xF JUMPI PUSH0 DUP1 REVERT JUMPDEST POP PUSH1 0x4 CALLDATASIZE LT PUSH2 0x55 JUMPI PUSH0 CALLDATALOAD PUSH1 0xE0 SHR DUP1 PUSH4 0x14BFD6D0 EQ PUSH2 0x59 JUMPI DUP1 PUSH4 0x1785F53C EQ PUSH2 0x89 JUMPI DUP1 PUSH4 0x24D7806C EQ PUSH2 0x9E JUMPI DUP1 PUSH4 0x70480275 EQ PUSH2 0xD0 JUMPI DUP1 PUSH4 0xE9523C97 EQ PUSH2 0xE3 JUMPI JUMPDEST PUSH0 DUP1 REVERT JUMPDEST PUSH2 0x6C PUSH2 0x67 CALLDATASIZE PUSH1 0x4 PUSH2 0x559 JUMP JUMPDEST PUSH2 0xF8 JUMP JUMPDEST PUSH1 0x40 MLOAD PUSH1 0x1 PUSH1 0x1 PUSH1 0xA0 SHL SUB SWAP1 SWAP2 AND DUP2 MSTORE PUSH1 0x20 ADD JUMPDEST PUSH1 0x40 MLOAD DUP1 SWAP2 SUB SWAP1 RETURN JUMPDEST PUSH2 0x9C PUSH2 0x97 CALLDATASIZE PUSH1 0x4 PUSH2 0x570 JUMP JUMPDEST PUSH2 0x11F JUMP JUMPDEST STOP JUMPDEST PUSH2 0xC0 PUSH2 0xAC CALLDATASIZE PUSH1 0x4 PUSH2 0x570 JUMP JUMPDEST PUSH1 0x1 PUSH1 0x20 MSTORE PUSH0 SWAP1 DUP2 MSTORE PUSH1 0x40 SWAP1 KECCAK256 SLOAD PUSH1 0xFF AND DUP2 JUMP JUMPDEST PUSH1 0x40 MLOAD SWAP1 ISZERO ISZERO DUP2 MSTORE PUSH1 0x20 ADD PUSH2 0x80 JUMP JUMPDEST PUSH2 0x9C PUSH2 0xDE CALLDATASIZE PUSH1 0x4 PUSH2 0x570 JUMP JUMPDEST PUSH2 0x370 JUMP JUMPDEST PUSH2 0xEB PUSH2 0x4FA JUMP JUMPDEST PUSH1 0x40 MLOAD PUSH2 0x80 SWAP2 SWAP1 PUSH2 0x59D JUMP JUMPDEST PUSH0 DUP2 DUP2 SLOAD DUP2 LT PUSH2 0x106 JUMPI PUSH0 DUP1 REVERT JUMPDEST PUSH0 SWAP2 DUP3 MSTORE PUSH1 0x20 SWAP1 SWAP2 KECCAK256 ADD SLOAD PUSH1 0x1 PUSH1 0x1 PUSH1 0xA0 SHL SUB AND SWAP1 POP DUP2 JUMP JUMPDEST CALLER PUSH0 SWAP1 DUP2 MSTORE PUSH1 0x1 PUSH1 0x20 MSTORE PUSH1 0x40 SWAP1 KECCAK256 SLOAD PUSH1 0xFF AND PUSH2 0x179 JUMPI PUSH1 0x40 MLOAD PUSH3 0x461BCD PUSH1 0xE5 SHL DUP2 MSTORE PUSH1 0x20 PUSH1 0x4 DUP3 ADD MSTORE PUSH1 0x14 PUSH1 0x24 DUP3 ADD MSTORE PUSH20 0x27B7363C9030B236B4B71031B0B71031B0B63617 PUSH1 0x61 SHL PUSH1 0x44 DUP3 ADD MSTORE PUSH1 0x64 ADD JUMPDEST PUSH1 0x40 MLOAD DUP1 SWAP2 SUB SWAP1 REVERT JUMPDEST PUSH1 0x1 PUSH1 0x1 PUSH1 0xA0 SHL SUB DUP2 AND PUSH0 SWAP1 DUP2 MSTORE PUSH1 0x1 PUSH1 0x20 MSTORE PUSH1 0x40 SWAP1 KECCAK256 SLOAD PUSH1 0xFF AND PUSH2 0x19C JUMPI PUSH0 DUP1 REVERT JUMPDEST PUSH0 SLOAD PUSH1 0x1 LT PUSH2 0x213 JUMPI PUSH1 0x40 MLOAD PUSH3 0x461BCD PUSH1 0xE5 SHL DUP2 MSTORE PUSH1 0x20 PUSH1 0x4 DUP3 ADD MSTORE PUSH1 0x3A PUSH1 0x24 DUP3 ADD MSTORE PUSH32 0x43616E206E6F742072656D6F766520616C6C2061646D696E732073696E636520 PUSH1 0x44 DUP3 ADD MSTORE PUSH32 0x636F6E7472616374206265636F6D657320756E757361626C652E000000000000 PUSH1 0x64 DUP3 ADD MSTORE PUSH1 0x84 ADD PUSH2 0x170 JUMP JUMPDEST PUSH0 JUMPDEST DUP2 PUSH1 0x1 PUSH1 0x1 PUSH1 0xA0 SHL SUB AND PUSH0 DUP3 DUP2 SLOAD DUP2 LT PUSH2 0x231 JUMPI PUSH2 0x231 PUSH2 0x5E9 JUMP JUMPDEST PUSH0 SWAP2 DUP3 MSTORE PUSH1 0x20 SWAP1 SWAP2 KECCAK256 ADD SLOAD PUSH1 0x1 PUSH1 0x1 PUSH1 0xA0 SHL SUB AND EQ PUSH2 0x2B8 JUMPI PUSH0 SLOAD DUP2 SUB PUSH2 0x2A6 JUMPI PUSH1 0x40 MLOAD PUSH3 0x461BCD PUSH1 0xE5 SHL DUP2 MSTORE PUSH1 0x20 PUSH1 0x4 DUP3 ADD MSTORE PUSH1 0x23 PUSH1 0x24 DUP3 ADD MSTORE PUSH32 0x5061737365642061646D696E206164647265737320646F6573206E6F74206578 PUSH1 0x44 DUP3 ADD MSTORE PUSH3 0x1A5CDD PUSH1 0xEA SHL PUSH1 0x64 DUP3 ADD MSTORE PUSH1 0x84 ADD PUSH2 0x170 JUMP JUMPDEST DUP1 PUSH2 0x2B0 DUP2 PUSH2 0x611 JUMP JUMPDEST SWAP2 POP POP PUSH2 0x215 JUMP JUMPDEST PUSH0 DUP1 SLOAD PUSH2 0x2C7 SWAP1 PUSH1 0x1 SWAP1 PUSH2 0x629 JUMP JUMPDEST DUP2 SLOAD DUP2 LT PUSH2 0x2D7 JUMPI PUSH2 0x2D7 PUSH2 0x5E9 JUMP JUMPDEST PUSH0 SWAP2 DUP3 MSTORE PUSH1 0x20 DUP3 KECCAK256 ADD SLOAD DUP2 SLOAD PUSH1 0x1 PUSH1 0x1 PUSH1 0xA0 SHL SUB SWAP1 SWAP2 AND SWAP2 SWAP1 DUP4 SWAP1 DUP2 LT PUSH2 0x300 JUMPI PUSH2 0x300 PUSH2 0x5E9 JUMP JUMPDEST PUSH0 SWAP2 DUP3 MSTORE PUSH1 0x20 DUP1 DUP4 KECCAK256 SWAP2 SWAP1 SWAP2 ADD DUP1 SLOAD PUSH1 0x1 PUSH1 0x1 PUSH1 0xA0 SHL SUB NOT AND PUSH1 0x1 PUSH1 0x1 PUSH1 0xA0 SHL SUB SWAP5 DUP6 AND OR SWAP1 SSTORE SWAP2 DUP5 AND DUP2 MSTORE PUSH1 0x1 SWAP1 SWAP2 MSTORE PUSH1 0x40 DUP2 KECCAK256 DUP1 SLOAD PUSH1 0xFF NOT AND SWAP1 SSTORE DUP1 SLOAD DUP1 PUSH2 0x34C JUMPI PUSH2 0x34C PUSH2 0x642 JUMP JUMPDEST PUSH0 DUP3 DUP2 MSTORE PUSH1 0x20 SWAP1 KECCAK256 DUP2 ADD PUSH0 NOT SWAP1 DUP2 ADD DUP1 SLOAD PUSH1 0x1 PUSH1 0x1 PUSH1 0xA0 SHL SUB NOT AND SWAP1 SSTORE ADD SWAP1 SSTORE POP POP JUMP JUMPDEST CALLER PUSH0 SWAP1 DUP2 MSTORE PUSH1 0x1 PUSH1 0x20 MSTORE PUSH1 0x40 SWAP1 KECCAK256 SLOAD PUSH1 0xFF AND PUSH2 0x3C5 JUMPI PUSH1 0x40 MLOAD PUSH3 0x461BCD PUSH1 0xE5 SHL DUP2 MSTORE PUSH1 0x20 PUSH1 0x4 DUP3 ADD MSTORE PUSH1 0x14 PUSH1 0x24 DUP3 ADD MSTORE PUSH20 0x27B7363C9030B236B4B71031B0B71031B0B63617 PUSH1 0x61 SHL PUSH1 0x44 DUP3 ADD MSTORE PUSH1 0x64 ADD PUSH2 0x170 JUMP JUMPDEST PUSH1 0x1 PUSH1 0x1 PUSH1 0xA0 SHL SUB DUP2 AND PUSH2 0x42E JUMPI PUSH1 0x40 MLOAD PUSH3 0x461BCD PUSH1 0xE5 SHL DUP2 MSTORE PUSH1 0x20 PUSH1 0x4 DUP3 ADD MSTORE PUSH1 0x2A PUSH1 0x24 DUP3 ADD MSTORE PUSH32 0x5B524241435D203A2041646D696E206D75737420626520213D207468616E2030 PUSH1 0x44 DUP3 ADD MSTORE PUSH10 0x78302061646472657373 PUSH1 0xB0 SHL PUSH1 0x64 DUP3 ADD MSTORE PUSH1 0x84 ADD PUSH2 0x170 JUMP JUMPDEST PUSH1 0x1 PUSH1 0x1 PUSH1 0xA0 SHL SUB DUP2 AND PUSH0 SWAP1 DUP2 MSTORE PUSH1 0x1 PUSH1 0x20 MSTORE PUSH1 0x40 SWAP1 KECCAK256 SLOAD PUSH1 0xFF AND ISZERO PUSH2 0x496 JUMPI PUSH1 0x40 MLOAD PUSH3 0x461BCD PUSH1 0xE5 SHL DUP2 MSTORE PUSH1 0x20 PUSH1 0x4 DUP3 ADD MSTORE PUSH1 0x1E PUSH1 0x24 DUP3 ADD MSTORE PUSH32 0x5B524241435D203A2041646D696E20616C7265616479206578697374732E0000 PUSH1 0x44 DUP3 ADD MSTORE PUSH1 0x64 ADD PUSH2 0x170 JUMP JUMPDEST PUSH0 DUP1 SLOAD PUSH1 0x1 DUP2 DUP2 ADD DUP4 SSTORE PUSH32 0x290DECD9548B62A8D60345A988386FC84BA6BC95484008F6362F93160EF3E563 SWAP1 SWAP2 ADD DUP1 SLOAD PUSH1 0x1 PUSH1 0x1 PUSH1 0xA0 SHL SUB SWAP1 SWAP5 AND PUSH1 0x1 PUSH1 0x1 PUSH1 0xA0 SHL SUB NOT SWAP1 SWAP5 AND DUP5 OR SWAP1 SSTORE SWAP2 DUP2 MSTORE PUSH1 0x20 DUP3 SWAP1 MSTORE PUSH1 0x40 SWAP1 KECCAK256 DUP1 SLOAD PUSH1 0xFF NOT AND SWAP1 SWAP2 OR SWAP1 SSTORE JUMP JUMPDEST PUSH1 0x60 PUSH0 DUP1 SLOAD DUP1 PUSH1 0x20 MUL PUSH1 0x20 ADD PUSH1 0x40 MLOAD SWAP1 DUP2 ADD PUSH1 0x40 MSTORE DUP1 SWAP3 SWAP2 SWAP1 DUP2 DUP2 MSTORE PUSH1 0x20 ADD DUP3 DUP1 SLOAD DUP1 ISZERO PUSH2 0x54F JUMPI PUSH1 0x20 MUL DUP3 ADD SWAP2 SWAP1 PUSH0 MSTORE PUSH1 0x20 PUSH0 KECCAK256 SWAP1 JUMPDEST DUP2 SLOAD PUSH1 0x1 PUSH1 0x1 PUSH1 0xA0 SHL SUB AND DUP2 MSTORE PUSH1 0x1 SWAP1 SWAP2 ADD SWAP1 PUSH1 0x20 ADD DUP1 DUP4 GT PUSH2 0x531 JUMPI JUMPDEST POP POP POP POP POP SWAP1 POP SWAP1 JUMP JUMPDEST PUSH0 PUSH1 0x20 DUP3 DUP5 SUB SLT ISZERO PUSH2 0x569 JUMPI PUSH0 DUP1 REVERT JUMPDEST POP CALLDATALOAD SWAP2 SWAP1 POP JUMP JUMPDEST PUSH0 PUSH1 0x20 DUP3 DUP5 SUB SLT ISZERO PUSH2 0x580 JUMPI PUSH0 DUP1 REVERT JUMPDEST DUP2 CALLDATALOAD PUSH1 0x1 PUSH1 0x1 PUSH1 0xA0 SHL SUB DUP2 AND DUP2 EQ PUSH2 0x596 JUMPI PUSH0 DUP1 REVERT JUMPDEST SWAP4 SWAP3 POP POP POP JUMP JUMPDEST PUSH1 0x20 DUP1 DUP3 MSTORE DUP3 MLOAD DUP3 DUP3 ADD DUP2 SWAP1 MSTORE PUSH0 SWAP2 SWAP1 DUP5 DUP3 ADD SWAP1 PUSH1 0x40 DUP6 ADD SWAP1 DUP5 JUMPDEST DUP2 DUP2 LT ISZERO PUSH2 0x5DD JUMPI DUP4 MLOAD PUSH1 0x1 PUSH1 0x1 PUSH1 0xA0 SHL SUB AND DUP4 MSTORE SWAP3 DUP5 ADD SWAP3 SWAP2 DUP5 ADD SWAP2 PUSH1 0x1 ADD PUSH2 0x5B8 JUMP JUMPDEST POP SWAP1 SWAP7 SWAP6 POP POP POP POP POP POP JUMP JUMPDEST PUSH4 0x4E487B71 PUSH1 0xE0 SHL PUSH0 MSTORE PUSH1 0x32 PUSH1 0x4 MSTORE PUSH1 0x24 PUSH0 REVERT JUMPDEST PUSH4 0x4E487B71 PUSH1 0xE0 SHL PUSH0 MSTORE PUSH1 0x11 PUSH1 0x4 MSTORE PUSH1 0x24 PUSH0 REVERT JUMPDEST PUSH0 PUSH1 0x1 DUP3 ADD PUSH2 0x622 JUMPI PUSH2 0x622 PUSH2 0x5FD JUMP JUMPDEST POP PUSH1 0x1 ADD SWAP1 JUMP JUMPDEST DUP2 DUP2 SUB DUP2 DUP2 GT ISZERO PUSH2 0x63C JUMPI PUSH2 0x63C PUSH2 0x5FD JUMP JUMPDEST SWAP3 SWAP2 POP POP JUMP JUMPDEST PUSH4 0x4E487B71 PUSH1 0xE0 SHL PUSH0 MSTORE PUSH1 0x31 PUSH1 0x4 MSTORE PUSH1 0x24 PUSH0 REVERT INVALID LOG2 PUSH5 0x6970667358 0x22 SLT KECCAK256 COINBASE 0xCC 0xD8 0xD4 PUSH4 0x60094E13 PUSH3 0xB17A6B 0xD6 0x4F EQ 0xDC 0xCE 0xE7 0xCA PUSH9 0x4DA4DEFA932B31B315 OR DUP16 PUSH5 0x736F6C6343 STOP ADDMOD XOR STOP CALLER "
				},
				"gasEstimates": {
					"creation": {
						"codeDepositCost": "335200",
						"executionCost": "infinite",
						"totalCost": "infinite"
					},
					"external": {
						"addAdmin(address)": "77534",
						"admins(uint256)": "4577",
						"getAllAdmins()": "infinite",
						"isAdmin(address)": "2515",
						"removeAdmin(address)": "infinite"
					}
				},
				"methodIdentifiers": {
					"addAdmin(address)": "70480275",
					"admins(uint256)": "14bfd6d0",
					"getAllAdmins()": "e9523c97",
					"isAdmin(address)": "24d7806c",
					"removeAdmin(address)": "1785f53c"
				}
			},
			"storageLayout": {
				"storage": [
					{
						"astId": 4,
						"contract": "contracts/Admin.sol:Admin",
						"label": "admins",
						"offset": 0,
						"slot": "0",
						"type": "t_array(t_address)dyn_storage"
					},
					{
						"astId": 8,
						"contract": "contracts/Admin.sol:Admin",
						"label": "isAdmin",
						"offset": 0,
						"slot": "1",
						"type": "t_mapping(t_address,t_bool)"
					}
				],
				"types": {
					"t_address": {
						"encoding": "inplace",
						"label": "address",
						"numberOfBytes": "20"
					},
					"t_array(t_address)dyn_storage": {
						"base": "t_address",
						"encoding": "dynamic_array",
						"label": "address[]",
						"numberOfBytes": "32"
					},
					"t_bool": {
						"encoding": "inplace",
						"label": "bool",
						"numberOfBytes": "1"
					},
					"t_mapping(t_address,t_bool)": {
						"encoding": "mapping",
						"key": "t_address",
						"label": "mapping(address => bool)",
						"numberOfBytes": "32",
						"value": "t_bool"
					}
				}
			},
			"userdoc": {
				"kind": "user",
				"methods": {},
				"version": 1
			}
		}
	}
}