{
	"data": {
		"bytecode": {
			"linkReferences": {},
			"object": "608060405234801561000f575f80fd5b50611cd48061001d5f395ff3fe608060405234801561000f575f80fd5b50600436106101d1575f3560e01c8063785e9e86116100fe578063ca1d209d1161009e578063e6fd48bc1161006e578063e6fd48bc1461041d578063ed95f07f14610426578063f2fde38b14610439578063fcfc1b141461044c575f80fd5b8063ca1d209d146103d1578063e2bbb158146103e4578063e4c75c27146103f7578063e6f04acc1461040a575f80fd5b806393f1a40b116100d957806393f1a40b1461034e578063a2383106146103a2578063a85adeab146103b5578063aa5f7e26146103be575f80fd5b8063785e9e86146102eb5780638da5cb5b146103155780638f10369a14610345575f80fd5b8063441a3e70116101745780635c76ca2d116101445780635c76ca2d146102bf578063630b5ba1146102c857806364482f79146102d0578063715018a6146102e3575f80fd5b8063441a3e701461027357806351eb05a6146102865780635312ea8e1461029957806357fb25cc146102ac575f80fd5b806317caf6f1116101af57806317caf6f11461023a5780631eaaa045146102435780633dfcb861146102585780633f90916a1461026b575f80fd5b8063081e3eda146101d55780630e15561a146101ec5780631526fe27146101f5575b5f80fd5b6005545b6040519081526020015b60405180910390f35b6101d960035481565b6102086102033660046118e7565b61046d565b604080516001600160a01b0390961686526020860194909452928401919091526060830152608082015260a0016101e3565b6101d960075481565b61025661025136600461191f565b6104b6565b005b61025661026636600461196e565b610610565b6101d961064c565b610256610281366004611989565b61069d565b6102566102943660046118e7565b6108ac565b6102566102a73660046118e7565b61098e565b6102566102ba3660046119a9565b610ac4565b6101d960015481565b610256610c14565b6102566102de366004611a04565b610c36565b610256610cbf565b5f546102fd906001600160a01b031681565b6040516001600160a01b0390911681526020016101e3565b7f9016d09d72d40fdae2fd8ceac6b6234c7706214fd39c1cd1e609a0528c199300546001600160a01b03166102fd565b6101d960025481565b61038761035c366004611a2f565b600660209081525f928352604080842090915290825290208054600182015460029092015490919083565b604080519384526020840192909252908201526060016101e3565b6101d96103b0366004611a2f565b610cd2565b6101d960095481565b6102566103cc3660046118e7565b610cfb565b6102566103df3660046118e7565b610e08565b6102566103f2366004611989565b610eb1565b6101d9610405366004611a2f565b610fd6565b610256610418366004611a5d565b6110fd565b6101d960085481565b6004546102fd906001600160a01b031681565b61025661044736600461196e565b611220565b61045f61045a366004611aa6565b61125d565b6040516101e3929190611ba6565b6005818154811061047c575f80fd5b5f918252602090912060059091020180546001820154600283015460038401546004909401546001600160a01b0390931694509092909185565b6104be61138e565b80156104cc576104cc610c14565b5f60085442116104de576008546104e0565b425b6007549091506104f090856113e9565b6007556040805160a0810182526001600160a01b039485168152602081019586529081019182525f6060820181815260808301828152600580546001810182559381905293517f036b6384b5eca791c62761152d0c79bb0604c104a5fb6f4eb0703f3154bb3db09390940292830180546001600160a01b031916949097169390931790955594517f036b6384b5eca791c62761152d0c79bb0604c104a5fb6f4eb0703f3154bb3db186015590517f036b6384b5eca791c62761152d0c79bb0604c104a5fb6f4eb0703f3154bb3db285015591517f036b6384b5eca791c62761152d0c79bb0604c104a5fb6f4eb0703f3154bb3db384015550517f036b6384b5eca791c62761152d0c79bb0604c104a5fb6f4eb0703f3154bb3db490910155565b61061861138e565b6001600160a01b03811661062a575f80fd5b600480546001600160a01b0319166001600160a01b0392909216919091179055565b5f600854421161065b57505f90565b5f600954421061066d5760095461066f565b425b9050610697600154610691600854846106889190611be7565b6002549061144e565b906114cc565b91505090565b5f600583815481106106b1576106b1611bfa565b5f9182526020808320868452600682526040808520338652909252922060028101546005909202909201925042101561074b5760405162461bcd60e51b815260206004820152603160248201527f4c6173742073616c6520796f75207265676973746572656420666f72206973206044820152703737ba103334b734b9b432b2103cb2ba1760791b60648201526084015b60405180910390fd5b80548311156107af5760405162461bcd60e51b815260206004820152602a60248201527f77697468647261773a2063616e2774207769746864726177206d6f7265207468604482015269185b8819195c1bdcda5d60b21b6064820152608401610742565b6107b8846108ac565b5f6107f382600101546106916a0c097ce7bc90715b34b9f160241b6107ed8760030154875f015461144e90919063ffffffff16565b90611527565b90506107ff3382611581565b815461080b90856114cc565b8083556003840154610831916a0c097ce7bc90715b34b9f160241b916107ed919061144e565b6001830155825461084c906001600160a01b0316338661160f565b600483015461085b90856114cc565b6004840155831561086d575f60028301555b604051848152859033907ff279e6a1f5e320cca91135676d9cb6e44ca8a08c0b88342bcdb1144f6511b568906020015b60405180910390a35050505050565b5f600582815481106108c0576108c0611bfa565b905f5260205f20906005020190505f60095442106108e0576009546108e2565b425b9050816002015481116108f6575060028101545b60048201545f81900361090d575060029091015550565b5f6109258460020154846114cc90919063ffffffff16565b90505f6109516007546107ed876001015461094b6002548761144e90919063ffffffff16565b9061144e565b905061097d610972846107ed846a0c097ce7bc90715b34b9f160241b61144e565b6003870154906113e9565b600386015550505060029091015550565b5f600582815481106109a2576109a2611bfa565b5f91825260208083208584526006825260408085203386529092529220600281015460059092029092019250421015610a435760405162461bcd60e51b815260206004820152603b60248201527f456d657267656e637920776974686472617720626c6f636b656420647572696e60448201527f672073616c6520616e6420636f6f6c646f776e20706572696f642e00000000006064820152608401610742565b80548254610a5e916001600160a01b0390911690339061160f565b8054604051908152839033907fbb757047c2b5f3974fe26b7c10f732e7bce710b0952a71082702781e62ae05959060200160405180910390a380546004830154610aa7916114cc565b6004909201919091555f8082556001820181905560029091015550565b7ff0c57e16840df040f15088dc2f81fe391c3923bec73e23a9662efc9c229c6a008054600160401b810460ff16159067ffffffffffffffff165f81158015610b095750825b90505f8267ffffffffffffffff166001148015610b255750303b155b905081158015610b33575080155b15610b515760405163f92ee8a960e01b815260040160405180910390fd5b845467ffffffffffffffff191660011785558315610b7b57845460ff60401b1916600160401b1785555b610b848a611673565b5f80546001600160a01b03808c166001600160a01b03199283161790925560028a90556008899055600989905560048054928916929091169190911790558315610c0857845460ff60401b19168555604051600181527fc7f505b2f371ae2175ee4913f4499e1f2633a7b5936321eed1cdaeb6115181d29060200160405180910390a15b50505050505050505050565b6005545f5b81811015610c3257610c2a816108ac565b600101610c19565b5050565b610c3e61138e565b8015610c4c57610c4c610c14565b610c8d82610c8760058681548110610c6657610c66611bfa565b905f5260205f209060050201600101546007546114cc90919063ffffffff16565b906113e9565b6007819055508160058481548110610ca757610ca7611bfa565b905f5260205f20906005020160010181905550505050565b610cc761138e565b610cd05f611684565b565b5f8281526006602090815260408083206001600160a01b03851684529091529020545b92915050565b5f60058281548110610d0f57610d0f611bfa565b5f9182526020808320858452600682526040808520338652909252922060059091029091019150610d3f836108ac565b5f610d7482600101546106916a0c097ce7bc90715b34b9f160241b6107ed8760030154875f015461144e90919063ffffffff16565b8254909150610d8390826113e9565b8083556003840154610da9916a0c097ce7bc90715b34b9f160241b916107ed919061144e565b60018301556004830154610dbd90826113e9565b60048401558154604080518381526020810192909252859133917f92f0bdf80f3916a4279540865e94ef327cf48639092106cca4bddc9bb1de4a86910160405180910390a350505050565b6009544210610e645760405162461bcd60e51b815260206004820152602260248201527f66756e643a20746f6f206c6174652c20746865206661726d20697320636c6f73604482015261195960f21b6064820152608401610742565b5f54610e7b906001600160a01b03163330846116f4565b600254610e89908290611527565b60095f828254610e999190611c0e565b9091555050600354610eab90826113e9565b60035550565b5f60058381548110610ec557610ec5611bfa565b5f918252602080832086845260068252604080852033865290925292206005909102909101915082610ef6856108ac565b815415610f40575f610f3283600101546106916a0c097ce7bc90715b34b9f160241b6107ed8860030154885f015461144e90919063ffffffff16565b9050610f3e3382611581565b505b8254610f57906001600160a01b03163330876116f4565b6004830154610f6690826113e9565b60048401558154610f7790826113e9565b8083556003840154610f9d916a0c097ce7bc90715b34b9f160241b916107ed919061144e565b6001830155604051818152859033907f90890809c654f11d6e72a28fa60149770a0d11ec6c92319d6ceb2bb0a4ea1a159060200161089d565b5f8060058481548110610feb57610feb611bfa565b5f91825260208083208784526006825260408085206001600160a01b0389168652909252922060036005909202909201908101546004820154600283015492945090914211801561103b57508015155b156110c2575f600954421061105257600954611054565b425b90505f61106e8660020154836114cc90919063ffffffff16565b90505f6110946007546107ed896001015461094b6002548761144e90919063ffffffff16565b90506110bc6110b5856107ed846a0c097ce7bc90715b34b9f160241b61144e565b86906113e9565b94505050505b6110f283600101546106916a0c097ce7bc90715b34b9f160241b6107ed86885f015461144e90919063ffffffff16565b979650505050505050565b60048054604051631400493d60e31b815233928101929092526001600160a01b03169063a00249e890602401602060405180830381865afa158015611144573d5f803e3d5ffd5b505050506040513d601f19601f820116820180604052508101906111689190611c21565b6111be5760405162461bcd60e51b815260206004820152602160248201527f53616c65206e6f742063726561746564207468726f75676820666163746f72796044820152601760f91b6064820152608401610742565b5f8381526006602090815260408083206001600160a01b0386168452909152902060028101544210156111ef575f80fd5b600281019190915560030180546001810182555f91825260209091200180546001600160a01b031916331790555050565b61122861138e565b6001600160a01b03811661125157604051631e4fbdf760e01b81525f6004820152602401610742565b61125a81611684565b50565b6060805f845167ffffffffffffffff81111561127b5761127b611a92565b6040519080825280602002602001820160405280156112a4578160200160208202803683370190505b5090505f855167ffffffffffffffff8111156112c2576112c2611a92565b6040519080825280602002602001820160405280156112eb578160200160208202803683370190505b5090505f5b86518110156113825761131c8688838151811061130f5761130f611bfa565b6020026020010151610cd2565b83828151811061132e5761132e611bfa565b60200260200101818152505061135d8688838151811061135057611350611bfa565b6020026020010151610fd6565b82828151811061136f5761136f611bfa565b60209081029190910101526001016112f0565b50909590945092505050565b336113c07f9016d09d72d40fdae2fd8ceac6b6234c7706214fd39c1cd1e609a0528c199300546001600160a01b031690565b6001600160a01b031614610cd05760405163118cdaa760e01b8152336004820152602401610742565b5f806113f58385611c0e565b9050838110156114475760405162461bcd60e51b815260206004820152601b60248201527f536166654d6174683a206164646974696f6e206f766572666c6f7700000000006044820152606401610742565b9392505050565b5f825f0361145d57505f610cf5565b5f6114688385611c3c565b9050826114758583611c53565b146114475760405162461bcd60e51b815260206004820152602160248201527f536166654d6174683a206d756c7469706c69636174696f6e206f766572666c6f6044820152607760f81b6064820152608401610742565b5f8282111561151d5760405162461bcd60e51b815260206004820152601e60248201527f536166654d6174683a207375627472616374696f6e206f766572666c6f7700006044820152606401610742565b6114478284611be7565b5f8082116115775760405162461bcd60e51b815260206004820152601a60248201527f536166654d6174683a206469766973696f6e206279207a65726f0000000000006044820152606401610742565b6114478284611c53565b5f5460405163a9059cbb60e01b81526001600160a01b038481166004830152602482018490529091169063a9059cbb906044016020604051808303815f875af11580156115d0573d5f803e3d5ffd5b505050506040513d601f19601f820116820180604052508101906115f49190611c21565b508060015f8282546116069190611c0e565b90915550505050565b6040516001600160a01b0383811660248301526044820183905261166e91859182169063a9059cbb906064015b604051602081830303815290604052915060e01b6020820180516001600160e01b038381831617835250505050611733565b505050565b61167b611794565b61125a816117dd565b7f9016d09d72d40fdae2fd8ceac6b6234c7706214fd39c1cd1e609a0528c19930080546001600160a01b031981166001600160a01b03848116918217845560405192169182907f8be0079c531659141344cd1fd0a4f28419497f9722a3daafe3b4186f6b6457e0905f90a3505050565b6040516001600160a01b03848116602483015283811660448301526064820183905261172d9186918216906323b872dd9060840161163c565b50505050565b5f6117476001600160a01b038416836117e5565b905080515f1415801561176b5750808060200190518101906117699190611c21565b155b1561166e57604051635274afe760e01b81526001600160a01b0384166004820152602401610742565b7ff0c57e16840df040f15088dc2f81fe391c3923bec73e23a9662efc9c229c6a0054600160401b900460ff16610cd057604051631afcd79f60e31b815260040160405180910390fd5b611228611794565b606061144783835f845f80856001600160a01b031684866040516118099190611c72565b5f6040518083038185875af1925050503d805f8114611843576040519150601f19603f3d011682016040523d82523d5f602084013e611848565b606091505b5091509150611858868383611862565b9695505050505050565b60608261187757611872826118be565b611447565b815115801561188e57506001600160a01b0384163b155b156118b757604051639996b31560e01b81526001600160a01b0385166004820152602401610742565b5080611447565b8051156118ce5780518082602001fd5b604051630a12f52160e11b815260040160405180910390fd5b5f602082840312156118f7575f80fd5b5035919050565b6001600160a01b038116811461125a575f80fd5b801515811461125a575f80fd5b5f805f60608486031215611931575f80fd5b833592506020840135611943816118fe565b9150604084013561195381611912565b809150509250925092565b8035611969816118fe565b919050565b5f6020828403121561197e575f80fd5b8135611447816118fe565b5f806040838503121561199a575f80fd5b50508035926020909101359150565b5f805f805f60a086880312156119bd575f80fd5b85356119c8816118fe565b945060208601356119d8816118fe565b9350604086013592506060860135915060808601356119f6816118fe565b809150509295509295909350565b5f805f60608486031215611a16575f80fd5b8335925060208401359150604084013561195381611912565b5f8060408385031215611a40575f80fd5b823591506020830135611a52816118fe565b809150509250929050565b5f805f60608486031215611a6f575f80fd5b833592506020840135611a81816118fe565b929592945050506040919091013590565b634e487b7160e01b5f52604160045260245ffd5b5f8060408385031215611ab7575f80fd5b823567ffffffffffffffff80821115611ace575f80fd5b818501915085601f830112611ae1575f80fd5b8135602082821115611af557611af5611a92565b8160051b604051601f19603f83011681018181108682111715611b1a57611b1a611a92565b604052928352818301935084810182019289841115611b37575f80fd5b948201945b83861015611b5c57611b4d8661195e565b85529482019493820193611b3c565b9997909101359750505050505050565b5f815180845260208085019450602084015f5b83811015611b9b57815187529582019590820190600101611b7f565b509495945050505050565b604081525f611bb86040830185611b6c565b8281036020840152611bca8185611b6c565b95945050505050565b634e487b7160e01b5f52601160045260245ffd5b81810381811115610cf557610cf5611bd3565b634e487b7160e01b5f52603260045260245ffd5b80820180821115610cf557610cf5611bd3565b5f60208284031215611c31575f80fd5b815161144781611912565b8082028115828204841417610cf557610cf5611bd3565b5f82611c6d57634e487b7160e01b5f52601260045260245ffd5b500490565b5f82515f5b81811015611c915760208186018101518583015201611c77565b505f92019182525091905056fea26469706673582212203049d4d7f6ab6eeb7a3c8f4dcd6e72906c35301870d43fa6f875c73f174cbee064736f6c63430008180033",
			"opcodes": "PUSH1 0x80 PUSH1 0x40 MSTORE CALLVALUE DUP1 ISZERO PUSH2 0xF JUMPI PUSH0 DUP1 REVERT JUMPDEST POP PUSH2 0x1CD4 DUP1 PUSH2 0x1D PUSH0 CODECOPY PUSH0 RETURN INVALID PUSH1 0x80 PUSH1 0x40 MSTORE CALLVALUE DUP1 ISZERO PUSH2 0xF JUMPI PUSH0 DUP1 REVERT JUMPDEST POP PUSH1 0x4 CALLDATASIZE LT PUSH2 0x1D1 JUMPI PUSH0 CALLDATALOAD PUSH1 0xE0 SHR DUP1 PUSH4 0x785E9E86 GT PUSH2 0xFE JUMPI DUP1 PUSH4 0xCA1D209D GT PUSH2 0x9E JUMPI DUP1 PUSH4 0xE6FD48BC GT PUSH2 0x6E JUMPI DUP1 PUSH4 0xE6FD48BC EQ PUSH2 0x41D JUMPI DUP1 PUSH4 0xED95F07F EQ PUSH2 0x426 JUMPI DUP1 PUSH4 0xF2FDE38B EQ PUSH2 0x439 JUMPI DUP1 PUSH4 0xFCFC1B14 EQ PUSH2 0x44C JUMPI PUSH0 DUP1 REVERT JUMPDEST DUP1 PUSH4 0xCA1D209D EQ PUSH2 0x3D1 JUMPI DUP1 PUSH4 0xE2BBB158 EQ PUSH2 0x3E4 JUMPI DUP1 PUSH4 0xE4C75C27 EQ PUSH2 0x3F7 JUMPI DUP1 PUSH4 0xE6F04ACC EQ PUSH2 0x40A JUMPI PUSH0 DUP1 REVERT JUMPDEST DUP1 PUSH4 0x93F1A40B GT PUSH2 0xD9 JUMPI DUP1 PUSH4 0x93F1A40B EQ PUSH2 0x34E JUMPI DUP1 PUSH4 0xA2383106 EQ PUSH2 0x3A2 JUMPI DUP1 PUSH4 0xA85ADEAB EQ PUSH2 0x3B5 JUMPI DUP1 PUSH4 0xAA5F7E26 EQ PUSH2 0x3BE JUMPI PUSH0 DUP1 REVERT JUMPDEST DUP1 PUSH4 0x785E9E86 EQ PUSH2 0x2EB JUMPI DUP1 PUSH4 0x8DA5CB5B EQ PUSH2 0x315 JUMPI DUP1 PUSH4 0x8F10369A EQ PUSH2 0x345 JUMPI PUSH0 DUP1 REVERT JUMPDEST DUP1 PUSH4 0x441A3E70 GT PUSH2 0x174 JUMPI DUP1 PUSH4 0x5C76CA2D GT PUSH2 0x144 JUMPI DUP1 PUSH4 0x5C76CA2D EQ PUSH2 0x2BF JUMPI DUP1 PUSH4 0x630B5BA1 EQ PUSH2 0x2C8 JUMPI DUP1 PUSH4 0x64482F79 EQ PUSH2 0x2D0 JUMPI DUP1 PUSH4 0x715018A6 EQ PUSH2 0x2E3 JUMPI PUSH0 DUP1 REVERT JUMPDEST DUP1 PUSH4 0x441A3E70 EQ PUSH2 0x273 JUMPI DUP1 PUSH4 0x51EB05A6 EQ PUSH2 0x286 JUMPI DUP1 PUSH4 0x5312EA8E EQ PUSH2 0x299 JUMPI DUP1 PUSH4 0x57FB25CC EQ PUSH2 0x2AC JUMPI PUSH0 DUP1 REVERT JUMPDEST DUP1 PUSH4 0x17CAF6F1 GT PUSH2 0x1AF JUMPI DUP1 PUSH4 0x17CAF6F1 EQ PUSH2 0x23A JUMPI DUP1 PUSH4 0x1EAAA045 EQ PUSH2 0x243 JUMPI DUP1 PUSH4 0x3DFCB861 EQ PUSH2 0x258 JUMPI DUP1 PUSH4 0x3F90916A EQ PUSH2 0x26B JUMPI PUSH0 DUP1 REVERT JUMPDEST DUP1 PUSH4 0x81E3EDA EQ PUSH2 0x1D5 JUMPI DUP1 PUSH4 0xE15561A EQ PUSH2 0x1EC JUMPI DUP1 PUSH4 0x1526FE27 EQ PUSH2 0x1F5 JUMPI JUMPDEST PUSH0 DUP1 REVERT JUMPDEST PUSH1 0x5 SLOAD JUMPDEST PUSH1 0x40 MLOAD SWAP1 DUP2 MSTORE PUSH1 0x20 ADD JUMPDEST PUSH1 0x40 MLOAD DUP1 SWAP2 SUB SWAP1 RETURN JUMPDEST PUSH2 0x1D9 PUSH1 0x3 SLOAD DUP2 JUMP JUMPDEST PUSH2 0x208 PUSH2 0x203 CALLDATASIZE PUSH1 0x4 PUSH2 0x18E7 JUMP JUMPDEST PUSH2 0x46D JUMP JUMPDEST PUSH1 0x40 DUP1 MLOAD PUSH1 0x1 PUSH1 0x1 PUSH1 0xA0 SHL SUB SWAP1 SWAP7 AND DUP7 MSTORE PUSH1 0x20 DUP7 ADD SWAP5 SWAP1 SWAP5 MSTORE SWAP3 DUP5 ADD SWAP2 SWAP1 SWAP2 MSTORE PUSH1 0x60 DUP4 ADD MSTORE PUSH1 0x80 DUP3 ADD MSTORE PUSH1 0xA0 ADD PUSH2 0x1E3 JUMP JUMPDEST PUSH2 0x1D9 PUSH1 0x7 SLOAD DUP2 JUMP JUMPDEST PUSH2 0x256 PUSH2 0x251 CALLDATASIZE PUSH1 0x4 PUSH2 0x191F JUMP JUMPDEST PUSH2 0x4B6 JUMP JUMPDEST STOP JUMPDEST PUSH2 0x256 PUSH2 0x266 CALLDATASIZE PUSH1 0x4 PUSH2 0x196E JUMP JUMPDEST PUSH2 0x610 JUMP JUMPDEST PUSH2 0x1D9 PUSH2 0x64C JUMP JUMPDEST PUSH2 0x256 PUSH2 0x281 CALLDATASIZE PUSH1 0x4 PUSH2 0x1989 JUMP JUMPDEST PUSH2 0x69D JUMP JUMPDEST PUSH2 0x256 PUSH2 0x294 CALLDATASIZE PUSH1 0x4 PUSH2 0x18E7 JUMP JUMPDEST PUSH2 0x8AC JUMP JUMPDEST PUSH2 0x256 PUSH2 0x2A7 CALLDATASIZE PUSH1 0x4 PUSH2 0x18E7 JUMP JUMPDEST PUSH2 0x98E JUMP JUMPDEST PUSH2 0x256 PUSH2 0x2BA CALLDATASIZE PUSH1 0x4 PUSH2 0x19A9 JUMP JUMPDEST PUSH2 0xAC4 JUMP JUMPDEST PUSH2 0x1D9 PUSH1 0x1 SLOAD DUP2 JUMP JUMPDEST PUSH2 0x256 PUSH2 0xC14 JUMP JUMPDEST PUSH2 0x256 PUSH2 0x2DE CALLDATASIZE PUSH1 0x4 PUSH2 0x1A04 JUMP JUMPDEST PUSH2 0xC36 JUMP JUMPDEST PUSH2 0x256 PUSH2 0xCBF JUMP JUMPDEST PUSH0 SLOAD PUSH2 0x2FD SWAP1 PUSH1 0x1 PUSH1 0x1 PUSH1 0xA0 SHL SUB AND DUP2 JUMP JUMPDEST PUSH1 0x40 MLOAD PUSH1 0x1 PUSH1 0x1 PUSH1 0xA0 SHL SUB SWAP1 SWAP2 AND DUP2 MSTORE PUSH1 0x20 ADD PUSH2 0x1E3 JUMP JUMPDEST PUSH32 0x9016D09D72D40FDAE2FD8CEAC6B6234C7706214FD39C1CD1E609A0528C199300 SLOAD PUSH1 0x1 PUSH1 0x1 PUSH1 0xA0 SHL SUB AND PUSH2 0x2FD JUMP JUMPDEST PUSH2 0x1D9 PUSH1 0x2 SLOAD DUP2 JUMP JUMPDEST PUSH2 0x387 PUSH2 0x35C CALLDATASIZE PUSH1 0x4 PUSH2 0x1A2F JUMP JUMPDEST PUSH1 0x6 PUSH1 0x20 SWAP1 DUP2 MSTORE PUSH0 SWAP3 DUP4 MSTORE PUSH1 0x40 DUP1 DUP5 KECCAK256 SWAP1 SWAP2 MSTORE SWAP1 DUP3 MSTORE SWAP1 KECCAK256 DUP1 SLOAD PUSH1 0x1 DUP3 ADD SLOAD PUSH1 0x2 SWAP1 SWAP3 ADD SLOAD SWAP1 SWAP2 SWAP1 DUP4 JUMP JUMPDEST PUSH1 0x40 DUP1 MLOAD SWAP4 DUP5 MSTORE PUSH1 0x20 DUP5 ADD SWAP3 SWAP1 SWAP3 MSTORE SWAP1 DUP3 ADD MSTORE PUSH1 0x60 ADD PUSH2 0x1E3 JUMP JUMPDEST PUSH2 0x1D9 PUSH2 0x3B0 CALLDATASIZE PUSH1 0x4 PUSH2 0x1A2F JUMP JUMPDEST PUSH2 0xCD2 JUMP JUMPDEST PUSH2 0x1D9 PUSH1 0x9 SLOAD DUP2 JUMP JUMPDEST PUSH2 0x256 PUSH2 0x3CC CALLDATASIZE PUSH1 0x4 PUSH2 0x18E7 JUMP JUMPDEST PUSH2 0xCFB JUMP JUMPDEST PUSH2 0x256 PUSH2 0x3DF CALLDATASIZE PUSH1 0x4 PUSH2 0x18E7 JUMP JUMPDEST PUSH2 0xE08 JUMP JUMPDEST PUSH2 0x256 PUSH2 0x3F2 CALLDATASIZE PUSH1 0x4 PUSH2 0x1989 JUMP JUMPDEST PUSH2 0xEB1 JUMP JUMPDEST PUSH2 0x1D9 PUSH2 0x405 CALLDATASIZE PUSH1 0x4 PUSH2 0x1A2F JUMP JUMPDEST PUSH2 0xFD6 JUMP JUMPDEST PUSH2 0x256 PUSH2 0x418 CALLDATASIZE PUSH1 0x4 PUSH2 0x1A5D JUMP JUMPDEST PUSH2 0x10FD JUMP JUMPDEST PUSH2 0x1D9 PUSH1 0x8 SLOAD DUP2 JUMP JUMPDEST PUSH1 0x4 SLOAD PUSH2 0x2FD SWAP1 PUSH1 0x1 PUSH1 0x1 PUSH1 0xA0 SHL SUB AND DUP2 JUMP JUMPDEST PUSH2 0x256 PUSH2 0x447 CALLDATASIZE PUSH1 0x4 PUSH2 0x196E JUMP JUMPDEST PUSH2 0x1220 JUMP JUMPDEST PUSH2 0x45F PUSH2 0x45A CALLDATASIZE PUSH1 0x4 PUSH2 0x1AA6 JUMP JUMPDEST PUSH2 0x125D JUMP JUMPDEST PUSH1 0x40 MLOAD PUSH2 0x1E3 SWAP3 SWAP2 SWAP1 PUSH2 0x1BA6 JUMP JUMPDEST PUSH1 0x5 DUP2 DUP2 SLOAD DUP2 LT PUSH2 0x47C JUMPI PUSH0 DUP1 REVERT JUMPDEST PUSH0 SWAP2 DUP3 MSTORE PUSH1 0x20 SWAP1 SWAP2 KECCAK256 PUSH1 0x5 SWAP1 SWAP2 MUL ADD DUP1 SLOAD PUSH1 0x1 DUP3 ADD SLOAD PUSH1 0x2 DUP4 ADD SLOAD PUSH1 0x3 DUP5 ADD SLOAD PUSH1 0x4 SWAP1 SWAP5 ADD SLOAD PUSH1 0x1 PUSH1 0x1 PUSH1 0xA0 SHL SUB SWAP1 SWAP4 AND SWAP5 POP SWAP1 SWAP3 SWAP1 SWAP2 DUP6 JUMP JUMPDEST PUSH2 0x4BE PUSH2 0x138E JUMP JUMPDEST DUP1 ISZERO PUSH2 0x4CC JUMPI PUSH2 0x4CC PUSH2 0xC14 JUMP JUMPDEST PUSH0 PUSH1 0x8 SLOAD TIMESTAMP GT PUSH2 0x4DE JUMPI PUSH1 0x8 SLOAD PUSH2 0x4E0 JUMP JUMPDEST TIMESTAMP JUMPDEST PUSH1 0x7 SLOAD SWAP1 SWAP2 POP PUSH2 0x4F0 SWAP1 DUP6 PUSH2 0x13E9 JUMP JUMPDEST PUSH1 0x7 SSTORE PUSH1 0x40 DUP1 MLOAD PUSH1 0xA0 DUP2 ADD DUP3 MSTORE PUSH1 0x1 PUSH1 0x1 PUSH1 0xA0 SHL SUB SWAP5 DUP6 AND DUP2 MSTORE PUSH1 0x20 DUP2 ADD SWAP6 DUP7 MSTORE SWAP1 DUP2 ADD SWAP2 DUP3 MSTORE PUSH0 PUSH1 0x60 DUP3 ADD DUP2 DUP2 MSTORE PUSH1 0x80 DUP4 ADD DUP3 DUP2 MSTORE PUSH1 0x5 DUP1 SLOAD PUSH1 0x1 DUP2 ADD DUP3 SSTORE SWAP4 DUP2 SWAP1 MSTORE SWAP4 MLOAD PUSH32 0x36B6384B5ECA791C62761152D0C79BB0604C104A5FB6F4EB0703F3154BB3DB0 SWAP4 SWAP1 SWAP5 MUL SWAP3 DUP4 ADD DUP1 SLOAD PUSH1 0x1 PUSH1 0x1 PUSH1 0xA0 SHL SUB NOT AND SWAP5 SWAP1 SWAP8 AND SWAP4 SWAP1 SWAP4 OR SWAP1 SWAP6 SSTORE SWAP5 MLOAD PUSH32 0x36B6384B5ECA791C62761152D0C79BB0604C104A5FB6F4EB0703F3154BB3DB1 DUP7 ADD SSTORE SWAP1 MLOAD PUSH32 0x36B6384B5ECA791C62761152D0C79BB0604C104A5FB6F4EB0703F3154BB3DB2 DUP6 ADD SSTORE SWAP2 MLOAD PUSH32 0x36B6384B5ECA791C62761152D0C79BB0604C104A5FB6F4EB0703F3154BB3DB3 DUP5 ADD SSTORE POP MLOAD PUSH32 0x36B6384B5ECA791C62761152D0C79BB0604C104A5FB6F4EB0703F3154BB3DB4 SWAP1 SWAP2 ADD SSTORE JUMP JUMPDEST PUSH2 0x618 PUSH2 0x138E JUMP JUMPDEST PUSH1 0x1 PUSH1 0x1 PUSH1 0xA0 SHL SUB DUP2 AND PUSH2 0x62A JUMPI PUSH0 DUP1 REVERT JUMPDEST PUSH1 0x4 DUP1 SLOAD PUSH1 0x1 PUSH1 0x1 PUSH1 0xA0 SHL SUB NOT AND PUSH1 0x1 PUSH1 0x1 PUSH1 0xA0 SHL SUB SWAP3 SWAP1 SWAP3 AND SWAP2 SWAP1 SWAP2 OR SWAP1 SSTORE JUMP JUMPDEST PUSH0 PUSH1 0x8 SLOAD TIMESTAMP GT PUSH2 0x65B JUMPI POP PUSH0 SWAP1 JUMP JUMPDEST PUSH0 PUSH1 0x9 SLOAD TIMESTAMP LT PUSH2 0x66D JUMPI PUSH1 0x9 SLOAD PUSH2 0x66F JUMP JUMPDEST TIMESTAMP JUMPDEST SWAP1 POP PUSH2 0x697 PUSH1 0x1 SLOAD PUSH2 0x691 PUSH1 0x8 SLOAD DUP5 PUSH2 0x688 SWAP2 SWAP1 PUSH2 0x1BE7 JUMP JUMPDEST PUSH1 0x2 SLOAD SWAP1 PUSH2 0x144E JUMP JUMPDEST SWAP1 PUSH2 0x14CC JUMP JUMPDEST SWAP2 POP POP SWAP1 JUMP JUMPDEST PUSH0 PUSH1 0x5 DUP4 DUP2 SLOAD DUP2 LT PUSH2 0x6B1 JUMPI PUSH2 0x6B1 PUSH2 0x1BFA JUMP JUMPDEST PUSH0 SWAP2 DUP3 MSTORE PUSH1 0x20 DUP1 DUP4 KECCAK256 DUP7 DUP5 MSTORE PUSH1 0x6 DUP3 MSTORE PUSH1 0x40 DUP1 DUP6 KECCAK256 CALLER DUP7 MSTORE SWAP1 SWAP3 MSTORE SWAP3 KECCAK256 PUSH1 0x2 DUP2 ADD SLOAD PUSH1 0x5 SWAP1 SWAP3 MUL SWAP1 SWAP3 ADD SWAP3 POP TIMESTAMP LT ISZERO PUSH2 0x74B JUMPI PUSH1 0x40 MLOAD PUSH3 0x461BCD PUSH1 0xE5 SHL DUP2 MSTORE PUSH1 0x20 PUSH1 0x4 DUP3 ADD MSTORE PUSH1 0x31 PUSH1 0x24 DUP3 ADD MSTORE PUSH32 0x4C6173742073616C6520796F75207265676973746572656420666F7220697320 PUSH1 0x44 DUP3 ADD MSTORE PUSH17 0x3737BA103334B734B9B432B2103CB2BA17 PUSH1 0x79 SHL PUSH1 0x64 DUP3 ADD MSTORE PUSH1 0x84 ADD JUMPDEST PUSH1 0x40 MLOAD DUP1 SWAP2 SUB SWAP1 REVERT JUMPDEST DUP1 SLOAD DUP4 GT ISZERO PUSH2 0x7AF JUMPI PUSH1 0x40 MLOAD PUSH3 0x461BCD PUSH1 0xE5 SHL DUP2 MSTORE PUSH1 0x20 PUSH1 0x4 DUP3 ADD MSTORE PUSH1 0x2A PUSH1 0x24 DUP3 ADD MSTORE PUSH32 0x77697468647261773A2063616E2774207769746864726177206D6F7265207468 PUSH1 0x44 DUP3 ADD MSTORE PUSH10 0x185B8819195C1BDCDA5D PUSH1 0xB2 SHL PUSH1 0x64 DUP3 ADD MSTORE PUSH1 0x84 ADD PUSH2 0x742 JUMP JUMPDEST PUSH2 0x7B8 DUP5 PUSH2 0x8AC JUMP JUMPDEST PUSH0 PUSH2 0x7F3 DUP3 PUSH1 0x1 ADD SLOAD PUSH2 0x691 PUSH11 0xC097CE7BC90715B34B9F1 PUSH1 0x24 SHL PUSH2 0x7ED DUP8 PUSH1 0x3 ADD SLOAD DUP8 PUSH0 ADD SLOAD PUSH2 0x144E SWAP1 SWAP2 SWAP1 PUSH4 0xFFFFFFFF AND JUMP JUMPDEST SWAP1 PUSH2 0x1527 JUMP JUMPDEST SWAP1 POP PUSH2 0x7FF CALLER DUP3 PUSH2 0x1581 JUMP JUMPDEST DUP2 SLOAD PUSH2 0x80B SWAP1 DUP6 PUSH2 0x14CC JUMP JUMPDEST DUP1 DUP4 SSTORE PUSH1 0x3 DUP5 ADD SLOAD PUSH2 0x831 SWAP2 PUSH11 0xC097CE7BC90715B34B9F1 PUSH1 0x24 SHL SWAP2 PUSH2 0x7ED SWAP2 SWAP1 PUSH2 0x144E JUMP JUMPDEST PUSH1 0x1 DUP4 ADD SSTORE DUP3 SLOAD PUSH2 0x84C SWAP1 PUSH1 0x1 PUSH1 0x1 PUSH1 0xA0 SHL SUB AND CALLER DUP7 PUSH2 0x160F JUMP JUMPDEST PUSH1 0x4 DUP4 ADD SLOAD PUSH2 0x85B SWAP1 DUP6 PUSH2 0x14CC JUMP JUMPDEST PUSH1 0x4 DUP5 ADD SSTORE DUP4 ISZERO PUSH2 0x86D JUMPI PUSH0 PUSH1 0x2 DUP4 ADD SSTORE JUMPDEST PUSH1 0x40 MLOAD DUP5 DUP2 MSTORE DUP6 SWAP1 CALLER SWAP1 PUSH32 0xF279E6A1F5E320CCA91135676D9CB6E44CA8A08C0B88342BCDB1144F6511B568 SWAP1 PUSH1 0x20 ADD JUMPDEST PUSH1 0x40 MLOAD DUP1 SWAP2 SUB SWAP1 LOG3 POP POP POP POP POP JUMP JUMPDEST PUSH0 PUSH1 0x5 DUP3 DUP2 SLOAD DUP2 LT PUSH2 0x8C0 JUMPI PUSH2 0x8C0 PUSH2 0x1BFA JUMP JUMPDEST SWAP1 PUSH0 MSTORE PUSH1 0x20 PUSH0 KECCAK256 SWAP1 PUSH1 0x5 MUL ADD SWAP1 POP PUSH0 PUSH1 0x9 SLOAD TIMESTAMP LT PUSH2 0x8E0 JUMPI PUSH1 0x9 SLOAD PUSH2 0x8E2 JUMP JUMPDEST TIMESTAMP JUMPDEST SWAP1 POP DUP2 PUSH1 0x2 ADD SLOAD DUP2 GT PUSH2 0x8F6 JUMPI POP PUSH1 0x2 DUP2 ADD SLOAD JUMPDEST PUSH1 0x4 DUP3 ADD SLOAD PUSH0 DUP2 SWAP1 SUB PUSH2 0x90D JUMPI POP PUSH1 0x2 SWAP1 SWAP2 ADD SSTORE POP JUMP JUMPDEST PUSH0 PUSH2 0x925 DUP5 PUSH1 0x2 ADD SLOAD DUP5 PUSH2 0x14CC SWAP1 SWAP2 SWAP1 PUSH4 0xFFFFFFFF AND JUMP JUMPDEST SWAP1 POP PUSH0 PUSH2 0x951 PUSH1 0x7 SLOAD PUSH2 0x7ED DUP8 PUSH1 0x1 ADD SLOAD PUSH2 0x94B PUSH1 0x2 SLOAD DUP8 PUSH2 0x144E SWAP1 SWAP2 SWAP1 PUSH4 0xFFFFFFFF AND JUMP JUMPDEST SWAP1 PUSH2 0x144E JUMP JUMPDEST SWAP1 POP PUSH2 0x97D PUSH2 0x972 DUP5 PUSH2 0x7ED DUP5 PUSH11 0xC097CE7BC90715B34B9F1 PUSH1 0x24 SHL PUSH2 0x144E JUMP JUMPDEST PUSH1 0x3 DUP8 ADD SLOAD SWAP1 PUSH2 0x13E9 JUMP JUMPDEST PUSH1 0x3 DUP7 ADD SSTORE POP POP POP PUSH1 0x2 SWAP1 SWAP2 ADD SSTORE POP JUMP JUMPDEST PUSH0 PUSH1 0x5 DUP3 DUP2 SLOAD DUP2 LT PUSH2 0x9A2 JUMPI PUSH2 0x9A2 PUSH2 0x1BFA JUMP JUMPDEST PUSH0 SWAP2 DUP3 MSTORE PUSH1 0x20 DUP1 DUP4 KECCAK256 DUP6 DUP5 MSTORE PUSH1 0x6 DUP3 MSTORE PUSH1 0x40 DUP1 DUP6 KECCAK256 CALLER DUP7 MSTORE SWAP1 SWAP3 MSTORE SWAP3 KECCAK256 PUSH1 0x2 DUP2 ADD SLOAD PUSH1 0x5 SWAP1 SWAP3 MUL SWAP1 SWAP3 ADD SWAP3 POP TIMESTAMP LT ISZERO PUSH2 0xA43 JUMPI PUSH1 0x40 MLOAD PUSH3 0x461BCD PUSH1 0xE5 SHL DUP2 MSTORE PUSH1 0x20 PUSH1 0x4 DUP3 ADD MSTORE PUSH1 0x3B PUSH1 0x24 DUP3 ADD MSTORE PUSH32 0x456D657267656E637920776974686472617720626C6F636B656420647572696E PUSH1 0x44 DUP3 ADD MSTORE PUSH32 0x672073616C6520616E6420636F6F6C646F776E20706572696F642E0000000000 PUSH1 0x64 DUP3 ADD MSTORE PUSH1 0x84 ADD PUSH2 0x742 JUMP JUMPDEST DUP1 SLOAD DUP3 SLOAD PUSH2 0xA5E SWAP2 PUSH1 0x1 PUSH1 0x1 PUSH1 0xA0 SHL SUB SWAP1 SWAP2 AND SWAP1 CALLER SWAP1 PUSH2 0x160F JUMP JUMPDEST DUP1 SLOAD PUSH1 0x40 MLOAD SWAP1 DUP2 MSTORE DUP4 SWAP1 CALLER SWAP1 PUSH32 0xBB757047C2B5F3974FE26B7C10F732E7BCE710B0952A71082702781E62AE0595 SWAP1 PUSH1 0x20 ADD PUSH1 0x40 MLOAD DUP1 SWAP2 SUB SWAP1 LOG3 DUP1 SLOAD PUSH1 0x4 DUP4 ADD SLOAD PUSH2 0xAA7 SWAP2 PUSH2 0x14CC JUMP JUMPDEST PUSH1 0x4 SWAP1 SWAP3 ADD SWAP2 SWAP1 SWAP2 SSTORE PUSH0 DUP1 DUP3 SSTORE PUSH1 0x1 DUP3 ADD DUP2 SWAP1 SSTORE PUSH1 0x2 SWAP1 SWAP2 ADD SSTORE POP JUMP JUMPDEST PUSH32 0xF0C57E16840DF040F15088DC2F81FE391C3923BEC73E23A9662EFC9C229C6A00 DUP1 SLOAD PUSH1 0x1 PUSH1 0x40 SHL DUP2 DIV PUSH1 0xFF AND ISZERO SWAP1 PUSH8 0xFFFFFFFFFFFFFFFF AND PUSH0 DUP2 ISZERO DUP1 ISZERO PUSH2 0xB09 JUMPI POP DUP3 JUMPDEST SWAP1 POP PUSH0 DUP3 PUSH8 0xFFFFFFFFFFFFFFFF AND PUSH1 0x1 EQ DUP1 ISZERO PUSH2 0xB25 JUMPI POP ADDRESS EXTCODESIZE ISZERO JUMPDEST SWAP1 POP DUP2 ISZERO DUP1 ISZERO PUSH2 0xB33 JUMPI POP DUP1 ISZERO JUMPDEST ISZERO PUSH2 0xB51 JUMPI PUSH1 0x40 MLOAD PUSH4 0xF92EE8A9 PUSH1 0xE0 SHL DUP2 MSTORE PUSH1 0x4 ADD PUSH1 0x40 MLOAD DUP1 SWAP2 SUB SWAP1 REVERT JUMPDEST DUP5 SLOAD PUSH8 0xFFFFFFFFFFFFFFFF NOT AND PUSH1 0x1 OR DUP6 SSTORE DUP4 ISZERO PUSH2 0xB7B JUMPI DUP5 SLOAD PUSH1 0xFF PUSH1 0x40 SHL NOT AND PUSH1 0x1 PUSH1 0x40 SHL OR DUP6 SSTORE JUMPDEST PUSH2 0xB84 DUP11 PUSH2 0x1673 JUMP JUMPDEST PUSH0 DUP1 SLOAD PUSH1 0x1 PUSH1 0x1 PUSH1 0xA0 SHL SUB DUP1 DUP13 AND PUSH1 0x1 PUSH1 0x1 PUSH1 0xA0 SHL SUB NOT SWAP3 DUP4 AND OR SWAP1 SWAP3 SSTORE PUSH1 0x2 DUP11 SWAP1 SSTORE PUSH1 0x8 DUP10 SWAP1 SSTORE PUSH1 0x9 DUP10 SWAP1 SSTORE PUSH1 0x4 DUP1 SLOAD SWAP3 DUP10 AND SWAP3 SWAP1 SWAP2 AND SWAP2 SWAP1 SWAP2 OR SWAP1 SSTORE DUP4 ISZERO PUSH2 0xC08 JUMPI DUP5 SLOAD PUSH1 0xFF PUSH1 0x40 SHL NOT AND DUP6 SSTORE PUSH1 0x40 MLOAD PUSH1 0x1 DUP2 MSTORE PUSH32 0xC7F505B2F371AE2175EE4913F4499E1F2633A7B5936321EED1CDAEB6115181D2 SWAP1 PUSH1 0x20 ADD PUSH1 0x40 MLOAD DUP1 SWAP2 SUB SWAP1 LOG1 JUMPDEST POP POP POP POP POP POP POP POP POP POP JUMP JUMPDEST PUSH1 0x5 SLOAD PUSH0 JUMPDEST DUP2 DUP2 LT ISZERO PUSH2 0xC32 JUMPI PUSH2 0xC2A DUP2 PUSH2 0x8AC JUMP JUMPDEST PUSH1 0x1 ADD PUSH2 0xC19 JUMP JUMPDEST POP POP JUMP JUMPDEST PUSH2 0xC3E PUSH2 0x138E JUMP JUMPDEST DUP1 ISZERO PUSH2 0xC4C JUMPI PUSH2 0xC4C PUSH2 0xC14 JUMP JUMPDEST PUSH2 0xC8D DUP3 PUSH2 0xC87 PUSH1 0x5 DUP7 DUP2 SLOAD DUP2 LT PUSH2 0xC66 JUMPI PUSH2 0xC66 PUSH2 0x1BFA JUMP JUMPDEST SWAP1 PUSH0 MSTORE PUSH1 0x20 PUSH0 KECCAK256 SWAP1 PUSH1 0x5 MUL ADD PUSH1 0x1 ADD SLOAD PUSH1 0x7 SLOAD PUSH2 0x14CC SWAP1 SWAP2 SWAP1 PUSH4 0xFFFFFFFF AND JUMP JUMPDEST SWAP1 PUSH2 0x13E9 JUMP JUMPDEST PUSH1 0x7 DUP2 SWAP1 SSTORE POP DUP2 PUSH1 0x5 DUP5 DUP2 SLOAD DUP2 LT PUSH2 0xCA7 JUMPI PUSH2 0xCA7 PUSH2 0x1BFA JUMP JUMPDEST SWAP1 PUSH0 MSTORE PUSH1 0x20 PUSH0 KECCAK256 SWAP1 PUSH1 0x5 MUL ADD PUSH1 0x1 ADD DUP2 SWAP1 SSTORE POP POP POP POP JUMP JUMPDEST PUSH2 0xCC7 PUSH2 0x138E JUMP JUMPDEST PUSH2 0xCD0 PUSH0 PUSH2 0x1684 JUMP JUMPDEST JUMP JUMPDEST PUSH0 DUP3 DUP2 MSTORE PUSH1 0x6 PUSH1 0x20 SWAP1 DUP2 MSTORE PUSH1 0x40 DUP1 DUP4 KECCAK256 PUSH1 0x1 PUSH1 0x1 PUSH1 0xA0 SHL SUB DUP6 AND DUP5 MSTORE SWAP1 SWAP2 MSTORE SWAP1 KECCAK256 SLOAD JUMPDEST SWAP3 SWAP2 POP POP JUMP JUMPDEST PUSH0 PUSH1 0x5 DUP3 DUP2 SLOAD DUP2 LT PUSH2 0xD0F JUMPI PUSH2 0xD0F PUSH2 0x1BFA JUMP JUMPDEST PUSH0 SWAP2 DUP3 MSTORE PUSH1 0x20 DUP1 DUP4 KECCAK256 DUP6 DUP5 MSTORE PUSH1 0x6 DUP3 MSTORE PUSH1 0x40 DUP1 DUP6 KECCAK256 CALLER DUP7 MSTORE SWAP1 SWAP3 MSTORE SWAP3 KECCAK256 PUSH1 0x5 SWAP1 SWAP2 MUL SWAP1 SWAP2 ADD SWAP2 POP PUSH2 0xD3F DUP4 PUSH2 0x8AC JUMP JUMPDEST PUSH0 PUSH2 0xD74 DUP3 PUSH1 0x1 ADD SLOAD PUSH2 0x691 PUSH11 0xC097CE7BC90715B34B9F1 PUSH1 0x24 SHL PUSH2 0x7ED DUP8 PUSH1 0x3 ADD SLOAD DUP8 PUSH0 ADD SLOAD PUSH2 0x144E SWAP1 SWAP2 SWAP1 PUSH4 0xFFFFFFFF AND JUMP JUMPDEST DUP3 SLOAD SWAP1 SWAP2 POP PUSH2 0xD83 SWAP1 DUP3 PUSH2 0x13E9 JUMP JUMPDEST DUP1 DUP4 SSTORE PUSH1 0x3 DUP5 ADD SLOAD PUSH2 0xDA9 SWAP2 PUSH11 0xC097CE7BC90715B34B9F1 PUSH1 0x24 SHL SWAP2 PUSH2 0x7ED SWAP2 SWAP1 PUSH2 0x144E JUMP JUMPDEST PUSH1 0x1 DUP4 ADD SSTORE PUSH1 0x4 DUP4 ADD SLOAD PUSH2 0xDBD SWAP1 DUP3 PUSH2 0x13E9 JUMP JUMPDEST PUSH1 0x4 DUP5 ADD SSTORE DUP2 SLOAD PUSH1 0x40 DUP1 MLOAD DUP4 DUP2 MSTORE PUSH1 0x20 DUP2 ADD SWAP3 SWAP1 SWAP3 MSTORE DUP6 SWAP2 CALLER SWAP2 PUSH32 0x92F0BDF80F3916A4279540865E94EF327CF48639092106CCA4BDDC9BB1DE4A86 SWAP2 ADD PUSH1 0x40 MLOAD DUP1 SWAP2 SUB SWAP1 LOG3 POP POP POP POP JUMP JUMPDEST PUSH1 0x9 SLOAD TIMESTAMP LT PUSH2 0xE64 JUMPI PUSH1 0x40 MLOAD PUSH3 0x461BCD PUSH1 0xE5 SHL DUP2 MSTORE PUSH1 0x20 PUSH1 0x4 DUP3 ADD MSTORE PUSH1 0x22 PUSH1 0x24 DUP3 ADD MSTORE PUSH32 0x66756E643A20746F6F206C6174652C20746865206661726D20697320636C6F73 PUSH1 0x44 DUP3 ADD MSTORE PUSH2 0x1959 PUSH1 0xF2 SHL PUSH1 0x64 DUP3 ADD MSTORE PUSH1 0x84 ADD PUSH2 0x742 JUMP JUMPDEST PUSH0 SLOAD PUSH2 0xE7B SWAP1 PUSH1 0x1 PUSH1 0x1 PUSH1 0xA0 SHL SUB AND CALLER ADDRESS DUP5 PUSH2 0x16F4 JUMP JUMPDEST PUSH1 0x2 SLOAD PUSH2 0xE89 SWAP1 DUP3 SWAP1 PUSH2 0x1527 JUMP JUMPDEST PUSH1 0x9 PUSH0 DUP3 DUP3 SLOAD PUSH2 0xE99 SWAP2 SWAP1 PUSH2 0x1C0E JUMP JUMPDEST SWAP1 SWAP2 SSTORE POP POP PUSH1 0x3 SLOAD PUSH2 0xEAB SWAP1 DUP3 PUSH2 0x13E9 JUMP JUMPDEST PUSH1 0x3 SSTORE POP JUMP JUMPDEST PUSH0 PUSH1 0x5 DUP4 DUP2 SLOAD DUP2 LT PUSH2 0xEC5 JUMPI PUSH2 0xEC5 PUSH2 0x1BFA JUMP JUMPDEST PUSH0 SWAP2 DUP3 MSTORE PUSH1 0x20 DUP1 DUP4 KECCAK256 DUP7 DUP5 MSTORE PUSH1 0x6 DUP3 MSTORE PUSH1 0x40 DUP1 DUP6 KECCAK256 CALLER DUP7 MSTORE SWAP1 SWAP3 MSTORE SWAP3 KECCAK256 PUSH1 0x5 SWAP1 SWAP2 MUL SWAP1 SWAP2 ADD SWAP2 POP DUP3 PUSH2 0xEF6 DUP6 PUSH2 0x8AC JUMP JUMPDEST DUP2 SLOAD ISZERO PUSH2 0xF40 JUMPI PUSH0 PUSH2 0xF32 DUP4 PUSH1 0x1 ADD SLOAD PUSH2 0x691 PUSH11 0xC097CE7BC90715B34B9F1 PUSH1 0x24 SHL PUSH2 0x7ED DUP9 PUSH1 0x3 ADD SLOAD DUP9 PUSH0 ADD SLOAD PUSH2 0x144E SWAP1 SWAP2 SWAP1 PUSH4 0xFFFFFFFF AND JUMP JUMPDEST SWAP1 POP PUSH2 0xF3E CALLER DUP3 PUSH2 0x1581 JUMP JUMPDEST POP JUMPDEST DUP3 SLOAD PUSH2 0xF57 SWAP1 PUSH1 0x1 PUSH1 0x1 PUSH1 0xA0 SHL SUB AND CALLER ADDRESS DUP8 PUSH2 0x16F4 JUMP JUMPDEST PUSH1 0x4 DUP4 ADD SLOAD PUSH2 0xF66 SWAP1 DUP3 PUSH2 0x13E9 JUMP JUMPDEST PUSH1 0x4 DUP5 ADD SSTORE DUP2 SLOAD PUSH2 0xF77 SWAP1 DUP3 PUSH2 0x13E9 JUMP JUMPDEST DUP1 DUP4 SSTORE PUSH1 0x3 DUP5 ADD SLOAD PUSH2 0xF9D SWAP2 PUSH11 0xC097CE7BC90715B34B9F1 PUSH1 0x24 SHL SWAP2 PUSH2 0x7ED SWAP2 SWAP1 PUSH2 0x144E JUMP JUMPDEST PUSH1 0x1 DUP4 ADD SSTORE PUSH1 0x40 MLOAD DUP2 DUP2 MSTORE DUP6 SWAP1 CALLER SWAP1 PUSH32 0x90890809C654F11D6E72A28FA60149770A0D11EC6C92319D6CEB2BB0A4EA1A15 SWAP1 PUSH1 0x20 ADD PUSH2 0x89D JUMP JUMPDEST PUSH0 DUP1 PUSH1 0x5 DUP5 DUP2 SLOAD DUP2 LT PUSH2 0xFEB JUMPI PUSH2 0xFEB PUSH2 0x1BFA JUMP JUMPDEST PUSH0 SWAP2 DUP3 MSTORE PUSH1 0x20 DUP1 DUP4 KECCAK256 DUP8 DUP5 MSTORE PUSH1 0x6 DUP3 MSTORE PUSH1 0x40 DUP1 DUP6 KECCAK256 PUSH1 0x1 PUSH1 0x1 PUSH1 0xA0 SHL SUB DUP10 AND DUP7 MSTORE SWAP1 SWAP3 MSTORE SWAP3 KECCAK256 PUSH1 0x3 PUSH1 0x5 SWAP1 SWAP3 MUL SWAP1 SWAP3 ADD SWAP1 DUP2 ADD SLOAD PUSH1 0x4 DUP3 ADD SLOAD PUSH1 0x2 DUP4 ADD SLOAD SWAP3 SWAP5 POP SWAP1 SWAP2 TIMESTAMP GT DUP1 ISZERO PUSH2 0x103B JUMPI POP DUP1 ISZERO ISZERO JUMPDEST ISZERO PUSH2 0x10C2 JUMPI PUSH0 PUSH1 0x9 SLOAD TIMESTAMP LT PUSH2 0x1052 JUMPI PUSH1 0x9 SLOAD PUSH2 0x1054 JUMP JUMPDEST TIMESTAMP JUMPDEST SWAP1 POP PUSH0 PUSH2 0x106E DUP7 PUSH1 0x2 ADD SLOAD DUP4 PUSH2 0x14CC SWAP1 SWAP2 SWAP1 PUSH4 0xFFFFFFFF AND JUMP JUMPDEST SWAP1 POP PUSH0 PUSH2 0x1094 PUSH1 0x7 SLOAD PUSH2 0x7ED DUP10 PUSH1 0x1 ADD SLOAD PUSH2 0x94B PUSH1 0x2 SLOAD DUP8 PUSH2 0x144E SWAP1 SWAP2 SWAP1 PUSH4 0xFFFFFFFF AND JUMP JUMPDEST SWAP1 POP PUSH2 0x10BC PUSH2 0x10B5 DUP6 PUSH2 0x7ED DUP5 PUSH11 0xC097CE7BC90715B34B9F1 PUSH1 0x24 SHL PUSH2 0x144E JUMP JUMPDEST DUP7 SWAP1 PUSH2 0x13E9 JUMP JUMPDEST SWAP5 POP POP POP POP JUMPDEST PUSH2 0x10F2 DUP4 PUSH1 0x1 ADD SLOAD PUSH2 0x691 PUSH11 0xC097CE7BC90715B34B9F1 PUSH1 0x24 SHL PUSH2 0x7ED DUP7 DUP9 PUSH0 ADD SLOAD PUSH2 0x144E SWAP1 SWAP2 SWAP1 PUSH4 0xFFFFFFFF AND JUMP JUMPDEST SWAP8 SWAP7 POP POP POP POP POP POP POP JUMP JUMPDEST PUSH1 0x4 DUP1 SLOAD PUSH1 0x40 MLOAD PUSH4 0x1400493D PUSH1 0xE3 SHL DUP2 MSTORE CALLER SWAP3 DUP2 ADD SWAP3 SWAP1 SWAP3 MSTORE PUSH1 0x1 PUSH1 0x1 PUSH1 0xA0 SHL SUB AND SWAP1 PUSH4 0xA00249E8 SWAP1 PUSH1 0x24 ADD PUSH1 0x20 PUSH1 0x40 MLOAD DUP1 DUP4 SUB DUP2 DUP7 GAS STATICCALL ISZERO DUP1 ISZERO PUSH2 0x1144 JUMPI RETURNDATASIZE PUSH0 DUP1 RETURNDATACOPY RETURNDATASIZE PUSH0 REVERT JUMPDEST POP POP POP POP PUSH1 0x40 MLOAD RETURNDATASIZE PUSH1 0x1F NOT PUSH1 0x1F DUP3 ADD AND DUP3 ADD DUP1 PUSH1 0x40 MSTORE POP DUP2 ADD SWAP1 PUSH2 0x1168 SWAP2 SWAP1 PUSH2 0x1C21 JUMP JUMPDEST PUSH2 0x11BE JUMPI PUSH1 0x40 MLOAD PUSH3 0x461BCD PUSH1 0xE5 SHL DUP2 MSTORE PUSH1 0x20 PUSH1 0x4 DUP3 ADD MSTORE PUSH1 0x21 PUSH1 0x24 DUP3 ADD MSTORE PUSH32 0x53616C65206E6F742063726561746564207468726F75676820666163746F7279 PUSH1 0x44 DUP3 ADD MSTORE PUSH1 0x17 PUSH1 0xF9 SHL PUSH1 0x64 DUP3 ADD MSTORE PUSH1 0x84 ADD PUSH2 0x742 JUMP JUMPDEST PUSH0 DUP4 DUP2 MSTORE PUSH1 0x6 PUSH1 0x20 SWAP1 DUP2 MSTORE PUSH1 0x40 DUP1 DUP4 KECCAK256 PUSH1 0x1 PUSH1 0x1 PUSH1 0xA0 SHL SUB DUP7 AND DUP5 MSTORE SWAP1 SWAP2 MSTORE SWAP1 KECCAK256 PUSH1 0x2 DUP2 ADD SLOAD TIMESTAMP LT ISZERO PUSH2 0x11EF JUMPI PUSH0 DUP1 REVERT JUMPDEST PUSH1 0x2 DUP2 ADD SWAP2 SWAP1 SWAP2 SSTORE PUSH1 0x3 ADD DUP1 SLOAD PUSH1 0x1 DUP2 ADD DUP3 SSTORE PUSH0 SWAP2 DUP3 MSTORE PUSH1 0x20 SWAP1 SWAP2 KECCAK256 ADD DUP1 SLOAD PUSH1 0x1 PUSH1 0x1 PUSH1 0xA0 SHL SUB NOT AND CALLER OR SWAP1 SSTORE POP POP JUMP JUMPDEST PUSH2 0x1228 PUSH2 0x138E JUMP JUMPDEST PUSH1 0x1 PUSH1 0x1 PUSH1 0xA0 SHL SUB DUP2 AND PUSH2 0x1251 JUMPI PUSH1 0x40 MLOAD PUSH4 0x1E4FBDF7 PUSH1 0xE0 SHL DUP2 MSTORE PUSH0 PUSH1 0x4 DUP3 ADD MSTORE PUSH1 0x24 ADD PUSH2 0x742 JUMP JUMPDEST PUSH2 0x125A DUP2 PUSH2 0x1684 JUMP JUMPDEST POP JUMP JUMPDEST PUSH1 0x60 DUP1 PUSH0 DUP5 MLOAD PUSH8 0xFFFFFFFFFFFFFFFF DUP2 GT ISZERO PUSH2 0x127B JUMPI PUSH2 0x127B PUSH2 0x1A92 JUMP JUMPDEST PUSH1 0x40 MLOAD SWAP1 DUP1 DUP3 MSTORE DUP1 PUSH1 0x20 MUL PUSH1 0x20 ADD DUP3 ADD PUSH1 0x40 MSTORE DUP1 ISZERO PUSH2 0x12A4 JUMPI DUP2 PUSH1 0x20 ADD PUSH1 0x20 DUP3 MUL DUP1 CALLDATASIZE DUP4 CALLDATACOPY ADD SWAP1 POP JUMPDEST POP SWAP1 POP PUSH0 DUP6 MLOAD PUSH8 0xFFFFFFFFFFFFFFFF DUP2 GT ISZERO PUSH2 0x12C2 JUMPI PUSH2 0x12C2 PUSH2 0x1A92 JUMP JUMPDEST PUSH1 0x40 MLOAD SWAP1 DUP1 DUP3 MSTORE DUP1 PUSH1 0x20 MUL PUSH1 0x20 ADD DUP3 ADD PUSH1 0x40 MSTORE DUP1 ISZERO PUSH2 0x12EB JUMPI DUP2 PUSH1 0x20 ADD PUSH1 0x20 DUP3 MUL DUP1 CALLDATASIZE DUP4 CALLDATACOPY ADD SWAP1 POP JUMPDEST POP SWAP1 POP PUSH0 JUMPDEST DUP7 MLOAD DUP2 LT ISZERO PUSH2 0x1382 JUMPI PUSH2 0x131C DUP7 DUP9 DUP4 DUP2 MLOAD DUP2 LT PUSH2 0x130F JUMPI PUSH2 0x130F PUSH2 0x1BFA JUMP JUMPDEST PUSH1 0x20 MUL PUSH1 0x20 ADD ADD MLOAD PUSH2 0xCD2 JUMP JUMPDEST DUP4 DUP3 DUP2 MLOAD DUP2 LT PUSH2 0x132E JUMPI PUSH2 0x132E PUSH2 0x1BFA JUMP JUMPDEST PUSH1 0x20 MUL PUSH1 0x20 ADD ADD DUP2 DUP2 MSTORE POP POP PUSH2 0x135D DUP7 DUP9 DUP4 DUP2 MLOAD DUP2 LT PUSH2 0x1350 JUMPI PUSH2 0x1350 PUSH2 0x1BFA JUMP JUMPDEST PUSH1 0x20 MUL PUSH1 0x20 ADD ADD MLOAD PUSH2 0xFD6 JUMP JUMPDEST DUP3 DUP3 DUP2 MLOAD DUP2 LT PUSH2 0x136F JUMPI PUSH2 0x136F PUSH2 0x1BFA JUMP JUMPDEST PUSH1 0x20 SWAP1 DUP2 MUL SWAP2 SWAP1 SWAP2 ADD ADD MSTORE PUSH1 0x1 ADD PUSH2 0x12F0 JUMP JUMPDEST POP SWAP1 SWAP6 SWAP1 SWAP5 POP SWAP3 POP POP POP JUMP JUMPDEST CALLER PUSH2 0x13C0 PUSH32 0x9016D09D72D40FDAE2FD8CEAC6B6234C7706214FD39C1CD1E609A0528C199300 SLOAD PUSH1 0x1 PUSH1 0x1 PUSH1 0xA0 SHL SUB AND SWAP1 JUMP JUMPDEST PUSH1 0x1 PUSH1 0x1 PUSH1 0xA0 SHL SUB AND EQ PUSH2 0xCD0 JUMPI PUSH1 0x40 MLOAD PUSH4 0x118CDAA7 PUSH1 0xE0 SHL DUP2 MSTORE CALLER PUSH1 0x4 DUP3 ADD MSTORE PUSH1 0x24 ADD PUSH2 0x742 JUMP JUMPDEST PUSH0 DUP1 PUSH2 0x13F5 DUP4 DUP6 PUSH2 0x1C0E JUMP JUMPDEST SWAP1 POP DUP4 DUP2 LT ISZERO PUSH2 0x1447 JUMPI PUSH1 0x40 MLOAD PUSH3 0x461BCD PUSH1 0xE5 SHL DUP2 MSTORE PUSH1 0x20 PUSH1 0x4 DUP3 ADD MSTORE PUSH1 0x1B PUSH1 0x24 DUP3 ADD MSTORE PUSH32 0x536166654D6174683A206164646974696F6E206F766572666C6F770000000000 PUSH1 0x44 DUP3 ADD MSTORE PUSH1 0x64 ADD PUSH2 0x742 JUMP JUMPDEST SWAP4 SWAP3 POP POP POP JUMP JUMPDEST PUSH0 DUP3 PUSH0 SUB PUSH2 0x145D JUMPI POP PUSH0 PUSH2 0xCF5 JUMP JUMPDEST PUSH0 PUSH2 0x1468 DUP4 DUP6 PUSH2 0x1C3C JUMP JUMPDEST SWAP1 POP DUP3 PUSH2 0x1475 DUP6 DUP4 PUSH2 0x1C53 JUMP JUMPDEST EQ PUSH2 0x1447 JUMPI PUSH1 0x40 MLOAD PUSH3 0x461BCD PUSH1 0xE5 SHL DUP2 MSTORE PUSH1 0x20 PUSH1 0x4 DUP3 ADD MSTORE PUSH1 0x21 PUSH1 0x24 DUP3 ADD MSTORE PUSH32 0x536166654D6174683A206D756C7469706C69636174696F6E206F766572666C6F PUSH1 0x44 DUP3 ADD MSTORE PUSH1 0x77 PUSH1 0xF8 SHL PUSH1 0x64 DUP3 ADD MSTORE PUSH1 0x84 ADD PUSH2 0x742 JUMP JUMPDEST PUSH0 DUP3 DUP3 GT ISZERO PUSH2 0x151D JUMPI PUSH1 0x40 MLOAD PUSH3 0x461BCD PUSH1 0xE5 SHL DUP2 MSTORE PUSH1 0x20 PUSH1 0x4 DUP3 ADD MSTORE PUSH1 0x1E PUSH1 0x24 DUP3 ADD MSTORE PUSH32 0x536166654D6174683A207375627472616374696F6E206F766572666C6F770000 PUSH1 0x44 DUP3 ADD MSTORE PUSH1 0x64 ADD PUSH2 0x742 JUMP JUMPDEST PUSH2 0x1447 DUP3 DUP5 PUSH2 0x1BE7 JUMP JUMPDEST PUSH0 DUP1 DUP3 GT PUSH2 0x1577 JUMPI PUSH1 0x40 MLOAD PUSH3 0x461BCD PUSH1 0xE5 SHL DUP2 MSTORE PUSH1 0x20 PUSH1 0x4 DUP3 ADD MSTORE PUSH1 0x1A PUSH1 0x24 DUP3 ADD MSTORE PUSH32 0x536166654D6174683A206469766973696F6E206279207A65726F000000000000 PUSH1 0x44 DUP3 ADD MSTORE PUSH1 0x64 ADD PUSH2 0x742 JUMP JUMPDEST PUSH2 0x1447 DUP3 DUP5 PUSH2 0x1C53 JUMP JUMPDEST PUSH0 SLOAD PUSH1 0x40 MLOAD PUSH4 0xA9059CBB PUSH1 0xE0 SHL DUP2 MSTORE PUSH1 0x1 PUSH1 0x1 PUSH1 0xA0 SHL SUB DUP5 DUP2 AND PUSH1 0x4 DUP4 ADD MSTORE PUSH1 0x24 DUP3 ADD DUP5 SWAP1 MSTORE SWAP1 SWAP2 AND SWAP1 PUSH4 0xA9059CBB SWAP1 PUSH1 0x44 ADD PUSH1 0x20 PUSH1 0x40 MLOAD DUP1 DUP4 SUB DUP2 PUSH0 DUP8 GAS CALL ISZERO DUP1 ISZERO PUSH2 0x15D0 JUMPI RETURNDATASIZE PUSH0 DUP1 RETURNDATACOPY RETURNDATASIZE PUSH0 REVERT JUMPDEST POP POP POP POP PUSH1 0x40 MLOAD RETURNDATASIZE PUSH1 0x1F NOT PUSH1 0x1F DUP3 ADD AND DUP3 ADD DUP1 PUSH1 0x40 MSTORE POP DUP2 ADD SWAP1 PUSH2 0x15F4 SWAP2 SWAP1 PUSH2 0x1C21 JUMP JUMPDEST POP DUP1 PUSH1 0x1 PUSH0 DUP3 DUP3 SLOAD PUSH2 0x1606 SWAP2 SWAP1 PUSH2 0x1C0E JUMP JUMPDEST SWAP1 SWAP2 SSTORE POP POP POP POP JUMP JUMPDEST PUSH1 0x40 MLOAD PUSH1 0x1 PUSH1 0x1 PUSH1 0xA0 SHL SUB DUP4 DUP2 AND PUSH1 0x24 DUP4 ADD MSTORE PUSH1 0x44 DUP3 ADD DUP4 SWAP1 MSTORE PUSH2 0x166E SWAP2 DUP6 SWAP2 DUP3 AND SWAP1 PUSH4 0xA9059CBB SWAP1 PUSH1 0x64 ADD JUMPDEST PUSH1 0x40 MLOAD PUSH1 0x20 DUP2 DUP4 SUB SUB DUP2 MSTORE SWAP1 PUSH1 0x40 MSTORE SWAP2 POP PUSH1 0xE0 SHL PUSH1 0x20 DUP3 ADD DUP1 MLOAD PUSH1 0x1 PUSH1 0x1 PUSH1 0xE0 SHL SUB DUP4 DUP2 DUP4 AND OR DUP4 MSTORE POP POP POP POP PUSH2 0x1733 JUMP JUMPDEST POP POP POP JUMP JUMPDEST PUSH2 0x167B PUSH2 0x1794 JUMP JUMPDEST PUSH2 0x125A DUP2 PUSH2 0x17DD JUMP JUMPDEST PUSH32 0x9016D09D72D40FDAE2FD8CEAC6B6234C7706214FD39C1CD1E609A0528C199300 DUP1 SLOAD PUSH1 0x1 PUSH1 0x1 PUSH1 0xA0 SHL SUB NOT DUP2 AND PUSH1 0x1 PUSH1 0x1 PUSH1 0xA0 SHL SUB DUP5 DUP2 AND SWAP2 DUP3 OR DUP5 SSTORE PUSH1 0x40 MLOAD SWAP3 AND SWAP2 DUP3 SWAP1 PUSH32 0x8BE0079C531659141344CD1FD0A4F28419497F9722A3DAAFE3B4186F6B6457E0 SWAP1 PUSH0 SWAP1 LOG3 POP POP POP JUMP JUMPDEST PUSH1 0x40 MLOAD PUSH1 0x1 PUSH1 0x1 PUSH1 0xA0 SHL SUB DUP5 DUP2 AND PUSH1 0x24 DUP4 ADD MSTORE DUP4 DUP2 AND PUSH1 0x44 DUP4 ADD MSTORE PUSH1 0x64 DUP3 ADD DUP4 SWAP1 MSTORE PUSH2 0x172D SWAP2 DUP7 SWAP2 DUP3 AND SWAP1 PUSH4 0x23B872DD SWAP1 PUSH1 0x84 ADD PUSH2 0x163C JUMP JUMPDEST POP POP POP POP JUMP JUMPDEST PUSH0 PUSH2 0x1747 PUSH1 0x1 PUSH1 0x1 PUSH1 0xA0 SHL SUB DUP5 AND DUP4 PUSH2 0x17E5 JUMP JUMPDEST SWAP1 POP DUP1 MLOAD PUSH0 EQ ISZERO DUP1 ISZERO PUSH2 0x176B JUMPI POP DUP1 DUP1 PUSH1 0x20 ADD SWAP1 MLOAD DUP2 ADD SWAP1 PUSH2 0x1769 SWAP2 SWAP1 PUSH2 0x1C21 JUMP JUMPDEST ISZERO JUMPDEST ISZERO PUSH2 0x166E JUMPI PUSH1 0x40 MLOAD PUSH4 0x5274AFE7 PUSH1 0xE0 SHL DUP2 MSTORE PUSH1 0x1 PUSH1 0x1 PUSH1 0xA0 SHL SUB DUP5 AND PUSH1 0x4 DUP3 ADD MSTORE PUSH1 0x24 ADD PUSH2 0x742 JUMP JUMPDEST PUSH32 0xF0C57E16840DF040F15088DC2F81FE391C3923BEC73E23A9662EFC9C229C6A00 SLOAD PUSH1 0x1 PUSH1 0x40 SHL SWAP1 DIV PUSH1 0xFF AND PUSH2 0xCD0 JUMPI PUSH1 0x40 MLOAD PUSH4 0x1AFCD79F PUSH1 0xE3 SHL DUP2 MSTORE PUSH1 0x4 ADD PUSH1 0x40 MLOAD DUP1 SWAP2 SUB SWAP1 REVERT JUMPDEST PUSH2 0x1228 PUSH2 0x1794 JUMP JUMPDEST PUSH1 0x60 PUSH2 0x1447 DUP4 DUP4 PUSH0 DUP5 PUSH0 DUP1 DUP6 PUSH1 0x1 PUSH1 0x1 PUSH1 0xA0 SHL SUB AND DUP5 DUP7 PUSH1 0x40 MLOAD PUSH2 0x1809 SWAP2 SWAP1 PUSH2 0x1C72 JUMP JUMPDEST PUSH0 PUSH1 0x40 MLOAD DUP1 DUP4 SUB DUP2 DUP6 DUP8 GAS CALL SWAP3 POP POP POP RETURNDATASIZE DUP1 PUSH0 DUP2 EQ PUSH2 0x1843 JUMPI PUSH1 0x40 MLOAD SWAP2 POP PUSH1 0x1F NOT PUSH1 0x3F RETURNDATASIZE ADD AND DUP3 ADD PUSH1 0x40 MSTORE RETURNDATASIZE DUP3 MSTORE RETURNDATASIZE PUSH0 PUSH1 0x20 DUP5 ADD RETURNDATACOPY PUSH2 0x1848 JUMP JUMPDEST PUSH1 0x60 SWAP2 POP JUMPDEST POP SWAP2 POP SWAP2 POP PUSH2 0x1858 DUP7 DUP4 DUP4 PUSH2 0x1862 JUMP JUMPDEST SWAP7 SWAP6 POP POP POP POP POP POP JUMP JUMPDEST PUSH1 0x60 DUP3 PUSH2 0x1877 JUMPI PUSH2 0x1872 DUP3 PUSH2 0x18BE JUMP JUMPDEST PUSH2 0x1447 JUMP JUMPDEST DUP2 MLOAD ISZERO DUP1 ISZERO PUSH2 0x188E JUMPI POP PUSH1 0x1 PUSH1 0x1 PUSH1 0xA0 SHL SUB DUP5 AND EXTCODESIZE ISZERO JUMPDEST ISZERO PUSH2 0x18B7 JUMPI PUSH1 0x40 MLOAD PUSH4 0x9996B315 PUSH1 0xE0 SHL DUP2 MSTORE PUSH1 0x1 PUSH1 0x1 PUSH1 0xA0 SHL SUB DUP6 AND PUSH1 0x4 DUP3 ADD MSTORE PUSH1 0x24 ADD PUSH2 0x742 JUMP JUMPDEST POP DUP1 PUSH2 0x1447 JUMP JUMPDEST DUP1 MLOAD ISZERO PUSH2 0x18CE JUMPI DUP1 MLOAD DUP1 DUP3 PUSH1 0x20 ADD REVERT JUMPDEST PUSH1 0x40 MLOAD PUSH4 0xA12F521 PUSH1 0xE1 SHL DUP2 MSTORE PUSH1 0x4 ADD PUSH1 0x40 MLOAD DUP1 SWAP2 SUB SWAP1 REVERT JUMPDEST PUSH0 PUSH1 0x20 DUP3 DUP5 SUB SLT ISZERO PUSH2 0x18F7 JUMPI PUSH0 DUP1 REVERT JUMPDEST POP CALLDATALOAD SWAP2 SWAP1 POP JUMP JUMPDEST PUSH1 0x1 PUSH1 0x1 PUSH1 0xA0 SHL SUB DUP2 AND DUP2 EQ PUSH2 0x125A JUMPI PUSH0 DUP1 REVERT JUMPDEST DUP1 ISZERO ISZERO DUP2 EQ PUSH2 0x125A JUMPI PUSH0 DUP1 REVERT JUMPDEST PUSH0 DUP1 PUSH0 PUSH1 0x60 DUP5 DUP7 SUB SLT ISZERO PUSH2 0x1931 JUMPI PUSH0 DUP1 REVERT JUMPDEST DUP4 CALLDATALOAD SWAP3 POP PUSH1 0x20 DUP5 ADD CALLDATALOAD PUSH2 0x1943 DUP2 PUSH2 0x18FE JUMP JUMPDEST SWAP2 POP PUSH1 0x40 DUP5 ADD CALLDATALOAD PUSH2 0x1953 DUP2 PUSH2 0x1912 JUMP JUMPDEST DUP1 SWAP2 POP POP SWAP3 POP SWAP3 POP SWAP3 JUMP JUMPDEST DUP1 CALLDATALOAD PUSH2 0x1969 DUP2 PUSH2 0x18FE JUMP JUMPDEST SWAP2 SWAP1 POP JUMP JUMPDEST PUSH0 PUSH1 0x20 DUP3 DUP5 SUB SLT ISZERO PUSH2 0x197E JUMPI PUSH0 DUP1 REVERT JUMPDEST DUP2 CALLDATALOAD PUSH2 0x1447 DUP2 PUSH2 0x18FE JUMP JUMPDEST PUSH0 DUP1 PUSH1 0x40 DUP4 DUP6 SUB SLT ISZERO PUSH2 0x199A JUMPI PUSH0 DUP1 REVERT JUMPDEST POP POP DUP1 CALLDATALOAD SWAP3 PUSH1 0x20 SWAP1 SWAP2 ADD CALLDATALOAD SWAP2 POP JUMP JUMPDEST PUSH0 DUP1 PUSH0 DUP1 PUSH0 PUSH1 0xA0 DUP7 DUP9 SUB SLT ISZERO PUSH2 0x19BD JUMPI PUSH0 DUP1 REVERT JUMPDEST DUP6 CALLDATALOAD PUSH2 0x19C8 DUP2 PUSH2 0x18FE JUMP JUMPDEST SWAP5 POP PUSH1 0x20 DUP7 ADD CALLDATALOAD PUSH2 0x19D8 DUP2 PUSH2 0x18FE JUMP JUMPDEST SWAP4 POP PUSH1 0x40 DUP7 ADD CALLDATALOAD SWAP3 POP PUSH1 0x60 DUP7 ADD CALLDATALOAD SWAP2 POP PUSH1 0x80 DUP7 ADD CALLDATALOAD PUSH2 0x19F6 DUP2 PUSH2 0x18FE JUMP JUMPDEST DUP1 SWAP2 POP POP SWAP3 SWAP6 POP SWAP3 SWAP6 SWAP1 SWAP4 POP JUMP JUMPDEST PUSH0 DUP1 PUSH0 PUSH1 0x60 DUP5 DUP7 SUB SLT ISZERO PUSH2 0x1A16 JUMPI PUSH0 DUP1 REVERT JUMPDEST DUP4 CALLDATALOAD SWAP3 POP PUSH1 0x20 DUP5 ADD CALLDATALOAD SWAP2 POP PUSH1 0x40 DUP5 ADD CALLDATALOAD PUSH2 0x1953 DUP2 PUSH2 0x1912 JUMP JUMPDEST PUSH0 DUP1 PUSH1 0x40 DUP4 DUP6 SUB SLT ISZERO PUSH2 0x1A40 JUMPI PUSH0 DUP1 REVERT JUMPDEST DUP3 CALLDATALOAD SWAP2 POP PUSH1 0x20 DUP4 ADD CALLDATALOAD PUSH2 0x1A52 DUP2 PUSH2 0x18FE JUMP JUMPDEST DUP1 SWAP2 POP POP SWAP3 POP SWAP3 SWAP1 POP JUMP JUMPDEST PUSH0 DUP1 PUSH0 PUSH1 0x60 DUP5 DUP7 SUB SLT ISZERO PUSH2 0x1A6F JUMPI PUSH0 DUP1 REVERT JUMPDEST DUP4 CALLDATALOAD SWAP3 POP PUSH1 0x20 DUP5 ADD CALLDATALOAD PUSH2 0x1A81 DUP2 PUSH2 0x18FE JUMP JUMPDEST SWAP3 SWAP6 SWAP3 SWAP5 POP POP POP PUSH1 0x40 SWAP2 SWAP1 SWAP2 ADD CALLDATALOAD SWAP1 JUMP JUMPDEST PUSH4 0x4E487B71 PUSH1 0xE0 SHL PUSH0 MSTORE PUSH1 0x41 PUSH1 0x4 MSTORE PUSH1 0x24 PUSH0 REVERT JUMPDEST PUSH0 DUP1 PUSH1 0x40 DUP4 DUP6 SUB SLT ISZERO PUSH2 0x1AB7 JUMPI PUSH0 DUP1 REVERT JUMPDEST DUP3 CALLDATALOAD PUSH8 0xFFFFFFFFFFFFFFFF DUP1 DUP3 GT ISZERO PUSH2 0x1ACE JUMPI PUSH0 DUP1 REVERT JUMPDEST DUP2 DUP6 ADD SWAP2 POP DUP6 PUSH1 0x1F DUP4 ADD SLT PUSH2 0x1AE1 JUMPI PUSH0 DUP1 REVERT JUMPDEST DUP2 CALLDATALOAD PUSH1 0x20 DUP3 DUP3 GT ISZERO PUSH2 0x1AF5 JUMPI PUSH2 0x1AF5 PUSH2 0x1A92 JUMP JUMPDEST DUP2 PUSH1 0x5 SHL PUSH1 0x40 MLOAD PUSH1 0x1F NOT PUSH1 0x3F DUP4 ADD AND DUP2 ADD DUP2 DUP2 LT DUP7 DUP3 GT OR ISZERO PUSH2 0x1B1A JUMPI PUSH2 0x1B1A PUSH2 0x1A92 JUMP JUMPDEST PUSH1 0x40 MSTORE SWAP3 DUP4 MSTORE DUP2 DUP4 ADD SWAP4 POP DUP5 DUP2 ADD DUP3 ADD SWAP3 DUP10 DUP5 GT ISZERO PUSH2 0x1B37 JUMPI PUSH0 DUP1 REVERT JUMPDEST SWAP5 DUP3 ADD SWAP5 JUMPDEST DUP4 DUP7 LT ISZERO PUSH2 0x1B5C JUMPI PUSH2 0x1B4D DUP7 PUSH2 0x195E JUMP JUMPDEST DUP6 MSTORE SWAP5 DUP3 ADD SWAP5 SWAP4 DUP3 ADD SWAP4 PUSH2 0x1B3C JUMP JUMPDEST SWAP10 SWAP8 SWAP1 SWAP2 ADD CALLDATALOAD SWAP8 POP POP POP POP POP POP POP JUMP JUMPDEST PUSH0 DUP2 MLOAD DUP1 DUP5 MSTORE PUSH1 0x20 DUP1 DUP6 ADD SWAP5 POP PUSH1 0x20 DUP5 ADD PUSH0 JUMPDEST DUP4 DUP2 LT ISZERO PUSH2 0x1B9B JUMPI DUP2 MLOAD DUP8 MSTORE SWAP6 DUP3 ADD SWAP6 SWAP1 DUP3 ADD SWAP1 PUSH1 0x1 ADD PUSH2 0x1B7F JUMP JUMPDEST POP SWAP5 SWAP6 SWAP5 POP POP POP POP POP JUMP JUMPDEST PUSH1 0x40 DUP2 MSTORE PUSH0 PUSH2 0x1BB8 PUSH1 0x40 DUP4 ADD DUP6 PUSH2 0x1B6C JUMP JUMPDEST DUP3 DUP2 SUB PUSH1 0x20 DUP5 ADD MSTORE PUSH2 0x1BCA DUP2 DUP6 PUSH2 0x1B6C JUMP JUMPDEST SWAP6 SWAP5 POP POP POP POP POP JUMP JUMPDEST PUSH4 0x4E487B71 PUSH1 0xE0 SHL PUSH0 MSTORE PUSH1 0x11 PUSH1 0x4 MSTORE PUSH1 0x24 PUSH0 REVERT JUMPDEST DUP2 DUP2 SUB DUP2 DUP2 GT ISZERO PUSH2 0xCF5 JUMPI PUSH2 0xCF5 PUSH2 0x1BD3 JUMP JUMPDEST PUSH4 0x4E487B71 PUSH1 0xE0 SHL PUSH0 MSTORE PUSH1 0x32 PUSH1 0x4 MSTORE PUSH1 0x24 PUSH0 REVERT JUMPDEST DUP1 DUP3 ADD DUP1 DUP3 GT ISZERO PUSH2 0xCF5 JUMPI PUSH2 0xCF5 PUSH2 0x1BD3 JUMP JUMPDEST PUSH0 PUSH1 0x20 DUP3 DUP5 SUB SLT ISZERO PUSH2 0x1C31 JUMPI PUSH0 DUP1 REVERT JUMPDEST DUP2 MLOAD PUSH2 0x1447 DUP2 PUSH2 0x1912 JUMP JUMPDEST DUP1 DUP3 MUL DUP2 ISZERO DUP3 DUP3 DIV DUP5 EQ OR PUSH2 0xCF5 JUMPI PUSH2 0xCF5 PUSH2 0x1BD3 JUMP JUMPDEST PUSH0 DUP3 PUSH2 0x1C6D JUMPI PUSH4 0x4E487B71 PUSH1 0xE0 SHL PUSH0 MSTORE PUSH1 0x12 PUSH1 0x4 MSTORE PUSH1 0x24 PUSH0 REVERT JUMPDEST POP DIV SWAP1 JUMP JUMPDEST PUSH0 DUP3 MLOAD PUSH0 JUMPDEST DUP2 DUP2 LT ISZERO PUSH2 0x1C91 JUMPI PUSH1 0x20 DUP2 DUP7 ADD DUP2 ADD MLOAD DUP6 DUP4 ADD MSTORE ADD PUSH2 0x1C77 JUMP JUMPDEST POP PUSH0 SWAP3 ADD SWAP2 DUP3 MSTORE POP SWAP2 SWAP1 POP JUMP INVALID LOG2 PUSH5 0x6970667358 0x22 SLT KECCAK256 ADDRESS BLOBHASH 0xD4 0xD7 0xF6 0xAB PUSH15 0xEB7A3C8F4DCD6E72906C35301870D4 EXTCODEHASH 0xA6 0xF8 PUSH22 0xC73F174CBEE064736F6C634300081800330000000000 "
		},
		"gasEstimates": {
			"creation": {
				"codeDepositCost": "1476000",
				"executionCost": "1539",
				"totalCost": "1477539"
			},
			"external": {
				"add(uint256,address,bool)": "infinite",
				"compound(uint256)": "infinite",
				"deposit(uint256,uint256)": "infinite",
				"deposited(uint256,address)": "2707",
				"emergencyWithdraw(uint256)": "infinite",
				"endTimestamp()": "2372",
				"erc20()": "2381",
				"fund(uint256)": "infinite",
				"getPendingAndDepositedForUsers(address[],uint256)": "infinite",
				"initialize(address,address,uint256,uint256,address)": "infinite",
				"massUpdatePools()": "infinite",
				"owner()": "2398",
				"paidOut()": "2328",
				"pending(uint256,address)": "infinite",
				"poolInfo(uint256)": "13257",
				"poolLength()": "2316",
				"renounceOwnership()": "infinite",
				"rewardPerSecond()": "2373",
				"salesFactory()": "2402",
				"set(uint256,uint256,bool)": "infinite",
				"setSalesFactory(address)": "26885",
				"setTokensUnlockTime(uint256,address,uint256)": "infinite",
				"startTimestamp()": "2327",
				"totalAllocPoint()": "2329",
				"totalPending()": "infinite",
				"totalRewards()": "2352",
				"transferOwnership(address)": "infinite",
				"updatePool(uint256)": "infinite",
				"userInfo(uint256,address)": "6933",
				"withdraw(uint256,uint256)": "infinite"
			},
			"internal": {
				"erc20Transfer(address,uint256)": "infinite"
			}
		},
		"methodIdentifiers": {
			"add(uint256,address,bool)": "1eaaa045",
			"compound(uint256)": "aa5f7e26",
			"deposit(uint256,uint256)": "e2bbb158",
			"deposited(uint256,address)": "a2383106",
			"emergencyWithdraw(uint256)": "5312ea8e",
			"endTimestamp()": "a85adeab",
			"erc20()": "785e9e86",
			"fund(uint256)": "ca1d209d",
			"getPendingAndDepositedForUsers(address[],uint256)": "fcfc1b14",
			"initialize(address,address,uint256,uint256,address)": "57fb25cc",
			"massUpdatePools()": "630b5ba1",
			"owner()": "8da5cb5b",
			"paidOut()": "5c76ca2d",
			"pending(uint256,address)": "e4c75c27",
			"poolInfo(uint256)": "1526fe27",
			"poolLength()": "081e3eda",
			"renounceOwnership()": "715018a6",
			"rewardPerSecond()": "8f10369a",
			"salesFactory()": "ed95f07f",
			"set(uint256,uint256,bool)": "64482f79",
			"setSalesFactory(address)": "3dfcb861",
			"setTokensUnlockTime(uint256,address,uint256)": "e6f04acc",
			"startTimestamp()": "e6fd48bc",
			"totalAllocPoint()": "17caf6f1",
			"totalPending()": "3f90916a",
			"totalRewards()": "0e15561a",
			"transferOwnership(address)": "f2fde38b",
			"updatePool(uint256)": "51eb05a6",
			"userInfo(uint256,address)": "93f1a40b",
			"withdraw(uint256,uint256)": "441a3e70"
		}
	},
	"abi": [
		{
			"inputs": [
				{
					"internalType": "address",
					"name": "target",
					"type": "address"
				}
			],
			"name": "AddressEmptyCode",
			"type": "error"
		},
		{
			"inputs": [
				{
					"internalType": "address",
					"name": "account",
					"type": "address"
				}
			],
			"name": "AddressInsufficientBalance",
			"type": "error"
		},
		{
			"inputs": [],
			"name": "FailedInnerCall",
			"type": "error"
		},
		{
			"inputs": [],
			"name": "InvalidInitialization",
			"type": "error"
		},
		{
			"inputs": [],
			"name": "NotInitializing",
			"type": "error"
		},
		{
			"inputs": [
				{
					"internalType": "address",
					"name": "owner",
					"type": "address"
				}
			],
			"name": "OwnableInvalidOwner",
			"type": "error"
		},
		{
			"inputs": [
				{
					"internalType": "address",
					"name": "account",
					"type": "address"
				}
			],
			"name": "OwnableUnauthorizedAccount",
			"type": "error"
		},
		{
			"inputs": [
				{
					"internalType": "address",
					"name": "token",
					"type": "address"
				}
			],
			"name": "SafeERC20FailedOperation",
			"type": "error"
		},
		{
			"anonymous": false,
			"inputs": [
				{
					"indexed": true,
					"internalType": "address",
					"name": "user",
					"type": "address"
				},
				{
					"indexed": true,
					"internalType": "uint256",
					"name": "pid",
					"type": "uint256"
				},
				{
					"indexed": false,
					"internalType": "uint256",
					"name": "amountAdded",
					"type": "uint256"
				},
				{
					"indexed": false,
					"internalType": "uint256",
					"name": "totalDeposited",
					"type": "uint256"
				}
			],
			"name": "CompoundedEarnings",
			"type": "event"
		},
		{
			"anonymous": false,
			"inputs": [
				{
					"indexed": true,
					"internalType": "address",
					"name": "user",
					"type": "address"
				},
				{
					"indexed": true,
					"internalType": "uint256",
					"name": "pid",
					"type": "uint256"
				},
				{
					"indexed": false,
					"internalType": "uint256",
					"name": "amount",
					"type": "uint256"
				}
			],
			"name": "Deposit",
			"type": "event"
		},
		{
			"anonymous": false,
			"inputs": [
				{
					"indexed": true,
					"internalType": "address",
					"name": "user",
					"type": "address"
				},
				{
					"indexed": true,
					"internalType": "uint256",
					"name": "pid",
					"type": "uint256"
				},
				{
					"indexed": false,
					"internalType": "uint256",
					"name": "amount",
					"type": "uint256"
				}
			],
			"name": "EmergencyWithdraw",
			"type": "event"
		},
		{
			"anonymous": false,
			"inputs": [
				{
					"indexed": false,
					"internalType": "uint64",
					"name": "version",
					"type": "uint64"
				}
			],
			"name": "Initialized",
			"type": "event"
		},
		{
			"anonymous": false,
			"inputs": [
				{
					"indexed": true,
					"internalType": "address",
					"name": "previousOwner",
					"type": "address"
				},
				{
					"indexed": true,
					"internalType": "address",
					"name": "newOwner",
					"type": "address"
				}
			],
			"name": "OwnershipTransferred",
			"type": "event"
		},
		{
			"anonymous": false,
			"inputs": [
				{
					"indexed": true,
					"internalType": "address",
					"name": "user",
					"type": "address"
				},
				{
					"indexed": true,
					"internalType": "uint256",
					"name": "pid",
					"type": "uint256"
				},
				{
					"indexed": false,
					"internalType": "uint256",
					"name": "amount",
					"type": "uint256"
				}
			],
			"name": "Withdraw",
			"type": "event"
		},
		{
			"inputs": [
				{
					"internalType": "uint256",
					"name": "_allocPoint",
					"type": "uint256"
				},
				{
					"internalType": "contract IERC20",
					"name": "_lpToken",
					"type": "address"
				},
				{
					"internalType": "bool",
					"name": "_withUpdate",
					"type": "bool"
				}
			],
			"name": "add",
			"outputs": [],
			"stateMutability": "nonpayable",
			"type": "function"
		},
		{
			"inputs": [
				{
					"internalType": "uint256",
					"name": "_pid",
					"type": "uint256"
				}
			],
			"name": "compound",
			"outputs": [],
			"stateMutability": "nonpayable",
			"type": "function"
		},
		{
			"inputs": [
				{
					"internalType": "uint256",
					"name": "_pid",
					"type": "uint256"
				},
				{
					"internalType": "uint256",
					"name": "_amount",
					"type": "uint256"
				}
			],
			"name": "deposit",
			"outputs": [],
			"stateMutability": "nonpayable",
			"type": "function"
		},
		{
			"inputs": [
				{
					"internalType": "uint256",
					"name": "_pid",
					"type": "uint256"
				},
				{
					"internalType": "address",
					"name": "_user",
					"type": "address"
				}
			],
			"name": "deposited",
			"outputs": [
				{
					"internalType": "uint256",
					"name": "",
					"type": "uint256"
				}
			],
			"stateMutability": "view",
			"type": "function"
		},
		{
			"inputs": [
				{
					"internalType": "uint256",
					"name": "_pid",
					"type": "uint256"
				}
			],
			"name": "emergencyWithdraw",
			"outputs": [],
			"stateMutability": "nonpayable",
			"type": "function"
		},
		{
			"inputs": [],
			"name": "endTimestamp",
			"outputs": [
				{
					"internalType": "uint256",
					"name": "",
					"type": "uint256"
				}
			],
			"stateMutability": "view",
			"type": "function"
		},
		{
			"inputs": [],
			"name": "erc20",
			"outputs": [
				{
					"internalType": "contract IERC20",
					"name": "",
					"type": "address"
				}
			],
			"stateMutability": "view",
			"type": "function"
		},
		{
			"inputs": [
				{
					"internalType": "uint256",
					"name": "_amount",
					"type": "uint256"
				}
			],
			"name": "fund",
			"outputs": [],
			"stateMutability": "nonpayable",
			"type": "function"
		},
		{
			"inputs": [
				{
					"internalType": "address[]",
					"name": "users",
					"type": "address[]"
				},
				{
					"internalType": "uint256",
					"name": "pid",
					"type": "uint256"
				}
			],
			"name": "getPendingAndDepositedForUsers",
			"outputs": [
				{
					"internalType": "uint256[]",
					"name": "",
					"type": "uint256[]"
				},
				{
					"internalType": "uint256[]",
					"name": "",
					"type": "uint256[]"
				}
			],
			"stateMutability": "view",
			"type": "function"
		},
		{
			"inputs": [
				{
					"internalType": "address",
					"name": "_ownable",
					"type": "address"
				},
				{
					"internalType": "contract IERC20",
					"name": "_erc20",
					"type": "address"
				},
				{
					"internalType": "uint256",
					"name": "_rewardPerSecond",
					"type": "uint256"
				},
				{
					"internalType": "uint256",
					"name": "_startTimestamp",
					"type": "uint256"
				},
				{
					"internalType": "address",
					"name": "_salesFactory",
					"type": "address"
				}
			],
			"name": "initialize",
			"outputs": [],
			"stateMutability": "nonpayable",
			"type": "function"
		},
		{
			"inputs": [],
			"name": "massUpdatePools",
			"outputs": [],
			"stateMutability": "nonpayable",
			"type": "function"
		},
		{
			"inputs": [],
			"name": "owner",
			"outputs": [
				{
					"internalType": "address",
					"name": "",
					"type": "address"
				}
			],
			"stateMutability": "view",
			"type": "function"
		},
		{
			"inputs": [],
			"name": "paidOut",
			"outputs": [
				{
					"internalType": "uint256",
					"name": "",
					"type": "uint256"
				}
			],
			"stateMutability": "view",
			"type": "function"
		},
		{
			"inputs": [
				{
					"internalType": "uint256",
					"name": "_pid",
					"type": "uint256"
				},
				{
					"internalType": "address",
					"name": "_user",
					"type": "address"
				}
			],
			"name": "pending",
			"outputs": [
				{
					"internalType": "uint256",
					"name": "",
					"type": "uint256"
				}
			],
			"stateMutability": "view",
			"type": "function"
		},
		{
			"inputs": [
				{
					"internalType": "uint256",
					"name": "",
					"type": "uint256"
				}
			],
			"name": "poolInfo",
			"outputs": [
				{
					"internalType": "contract IERC20",
					"name": "lpToken",
					"type": "address"
				},
				{
					"internalType": "uint256",
					"name": "allocPoint",
					"type": "uint256"
				},
				{
					"internalType": "uint256",
					"name": "lastRewardTimestamp",
					"type": "uint256"
				},
				{
					"internalType": "uint256",
					"name": "accERC20PerShare",
					"type": "uint256"
				},
				{
					"internalType": "uint256",
					"name": "totalDeposits",
					"type": "uint256"
				}
			],
			"stateMutability": "view",
			"type": "function"
		},
		{
			"inputs": [],
			"name": "poolLength",
			"outputs": [
				{
					"internalType": "uint256",
					"name": "",
					"type": "uint256"
				}
			],
			"stateMutability": "view",
			"type": "function"
		},
		{
			"inputs": [],
			"name": "renounceOwnership",
			"outputs": [],
			"stateMutability": "nonpayable",
			"type": "function"
		},
		{
			"inputs": [],
			"name": "rewardPerSecond",
			"outputs": [
				{
					"internalType": "uint256",
					"name": "",
					"type": "uint256"
				}
			],
			"stateMutability": "view",
			"type": "function"
		},
		{
			"inputs": [],
			"name": "salesFactory",
			"outputs": [
				{
					"internalType": "contract ISalesFactory",
					"name": "",
					"type": "address"
				}
			],
			"stateMutability": "view",
			"type": "function"
		},
		{
			"inputs": [
				{
					"internalType": "uint256",
					"name": "_pid",
					"type": "uint256"
				},
				{
					"internalType": "uint256",
					"name": "_allocPoint",
					"type": "uint256"
				},
				{
					"internalType": "bool",
					"name": "_withUpdate",
					"type": "bool"
				}
			],
			"name": "set",
			"outputs": [],
			"stateMutability": "nonpayable",
			"type": "function"
		},
		{
			"inputs": [
				{
					"internalType": "address",
					"name": "_salesFactory",
					"type": "address"
				}
			],
			"name": "setSalesFactory",
			"outputs": [],
			"stateMutability": "nonpayable",
			"type": "function"
		},
		{
			"inputs": [
				{
					"internalType": "uint256",
					"name": "_pid",
					"type": "uint256"
				},
				{
					"internalType": "address",
					"name": "_user",
					"type": "address"
				},
				{
					"internalType": "uint256",
					"name": "_tokensUnlockTime",
					"type": "uint256"
				}
			],
			"name": "setTokensUnlockTime",
			"outputs": [],
			"stateMutability": "nonpayable",
			"type": "function"
		},
		{
			"inputs": [],
			"name": "startTimestamp",
			"outputs": [
				{
					"internalType": "uint256",
					"name": "",
					"type": "uint256"
				}
			],
			"stateMutability": "view",
			"type": "function"
		},
		{
			"inputs": [],
			"name": "totalAllocPoint",
			"outputs": [
				{
					"internalType": "uint256",
					"name": "",
					"type": "uint256"
				}
			],
			"stateMutability": "view",
			"type": "function"
		},
		{
			"inputs": [],
			"name": "totalPending",
			"outputs": [
				{
					"internalType": "uint256",
					"name": "",
					"type": "uint256"
				}
			],
			"stateMutability": "view",
			"type": "function"
		},
		{
			"inputs": [],
			"name": "totalRewards",
			"outputs": [
				{
					"internalType": "uint256",
					"name": "",
					"type": "uint256"
				}
			],
			"stateMutability": "view",
			"type": "function"
		},
		{
			"inputs": [
				{
					"internalType": "address",
					"name": "newOwner",
					"type": "address"
				}
			],
			"name": "transferOwnership",
			"outputs": [],
			"stateMutability": "nonpayable",
			"type": "function"
		},
		{
			"inputs": [
				{
					"internalType": "uint256",
					"name": "_pid",
					"type": "uint256"
				}
			],
			"name": "updatePool",
			"outputs": [],
			"stateMutability": "nonpayable",
			"type": "function"
		},
		{
			"inputs": [
				{
					"internalType": "uint256",
					"name": "",
					"type": "uint256"
				},
				{
					"internalType": "address",
					"name": "",
					"type": "address"
				}
			],
			"name": "userInfo",
			"outputs": [
				{
					"internalType": "uint256",
					"name": "amount",
					"type": "uint256"
				},
				{
					"internalType": "uint256",
					"name": "rewardDebt",
					"type": "uint256"
				},
				{
					"internalType": "uint256",
					"name": "tokensUnlockTime",
					"type": "uint256"
				}
			],
			"stateMutability": "view",
			"type": "function"
		},
		{
			"inputs": [
				{
					"internalType": "uint256",
					"name": "_pid",
					"type": "uint256"
				},
				{
					"internalType": "uint256",
					"name": "_amount",
					"type": "uint256"
				}
			],
			"name": "withdraw",
			"outputs": [],
			"stateMutability": "nonpayable",
			"type": "function"
		}
	]
}